{
  "contractName": "Marketplace",
  "abi": [
    {
      "constant": false,
      "inputs": [],
      "name": "claimOwnership",
      "outputs": [],
      "payable": false,
      "stateMutability": "nonpayable",
      "type": "function"
    },
    {
      "constant": false,
      "inputs": [],
      "name": "renounceOwnership",
      "outputs": [],
      "payable": false,
      "stateMutability": "nonpayable",
      "type": "function"
    },
    {
      "constant": true,
      "inputs": [
        {
          "name": "",
          "type": "bytes32"
        }
      ],
      "name": "products",
      "outputs": [
        {
          "name": "id",
          "type": "bytes32"
        },
        {
          "name": "name",
          "type": "string"
        },
        {
          "name": "owner",
          "type": "address"
        },
        {
          "name": "beneficiary",
          "type": "address"
        },
        {
          "name": "pricePerSecond",
          "type": "uint256"
        },
        {
          "name": "priceCurrency",
          "type": "uint8"
        },
        {
          "name": "minimumSubscriptionSeconds",
          "type": "uint256"
        },
        {
          "name": "state",
          "type": "uint8"
        },
        {
          "name": "newOwnerCandidate",
          "type": "address"
        }
      ],
      "payable": false,
      "stateMutability": "view",
      "type": "function"
    },
    {
      "constant": true,
      "inputs": [],
      "name": "datacoin",
      "outputs": [
        {
          "name": "",
          "type": "address"
        }
      ],
      "payable": false,
      "stateMutability": "view",
      "type": "function"
    },
    {
      "constant": true,
      "inputs": [],
      "name": "currencyUpdateAgent",
      "outputs": [
        {
          "name": "",
          "type": "address"
        }
      ],
      "payable": false,
      "stateMutability": "view",
      "type": "function"
    },
    {
      "constant": true,
      "inputs": [],
      "name": "owner",
      "outputs": [
        {
          "name": "",
          "type": "address"
        }
      ],
      "payable": false,
      "stateMutability": "view",
      "type": "function"
    },
    {
      "constant": true,
      "inputs": [],
      "name": "halted",
      "outputs": [
        {
          "name": "",
          "type": "bool"
        }
      ],
      "payable": false,
      "stateMutability": "view",
      "type": "function"
    },
    {
      "constant": true,
      "inputs": [],
      "name": "dataPerUsd",
      "outputs": [
        {
          "name": "",
          "type": "uint256"
        }
      ],
      "payable": false,
      "stateMutability": "view",
      "type": "function"
    },
    {
      "constant": true,
      "inputs": [],
      "name": "pendingOwner",
      "outputs": [
        {
          "name": "",
          "type": "address"
        }
      ],
      "payable": false,
      "stateMutability": "view",
      "type": "function"
    },
    {
      "constant": false,
      "inputs": [
        {
          "name": "newOwner",
          "type": "address"
        }
      ],
      "name": "transferOwnership",
      "outputs": [],
      "payable": false,
      "stateMutability": "nonpayable",
      "type": "function"
    },
    {
      "inputs": [
        {
          "name": "datacoinAddress",
          "type": "address"
        },
        {
          "name": "currencyUpdateAgentAddress",
          "type": "address"
        }
      ],
      "payable": false,
      "stateMutability": "nonpayable",
      "type": "constructor"
    },
    {
      "anonymous": false,
      "inputs": [
        {
          "indexed": true,
          "name": "owner",
          "type": "address"
        },
        {
          "indexed": true,
          "name": "id",
          "type": "bytes32"
        },
        {
          "indexed": false,
          "name": "name",
          "type": "string"
        },
        {
          "indexed": false,
          "name": "beneficiary",
          "type": "address"
        },
        {
          "indexed": false,
          "name": "pricePerSecond",
          "type": "uint256"
        },
        {
          "indexed": false,
          "name": "currency",
          "type": "uint8"
        },
        {
          "indexed": false,
          "name": "minimumSubscriptionSeconds",
          "type": "uint256"
        }
      ],
      "name": "ProductCreated",
      "type": "event"
    },
    {
      "anonymous": false,
      "inputs": [
        {
          "indexed": true,
          "name": "owner",
          "type": "address"
        },
        {
          "indexed": true,
          "name": "id",
          "type": "bytes32"
        },
        {
          "indexed": false,
          "name": "name",
          "type": "string"
        },
        {
          "indexed": false,
          "name": "beneficiary",
          "type": "address"
        },
        {
          "indexed": false,
          "name": "pricePerSecond",
          "type": "uint256"
        },
        {
          "indexed": false,
          "name": "currency",
          "type": "uint8"
        },
        {
          "indexed": false,
          "name": "minimumSubscriptionSeconds",
          "type": "uint256"
        }
      ],
      "name": "ProductUpdated",
      "type": "event"
    },
    {
      "anonymous": false,
      "inputs": [
        {
          "indexed": true,
          "name": "owner",
          "type": "address"
        },
        {
          "indexed": true,
          "name": "id",
          "type": "bytes32"
        },
        {
          "indexed": false,
          "name": "name",
          "type": "string"
        },
        {
          "indexed": false,
          "name": "beneficiary",
          "type": "address"
        },
        {
          "indexed": false,
          "name": "pricePerSecond",
          "type": "uint256"
        },
        {
          "indexed": false,
          "name": "currency",
          "type": "uint8"
        },
        {
          "indexed": false,
          "name": "minimumSubscriptionSeconds",
          "type": "uint256"
        }
      ],
      "name": "ProductDeleted",
      "type": "event"
    },
    {
      "anonymous": false,
      "inputs": [
        {
          "indexed": true,
          "name": "owner",
          "type": "address"
        },
        {
          "indexed": true,
          "name": "id",
          "type": "bytes32"
        },
        {
          "indexed": false,
          "name": "name",
          "type": "string"
        },
        {
          "indexed": false,
          "name": "beneficiary",
          "type": "address"
        },
        {
          "indexed": false,
          "name": "pricePerSecond",
          "type": "uint256"
        },
        {
          "indexed": false,
          "name": "currency",
          "type": "uint8"
        },
        {
          "indexed": false,
          "name": "minimumSubscriptionSeconds",
          "type": "uint256"
        }
      ],
      "name": "ProductRedeployed",
      "type": "event"
    },
    {
      "anonymous": false,
      "inputs": [
        {
          "indexed": true,
          "name": "owner",
          "type": "address"
        },
        {
          "indexed": true,
          "name": "id",
          "type": "bytes32"
        },
        {
          "indexed": true,
          "name": "to",
          "type": "address"
        }
      ],
      "name": "ProductOwnershipOffered",
      "type": "event"
    },
    {
      "anonymous": false,
      "inputs": [
        {
          "indexed": true,
          "name": "newOwner",
          "type": "address"
        },
        {
          "indexed": true,
          "name": "id",
          "type": "bytes32"
        },
        {
          "indexed": true,
          "name": "oldOwner",
          "type": "address"
        }
      ],
      "name": "ProductOwnershipChanged",
      "type": "event"
    },
    {
      "anonymous": false,
      "inputs": [
        {
          "indexed": true,
          "name": "productId",
          "type": "bytes32"
        },
        {
          "indexed": true,
          "name": "subscriber",
          "type": "address"
        },
        {
          "indexed": false,
          "name": "endTimestamp",
          "type": "uint256"
        }
      ],
      "name": "Subscribed",
      "type": "event"
    },
    {
      "anonymous": false,
      "inputs": [
        {
          "indexed": true,
          "name": "productId",
          "type": "bytes32"
        },
        {
          "indexed": true,
          "name": "subscriber",
          "type": "address"
        },
        {
          "indexed": false,
          "name": "endTimestamp",
          "type": "uint256"
        }
      ],
      "name": "NewSubscription",
      "type": "event"
    },
    {
      "anonymous": false,
      "inputs": [
        {
          "indexed": true,
          "name": "productId",
          "type": "bytes32"
        },
        {
          "indexed": true,
          "name": "subscriber",
          "type": "address"
        },
        {
          "indexed": false,
          "name": "endTimestamp",
          "type": "uint256"
        }
      ],
      "name": "SubscriptionExtended",
      "type": "event"
    },
    {
      "anonymous": false,
      "inputs": [
        {
          "indexed": true,
          "name": "productId",
          "type": "bytes32"
        },
        {
          "indexed": true,
          "name": "from",
          "type": "address"
        },
        {
          "indexed": true,
          "name": "to",
          "type": "address"
        },
        {
          "indexed": false,
          "name": "secondsTransferred",
          "type": "uint256"
        }
      ],
      "name": "SubscriptionTransferred",
      "type": "event"
    },
    {
      "anonymous": false,
      "inputs": [
        {
          "indexed": false,
          "name": "timestamp",
          "type": "uint256"
        },
        {
          "indexed": false,
          "name": "dataInUsd",
          "type": "uint256"
        }
      ],
      "name": "ExchangeRatesUpdated",
      "type": "event"
    },
    {
      "anonymous": false,
      "inputs": [],
      "name": "Halted",
      "type": "event"
    },
    {
      "anonymous": false,
      "inputs": [],
      "name": "Resumed",
      "type": "event"
    },
    {
      "anonymous": false,
      "inputs": [
        {
          "indexed": true,
          "name": "previousOwner",
          "type": "address"
        }
      ],
      "name": "OwnershipRenounced",
      "type": "event"
    },
    {
      "anonymous": false,
      "inputs": [
        {
          "indexed": true,
          "name": "previousOwner",
          "type": "address"
        },
        {
          "indexed": true,
          "name": "newOwner",
          "type": "address"
        }
      ],
      "name": "OwnershipTransferred",
      "type": "event"
    },
    {
      "constant": true,
      "inputs": [
        {
          "name": "id",
          "type": "bytes32"
        }
      ],
      "name": "getProduct",
      "outputs": [
        {
          "name": "name",
          "type": "string"
        },
        {
          "name": "owner",
          "type": "address"
        },
        {
          "name": "beneficiary",
          "type": "address"
        },
        {
          "name": "pricePerSecond",
          "type": "uint256"
        },
        {
          "name": "currency",
          "type": "uint8"
        },
        {
          "name": "minimumSubscriptionSeconds",
          "type": "uint256"
        },
        {
          "name": "state",
          "type": "uint8"
        }
      ],
      "payable": false,
      "stateMutability": "view",
      "type": "function"
    },
    {
      "constant": false,
      "inputs": [
        {
          "name": "id",
          "type": "bytes32"
        },
        {
          "name": "name",
          "type": "string"
        },
        {
          "name": "beneficiary",
          "type": "address"
        },
        {
          "name": "pricePerSecond",
          "type": "uint256"
        },
        {
          "name": "currency",
          "type": "uint8"
        },
        {
          "name": "minimumSubscriptionSeconds",
          "type": "uint256"
        }
      ],
      "name": "createProduct",
      "outputs": [],
      "payable": false,
      "stateMutability": "nonpayable",
      "type": "function"
    },
    {
      "constant": false,
      "inputs": [
        {
          "name": "productId",
          "type": "bytes32"
        }
      ],
      "name": "deleteProduct",
      "outputs": [],
      "payable": false,
      "stateMutability": "nonpayable",
      "type": "function"
    },
    {
      "constant": false,
      "inputs": [
        {
          "name": "productId",
          "type": "bytes32"
        }
      ],
      "name": "redeployProduct",
      "outputs": [],
      "payable": false,
      "stateMutability": "nonpayable",
      "type": "function"
    },
    {
      "constant": false,
      "inputs": [
        {
          "name": "productId",
          "type": "bytes32"
        },
        {
          "name": "name",
          "type": "string"
        },
        {
          "name": "beneficiary",
          "type": "address"
        },
        {
          "name": "pricePerSecond",
          "type": "uint256"
        },
        {
          "name": "currency",
          "type": "uint8"
        },
        {
          "name": "minimumSubscriptionSeconds",
          "type": "uint256"
        }
      ],
      "name": "updateProduct",
      "outputs": [],
      "payable": false,
      "stateMutability": "nonpayable",
      "type": "function"
    },
    {
      "constant": false,
      "inputs": [
        {
          "name": "productId",
          "type": "bytes32"
        },
        {
          "name": "newOwnerCandidate",
          "type": "address"
        }
      ],
      "name": "offerProductOwnership",
      "outputs": [],
      "payable": false,
      "stateMutability": "nonpayable",
      "type": "function"
    },
    {
      "constant": false,
      "inputs": [
        {
          "name": "productId",
          "type": "bytes32"
        }
      ],
      "name": "claimProductOwnership",
      "outputs": [],
      "payable": false,
      "stateMutability": "nonpayable",
      "type": "function"
    },
    {
      "constant": true,
      "inputs": [
        {
          "name": "productId",
          "type": "bytes32"
        },
        {
          "name": "subscriber",
          "type": "address"
        }
      ],
      "name": "getSubscription",
      "outputs": [
        {
          "name": "isValid",
          "type": "bool"
        },
        {
          "name": "endTimestamp",
          "type": "uint256"
        }
      ],
      "payable": false,
      "stateMutability": "view",
      "type": "function"
    },
    {
      "constant": true,
      "inputs": [
        {
          "name": "productId",
          "type": "bytes32"
        }
      ],
      "name": "getSubscriptionTo",
      "outputs": [
        {
          "name": "isValid",
          "type": "bool"
        },
        {
          "name": "endTimestamp",
          "type": "uint256"
        }
      ],
      "payable": false,
      "stateMutability": "view",
      "type": "function"
    },
    {
      "constant": true,
      "inputs": [
        {
          "name": "productId",
          "type": "bytes32"
        },
        {
          "name": "subscriber",
          "type": "address"
        }
      ],
      "name": "hasValidSubscription",
      "outputs": [
        {
          "name": "isValid",
          "type": "bool"
        }
      ],
      "payable": false,
      "stateMutability": "view",
      "type": "function"
    },
    {
      "constant": false,
      "inputs": [
        {
          "name": "productId",
          "type": "bytes32"
        },
        {
          "name": "subscriptionSeconds",
          "type": "uint256"
        }
      ],
      "name": "buy",
      "outputs": [],
      "payable": false,
      "stateMutability": "nonpayable",
      "type": "function"
    },
    {
      "constant": false,
      "inputs": [
        {
          "name": "productId",
          "type": "bytes32"
        },
        {
          "name": "newSubscriber",
          "type": "address"
        }
      ],
      "name": "transferSubscription",
      "outputs": [],
      "payable": false,
      "stateMutability": "nonpayable",
      "type": "function"
    },
    {
      "constant": false,
      "inputs": [
        {
          "name": "timestamp",
          "type": "uint256"
        },
        {
          "name": "dataUsd",
          "type": "uint256"
        }
      ],
      "name": "updateExchangeRates",
      "outputs": [],
      "payable": false,
      "stateMutability": "nonpayable",
      "type": "function"
    },
    {
      "constant": true,
      "inputs": [
        {
          "name": "subscriptionSeconds",
          "type": "uint256"
        },
        {
          "name": "price",
          "type": "uint256"
        },
        {
          "name": "unit",
          "type": "uint8"
        }
      ],
      "name": "getPriceInData",
      "outputs": [
        {
          "name": "datacoinAmount",
          "type": "uint256"
        }
      ],
      "payable": false,
      "stateMutability": "view",
      "type": "function"
    },
    {
      "constant": false,
      "inputs": [],
      "name": "halt",
      "outputs": [],
      "payable": false,
      "stateMutability": "nonpayable",
      "type": "function"
    },
    {
      "constant": false,
      "inputs": [],
      "name": "resume",
      "outputs": [],
      "payable": false,
      "stateMutability": "nonpayable",
      "type": "function"
    },
    {
      "constant": false,
      "inputs": [
        {
          "name": "datacoinAddress",
          "type": "address"
        },
        {
          "name": "currencyUpdateAgentAddress",
          "type": "address"
        }
      ],
      "name": "reInitialize",
      "outputs": [],
      "payable": false,
      "stateMutability": "nonpayable",
      "type": "function"
    }
  ],
  "bytecode": "0x608060405267016345785d8a00006005556000600660006101000a81548160ff0219169083151502179055503480156200003857600080fd5b5060405160408062003c178339810180604052810190808051906020019092919080519060200190929190505050336000806101000a81548173ffffffffffffffffffffffffffffffffffffffff021916908373ffffffffffffffffffffffffffffffffffffffff160217905550620000c18282620000c9640100000000026401000000009004565b50506200014f565b80600360006101000a81548173ffffffffffffffffffffffffffffffffffffffff021916908373ffffffffffffffffffffffffffffffffffffffff16021790555081600260006101000a81548173ffffffffffffffffffffffffffffffffffffffff021916908373ffffffffffffffffffffffffffffffffffffffff1602179055505050565b613ab8806200015f6000396000f30060806040526004361061015f576000357c0100000000000000000000000000000000000000000000000000000000900463ffffffff168063046f7da2146101645780630ddeb6321461017b5780631a464fa1146101b657806325017e10146101e75780633a20e9df146102385780634a54fb0a146103805780634e71e0c81461043857806353f81ef81461044f57806358f816bf1461049f5780635ed7ca5b146104d05780635f28cb74146104e757806361362b6814610557578063715018a6146105ba57806379054391146105d157806379c88f201461075b57806389aaad29146107b25780638da5cb5b1461080957806394727b411461086057806396002aef14610891578063b14f8432146108e2578063b9b8af0b1461094b578063bee7d4331461097a578063cafbc49d146109d2578063d50a04f414610a8a578063db6c709c14610ab5578063e30c397814610aec578063f2fde38b14610b43575b600080fd5b34801561017057600080fd5b50610179610b86565b005b34801561018757600080fd5b506101b4600480360381019080803560001916906020019092919080359060200190929190505050610c2a565b005b3480156101c257600080fd5b506101e56004803603810190808035600019169060200190929190505050610fb8565b005b3480156101f357600080fd5b506102366004803603810190808035600019169060200190929190803573ffffffffffffffffffffffffffffffffffffffff169060200190929190505050611287565b005b34801561024457600080fd5b50610267600480360381019080803560001916906020019092919050505061151a565b60405180806020018873ffffffffffffffffffffffffffffffffffffffff1673ffffffffffffffffffffffffffffffffffffffff1681526020018773ffffffffffffffffffffffffffffffffffffffff1673ffffffffffffffffffffffffffffffffffffffff1681526020018681526020018560018111156102e557fe5b60ff1681526020018481526020018360018111156102ff57fe5b60ff168152602001828103825289818151815260200191508051906020019080838360005b8381101561033f578082015181840152602081019050610324565b50505050905090810190601f16801561036c5780820380516001836020036101000a031916815260200191505b509850505050505050505060405180910390f35b34801561038c57600080fd5b506104366004803603810190808035600019169060200190929190803590602001908201803590602001908080601f0160208091040260200160405190810160405280939291908181526020018383808284378201915050505050509192919290803573ffffffffffffffffffffffffffffffffffffffff16906020019092919080359060200190929190803560ff1690602001909291908035906020019092919050505061170c565b005b34801561044457600080fd5b5061044d611b3d565b005b34801561045b57600080fd5b5061047e6004803603810190808035600019169060200190929190505050611cdc565b60405180831515151581526020018281526020019250505060405180910390f35b3480156104ab57600080fd5b506104ce6004803603810190808035600019169060200190929190505050611cf2565b005b3480156104dc57600080fd5b506104e5612131565b005b3480156104f357600080fd5b506105366004803603810190808035600019169060200190929190803573ffffffffffffffffffffffffffffffffffffffff1690602001909291905050506121d5565b60405180831515151581526020018281526020019250505060405180910390f35b34801561056357600080fd5b506105b8600480360381019080803573ffffffffffffffffffffffffffffffffffffffff169060200190929190803573ffffffffffffffffffffffffffffffffffffffff169060200190929190505050612201565b005b3480156105c657600080fd5b506105cf61226a565b005b3480156105dd57600080fd5b50610600600480360381019080803560001916906020019092919050505061236c565b604051808a60001916600019168152602001806020018973ffffffffffffffffffffffffffffffffffffffff1673ffffffffffffffffffffffffffffffffffffffff1681526020018873ffffffffffffffffffffffffffffffffffffffff1673ffffffffffffffffffffffffffffffffffffffff16815260200187815260200186600181111561068c57fe5b60ff1681526020018581526020018460018111156106a657fe5b60ff1681526020018373ffffffffffffffffffffffffffffffffffffffff1673ffffffffffffffffffffffffffffffffffffffff16815260200182810382528a818151815260200191508051906020019080838360005b838110156107185780820151818401526020810190506106fd565b50505050905090810190601f1680156107455780820380516001836020036101000a031916815260200191505b509a505050505050505050505060405180910390f35b34801561076757600080fd5b506107706124cc565b604051808273ffffffffffffffffffffffffffffffffffffffff1673ffffffffffffffffffffffffffffffffffffffff16815260200191505060405180910390f35b3480156107be57600080fd5b506107c76124f2565b604051808273ffffffffffffffffffffffffffffffffffffffff1673ffffffffffffffffffffffffffffffffffffffff16815260200191505060405180910390f35b34801561081557600080fd5b5061081e612518565b604051808273ffffffffffffffffffffffffffffffffffffffff1673ffffffffffffffffffffffffffffffffffffffff16815260200191505060405180910390f35b34801561086c57600080fd5b5061088f600480360381019080803560001916906020019092919050505061253d565b005b34801561089d57600080fd5b506108e06004803603810190808035600019169060200190929190803573ffffffffffffffffffffffffffffffffffffffff16906020019092919050505061297b565b005b3480156108ee57600080fd5b506109316004803603810190808035600019169060200190929190803573ffffffffffffffffffffffffffffffffffffffff169060200190929190505050612c3d565b604051808215151515815260200191505060405180910390f35b34801561095757600080fd5b50610960612c5f565b604051808215151515815260200191505060405180910390f35b34801561098657600080fd5b506109bc6004803603810190808035906020019092919080359060200190929190803560ff169060200190929190505050612c72565b6040518082815260200191505060405180910390f35b3480156109de57600080fd5b50610a886004803603810190808035600019169060200190929190803590602001908201803590602001908080601f0160208091040260200160405190810160405280939291908181526020018383808284378201915050505050509192919290803573ffffffffffffffffffffffffffffffffffffffff16906020019092919080359060200190929190803560ff16906020019092919080359060200190929190505050612cf7565b005b348015610a9657600080fd5b50610a9f6132ad565b6040518082815260200191505060405180910390f35b348015610ac157600080fd5b50610aea60048036038101908080359060200190929190803590602001909291905050506132b3565b005b348015610af857600080fd5b50610b016133d1565b604051808273ffffffffffffffffffffffffffffffffffffffff1673ffffffffffffffffffffffffffffffffffffffff16815260200191505060405180910390f35b348015610b4f57600080fd5b50610b84600480360381019080803573ffffffffffffffffffffffffffffffffffffffff1690602001909291905050506133f7565b005b6000809054906101000a900473ffffffffffffffffffffffffffffffffffffffff1673ffffffffffffffffffffffffffffffffffffffff163373ffffffffffffffffffffffffffffffffffffffff16141515610be157600080fd5b6000600660006101000a81548160ff0219169083151502179055507f62451d457bc659158be6e6247f56ec1df424a5c7597f71c20c2bc44e0965c8f960405160405180910390a1565b6000806000600660009054906101000a900460ff161580610c9757503373ffffffffffffffffffffffffffffffffffffffff166000809054906101000a900473ffffffffffffffffffffffffffffffffffffffff1673ffffffffffffffffffffffffffffffffffffffff16145b1515610d0b576040517f08c379a000000000000000000000000000000000000000000000000000000000815260040180806020018281038252600c8152602001807f6572726f725f68616c746564000000000000000000000000000000000000000081525060200191505060405180910390fd5b610d158533613496565b92509250600180811115610d2557fe5b8360070160009054906101000a900460ff166001811115610d4257fe5b141515610db7576040517f08c379a00000000000000000000000000000000000000000000000000000000081526004018080602001828103825260118152602001807f6572726f725f6e6f744465706c6f79656400000000000000000000000000000081525060200191505060405180910390fd5b610dc383338685613584565b610de38484600401548560050160009054906101000a900460ff16612c72565b9050600260009054906101000a900473ffffffffffffffffffffffffffffffffffffffff1673ffffffffffffffffffffffffffffffffffffffff166323b872dd338560030160009054906101000a900473ffffffffffffffffffffffffffffffffffffffff16846040518463ffffffff167c0100000000000000000000000000000000000000000000000000000000028152600401808473ffffffffffffffffffffffffffffffffffffffff1673ffffffffffffffffffffffffffffffffffffffff1681526020018373ffffffffffffffffffffffffffffffffffffffff1673ffffffffffffffffffffffffffffffffffffffff1681526020018281526020019350505050602060405180830381600087803b158015610f0257600080fd5b505af1158015610f16573d6000803e3d6000fd5b505050506040513d6020811015610f2c57600080fd5b81019080805190602001909291905050501515610fb1576040517f08c379a00000000000000000000000000000000000000000000000000000000081526004018080602001828103825260138152602001807f6572726f725f7061796d656e744661696c65640000000000000000000000000081525060200191505060405180910390fd5b5050505050565b6000600660009054906101000a900460ff16158061102257503373ffffffffffffffffffffffffffffffffffffffff166000809054906101000a900473ffffffffffffffffffffffffffffffffffffffff1673ffffffffffffffffffffffffffffffffffffffff16145b1515611096576040517f08c379a000000000000000000000000000000000000000000000000000000000815260040180806020018281038252600c8152602001807f6572726f725f68616c746564000000000000000000000000000000000000000081525060200191505060405180910390fd5b60046000836000191660001916815260200190815260200160002090508060090160009054906101000a900473ffffffffffffffffffffffffffffffffffffffff1673ffffffffffffffffffffffffffffffffffffffff163373ffffffffffffffffffffffffffffffffffffffff1614151561117a576040517f08c379a00000000000000000000000000000000000000000000000000000000081526004018080602001828103825260128152602001807f6572726f725f6e6f745065726d6974746564000000000000000000000000000081525060200191505060405180910390fd5b8060020160009054906101000a900473ffffffffffffffffffffffffffffffffffffffff1673ffffffffffffffffffffffffffffffffffffffff1682600019163373ffffffffffffffffffffffffffffffffffffffff167eaf27297c740fbece798135b71b06164310e0591b6c729e50b8026dcc60be5060405160405180910390a4338160020160006101000a81548173ffffffffffffffffffffffffffffffffffffffff021916908373ffffffffffffffffffffffffffffffffffffffff16021790555060008160090160006101000a81548173ffffffffffffffffffffffffffffffffffffffff021916908373ffffffffffffffffffffffffffffffffffffffff1602179055505050565b600080600080600660009054906101000a900460ff1615806112f557503373ffffffffffffffffffffffffffffffffffffffff166000809054906101000a900473ffffffffffffffffffffffffffffffffffffffff1673ffffffffffffffffffffffffffffffffffffffff16145b1515611369576040517f08c379a000000000000000000000000000000000000000000000000000000000815260040180806020018281038252600c8152602001807f6572726f725f68616c746564000000000000000000000000000000000000000081525060200191505060405180910390fd5b6113738633613496565b9350935061138083613839565b15156113f4576040517f08c379a000000000000000000000000000000000000000000000000000000000815260040180806020018281038252601a8152602001807f6572726f725f737562736372697074696f6e4e6f7456616c696400000000000081525060200191505060405180910390fd5b61140b42846000015461384a90919063ffffffff16565b91508360080160008673ffffffffffffffffffffffffffffffffffffffff1673ffffffffffffffffffffffffffffffffffffffff168152602001908152602001600020905061145c84868484613584565b8360080160003373ffffffffffffffffffffffffffffffffffffffff1673ffffffffffffffffffffffffffffffffffffffff16815260200190815260200160002060008082016000905550508473ffffffffffffffffffffffffffffffffffffffff163373ffffffffffffffffffffffffffffffffffffffff1687600019167f748c12d8611352a3ff4f8d6d8405f8fd259695b031b2000827b207975a05cea0856040518082815260200191505060405180910390a4505050505050565b6060600080600080600080600460008960001916600019168152602001908152602001600020600101600460008a6000191660001916815260200190815260200160002060020160009054906101000a900473ffffffffffffffffffffffffffffffffffffffff16600460008b6000191660001916815260200190815260200160002060030160009054906101000a900473ffffffffffffffffffffffffffffffffffffffff16600460008c6000191660001916815260200190815260200160002060040154600460008d6000191660001916815260200190815260200160002060050160009054906101000a900460ff16600460008e6000191660001916815260200190815260200160002060060154600460008f6000191660001916815260200190815260200160002060070160009054906101000a900460ff16868054600181600116156101000203166002900480601f0160208091040260200160405190810160405280929190818152602001828054600181600116156101000203166002900480156116ec5780601f106116c1576101008083540402835291602001916116ec565b820191906000526020600020905b8154815290600101906020018083116116cf57829003601f168201915b505050505096509650965096509650965096509650919395979092949650565b600086600060046000836000191660001916815260200190815260200160002090506000600102816000015460001916141515156117b2576040517f08c379a000000000000000000000000000000000000000000000000000000000815260040180806020018281038252600e8152602001807f6572726f725f6e6f74466f756e6400000000000000000000000000000000000081525060200191505060405180910390fd5b3373ffffffffffffffffffffffffffffffffffffffff168160020160009054906101000a900473ffffffffffffffffffffffffffffffffffffffff1673ffffffffffffffffffffffffffffffffffffffff16148061185c57503373ffffffffffffffffffffffffffffffffffffffff166000809054906101000a900473ffffffffffffffffffffffffffffffffffffffff1673ffffffffffffffffffffffffffffffffffffffff16145b15156118d0576040517f08c379a00000000000000000000000000000000000000000000000000000000081526004018080602001828103825260178152602001807f6572726f725f70726f647563744f776e6572734f6e6c7900000000000000000081525060200191505060405180910390fd5b600086111515611948576040517f08c379a000000000000000000000000000000000000000000000000000000000815260040180806020018281038252601e8152602001807f6572726f725f6672656550726f64756374734e6f74537570706f72746564000081525060200191505060405180910390fd5b600460008a6000191660001916815260200190815260200160002092508783600101908051906020019061197d929190613953565b50868360030160006101000a81548173ffffffffffffffffffffffffffffffffffffffff021916908373ffffffffffffffffffffffffffffffffffffffff160217905550858360040181905550848360050160006101000a81548160ff021916908360018111156119ea57fe5b02179055508383600601819055508260000154600019168360020160009054906101000a900473ffffffffffffffffffffffffffffffffffffffff1673ffffffffffffffffffffffffffffffffffffffff167f21953ef62f6c172d864b9ae2181d3c7114ef506c3546057e354cf6b5bab03ec48a8a8a8a8a60405180806020018673ffffffffffffffffffffffffffffffffffffffff1673ffffffffffffffffffffffffffffffffffffffff168152602001858152602001846001811115611aae57fe5b60ff168152602001838152602001828103825287818151815260200191508051906020019080838360005b83811015611af4578082015181840152602081019050611ad9565b50505050905090810190601f168015611b215780820380516001836020036101000a031916815260200191505b50965050505050505060405180910390a3505050505050505050565b600160009054906101000a900473ffffffffffffffffffffffffffffffffffffffff1673ffffffffffffffffffffffffffffffffffffffff163373ffffffffffffffffffffffffffffffffffffffff16141515611b9957600080fd5b600160009054906101000a900473ffffffffffffffffffffffffffffffffffffffff1673ffffffffffffffffffffffffffffffffffffffff166000809054906101000a900473ffffffffffffffffffffffffffffffffffffffff1673ffffffffffffffffffffffffffffffffffffffff167f8be0079c531659141344cd1fd0a4f28419497f9722a3daafe3b4186f6b6457e060405160405180910390a3600160009054906101000a900473ffffffffffffffffffffffffffffffffffffffff166000806101000a81548173ffffffffffffffffffffffffffffffffffffffff021916908373ffffffffffffffffffffffffffffffffffffffff1602179055506000600160006101000a81548173ffffffffffffffffffffffffffffffffffffffff021916908373ffffffffffffffffffffffffffffffffffffffff160217905550565b600080611ce983336121d5565b91509150915091565b60008160006004600083600019166000191681526020019081526020016000209050600060010281600001546000191614151515611d98576040517f08c379a000000000000000000000000000000000000000000000000000000000815260040180806020018281038252600e8152602001807f6572726f725f6e6f74466f756e6400000000000000000000000000000000000081525060200191505060405180910390fd5b3373ffffffffffffffffffffffffffffffffffffffff168160020160009054906101000a900473ffffffffffffffffffffffffffffffffffffffff1673ffffffffffffffffffffffffffffffffffffffff161480611e4257503373ffffffffffffffffffffffffffffffffffffffff166000809054906101000a900473ffffffffffffffffffffffffffffffffffffffff1673ffffffffffffffffffffffffffffffffffffffff16145b1515611eb6576040517f08c379a00000000000000000000000000000000000000000000000000000000081526004018080602001828103825260178152602001807f6572726f725f70726f647563744f776e6572734f6e6c7900000000000000000081525060200191505060405180910390fd5b600460008560001916600019168152602001908152602001600020925060006001811115611ee057fe5b8360070160009054906101000a900460ff166001811115611efd57fe5b141515611f72576040517f08c379a00000000000000000000000000000000000000000000000000000000081526004018080602001828103825260178152602001807f6572726f725f6d75737442654e6f744465706c6f79656400000000000000000081525060200191505060405180910390fd5b60018360070160006101000a81548160ff02191690836001811115611f9357fe5b021790555083600019168360020160009054906101000a900473ffffffffffffffffffffffffffffffffffffffff1673ffffffffffffffffffffffffffffffffffffffff167f07ace6911e28d0d5b2e773ce49cdfa29db157b38bffccd5f0b56f02cfba8a64f856001018660030160009054906101000a900473ffffffffffffffffffffffffffffffffffffffff1687600401548860050160009054906101000a900460ff16896006015460405180806020018673ffffffffffffffffffffffffffffffffffffffff1673ffffffffffffffffffffffffffffffffffffffff16815260200185815260200184600181111561208a57fe5b60ff1681526020018381526020018281038252878181546001816001161561010002031660029004815260200191508054600181600116156101000203166002900480156121195780601f106120ee57610100808354040283529160200191612119565b820191906000526020600020905b8154815290600101906020018083116120fc57829003601f168201915b5050965050505050505060405180910390a350505050565b6000809054906101000a900473ffffffffffffffffffffffffffffffffffffffff1673ffffffffffffffffffffffffffffffffffffffff163373ffffffffffffffffffffffffffffffffffffffff1614151561218c57600080fd5b6001600660006101000a81548160ff0219169083151502179055507f1ee9080f6b55ca44ce58681c8162e6c1ac1c47e1da791a4a1c1ec6186d8af1f360405160405180910390a1565b60008060006121e48585613496565b9150506121f081613839565b816000015492509250509250929050565b6000809054906101000a900473ffffffffffffffffffffffffffffffffffffffff1673ffffffffffffffffffffffffffffffffffffffff163373ffffffffffffffffffffffffffffffffffffffff1614151561225c57600080fd5b6122668282613863565b5050565b6000809054906101000a900473ffffffffffffffffffffffffffffffffffffffff1673ffffffffffffffffffffffffffffffffffffffff163373ffffffffffffffffffffffffffffffffffffffff161415156122c557600080fd5b6000809054906101000a900473ffffffffffffffffffffffffffffffffffffffff1673ffffffffffffffffffffffffffffffffffffffff167ff8df31144d9c2f0f6b59d69b8b98abd5459d07f2742c4df920b25aae33c6482060405160405180910390a260008060006101000a81548173ffffffffffffffffffffffffffffffffffffffff021916908373ffffffffffffffffffffffffffffffffffffffff160217905550565b6004602052806000526040600020600091509050806000015490806001018054600181600116156101000203166002900480601f01602080910402602001604051908101604052809291908181526020018280546001816001161561010002031660029004801561241e5780601f106123f35761010080835404028352916020019161241e565b820191906000526020600020905b81548152906001019060200180831161240157829003601f168201915b5050505050908060020160009054906101000a900473ffffffffffffffffffffffffffffffffffffffff16908060030160009054906101000a900473ffffffffffffffffffffffffffffffffffffffff16908060040154908060050160009054906101000a900460ff16908060060154908060070160009054906101000a900460ff16908060090160009054906101000a900473ffffffffffffffffffffffffffffffffffffffff16905089565b600260009054906101000a900473ffffffffffffffffffffffffffffffffffffffff1681565b600360009054906101000a900473ffffffffffffffffffffffffffffffffffffffff1681565b6000809054906101000a900473ffffffffffffffffffffffffffffffffffffffff1681565b600081600060046000836000191660001916815260200190815260200160002090506000600102816000015460001916141515156125e3576040517f08c379a000000000000000000000000000000000000000000000000000000000815260040180806020018281038252600e8152602001807f6572726f725f6e6f74466f756e6400000000000000000000000000000000000081525060200191505060405180910390fd5b3373ffffffffffffffffffffffffffffffffffffffff168160020160009054906101000a900473ffffffffffffffffffffffffffffffffffffffff1673ffffffffffffffffffffffffffffffffffffffff16148061268d57503373ffffffffffffffffffffffffffffffffffffffff166000809054906101000a900473ffffffffffffffffffffffffffffffffffffffff1673ffffffffffffffffffffffffffffffffffffffff16145b1515612701576040517f08c379a00000000000000000000000000000000000000000000000000000000081526004018080602001828103825260178152602001807f6572726f725f70726f647563744f776e6572734f6e6c7900000000000000000081525060200191505060405180910390fd5b600460008560001916600019168152602001908152602001600020925060018081111561272a57fe5b8360070160009054906101000a900460ff16600181111561274757fe5b1415156127bc576040517f08c379a00000000000000000000000000000000000000000000000000000000081526004018080602001828103825260118152602001807f6572726f725f6e6f744465706c6f79656400000000000000000000000000000081525060200191505060405180910390fd5b60008360070160006101000a81548160ff021916908360018111156127dd57fe5b021790555083600019168360020160009054906101000a900473ffffffffffffffffffffffffffffffffffffffff1673ffffffffffffffffffffffffffffffffffffffff167ffc64345d61f75f77f5039b0e23107d4abd73ecb7cd6c94fd44e8a6dd85918f6a856001018660030160009054906101000a900473ffffffffffffffffffffffffffffffffffffffff1687600401548860050160009054906101000a900460ff16896006015460405180806020018673ffffffffffffffffffffffffffffffffffffffff1673ffffffffffffffffffffffffffffffffffffffff1681526020018581526020018460018111156128d457fe5b60ff1681526020018381526020018281038252878181546001816001161561010002031660029004815260200191508054600181600116156101000203166002900480156129635780601f1061293857610100808354040283529160200191612963565b820191906000526020600020905b81548152906001019060200180831161294657829003601f168201915b5050965050505050505060405180910390a350505050565b8160006004600083600019166000191681526020019081526020016000209050600060010281600001546000191614151515612a1f576040517f08c379a000000000000000000000000000000000000000000000000000000000815260040180806020018281038252600e8152602001807f6572726f725f6e6f74466f756e6400000000000000000000000000000000000081525060200191505060405180910390fd5b3373ffffffffffffffffffffffffffffffffffffffff168160020160009054906101000a900473ffffffffffffffffffffffffffffffffffffffff1673ffffffffffffffffffffffffffffffffffffffff161480612ac957503373ffffffffffffffffffffffffffffffffffffffff166000809054906101000a900473ffffffffffffffffffffffffffffffffffffffff1673ffffffffffffffffffffffffffffffffffffffff16145b1515612b3d576040517f08c379a00000000000000000000000000000000000000000000000000000000081526004018080602001828103825260178152602001807f6572726f725f70726f647563744f776e6572734f6e6c7900000000000000000081525060200191505060405180910390fd5b8260046000866000191660001916815260200190815260200160002060090160006101000a81548173ffffffffffffffffffffffffffffffffffffffff021916908373ffffffffffffffffffffffffffffffffffffffff1602179055508273ffffffffffffffffffffffffffffffffffffffff16846000191660046000876000191660001916815260200190815260200160002060020160009054906101000a900473ffffffffffffffffffffffffffffffffffffffff1673ffffffffffffffffffffffffffffffffffffffff167f62160e4abadfc3a6afc583d10586d737c813753fe64d93f4283282b2b600a34460405160405180910390a450505050565b600080612c4a8484613496565b915050612c5681613839565b91505092915050565b600660009054906101000a900460ff1681565b6000806001811115612c8057fe5b826001811115612c8c57fe5b1415612cac57612ca584846138e990919063ffffffff16565b9050612cf0565b612ced84612cdf670de0b6b3a7640000612cd1600554886138e990919063ffffffff16565b61392190919063ffffffff16565b6138e990919063ffffffff16565b90505b9392505050565b6000600660009054906101000a900460ff161580612d6157503373ffffffffffffffffffffffffffffffffffffffff166000809054906101000a900473ffffffffffffffffffffffffffffffffffffffff1673ffffffffffffffffffffffffffffffffffffffff16145b1515612dd5576040517f08c379a000000000000000000000000000000000000000000000000000000000815260040180806020018281038252600c8152602001807f6572726f725f68616c746564000000000000000000000000000000000000000081525060200191505060405180910390fd5b6000600102876000191614151515612e55576040517f08c379a00000000000000000000000000000000000000000000000000000000081526004018080602001828103825260138152602001807f6572726f725f6e756c6c50726f6475637449640000000000000000000000000081525060200191505060405180910390fd5b600084111515612ecd576040517f08c379a000000000000000000000000000000000000000000000000000000000815260040180806020018281038252601e8152602001807f6572726f725f6672656550726f64756374734e6f74537570706f72746564000081525060200191505060405180910390fd5b60046000886000191660001916815260200190815260200160002090506000600102816000015460001916141515612f6d576040517f08c379a00000000000000000000000000000000000000000000000000000000081526004018080602001828103825260138152602001807f6572726f725f616c72656164794578697374730000000000000000000000000081525060200191505060405180910390fd5b61012060405190810160405280886000191681526020018781526020013373ffffffffffffffffffffffffffffffffffffffff1681526020018673ffffffffffffffffffffffffffffffffffffffff168152602001858152602001846001811115612fd457fe5b8152602001838152602001600180811115612feb57fe5b8152602001600073ffffffffffffffffffffffffffffffffffffffff168152506004600089600019166000191681526020019081526020016000206000820151816000019060001916905560208201518160010190805190602001906130529291906139d3565b5060408201518160020160006101000a81548173ffffffffffffffffffffffffffffffffffffffff021916908373ffffffffffffffffffffffffffffffffffffffff16021790555060608201518160030160006101000a81548173ffffffffffffffffffffffffffffffffffffffff021916908373ffffffffffffffffffffffffffffffffffffffff1602179055506080820151816004015560a08201518160050160006101000a81548160ff0219169083600181111561310f57fe5b021790555060c0820151816006015560e08201518160070160006101000a81548160ff0219169083600181111561314257fe5b02179055506101008201518160090160006101000a81548173ffffffffffffffffffffffffffffffffffffffff021916908373ffffffffffffffffffffffffffffffffffffffff16021790555090505086600019163373ffffffffffffffffffffffffffffffffffffffff167f397627c8e8e4324a0f8a98a8274c00e4cee798d000625304ffbae6144ec64e54888888888860405180806020018673ffffffffffffffffffffffffffffffffffffffff1673ffffffffffffffffffffffffffffffffffffffff16815260200185815260200184600181111561322057fe5b60ff168152602001838152602001828103825287818151815260200191508051906020019080838360005b8381101561326657808201518184015260208101905061324b565b50505050905090810190601f1680156132935780820380516001836020036101000a031916815260200191505b50965050505050505060405180910390a350505050505050565b60055481565b600360009054906101000a900473ffffffffffffffffffffffffffffffffffffffff1673ffffffffffffffffffffffffffffffffffffffff163373ffffffffffffffffffffffffffffffffffffffff16141515613378576040517f08c379a00000000000000000000000000000000000000000000000000000000081526004018080602001828103825260128152602001807f6572726f725f6e6f745065726d6974746564000000000000000000000000000081525060200191505060405180910390fd5b60008111151561338757600080fd5b806005819055507fc84d758f9836fe65b8f2be13d5e364b9373411e1158b63c1c5abbbae789496098282604051808381526020018281526020019250505060405180910390a15050565b600160009054906101000a900473ffffffffffffffffffffffffffffffffffffffff1681565b6000809054906101000a900473ffffffffffffffffffffffffffffffffffffffff1673ffffffffffffffffffffffffffffffffffffffff163373ffffffffffffffffffffffffffffffffffffffff1614151561345257600080fd5b80600160006101000a81548173ffffffffffffffffffffffffffffffffffffffff021916908373ffffffffffffffffffffffffffffffffffffffff16021790555050565b600080600460008560001916600019168152602001908152602001600020915060006001028260000154600019161415151561353a576040517f08c379a000000000000000000000000000000000000000000000000000000000815260040180806020018281038252600e8152602001807f6572726f725f6e6f74466f756e6400000000000000000000000000000000000081525060200191505060405180910390fd5b8160080160008473ffffffffffffffffffffffffffffffffffffffff1673ffffffffffffffffffffffffffffffffffffffff16815260200190815260200160002090509250929050565b600061358e613a53565b428360000154111561369057600084111515613612576040517f08c379a00000000000000000000000000000000000000000000000000000000081526004018080602001828103825260138152602001807f6572726f725f746f705570546f6f536d616c6c0000000000000000000000000081525060200191505060405180910390fd5b61362984846000015461393790919063ffffffff16565b91508183600001819055508473ffffffffffffffffffffffffffffffffffffffff168660000154600019167f602ca7f17c81aa5e62b3381000dd445f5af7c333574da85f4b246288afc07322846040518082815260200191505060405180910390a36137da565b8560060154841015151561370c576040517f08c379a000000000000000000000000000000000000000000000000000000000815260040180806020018281038252601d8152602001807f6572726f725f6e6577537562736372697074696f6e546f6f536d616c6c00000081525060200191505060405180910390fd5b61371f844261393790919063ffffffff16565b9150602060405190810160405280838152509050808660080160008773ffffffffffffffffffffffffffffffffffffffff1673ffffffffffffffffffffffffffffffffffffffff168152602001908152602001600020600082015181600001559050508473ffffffffffffffffffffffffffffffffffffffff168660000154600019167f9c3ab7e86c11d820cc311335294ebdf7299d8637d47253b930c4120b775d7cca846040518082815260200191505060405180910390a35b8473ffffffffffffffffffffffffffffffffffffffff168660000154600019167fe22e8c2d8a284063fec10f270bc3c776ffb40bcf816b73eef36354d5f3d7b3d4846040518082815260200191505060405180910390a3505050505050565b600042826000015410159050919050565b600082821115151561385857fe5b818303905092915050565b80600360006101000a81548173ffffffffffffffffffffffffffffffffffffffff021916908373ffffffffffffffffffffffffffffffffffffffff16021790555081600260006101000a81548173ffffffffffffffffffffffffffffffffffffffff021916908373ffffffffffffffffffffffffffffffffffffffff1602179055505050565b6000808314156138fc576000905061391b565b818302905081838281151561390d57fe5b0414151561391757fe5b8090505b92915050565b6000818381151561392e57fe5b04905092915050565b6000818301905082811015151561394a57fe5b80905092915050565b828054600181600116156101000203166002900490600052602060002090601f016020900481019282601f1061399457805160ff19168380011785556139c2565b828001600101855582156139c2579182015b828111156139c15782518255916020019190600101906139a6565b5b5090506139cf9190613a67565b5090565b828054600181600116156101000203166002900490600052602060002090601f016020900481019282601f10613a1457805160ff1916838001178555613a42565b82800160010185558215613a42579182015b82811115613a41578251825591602001919060010190613a26565b5b509050613a4f9190613a67565b5090565b602060405190810160405280600081525090565b613a8991905b80821115613a85576000816000905550600101613a6d565b5090565b905600a165627a7a72305820a7fc85598634830d7e94529b66bcb5456d2e25833f22231d51cce4af04f247650029",
  "source": "pragma solidity ^0.4.22;\n\nimport \"openzeppelin-solidity/contracts/token/ERC20/ERC20.sol\";\nimport \"openzeppelin-solidity/contracts/math/SafeMath.sol\";\nimport \"openzeppelin-solidity/contracts/ownership/Claimable.sol\";\n\n// Note about numbers:\n//   All prices and exchange rates are in \"decimal fixed-point\", that is, scaled by 10^18, like ETH vs wei.\n//   Seconds are integers as usual.\ncontract Marketplace is Claimable {\n    using SafeMath for uint256;\n\n    // product events\n    event ProductCreated(address indexed owner, bytes32 indexed id, string name, address beneficiary, uint pricePerSecond, Currency currency, uint minimumSubscriptionSeconds);\n    event ProductUpdated(address indexed owner, bytes32 indexed id, string name, address beneficiary, uint pricePerSecond, Currency currency, uint minimumSubscriptionSeconds);\n    event ProductDeleted(address indexed owner, bytes32 indexed id, string name, address beneficiary, uint pricePerSecond, Currency currency, uint minimumSubscriptionSeconds);\n    event ProductRedeployed(address indexed owner, bytes32 indexed id, string name, address beneficiary, uint pricePerSecond, Currency currency, uint minimumSubscriptionSeconds);\n    event ProductOwnershipOffered(address indexed owner, bytes32 indexed id, address indexed to);\n    event ProductOwnershipChanged(address indexed newOwner, bytes32 indexed id, address indexed oldOwner);\n\n    // subscription events\n    event Subscribed(bytes32 indexed productId, address indexed subscriber, uint endTimestamp);\n    event NewSubscription(bytes32 indexed productId, address indexed subscriber, uint endTimestamp);\n    event SubscriptionExtended(bytes32 indexed productId, address indexed subscriber, uint endTimestamp);\n    event SubscriptionTransferred(bytes32 indexed productId, address indexed from, address indexed to, uint secondsTransferred);\n\n    // currency events\n    event ExchangeRatesUpdated(uint timestamp, uint dataInUsd);\n\n    enum ProductState {\n        NotDeployed,                // non-existent or deleted\n        Deployed                    // created or redeployed\n    }\n\n    enum Currency {\n        DATA,                       // \"token wei\" (10^-18 DATA)\n        USD                         // attodollars (10^-18 USD)\n    }\n\n    struct Product {\n        bytes32 id;\n        string name;\n        address owner;\n        address beneficiary;        // account where revenue is directed to\n        uint pricePerSecond;\n        Currency priceCurrency;\n        uint minimumSubscriptionSeconds;\n        ProductState state;\n        mapping(address => TimeBasedSubscription) subscriptions;\n        address newOwnerCandidate;  // Two phase hand-over to minimize the chance that the product ownership is lost to a non-existent address.\n    }\n\n    struct TimeBasedSubscription {\n        uint endTimestamp;\n    }\n\n    /////////////// Marketplace lifecycle /////////////////\n\n    ERC20 public datacoin;\n\n    address public currencyUpdateAgent;\n\n    constructor(address datacoinAddress, address currencyUpdateAgentAddress) Claimable() public {\n        _initialize(datacoinAddress, currencyUpdateAgentAddress);\n    }\n\n    function _initialize(address datacoinAddress, address currencyUpdateAgentAddress) internal {\n        currencyUpdateAgent = currencyUpdateAgentAddress;\n        datacoin = ERC20(datacoinAddress);\n    }\n\n    ////////////////// Product management /////////////////\n\n    mapping (bytes32 => Product) public products;\n    function getProduct(bytes32 id) public view returns (string name, address owner, address beneficiary, uint pricePerSecond, Currency currency, uint minimumSubscriptionSeconds, ProductState state) {\n        return (\n            products[id].name,\n            products[id].owner,\n            products[id].beneficiary,\n            products[id].pricePerSecond,\n            products[id].priceCurrency,\n            products[id].minimumSubscriptionSeconds,\n            products[id].state\n        );\n    }\n\n    // also checks that p exists: p.owner == 0 for non-existent products\n    modifier onlyProductOwner(bytes32 productId) {\n        Product storage p = products[productId];\n        require(p.id != 0x0, \"error_notFound\");\n        require(p.owner == msg.sender || owner == msg.sender, \"error_productOwnersOnly\");\n        _;\n    }\n\n    function createProduct(bytes32 id, string name, address beneficiary, uint pricePerSecond, Currency currency, uint minimumSubscriptionSeconds) public whenNotHalted {\n        require(id != 0x0, \"error_nullProductId\");\n        require(pricePerSecond > 0, \"error_freeProductsNotSupported\");\n        Product storage p = products[id];\n        require(p.id == 0x0, \"error_alreadyExists\");\n        products[id] = Product(id, name, msg.sender, beneficiary, pricePerSecond, currency, minimumSubscriptionSeconds, ProductState.Deployed, 0);\n        emit ProductCreated(msg.sender, id, name, beneficiary, pricePerSecond, currency, minimumSubscriptionSeconds);\n    }\n\n    /**\n    * Stop offering the product\n    */\n    function deleteProduct(bytes32 productId) public onlyProductOwner(productId) {\n        Product storage p = products[productId];\n        require(p.state == ProductState.Deployed, \"error_notDeployed\");\n        p.state = ProductState.NotDeployed;\n        emit ProductDeleted(p.owner, productId, p.name, p.beneficiary, p.pricePerSecond, p.priceCurrency, p.minimumSubscriptionSeconds);\n    }\n\n    /**\n    * Return product to market\n    */\n    function redeployProduct(bytes32 productId) public onlyProductOwner(productId) {\n        Product storage p = products[productId];\n        require(p.state == ProductState.NotDeployed, \"error_mustBeNotDeployed\");\n        p.state = ProductState.Deployed;\n        emit ProductRedeployed(p.owner, productId, p.name, p.beneficiary, p.pricePerSecond, p.priceCurrency, p.minimumSubscriptionSeconds);\n    }\n\n    function updateProduct(bytes32 productId, string name, address beneficiary, uint pricePerSecond, Currency currency, uint minimumSubscriptionSeconds) public onlyProductOwner(productId) {\n        require(pricePerSecond > 0, \"error_freeProductsNotSupported\");\n        Product storage p = products[productId];\n        p.name = name;\n        p.beneficiary = beneficiary;\n        p.pricePerSecond = pricePerSecond;\n        p.priceCurrency = currency;\n        p.minimumSubscriptionSeconds = minimumSubscriptionSeconds;\n        emit ProductUpdated(p.owner, p.id, name, beneficiary, pricePerSecond, currency, minimumSubscriptionSeconds);\n    }\n\n    /**\n    * Changes ownership of the product. Two phase hand-over minimizes the chance that the product ownership is lost to a non-existent address.\n    */\n    function offerProductOwnership(bytes32 productId, address newOwnerCandidate) public onlyProductOwner(productId) {\n        // that productId exists is already checked in onlyProductOwner\n        products[productId].newOwnerCandidate = newOwnerCandidate;\n        emit ProductOwnershipOffered(products[productId].owner, productId, newOwnerCandidate);\n    }\n\n    /**\n    * Changes ownership of the product. Two phase hand-over minimizes the chance that the product ownership is lost to a non-existent address.\n    */\n    function claimProductOwnership(bytes32 productId) public whenNotHalted {\n        // also checks that productId exists (newOwnerCandidate is zero for non-existent)\n        Product storage p = products[productId];\n        require(msg.sender == p.newOwnerCandidate, \"error_notPermitted\");\n        emit ProductOwnershipChanged(msg.sender, productId, p.owner);\n        p.owner = msg.sender;\n        p.newOwnerCandidate = 0;\n    }\n\n    /////////////// Subscription management ///////////////\n\n    function getSubscription(bytes32 productId, address subscriber) public view returns (bool isValid, uint endTimestamp) {\n        (, TimeBasedSubscription storage s) = _getSubscription(productId, subscriber);\n        return (_isValid(s), s.endTimestamp);\n    }\n\n    function getSubscriptionTo(bytes32 productId) public view returns (bool isValid, uint endTimestamp) {\n        return getSubscription(productId, msg.sender);\n    }\n\n    /**\n     * Checks if the given address currently has a valid subscription\n     */\n    function hasValidSubscription(bytes32 productId, address subscriber) public view returns (bool isValid) {\n        (, TimeBasedSubscription storage s) = _getSubscription(productId, subscriber);\n        return _isValid(s);\n    }\n\n    /**\n     * Purchases access to this stream for msg.sender.\n     * If the address already has a valid subscription, extends the subscription by the given period.\n     * @dev since v4.0: Notify the seller if the seller implements PurchaseListener interface\n     */\n    function buy(bytes32 productId, uint subscriptionSeconds) public whenNotHalted {\n        (Product storage product, TimeBasedSubscription storage s) = _getSubscription(productId, msg.sender);\n        require(product.state == ProductState.Deployed, \"error_notDeployed\");\n        _addSubscription(product, msg.sender, subscriptionSeconds, s);\n\n        uint price = getPriceInData(subscriptionSeconds, product.pricePerSecond, product.priceCurrency);\n        require(datacoin.transferFrom(msg.sender, product.beneficiary, price), \"error_paymentFailed\");\n    }\n\n    /**\n    * Transfer a valid subscription from msg.sender to a new address.\n    * If the address already has a valid subscription, extends the subscription by the msg.sender's remaining period.\n    */\n    function transferSubscription(bytes32 productId, address newSubscriber) public whenNotHalted {\n        (Product storage product, TimeBasedSubscription storage s) = _getSubscription(productId, msg.sender);\n        require(_isValid(s), \"error_subscriptionNotValid\");\n        uint secondsLeft = s.endTimestamp.sub(block.timestamp);\n        TimeBasedSubscription storage newSub = product.subscriptions[newSubscriber];\n        _addSubscription(product, newSubscriber, secondsLeft, newSub);\n        delete product.subscriptions[msg.sender];\n        emit SubscriptionTransferred(productId, msg.sender, newSubscriber, secondsLeft);\n    }\n\n    function _getSubscription(bytes32 productId, address subscriber) internal view returns (Product storage p, TimeBasedSubscription storage s) {\n        p = products[productId];\n        require(p.id != 0x0, \"error_notFound\");\n        s = p.subscriptions[subscriber];\n    }\n\n    function _isValid(TimeBasedSubscription storage s) internal view returns (bool) {\n        return s.endTimestamp >= block.timestamp;\n    }\n\n    function _addSubscription(Product storage p, address subscriber, uint addSeconds, TimeBasedSubscription storage oldSub) internal {\n        uint endTimestamp;\n        if (oldSub.endTimestamp > block.timestamp) {\n            require(addSeconds > 0, \"error_topUpTooSmall\");\n            endTimestamp = oldSub.endTimestamp.add(addSeconds);\n            oldSub.endTimestamp = endTimestamp;\n            emit SubscriptionExtended(p.id, subscriber, endTimestamp);\n        } else {\n            require(addSeconds >= p.minimumSubscriptionSeconds, \"error_newSubscriptionTooSmall\");\n            endTimestamp = block.timestamp.add(addSeconds);\n            TimeBasedSubscription memory newSub = TimeBasedSubscription(endTimestamp);\n            p.subscriptions[subscriber] = newSub;\n            emit NewSubscription(p.id, subscriber, endTimestamp);\n        }\n        emit Subscribed(p.id, subscriber, endTimestamp);\n    }\n\n    // TODO: transfer allowance to another Marketplace contract\n    // Mechanism basically is that this Marketplace draws from the allowance and credits\n    //   the account on another Marketplace; OR that there is a central credit pool (say, an ERC20 token)\n    // Creating another ERC20 token for this could be a simple fix: it would need the ability to transfer allowances\n\n    /////////////// Currency management ///////////////\n\n    // Exchange rates are formatted as \"decimal fixed-point\", that is, scaled by 10^18, like ether.\n    //        Exponent: 10^18 15 12  9  6  3  0\n    //                      |  |  |  |  |  |  |\n    uint public dataPerUsd = 100000000000000000;   // ~= 0.1 DATA/USD\n\n    /**\n    * Update currency exchange rates; all purchases are still billed in DATAcoin\n    * @param timestamp in seconds when the exchange rates were last updated\n    * @param dataUsd how many data atoms (10^-18 DATA) equal one USD dollar\n    */\n    function updateExchangeRates(uint timestamp, uint dataUsd) public {\n        require(msg.sender == currencyUpdateAgent, \"error_notPermitted\");\n        require(dataUsd > 0);\n        dataPerUsd = dataUsd;\n        emit ExchangeRatesUpdated(timestamp, dataUsd);\n    }\n\n    /**\n    * Helper function to calculate (hypothetical) subscription cost for given seconds and price, using current exchange rates.\n    * @param subscriptionSeconds length of hypothetical subscription, as a non-scaled integer\n    * @param price nominal price scaled by 10^18 (\"token wei\" or \"attodollars\")\n    * @param unit unit of the number price\n    */\n    function getPriceInData(uint subscriptionSeconds, uint price, Currency unit) public view returns (uint datacoinAmount) {\n        if (unit == Currency.DATA) {\n            return price.mul(subscriptionSeconds);\n        }\n        return price.mul(dataPerUsd).div(10**18).mul(subscriptionSeconds);\n    }\n\n    /////////////// Admin functionality ///////////////\n\n    event Halted();\n    event Resumed();\n    bool public halted = false;\n\n    modifier whenNotHalted() {\n        require(!halted || owner == msg.sender, \"error_halted\");\n        _;\n    }\n    function halt() public onlyOwner {\n        halted = true;\n        emit Halted();\n    }\n    function resume() public onlyOwner {\n        halted = false;\n        emit Resumed();\n    }\n\n    function reInitialize(address datacoinAddress, address currencyUpdateAgentAddress) public onlyOwner {\n        _initialize(datacoinAddress, currencyUpdateAgentAddress);\n    }\n}",
  "sourcePath": "/Users/jtakalai/Documents/workspace/marketplace-contracts/contracts/Marketplace.sol",
  "compiler": {
    "name": "solc",
    "version": "0.4.24+commit.e67f0147.Emscripten.clang"
  },
  "schemaVersion": "2.0.1",
  "updatedAt": "2018-11-09T14:59:54.123Z"
}