{
  "contractName": "Marketplace",
  "abi": [
    {
      "inputs": [
        {
          "internalType": "address",
          "name": "datacoinAddress",
          "type": "address"
        },
        {
          "internalType": "address",
          "name": "currencyUpdateAgentAddress",
          "type": "address"
        },
        {
          "internalType": "address",
          "name": "prev_marketplace_address",
          "type": "address"
        }
      ],
      "payable": false,
      "stateMutability": "nonpayable",
      "type": "constructor"
    },
    {
      "anonymous": false,
      "inputs": [
        {
          "indexed": false,
          "internalType": "uint256",
          "name": "timestamp",
          "type": "uint256"
        },
        {
          "indexed": false,
          "internalType": "uint256",
          "name": "dataInUsd",
          "type": "uint256"
        }
      ],
      "name": "ExchangeRatesUpdated",
      "type": "event"
    },
    {
      "anonymous": false,
      "inputs": [],
      "name": "Halted",
      "type": "event"
    },
    {
      "anonymous": false,
      "inputs": [
        {
          "indexed": true,
          "internalType": "bytes32",
          "name": "productId",
          "type": "bytes32"
        },
        {
          "indexed": true,
          "internalType": "address",
          "name": "subscriber",
          "type": "address"
        },
        {
          "indexed": false,
          "internalType": "uint256",
          "name": "endTimestamp",
          "type": "uint256"
        }
      ],
      "name": "NewSubscription",
      "type": "event"
    },
    {
      "anonymous": false,
      "inputs": [
        {
          "indexed": true,
          "internalType": "address",
          "name": "previousOwner",
          "type": "address"
        },
        {
          "indexed": true,
          "internalType": "address",
          "name": "newOwner",
          "type": "address"
        }
      ],
      "name": "OwnershipTransferred",
      "type": "event"
    },
    {
      "anonymous": false,
      "inputs": [
        {
          "indexed": true,
          "internalType": "address",
          "name": "owner",
          "type": "address"
        },
        {
          "indexed": true,
          "internalType": "bytes32",
          "name": "id",
          "type": "bytes32"
        },
        {
          "indexed": false,
          "internalType": "string",
          "name": "name",
          "type": "string"
        },
        {
          "indexed": false,
          "internalType": "address",
          "name": "beneficiary",
          "type": "address"
        },
        {
          "indexed": false,
          "internalType": "uint256",
          "name": "pricePerSecond",
          "type": "uint256"
        },
        {
          "indexed": false,
          "internalType": "enum IMarketplace.Currency",
          "name": "currency",
          "type": "uint8"
        },
        {
          "indexed": false,
          "internalType": "uint256",
          "name": "minimumSubscriptionSeconds",
          "type": "uint256"
        }
      ],
      "name": "ProductCreated",
      "type": "event"
    },
    {
      "anonymous": false,
      "inputs": [
        {
          "indexed": true,
          "internalType": "address",
          "name": "owner",
          "type": "address"
        },
        {
          "indexed": true,
          "internalType": "bytes32",
          "name": "id",
          "type": "bytes32"
        },
        {
          "indexed": false,
          "internalType": "string",
          "name": "name",
          "type": "string"
        },
        {
          "indexed": false,
          "internalType": "address",
          "name": "beneficiary",
          "type": "address"
        },
        {
          "indexed": false,
          "internalType": "uint256",
          "name": "pricePerSecond",
          "type": "uint256"
        },
        {
          "indexed": false,
          "internalType": "enum IMarketplace.Currency",
          "name": "currency",
          "type": "uint8"
        },
        {
          "indexed": false,
          "internalType": "uint256",
          "name": "minimumSubscriptionSeconds",
          "type": "uint256"
        }
      ],
      "name": "ProductDeleted",
      "type": "event"
    },
    {
      "anonymous": false,
      "inputs": [
        {
          "indexed": true,
          "internalType": "address",
          "name": "owner",
          "type": "address"
        },
        {
          "indexed": true,
          "internalType": "bytes32",
          "name": "id",
          "type": "bytes32"
        },
        {
          "indexed": false,
          "internalType": "string",
          "name": "name",
          "type": "string"
        },
        {
          "indexed": false,
          "internalType": "address",
          "name": "beneficiary",
          "type": "address"
        },
        {
          "indexed": false,
          "internalType": "uint256",
          "name": "pricePerSecond",
          "type": "uint256"
        },
        {
          "indexed": false,
          "internalType": "enum IMarketplace.Currency",
          "name": "currency",
          "type": "uint8"
        },
        {
          "indexed": false,
          "internalType": "uint256",
          "name": "minimumSubscriptionSeconds",
          "type": "uint256"
        }
      ],
      "name": "ProductImported",
      "type": "event"
    },
    {
      "anonymous": false,
      "inputs": [
        {
          "indexed": true,
          "internalType": "address",
          "name": "newOwner",
          "type": "address"
        },
        {
          "indexed": true,
          "internalType": "bytes32",
          "name": "id",
          "type": "bytes32"
        },
        {
          "indexed": true,
          "internalType": "address",
          "name": "oldOwner",
          "type": "address"
        }
      ],
      "name": "ProductOwnershipChanged",
      "type": "event"
    },
    {
      "anonymous": false,
      "inputs": [
        {
          "indexed": true,
          "internalType": "address",
          "name": "owner",
          "type": "address"
        },
        {
          "indexed": true,
          "internalType": "bytes32",
          "name": "id",
          "type": "bytes32"
        },
        {
          "indexed": true,
          "internalType": "address",
          "name": "to",
          "type": "address"
        }
      ],
      "name": "ProductOwnershipOffered",
      "type": "event"
    },
    {
      "anonymous": false,
      "inputs": [
        {
          "indexed": true,
          "internalType": "address",
          "name": "owner",
          "type": "address"
        },
        {
          "indexed": true,
          "internalType": "bytes32",
          "name": "id",
          "type": "bytes32"
        },
        {
          "indexed": false,
          "internalType": "string",
          "name": "name",
          "type": "string"
        },
        {
          "indexed": false,
          "internalType": "address",
          "name": "beneficiary",
          "type": "address"
        },
        {
          "indexed": false,
          "internalType": "uint256",
          "name": "pricePerSecond",
          "type": "uint256"
        },
        {
          "indexed": false,
          "internalType": "enum IMarketplace.Currency",
          "name": "currency",
          "type": "uint8"
        },
        {
          "indexed": false,
          "internalType": "uint256",
          "name": "minimumSubscriptionSeconds",
          "type": "uint256"
        }
      ],
      "name": "ProductRedeployed",
      "type": "event"
    },
    {
      "anonymous": false,
      "inputs": [
        {
          "indexed": true,
          "internalType": "address",
          "name": "owner",
          "type": "address"
        },
        {
          "indexed": true,
          "internalType": "bytes32",
          "name": "id",
          "type": "bytes32"
        },
        {
          "indexed": false,
          "internalType": "string",
          "name": "name",
          "type": "string"
        },
        {
          "indexed": false,
          "internalType": "address",
          "name": "beneficiary",
          "type": "address"
        },
        {
          "indexed": false,
          "internalType": "uint256",
          "name": "pricePerSecond",
          "type": "uint256"
        },
        {
          "indexed": false,
          "internalType": "enum IMarketplace.Currency",
          "name": "currency",
          "type": "uint8"
        },
        {
          "indexed": false,
          "internalType": "uint256",
          "name": "minimumSubscriptionSeconds",
          "type": "uint256"
        }
      ],
      "name": "ProductUpdated",
      "type": "event"
    },
    {
      "anonymous": false,
      "inputs": [],
      "name": "Resumed",
      "type": "event"
    },
    {
      "anonymous": false,
      "inputs": [
        {
          "indexed": true,
          "internalType": "bytes32",
          "name": "productId",
          "type": "bytes32"
        },
        {
          "indexed": true,
          "internalType": "address",
          "name": "subscriber",
          "type": "address"
        },
        {
          "indexed": false,
          "internalType": "uint256",
          "name": "endTimestamp",
          "type": "uint256"
        }
      ],
      "name": "Subscribed",
      "type": "event"
    },
    {
      "anonymous": false,
      "inputs": [
        {
          "indexed": true,
          "internalType": "bytes32",
          "name": "productId",
          "type": "bytes32"
        },
        {
          "indexed": true,
          "internalType": "address",
          "name": "subscriber",
          "type": "address"
        },
        {
          "indexed": false,
          "internalType": "uint256",
          "name": "endTimestamp",
          "type": "uint256"
        }
      ],
      "name": "SubscriptionExtended",
      "type": "event"
    },
    {
      "anonymous": false,
      "inputs": [
        {
          "indexed": true,
          "internalType": "bytes32",
          "name": "productId",
          "type": "bytes32"
        },
        {
          "indexed": true,
          "internalType": "address",
          "name": "subscriber",
          "type": "address"
        },
        {
          "indexed": false,
          "internalType": "uint256",
          "name": "endTimestamp",
          "type": "uint256"
        }
      ],
      "name": "SubscriptionImported",
      "type": "event"
    },
    {
      "anonymous": false,
      "inputs": [
        {
          "indexed": true,
          "internalType": "bytes32",
          "name": "productId",
          "type": "bytes32"
        },
        {
          "indexed": true,
          "internalType": "address",
          "name": "from",
          "type": "address"
        },
        {
          "indexed": true,
          "internalType": "address",
          "name": "to",
          "type": "address"
        },
        {
          "indexed": false,
          "internalType": "uint256",
          "name": "secondsTransferred",
          "type": "uint256"
        }
      ],
      "name": "SubscriptionTransferred",
      "type": "event"
    },
    {
      "anonymous": false,
      "inputs": [
        {
          "indexed": true,
          "internalType": "uint256",
          "name": "newTxFee",
          "type": "uint256"
        }
      ],
      "name": "TxFeeChanged",
      "type": "event"
    },
    {
      "anonymous": false,
      "inputs": [
        {
          "indexed": true,
          "internalType": "bytes32",
          "name": "productId",
          "type": "bytes32"
        },
        {
          "indexed": true,
          "internalType": "address",
          "name": "subscriber",
          "type": "address"
        }
      ],
      "name": "WhitelistApproved",
      "type": "event"
    },
    {
      "anonymous": false,
      "inputs": [
        {
          "indexed": true,
          "internalType": "bytes32",
          "name": "productId",
          "type": "bytes32"
        }
      ],
      "name": "WhitelistDisabled",
      "type": "event"
    },
    {
      "anonymous": false,
      "inputs": [
        {
          "indexed": true,
          "internalType": "bytes32",
          "name": "productId",
          "type": "bytes32"
        }
      ],
      "name": "WhitelistEnabled",
      "type": "event"
    },
    {
      "anonymous": false,
      "inputs": [
        {
          "indexed": true,
          "internalType": "bytes32",
          "name": "productId",
          "type": "bytes32"
        },
        {
          "indexed": true,
          "internalType": "address",
          "name": "subscriber",
          "type": "address"
        }
      ],
      "name": "WhitelistRejected",
      "type": "event"
    },
    {
      "anonymous": false,
      "inputs": [
        {
          "indexed": true,
          "internalType": "bytes32",
          "name": "productId",
          "type": "bytes32"
        },
        {
          "indexed": true,
          "internalType": "address",
          "name": "subscriber",
          "type": "address"
        }
      ],
      "name": "WhitelistRequested",
      "type": "event"
    },
    {
      "constant": false,
      "inputs": [],
      "name": "claimOwnership",
      "outputs": [],
      "payable": false,
      "stateMutability": "nonpayable",
      "type": "function"
    },
    {
      "constant": true,
      "inputs": [],
      "name": "currencyUpdateAgent",
      "outputs": [
        {
          "internalType": "address",
          "name": "",
          "type": "address"
        }
      ],
      "payable": false,
      "stateMutability": "view",
      "type": "function"
    },
    {
      "constant": true,
      "inputs": [],
      "name": "dataPerUsd",
      "outputs": [
        {
          "internalType": "uint256",
          "name": "",
          "type": "uint256"
        }
      ],
      "payable": false,
      "stateMutability": "view",
      "type": "function"
    },
    {
      "constant": true,
      "inputs": [],
      "name": "datacoin",
      "outputs": [
        {
          "internalType": "contract ERC20",
          "name": "",
          "type": "address"
        }
      ],
      "payable": false,
      "stateMutability": "view",
      "type": "function"
    },
    {
      "constant": true,
      "inputs": [],
      "name": "halted",
      "outputs": [
        {
          "internalType": "bool",
          "name": "",
          "type": "bool"
        }
      ],
      "payable": false,
      "stateMutability": "view",
      "type": "function"
    },
    {
      "constant": true,
      "inputs": [],
      "name": "owner",
      "outputs": [
        {
          "internalType": "address",
          "name": "",
          "type": "address"
        }
      ],
      "payable": false,
      "stateMutability": "view",
      "type": "function"
    },
    {
      "constant": true,
      "inputs": [],
      "name": "pendingOwner",
      "outputs": [
        {
          "internalType": "address",
          "name": "",
          "type": "address"
        }
      ],
      "payable": false,
      "stateMutability": "view",
      "type": "function"
    },
    {
      "constant": true,
      "inputs": [
        {
          "internalType": "bytes32",
          "name": "",
          "type": "bytes32"
        }
      ],
      "name": "products",
      "outputs": [
        {
          "internalType": "bytes32",
          "name": "id",
          "type": "bytes32"
        },
        {
          "internalType": "string",
          "name": "name",
          "type": "string"
        },
        {
          "internalType": "address",
          "name": "owner",
          "type": "address"
        },
        {
          "internalType": "address",
          "name": "beneficiary",
          "type": "address"
        },
        {
          "internalType": "uint256",
          "name": "pricePerSecond",
          "type": "uint256"
        },
        {
          "internalType": "enum IMarketplace.Currency",
          "name": "priceCurrency",
          "type": "uint8"
        },
        {
          "internalType": "uint256",
          "name": "minimumSubscriptionSeconds",
          "type": "uint256"
        },
        {
          "internalType": "enum IMarketplace.ProductState",
          "name": "state",
          "type": "uint8"
        },
        {
          "internalType": "address",
          "name": "newOwnerCandidate",
          "type": "address"
        },
        {
          "internalType": "bool",
          "name": "requiresWhitelist",
          "type": "bool"
        }
      ],
      "payable": false,
      "stateMutability": "view",
      "type": "function"
    },
    {
      "constant": false,
      "inputs": [
        {
          "internalType": "address",
          "name": "newOwner",
          "type": "address"
        }
      ],
      "name": "transferOwnership",
      "outputs": [],
      "payable": false,
      "stateMutability": "nonpayable",
      "type": "function"
    },
    {
      "constant": true,
      "inputs": [],
      "name": "txFee",
      "outputs": [
        {
          "internalType": "uint256",
          "name": "",
          "type": "uint256"
        }
      ],
      "payable": false,
      "stateMutability": "view",
      "type": "function"
    },
    {
      "constant": true,
      "inputs": [
        {
          "internalType": "bytes32",
          "name": "id",
          "type": "bytes32"
        }
      ],
      "name": "getProduct",
      "outputs": [
        {
          "internalType": "string",
          "name": "name",
          "type": "string"
        },
        {
          "internalType": "address",
          "name": "owner",
          "type": "address"
        },
        {
          "internalType": "address",
          "name": "beneficiary",
          "type": "address"
        },
        {
          "internalType": "uint256",
          "name": "pricePerSecond",
          "type": "uint256"
        },
        {
          "internalType": "enum IMarketplace.Currency",
          "name": "currency",
          "type": "uint8"
        },
        {
          "internalType": "uint256",
          "name": "minimumSubscriptionSeconds",
          "type": "uint256"
        },
        {
          "internalType": "enum IMarketplace.ProductState",
          "name": "state",
          "type": "uint8"
        },
        {
          "internalType": "bool",
          "name": "requiresWhitelist",
          "type": "bool"
        }
      ],
      "payable": false,
      "stateMutability": "view",
      "type": "function"
    },
    {
      "constant": false,
      "inputs": [
        {
          "internalType": "bytes32",
          "name": "id",
          "type": "bytes32"
        },
        {
          "internalType": "string",
          "name": "name",
          "type": "string"
        },
        {
          "internalType": "address",
          "name": "beneficiary",
          "type": "address"
        },
        {
          "internalType": "uint256",
          "name": "pricePerSecond",
          "type": "uint256"
        },
        {
          "internalType": "enum IMarketplace.Currency",
          "name": "currency",
          "type": "uint8"
        },
        {
          "internalType": "uint256",
          "name": "minimumSubscriptionSeconds",
          "type": "uint256"
        }
      ],
      "name": "createProduct",
      "outputs": [],
      "payable": false,
      "stateMutability": "nonpayable",
      "type": "function"
    },
    {
      "constant": false,
      "inputs": [
        {
          "internalType": "bytes32",
          "name": "id",
          "type": "bytes32"
        },
        {
          "internalType": "string",
          "name": "name",
          "type": "string"
        },
        {
          "internalType": "address",
          "name": "beneficiary",
          "type": "address"
        },
        {
          "internalType": "uint256",
          "name": "pricePerSecond",
          "type": "uint256"
        },
        {
          "internalType": "enum IMarketplace.Currency",
          "name": "currency",
          "type": "uint8"
        },
        {
          "internalType": "uint256",
          "name": "minimumSubscriptionSeconds",
          "type": "uint256"
        }
      ],
      "name": "createProductWithWhitelist",
      "outputs": [],
      "payable": false,
      "stateMutability": "nonpayable",
      "type": "function"
    },
    {
      "constant": false,
      "inputs": [
        {
          "internalType": "bytes32",
          "name": "productId",
          "type": "bytes32"
        }
      ],
      "name": "deleteProduct",
      "outputs": [],
      "payable": false,
      "stateMutability": "nonpayable",
      "type": "function"
    },
    {
      "constant": false,
      "inputs": [
        {
          "internalType": "bytes32",
          "name": "productId",
          "type": "bytes32"
        }
      ],
      "name": "redeployProduct",
      "outputs": [],
      "payable": false,
      "stateMutability": "nonpayable",
      "type": "function"
    },
    {
      "constant": false,
      "inputs": [
        {
          "internalType": "bytes32",
          "name": "productId",
          "type": "bytes32"
        },
        {
          "internalType": "string",
          "name": "name",
          "type": "string"
        },
        {
          "internalType": "address",
          "name": "beneficiary",
          "type": "address"
        },
        {
          "internalType": "uint256",
          "name": "pricePerSecond",
          "type": "uint256"
        },
        {
          "internalType": "enum IMarketplace.Currency",
          "name": "currency",
          "type": "uint8"
        },
        {
          "internalType": "uint256",
          "name": "minimumSubscriptionSeconds",
          "type": "uint256"
        }
      ],
      "name": "updateProduct",
      "outputs": [],
      "payable": false,
      "stateMutability": "nonpayable",
      "type": "function"
    },
    {
      "constant": false,
      "inputs": [
        {
          "internalType": "bytes32",
          "name": "productId",
          "type": "bytes32"
        },
        {
          "internalType": "address",
          "name": "newOwnerCandidate",
          "type": "address"
        }
      ],
      "name": "offerProductOwnership",
      "outputs": [],
      "payable": false,
      "stateMutability": "nonpayable",
      "type": "function"
    },
    {
      "constant": false,
      "inputs": [
        {
          "internalType": "bytes32",
          "name": "productId",
          "type": "bytes32"
        }
      ],
      "name": "claimProductOwnership",
      "outputs": [],
      "payable": false,
      "stateMutability": "nonpayable",
      "type": "function"
    },
    {
      "constant": false,
      "inputs": [
        {
          "internalType": "bytes32",
          "name": "productId",
          "type": "bytes32"
        },
        {
          "internalType": "bool",
          "name": "_requiresWhitelist",
          "type": "bool"
        }
      ],
      "name": "setRequiresWhitelist",
      "outputs": [],
      "payable": false,
      "stateMutability": "nonpayable",
      "type": "function"
    },
    {
      "constant": false,
      "inputs": [
        {
          "internalType": "bytes32",
          "name": "productId",
          "type": "bytes32"
        },
        {
          "internalType": "address",
          "name": "subscriber",
          "type": "address"
        }
      ],
      "name": "whitelistApprove",
      "outputs": [],
      "payable": false,
      "stateMutability": "nonpayable",
      "type": "function"
    },
    {
      "constant": false,
      "inputs": [
        {
          "internalType": "bytes32",
          "name": "productId",
          "type": "bytes32"
        },
        {
          "internalType": "address",
          "name": "subscriber",
          "type": "address"
        }
      ],
      "name": "whitelistReject",
      "outputs": [],
      "payable": false,
      "stateMutability": "nonpayable",
      "type": "function"
    },
    {
      "constant": false,
      "inputs": [
        {
          "internalType": "bytes32",
          "name": "productId",
          "type": "bytes32"
        }
      ],
      "name": "whitelistRequest",
      "outputs": [],
      "payable": false,
      "stateMutability": "nonpayable",
      "type": "function"
    },
    {
      "constant": true,
      "inputs": [
        {
          "internalType": "bytes32",
          "name": "productId",
          "type": "bytes32"
        },
        {
          "internalType": "address",
          "name": "subscriber",
          "type": "address"
        }
      ],
      "name": "getWhitelistState",
      "outputs": [
        {
          "internalType": "enum IMarketplace.WhitelistState",
          "name": "wlstate",
          "type": "uint8"
        }
      ],
      "payable": false,
      "stateMutability": "view",
      "type": "function"
    },
    {
      "constant": true,
      "inputs": [
        {
          "internalType": "bytes32",
          "name": "productId",
          "type": "bytes32"
        },
        {
          "internalType": "address",
          "name": "subscriber",
          "type": "address"
        }
      ],
      "name": "getSubscription",
      "outputs": [
        {
          "internalType": "bool",
          "name": "isValid",
          "type": "bool"
        },
        {
          "internalType": "uint256",
          "name": "endTimestamp",
          "type": "uint256"
        }
      ],
      "payable": false,
      "stateMutability": "view",
      "type": "function"
    },
    {
      "constant": true,
      "inputs": [
        {
          "internalType": "bytes32",
          "name": "productId",
          "type": "bytes32"
        }
      ],
      "name": "getSubscriptionTo",
      "outputs": [
        {
          "internalType": "bool",
          "name": "isValid",
          "type": "bool"
        },
        {
          "internalType": "uint256",
          "name": "endTimestamp",
          "type": "uint256"
        }
      ],
      "payable": false,
      "stateMutability": "view",
      "type": "function"
    },
    {
      "constant": true,
      "inputs": [
        {
          "internalType": "bytes32",
          "name": "productId",
          "type": "bytes32"
        },
        {
          "internalType": "address",
          "name": "subscriber",
          "type": "address"
        }
      ],
      "name": "hasValidSubscription",
      "outputs": [
        {
          "internalType": "bool",
          "name": "isValid",
          "type": "bool"
        }
      ],
      "payable": false,
      "stateMutability": "view",
      "type": "function"
    },
    {
      "constant": false,
      "inputs": [
        {
          "internalType": "bytes32",
          "name": "productId",
          "type": "bytes32"
        },
        {
          "internalType": "uint256",
          "name": "subscriptionSeconds",
          "type": "uint256"
        },
        {
          "internalType": "address",
          "name": "recipient",
          "type": "address"
        }
      ],
      "name": "grantSubscription",
      "outputs": [],
      "payable": false,
      "stateMutability": "nonpayable",
      "type": "function"
    },
    {
      "constant": false,
      "inputs": [
        {
          "internalType": "bytes32",
          "name": "productId",
          "type": "bytes32"
        },
        {
          "internalType": "uint256",
          "name": "subscriptionSeconds",
          "type": "uint256"
        },
        {
          "internalType": "address",
          "name": "recipient",
          "type": "address"
        }
      ],
      "name": "buyFor",
      "outputs": [],
      "payable": false,
      "stateMutability": "nonpayable",
      "type": "function"
    },
    {
      "constant": false,
      "inputs": [
        {
          "internalType": "bytes32",
          "name": "productId",
          "type": "bytes32"
        },
        {
          "internalType": "uint256",
          "name": "subscriptionSeconds",
          "type": "uint256"
        }
      ],
      "name": "buy",
      "outputs": [],
      "payable": false,
      "stateMutability": "nonpayable",
      "type": "function"
    },
    {
      "constant": false,
      "inputs": [
        {
          "internalType": "uint256",
          "name": "timestamp",
          "type": "uint256"
        },
        {
          "internalType": "uint256",
          "name": "dataUsd",
          "type": "uint256"
        }
      ],
      "name": "updateExchangeRates",
      "outputs": [],
      "payable": false,
      "stateMutability": "nonpayable",
      "type": "function"
    },
    {
      "constant": true,
      "inputs": [
        {
          "internalType": "uint256",
          "name": "subscriptionSeconds",
          "type": "uint256"
        },
        {
          "internalType": "uint256",
          "name": "price",
          "type": "uint256"
        },
        {
          "internalType": "enum IMarketplace.Currency",
          "name": "unit",
          "type": "uint8"
        }
      ],
      "name": "getPriceInData",
      "outputs": [
        {
          "internalType": "uint256",
          "name": "datacoinAmount",
          "type": "uint256"
        }
      ],
      "payable": false,
      "stateMutability": "view",
      "type": "function"
    },
    {
      "constant": false,
      "inputs": [],
      "name": "halt",
      "outputs": [],
      "payable": false,
      "stateMutability": "nonpayable",
      "type": "function"
    },
    {
      "constant": false,
      "inputs": [],
      "name": "resume",
      "outputs": [],
      "payable": false,
      "stateMutability": "nonpayable",
      "type": "function"
    },
    {
      "constant": false,
      "inputs": [
        {
          "internalType": "address",
          "name": "datacoinAddress",
          "type": "address"
        },
        {
          "internalType": "address",
          "name": "currencyUpdateAgentAddress",
          "type": "address"
        },
        {
          "internalType": "address",
          "name": "prev_marketplace_address",
          "type": "address"
        }
      ],
      "name": "reInitialize",
      "outputs": [],
      "payable": false,
      "stateMutability": "nonpayable",
      "type": "function"
    },
    {
      "constant": false,
      "inputs": [
        {
          "internalType": "uint256",
          "name": "newTxFee",
          "type": "uint256"
        }
      ],
      "name": "setTxFee",
      "outputs": [],
      "payable": false,
      "stateMutability": "nonpayable",
      "type": "function"
    }
  ],
  "bytecode": "0x608060405267016345785d8a00006007556008805460ff191690553480156200002757600080fd5b506040516200406838038062004068833981810160405260608110156200004d57600080fd5b5080516020820151604090920151600080546001600160a01b03191633179055909190620000868383836001600160e01b036200008f16565b505050620000cc565b600380546001600160a01b03199081166001600160a01b039485161790915560028054821694841694909417909355600480549093169116179055565b613f8c80620000dc6000396000f3fe608060405234801561001057600080fd5b50600436106102115760003560e01c806379c88f2011610125578063cafbc49d116100ad578063de2273241161007c578063de227324146109f7578063e0d5b9e114610a1c578063e30c397814610a39578063f05d16f714610a41578063f2fde38b14610a5e57610211565b8063cafbc49d146108fc578063cf820461146109c4578063d50a04f4146109cc578063db6c709c146109d457610211565b806396002aef116100f457806396002aef14610812578063a4b138b01461083e578063b14f843214610876578063b9b8af0b146108b6578063bee7d433146108be57610211565b806379c88f20146107c157806389aaad29146107e55780638da5cb5b146107ed57806394727b41146107f557610211565b80634d8a9499116101a857806358f816bf1161017757806358f816bf1461057e5780635ed7ca5b1461059b5780635f28cb74146105a3578063683ec0a7146105cf578063790543911461069757610211565b80634d8a9499146104c25780634e71e0c8146104ee57806353f81ef8146104f657806357fa3db71461052e57610211565b80631f4e09af116101e45780631f4e09af1461029257806325cc3a20146102c45780633a20e9df146102f05780634a54fb0a146103fa57610211565b80630398751214610216578063046f7da21461024a5780630ddeb632146102525780631a464fa114610275575b600080fd5b6102486004803603606081101561022c57600080fd5b50803590602081013590604001356001600160a01b0316610a84565b005b610248610af2565b6102486004803603604081101561026857600080fd5b5080359060200135610b72565b6102486004803603602081101561028b57600080fd5b5035610bdd565b610248600480360360608110156102a857600080fd5b50803590602081013590604001356001600160a01b0316610d12565b610248600480360360408110156102da57600080fd5b50803590602001356001600160a01b0316610e50565b61030d6004803603602081101561030657600080fd5b5035611029565b6040518080602001896001600160a01b03166001600160a01b03168152602001886001600160a01b03166001600160a01b0316815260200187815260200186600181111561035757fe5b60ff16815260200185815260200184600181111561037157fe5b60ff1681526020018315151515815260200182810382528a818151815260200191508051906020019080838360005b838110156103b85781810151838201526020016103a0565b50505050905090810190601f1680156103e55780820380516001836020036101000a031916815260200191505b50995050505050505050505060405180910390f35b610248600480360360c081101561041057600080fd5b81359190810190604081016020820135600160201b81111561043157600080fd5b82018360208201111561044357600080fd5b803590602001918460018302840111600160201b8311171561046457600080fd5b91908080601f016020809104026020016040519081016040528093929190818152602001838380828437600092019190915250929550506001600160a01b038335169350505060208101359060ff60408201351690606001356111dd565b610248600480360360408110156104d857600080fd5b50803590602001356001600160a01b0316611468565b610248611641565b6105136004803603602081101561050c57600080fd5b50356116f7565b60408051921515835260208301919091528051918290030190f35b61055a6004803603604081101561054457600080fd5b50803590602001356001600160a01b031661170d565b6040518082600381111561056a57fe5b60ff16815260200191505060405180910390f35b6102486004803603602081101561059457600080fd5b50356117ad565b610248611a28565b610513600480360360408110156105b957600080fd5b50803590602001356001600160a01b0316611aab565b610248600480360360c08110156105e557600080fd5b81359190810190604081016020820135600160201b81111561060657600080fd5b82018360208201111561061857600080fd5b803590602001918460018302840111600160201b8311171561063957600080fd5b91908080601f016020809104026020016040519081016040528093929190818152602001838380828437600092019190915250929550506001600160a01b038335169350505060208101359060ff6040820135169060600135611d7a565b6106b4600480360360208110156106ad57600080fd5b5035611e19565b604051808b8152602001806020018a6001600160a01b03166001600160a01b03168152602001896001600160a01b03166001600160a01b0316815260200188815260200187600181111561070457fe5b60ff16815260200186815260200185600181111561071e57fe5b60ff168152602001846001600160a01b03166001600160a01b031681526020018315151515815260200182810382528b818151815260200191508051906020019080838360005b8381101561077d578181015183820152602001610765565b50505050905090810190601f1680156107aa5780820380516001836020036101000a031916815260200191505b509b50505050505050505050505060405180910390f35b6107c9611f0d565b604080516001600160a01b039092168252519081900360200190f35b6107c9611f1c565b6107c9611f2b565b6102486004803603602081101561080b57600080fd5b5035611f3a565b6102486004803603604081101561082857600080fd5b50803590602001356001600160a01b0316612106565b6102486004803603606081101561085457600080fd5b506001600160a01b03813581169160208101358216916040909101351661224f565b6108a26004803603604081101561088c57600080fd5b50803590602001356001600160a01b03166122a5565b604080519115158252519081900360200190f35b6108a26122b9565b6108ea600480360360608110156108d457600080fd5b508035906020810135906040013560ff166122c2565b60408051918252519081900360200190f35b610248600480360360c081101561091257600080fd5b81359190810190604081016020820135600160201b81111561093357600080fd5b82018360208201111561094557600080fd5b803590602001918460018302840111600160201b8311171561096657600080fd5b91908080601f016020809104026020016040519081016040528093929190818152602001838380828437600092019190915250929550506001600160a01b038335169350505060208101359060ff6040820135169060600135612335565b6108ea6123a9565b6108ea6123af565b610248600480360360408110156109ea57600080fd5b50803590602001356123b5565b61024860048036036040811015610a0d57600080fd5b50803590602001351515612496565b61024860048036036020811015610a3257600080fd5b5035612646565b6107c96127a1565b61024860048036036020811015610a5757600080fd5b50356127b0565b61024860048036036020811015610a7457600080fd5b50356001600160a01b0316612880565b60085460ff161580610aa057506000546001600160a01b031633145b610ae0576040805162461bcd60e51b815260206004820152600c60248201526b195c9c9bdc97da185b1d195960a21b604482015290519081900360640190fd5b610aed83838360016128ed565b505050565b6000546001600160a01b03163314610b3d576040805162461bcd60e51b815260206004820152600960248201526837b7363ca7bbb732b960b91b604482015290519081900360640190fd5b6008805460ff191690556040517f62451d457bc659158be6e6247f56ec1df424a5c7597f71c20c2bc44e0965c8f990600090a1565b60085460ff161580610b8e57506000546001600160a01b031633145b610bce576040805162461bcd60e51b815260206004820152600c60248201526b195c9c9bdc97da185b1d195960a21b604482015290519081900360640190fd5b610bd9828233610a84565b5050565b60085460ff161580610bf957506000546001600160a01b031633145b610c39576040805162461bcd60e51b815260206004820152600c60248201526b195c9c9bdc97da185b1d195960a21b604482015290519081900360640190fd5b610c4281612f80565b506000818152600660205260409020600781015461010090046001600160a01b03163314610cac576040805162461bcd60e51b8152602060048201526012602482015271195c9c9bdc97db9bdd14195c9b5a5d1d195960721b604482015290519081900360640190fd5b60028101546040516001600160a01b0390911690839033907eaf27297c740fbece798135b71b06164310e0591b6c729e50b8026dcc60be5090600090a46002810180546001600160a01b031916331790556007018054610100600160a81b031916905550565b60085460ff161580610d2e57506000546001600160a01b031633145b610d6e576040805162461bcd60e51b815260206004820152600c60248201526b195c9c9bdc97da185b1d195960a21b604482015290519081900360640190fd5b826000610d7a82611029565b50505050505091505060006001600160a01b0316816001600160a01b03161415610ddc576040805162461bcd60e51b815260206004820152600e60248201526d195c9c9bdc97db9bdd119bdd5b9960921b604482015290519081900360640190fd5b6001600160a01b038116331480610dfd57506000546001600160a01b031633145b610e3c576040805162461bcd60e51b81526020600482015260176024820152600080516020613ef1833981519152604482015290519081900360640190fd5b610e4985858560006128ed565b5050505050565b816000610e5c82611029565b50505050505091505060006001600160a01b0316816001600160a01b03161415610ebe576040805162461bcd60e51b815260206004820152600e60248201526d195c9c9bdc97db9bdd119bdd5b9960921b604482015290519081900360640190fd5b6001600160a01b038116331480610edf57506000546001600160a01b031633145b610f1e576040805162461bcd60e51b81526020600482015260176024820152600080516020613ef1833981519152604482015290519081900360640190fd5b610f2784612f80565b5060008481526006602052604090208054610f7a576040805162461bcd60e51b815260206004820152600e60248201526d195c9c9bdc97db9bdd119bdd5b9960921b604482015290519081900360640190fd5b6007810154600160a81b900460ff16610fd6576040805162461bcd60e51b8152602060048201526019602482015278195c9c9bdc97ddda1a5d195b1a5cdd139bdd115b98589b1959603a1b604482015290519081900360640190fd5b6001600160a01b0384166000818152600983016020526040808220805460ff191660021790555187917f391da9ecb91abda3886c59d98ecdb8fa7154c525b5c6a575ef67cef1f5a8d85491a35050505050565b6060600080600080600080600061103f89613331565b969e50949c50929a5090985096509450925090506001600160a01b03871615611067576111d2565b6004805460408051633a20e9df60e01b81529283018c9052516001600160a01b0390911691633a20e9df916024808301926000929190829003018186803b1580156110b157600080fd5b505afa1580156110c5573d6000803e3d6000fd5b505050506040513d6000823e601f3d908101601f1916820160405260e08110156110ee57600080fd5b8101908080516040519392919084600160201b82111561110d57600080fd5b90830190602082018581111561112257600080fd5b8251600160201b81118282018810171561113b57600080fd5b82525081516020918201929091019080838360005b83811015611168578181015183820152602001611150565b50505050905090810190601f1680156111955780820380516001836020036101000a031916815260200191505b5060409081526020820151908201516060830151608084015160a085015160c090950151979f50929d50909b509950975095509193506000925050505b919395975091939597565b8560006111e982611029565b50505050505091505060006001600160a01b0316816001600160a01b0316141561124b576040805162461bcd60e51b815260206004820152600e60248201526d195c9c9bdc97db9bdd119bdd5b9960921b604482015290519081900360640190fd5b6001600160a01b03811633148061126c57506000546001600160a01b031633145b6112ab576040805162461bcd60e51b81526020600482015260176024820152600080516020613ef1833981519152604482015290519081900360640190fd5b60008511611300576040805162461bcd60e51b815260206004820152601e60248201527f6572726f725f6672656550726f64756374734e6f74537570706f727465640000604482015290519081900360640190fd5b61130988612f80565b506000888152600660209081526040909120885190916113309160018401918b0190613dee565b506003810180546001600160a01b0319166001600160a01b0389161790556004810186905560058101805486919060ff19166001838181111561136f57fe5b02179055506006810184905580546002820154604080516001600160a01b038b811660208301529181018a90529116907f21953ef62f6c172d864b9ae2181d3c7114ef506c3546057e354cf6b5bab03ec4908b908b908b908b908b9080606081018460018111156113dc57fe5b60ff168152602001838152602001828103825287818151815260200191508051906020019080838360005b8381101561141f578181015183820152602001611407565b50505050905090810190601f16801561144c5780820380516001836020036101000a031916815260200191505b50965050505050505060405180910390a3505050505050505050565b81600061147482611029565b50505050505091505060006001600160a01b0316816001600160a01b031614156114d6576040805162461bcd60e51b815260206004820152600e60248201526d195c9c9bdc97db9bdd119bdd5b9960921b604482015290519081900360640190fd5b6001600160a01b0381163314806114f757506000546001600160a01b031633145b611536576040805162461bcd60e51b81526020600482015260176024820152600080516020613ef1833981519152604482015290519081900360640190fd5b61153f84612f80565b5060008481526006602052604090208054611592576040805162461bcd60e51b815260206004820152600e60248201526d195c9c9bdc97db9bdd119bdd5b9960921b604482015290519081900360640190fd5b6007810154600160a81b900460ff166115ee576040805162461bcd60e51b8152602060048201526019602482015278195c9c9bdc97ddda1a5d195b1a5cdd139bdd115b98589b1959603a1b604482015290519081900360640190fd5b6001600160a01b0384166000818152600983016020526040808220805460ff191660031790555187917f71195ce6244a4b5ea0742ce64ede6bac9a2111edb4e732886198ff6ecf58651c91a35050505050565b6001546001600160a01b03163314611693576040805162461bcd60e51b815260206004820152601060248201526f37b7363ca832b73234b733a7bbb732b960811b604482015290519081900360640190fd5b600154600080546040516001600160a01b0393841693909116917f8be0079c531659141344cd1fd0a4f28419497f9722a3daafe3b4186f6b6457e091a360018054600080546001600160a01b03199081166001600160a01b03841617909155169055565b6000806117048333611aab565b91509150915091565b60008061171984611029565b50505050505091505060006001600160a01b0316816001600160a01b0316141561177b576040805162461bcd60e51b815260206004820152600e60248201526d195c9c9bdc97db9bdd119bdd5b9960921b604482015290519081900360640190fd5b505060008281526006602090815260408083206001600160a01b038516845260090190915290205460ff165b92915050565b8060006117b982611029565b50505050505091505060006001600160a01b0316816001600160a01b0316141561181b576040805162461bcd60e51b815260206004820152600e60248201526d195c9c9bdc97db9bdd119bdd5b9960921b604482015290519081900360640190fd5b6001600160a01b03811633148061183c57506000546001600160a01b031633145b61187b576040805162461bcd60e51b81526020600482015260176024820152600080516020613ef1833981519152604482015290519081900360640190fd5b61188483612f80565b50600083815260066020526040812090600782015460ff1660018111156118a757fe5b146118f9576040805162461bcd60e51b815260206004820152601760248201527f6572726f725f6d75737442654e6f744465706c6f796564000000000000000000604482015290519081900360640190fd5b60078101805460ff1916600190811790915560028201546003830154600484015460058501546006860154604080516001600160a01b03958616602082018190529181018590528b9795909616957f07ace6911e28d0d5b2e773ce49cdfa29db157b38bffccd5f0b56f02cfba8a64f95808a01959294929360ff90931692919081906060820190859081111561198b57fe5b60ff1681526020810184905260408382038101835288546002600182161561010002600019019091160490820181905260609091019088908015611a105780601f106119e557610100808354040283529160200191611a10565b820191906000526020600020905b8154815290600101906020018083116119f357829003601f168201915b5050965050505050505060405180910390a350505050565b6000546001600160a01b03163314611a73576040805162461bcd60e51b815260206004820152600960248201526837b7363ca7bbb732b960b91b604482015290519081900360640190fd5b6008805460ff191660011790556040517f1ee9080f6b55ca44ce58681c8162e6c1ac1c47e1da791a4a1c1ec6186d8af1f390600090a1565b6000806000611ab985613331565b50505050505091505060006001600160a01b0316816001600160a01b03161415611b6a5760048054604080516317ca32dd60e21b81529283018890526001600160a01b0387811660248501528151921692635f28cb749260448083019392829003018186803b158015611b2b57600080fd5b505afa158015611b3f573d6000803e3d6000fd5b505050506040513d6040811015611b5557600080fd5b5080516020909101519093509150611d739050565b6000611b76868661350b565b805490925015159050611d61576004805460408051633a20e9df60e01b8152928301899052516000926001600160a01b0390921691633a20e9df9160248083019286929190829003018186803b158015611bcf57600080fd5b505afa158015611be3573d6000803e3d6000fd5b505050506040513d6000823e601f3d908101601f1916820160405260e0811015611c0c57600080fd5b8101908080516040519392919084600160201b821115611c2b57600080fd5b908301906020820185811115611c4057600080fd5b8251600160201b811182820188101715611c5957600080fd5b82525081516020918201929091019080838360005b83811015611c86578181015183820152602001611c6e565b50505050905090810190601f168015611cb35780820380516001836020036101000a031916815260200191505b5060405260200151935050506001600160a01b038216159050611d5f5760048054604080516317ca32dd60e21b81529283018a90526001600160a01b0389811660248501528151921692635f28cb749260448083019392829003018186803b158015611d1e57600080fd5b505afa158015611d32573d6000803e3d6000fd5b505050506040513d6040811015611d4857600080fd5b5080516020909101519095509350611d7392505050565b505b611d6a81613583565b90549093509150505b9250929050565b60085460ff161580611d9657506000546001600160a01b031633145b611dd6576040805162461bcd60e51b815260206004820152600c60248201526b195c9c9bdc97da185b1d195960a21b604482015290519081900360640190fd5b611de6868686868686600161358a565b60405186907f507847149b655f0d87f5cadd67619cd1c0a53b2cbb153d2f08f83614b4c29b7890600090a2505050505050565b6006602090815260009182526040918290208054600180830180548651600293821615610100026000190190911692909204601f810186900486028301860190965285825291949293909290830182828015611eb65780601f10611e8b57610100808354040283529160200191611eb6565b820191906000526020600020905b815481529060010190602001808311611e9957829003601f168201915b5050506002840154600385015460048601546005870154600688015460079098015496976001600160a01b0394851697938516965091945060ff9081169391928082169261010082041691600160a81b909104168a565b6002546001600160a01b031681565b6003546001600160a01b031681565b6000546001600160a01b031681565b806000611f4682611029565b50505050505091505060006001600160a01b0316816001600160a01b03161415611fa8576040805162461bcd60e51b815260206004820152600e60248201526d195c9c9bdc97db9bdd119bdd5b9960921b604482015290519081900360640190fd5b6001600160a01b038116331480611fc957506000546001600160a01b031633145b612008576040805162461bcd60e51b81526020600482015260176024820152600080516020613ef1833981519152604482015290519081900360640190fd5b61201183612f80565b5060008381526006602052604090206001600782015460ff16600181111561203557fe5b1461207b576040805162461bcd60e51b8152602060048201526011602482015270195c9c9bdc97db9bdd11195c1b1bde5959607a1b604482015290519081900360640190fd5b60078101805460ff1916905560028101546003820154600483015460058401546006850154604080516001600160a01b03958616602082018190529181018590528a9695909516947ffc64345d61f75f77f5039b0e23107d4abd73ecb7cd6c94fd44e8a6dd85918f6a946001808a01959394919360ff16929081906060820190859081111561198b57fe5b81600061211282611029565b50505050505091505060006001600160a01b0316816001600160a01b03161415612174576040805162461bcd60e51b815260206004820152600e60248201526d195c9c9bdc97db9bdd119bdd5b9960921b604482015290519081900360640190fd5b6001600160a01b03811633148061219557506000546001600160a01b031633145b6121d4576040805162461bcd60e51b81526020600482015260176024820152600080516020613ef1833981519152604482015290519081900360640190fd5b6121dd84612f80565b50600084815260066020526040808220600781018054610100600160a81b0319166101006001600160a01b0389811691820292909217909255600290920154925190938893909216917f62160e4abadfc3a6afc583d10586d737c813753fe64d93f4283282b2b600a34491a450505050565b6000546001600160a01b0316331461229a576040805162461bcd60e51b815260206004820152600960248201526837b7363ca7bbb732b960b91b604482015290519081900360640190fd5b610aed8383836138e6565b60006122b18383611aab565b509392505050565b60085460ff1681565b6000808260018111156122d157fe5b14156122ee576122e7838563ffffffff61392316565b905061232e565b61232b8461231f670de0b6b3a76400006123136007548861392390919063ffffffff16565b9063ffffffff61397c16565b9063ffffffff61392316565b90505b9392505050565b60085460ff16158061235157506000546001600160a01b031633145b612391576040805162461bcd60e51b815260206004820152600c60248201526b195c9c9bdc97da185b1d195960a21b604482015290519081900360640190fd5b6123a1868686868686600061358a565b505050505050565b60055481565b60075481565b6003546001600160a01b03163314612409576040805162461bcd60e51b8152602060048201526012602482015271195c9c9bdc97db9bdd14195c9b5a5d1d195960721b604482015290519081900360640190fd5b60008111612452576040805162461bcd60e51b81526020600482015260116024820152706572726f725f696e76616c69645261746560781b604482015290519081900360640190fd5b6007819055604080518381526020810183905281517fc84d758f9836fe65b8f2be13d5e364b9373411e1158b63c1c5abbbae78949609929181900390910190a15050565b8160006124a282611029565b50505050505091505060006001600160a01b0316816001600160a01b03161415612504576040805162461bcd60e51b815260206004820152600e60248201526d195c9c9bdc97db9bdd119bdd5b9960921b604482015290519081900360640190fd5b6001600160a01b03811633148061252557506000546001600160a01b031633145b612564576040805162461bcd60e51b81526020600482015260176024820152600080516020613ef1833981519152604482015290519081900360640190fd5b61256d84612f80565b50600084815260066020526040902080546125c0576040805162461bcd60e51b815260206004820152600e60248201526d195c9c9bdc97db9bdd119bdd5b9960921b604482015290519081900360640190fd5b60078101805485158015600160a81b0260ff60a81b19909216919091179091556126145760405185907f507847149b655f0d87f5cadd67619cd1c0a53b2cbb153d2f08f83614b4c29b7890600090a2610e49565b60405185907fd8eb01debfba6841d33231e9b6df615367d622af29059b91eeb39b62f81f79ca90600090a25050505050565b61264f81612f80565b50600081815260066020526040902080546126a2576040805162461bcd60e51b815260206004820152600e60248201526d195c9c9bdc97db9bdd119bdd5b9960921b604482015290519081900360640190fd5b6007810154600160a81b900460ff166126fe576040805162461bcd60e51b8152602060048201526019602482015278195c9c9bdc97ddda1a5d195b1a5cdd139bdd115b98589b1959603a1b604482015290519081900360640190fd5b33600090815260098201602052604081205460ff16600381111561271e57fe5b1461275a5760405162461bcd60e51b8152600401808060200182810382526026815260200180613f326026913960400191505060405180910390fd5b336000818152600983016020526040808220805460ff191660011790555184917fd07377dfece33da04bb307fc530a0eb06929f31a09309c84ae38079aad7b16a891a35050565b6001546001600160a01b031681565b6000546001600160a01b031633146127fb576040805162461bcd60e51b815260206004820152600960248201526837b7363ca7bbb732b960b91b604482015290519081900360640190fd5b670de0b6b3a764000081111561284d576040805162461bcd60e51b81526020600482015260126024820152716572726f725f696e76616c6964547846656560701b604482015290519081900360640190fd5b600581905560405181907f3115e922830fe4bd99b46316ef2a8939b665b45d008bc585fb784f754abf038b90600090a250565b6000546001600160a01b031633146128cb576040805162461bcd60e51b815260206004820152600960248201526837b7363ca7bbb732b960b91b604482015290519081900360640190fd5b600180546001600160a01b0319166001600160a01b0392909216919091179055565b6128f784836139be565b50600080612905868561350b565b90925090506001600783015460ff16600181111561291f57fe5b14612965576040805162461bcd60e51b8152602060048201526011602482015270195c9c9bdc97db9bdd11195c1b1bde5959607a1b604482015290519081900360640190fd5b6007820154600160a81b900460ff1615806129a8575060026001600160a01b038516600090815260098401602052604090205460ff1660038111156129a657fe5b145b6129f9576040805162461bcd60e51b815260206004820152601960248201527f6572726f725f77686974656c6973744e6f74416c6c6f77656400000000000000604482015290519081900360640190fd5b60004282600001541115612aaf5760008611612a52576040805162461bcd60e51b8152602060048201526013602482015272195c9c9bdc97dd1bdc155c151bdbd4db585b1b606a1b604482015290519081900360640190fd5b8154612a64908763ffffffff613c5616565b80835583546040805183815290519293506001600160a01b038816927f602ca7f17c81aa5e62b3381000dd445f5af7c333574da85f4b246288afc073229181900360200190a3612b86565b8260060154861015612b08576040805162461bcd60e51b815260206004820152601d60248201527f6572726f725f6e6577537562736372697074696f6e546f6f536d616c6c000000604482015290519081900360640190fd5b612b18428763ffffffff613c5616565b9050612b22613e6c565b5060408051602080820183528382526001600160a01b0388166000818152600888018352849020835190558654845186815294519394919390927f9c3ab7e86c11d820cc311335294ebdf7299d8637d47253b930c4120b775d7cca928290030190a3505b82546040805183815290516001600160a01b03881692917fe22e8c2d8a284063fec10f270bc3c776ffb40bcf816b73eef36354d5f3d7b3d4919081900360200190a3600383015460009081906001600160a01b03168615612df95760048601546005870154612bf9918b9160ff166122c2565b9250612c1c670de0b6b3a76400006123138560055461392390919063ffffffff16565b6002549092506001600160a01b03166323b872dd3383612c42878763ffffffff613cb016565b6040518463ffffffff1660e01b815260040180846001600160a01b03166001600160a01b03168152602001836001600160a01b03166001600160a01b031681526020018281526020019350505050602060405180830381600087803b158015612caa57600080fd5b505af1158015612cbe573d6000803e3d6000fd5b505050506040513d6020811015612cd457600080fd5b5051612d1d576040805162461bcd60e51b8152602060048201526013602482015272195c9c9bdc97dc185e5b595b9d11985a5b1959606a1b604482015290519081900360640190fd5b8115612df95760025460008054604080516323b872dd60e01b81523360048201526001600160a01b03928316602482015260448101879052905191909316926323b872dd9260648083019360209390929083900390910190829087803b158015612d8657600080fd5b505af1158015612d9a573d6000803e3d6000fd5b505050506040513d6020811015612db057600080fd5b5051612df9576040805162461bcd60e51b8152602060048201526013602482015272195c9c9bdc97dc185e5b595b9d11985a5b1959606a1b604482015290519081900360640190fd5b803b8015612f7357855460408051602481018e90526001600160a01b038c8116604483015260648201939093526084810187905260a48082018790528251808303909101815260c490910182526020810180516001600160e01b03166301290e7360e61b178152915181516000946060949088169392918291908083835b60208310612e965780518252601f199092019160209182019101612e77565b6001836020036101000a0380198251168184511680821785525050505050509050019150506000604051808303816000865af19150503d8060008114612ef8576040519150601f19603f3d011682016040523d82523d6000602084013e612efd565b606091505b50915091508115612f70576000818060200190516020811015612f1f57600080fd5b5051905080612f6e576040805162461bcd60e51b815260206004820152601660248201527532b93937b92fb932b532b1ba32b2213ca9b2b63632b960511b604482015290519081900360640190fd5b505b50505b5050505050505050505050565b6000818152600660205260408120805415612f9f57600091505061332c565b6060600080600080600080600460009054906101000a90046001600160a01b03166001600160a01b0316633a20e9df8b6040518263ffffffff1660e01b81526004018082815260200191505060006040518083038186803b15801561300357600080fd5b505afa158015613017573d6000803e3d6000fd5b505050506040513d6000823e601f3d908101601f1916820160405260e081101561304057600080fd5b8101908080516040519392919084600160201b82111561305f57600080fd5b90830190602082018581111561307457600080fd5b8251600160201b81118282018810171561308d57600080fd5b82525081516020918201929091019080838360005b838110156130ba5781810151838201526020016130a2565b50505050905090810190601f1680156130e75780820380516001836020036101000a031916815260200191505b5060409081526020820151908201516060830151608084015160a085015160c090950151979e50929c50909a5098509650945091925050506001600160a01b03861661313e5760009850505050505050505061332c565b89885586516131569060018a019060208a0190613dee565b506002880180546001600160a01b038089166001600160a01b03199283161790925560038a018054928816929091169190911790556004880184905560058801805484919060ff1916600183818111156131ac57fe5b02179055506006880182905560078801805482919060ff1916600183818111156131d257fe5b021790555087600001548860020160009054906101000a90046001600160a01b03166001600160a01b03167fd608cf60e5a08e9db0f10b63c150bb7cdc66ee6286eb04ec5ba01d178e9010d68a6001018b60030160009054906101000a90046001600160a01b03168c600401548d60050160009054906101000a900460ff168e600601546040518080602001866001600160a01b03166001600160a01b0316815260200185815260200184600181111561328857fe5b60ff168152602081018490526040838203810183528854600260018216156101000260001901909116049082018190526060909101908890801561330d5780601f106132e25761010080835404028352916020019161330d565b820191906000526020600020905b8154815290600101906020018083116132f057829003601f168201915b5050965050505050505060405180910390a36001985050505050505050505b919050565b60606000806000806000806000613346613e7f565b600660008b81526020019081526020016000206040518061014001604052908160008201548152602001600182018054600181600116156101000203166002900480601f0160208091040260200160405190810160405280929190818152602001828054600181600116156101000203166002900480156134085780601f106133dd57610100808354040283529160200191613408565b820191906000526020600020905b8154815290600101906020018083116133eb57829003601f168201915b505050918352505060028201546001600160a01b039081166020830152600383015416604082015260048201546060820152600582015460809091019060ff16600181111561345357fe5b600181111561345e57fe5b815260068201546020820152600782015460409091019060ff16600181111561348357fe5b600181111561348e57fe5b8152600791909101546001600160a01b0361010082041660208084019190915260ff600160a81b909204919091161515604092830152820151908201516060830151608084015160a085015160c086015160e087015161012090970151959f50939d50919b50995097509550909350915050919395975091939597565b60008281526006602052604081208054909190613560576040805162461bcd60e51b815260206004820152600e60248201526d195c9c9bdc97db9bdd119bdd5b9960921b604482015290519081900360640190fd5b506001600160a01b03909116600090815260088201602052604090209092909150565b5442111590565b866135d2576040805162461bcd60e51b8152602060048201526013602482015272195c9c9bdc97db9d5b1b141c9bd91d58dd1259606a1b604482015290519081900360640190fd5b60008411613627576040805162461bcd60e51b815260206004820152601e60248201527f6572726f725f6672656550726f64756374734e6f74537570706f727465640000604482015290519081900360640190fd5b600061363288611029565b50505050505091505060006001600160a01b0316816001600160a01b031614613698576040805162461bcd60e51b81526020600482015260136024820152726572726f725f616c726561647945786973747360681b604482015290519081900360640190fd5b604051806101400160405280898152602001888152602001336001600160a01b03168152602001876001600160a01b031681526020018681526020018560018111156136e057fe5b81526020810185905260400160018152600060208083018290528515156040938401528b82526006815291902082518155828201518051919261372b92600185019290910190613dee565b5060408201516002820180546001600160a01b039283166001600160a01b03199182161790915560608401516003840180549190931691161790556080820151600482015560a082015160058201805460ff19166001838181111561378c57fe5b021790555060c0820151600682015560e082015160078201805460ff1916600183818111156137b757fe5b02179055506101008281015160079092018054610120909401511515600160a81b0260ff60a81b196001600160a01b03948516909302610100600160a81b03199095169490941791909116929092179091556040805191881660208301528101869052889033907f397627c8e8e4324a0f8a98a8274c00e4cee798d000625304ffbae6144ec64e54908a908a908a908a908a90806060810184600181111561385b57fe5b60ff168152602001838152602001828103825287818151815260200191508051906020019080838360005b8381101561389e578181015183820152602001613886565b50505050905090810190601f1680156138cb5780820380516001836020036101000a031916815260200191505b50965050505050505060405180910390a35050505050505050565b600380546001600160a01b03199081166001600160a01b039485161790915560028054821694841694909417909355600480549093169116179055565b600082613932575060006117a7565b8282028284828161393f57fe5b041461232e5760405162461bcd60e51b8152600401808060200182810382526021815260200180613f116021913960400191505060405180910390fd5b600061232e83836040518060400160405280601a81526020017f536166654d6174683a206469766973696f6e206279207a65726f000000000000815250613cf2565b6000806139ca84612f80565b90506000806139d9868661350b565b80549193509150156139f157600093505050506117a7565b82613b50576004805460408051633a20e9df60e01b8152928301899052516000926001600160a01b0390921691633a20e9df9160248083019286929190829003018186803b158015613a4257600080fd5b505afa158015613a56573d6000803e3d6000fd5b505050506040513d6000823e601f3d908101601f1916820160405260e0811015613a7f57600080fd5b8101908080516040519392919084600160201b821115613a9e57600080fd5b908301906020820185811115613ab357600080fd5b8251600160201b811182820188101715613acc57600080fd5b82525081516020918201929091019080838360005b83811015613af9578181015183820152602001613ae1565b50505050905090810190601f168015613b265780820380516001836020036101000a031916815260200191505b506040526020015193505050506001600160a01b038116613b4e5760009450505050506117a7565b505b60048054604080516317ca32dd60e21b81529283018990526001600160a01b03888116602485015281516000949190931692635f28cb7492604480840193919291829003018186803b158015613ba557600080fd5b505afa158015613bb9573d6000803e3d6000fd5b505050506040513d6040811015613bcf57600080fd5b5060200151905080613be85760009450505050506117a7565b60408051602080820183528382526001600160a01b038916600081815260088801835284902092519092558251848152925191928a927f9a2546e503275a77e7c86606d6512431c9046ffc6d3e53678e2693b201275714929181900390910190a35060019695505050505050565b60008282018381101561232e576040805162461bcd60e51b815260206004820152601b60248201527f536166654d6174683a206164646974696f6e206f766572666c6f770000000000604482015290519081900360640190fd5b600061232e83836040518060400160405280601e81526020017f536166654d6174683a207375627472616374696f6e206f766572666c6f770000815250613d94565b60008183613d7e5760405162461bcd60e51b81526004018080602001828103825283818151815260200191508051906020019080838360005b83811015613d43578181015183820152602001613d2b565b50505050905090810190601f168015613d705780820380516001836020036101000a031916815260200191505b509250505060405180910390fd5b506000838581613d8a57fe5b0495945050505050565b60008184841115613de65760405162461bcd60e51b8152602060048201818152835160248401528351909283926044909101919085019080838360008315613d43578181015183820152602001613d2b565b505050900390565b828054600181600116156101000203166002900490600052602060002090601f016020900481019282601f10613e2f57805160ff1916838001178555613e5c565b82800160010185558215613e5c579182015b82811115613e5c578251825591602001919060010190613e41565b50613e68929150613ed3565b5090565b6040518060200160405280600081525090565b604080516101408101825260008082526060602083018190529282018190529181018290526080810182905260a0810182905260c081018290529060e0820190815260006020820181905260409091015290565b613eed91905b80821115613e685760008155600101613ed9565b9056fe6572726f725f70726f647563744f776e6572734f6e6c79000000000000000000536166654d6174683a206d756c7469706c69636174696f6e206f766572666c6f776572726f725f77686974656c69737452657175657374416c72656164795375626d6974746564a265627a7a7231582093d3be1ee63ff28c35f8488e428b8d09d1697c3496c72046df894826db64389964736f6c63430005100032",
  "source": "// solhint-disable not-rely-on-time\npragma solidity ^0.5.16;\n\nimport \"openzeppelin-solidity/contracts/token/ERC20/ERC20.sol\";\nimport \"openzeppelin-solidity/contracts/math/SafeMath.sol\";\n\nimport \"./PurchaseListener.sol\";\nimport \"./Ownable.sol\";\n\n\ncontract IMarketplace {\n    enum ProductState {\n        NotDeployed,                // non-existent or deleted\n        Deployed                    // created or redeployed\n    }\n\n    enum Currency {\n        DATA,                       // \"token wei\" (10^-18 DATA)\n        USD                         // attodollars (10^-18 USD)\n    }\n\n    enum WhitelistState{\n        None,\n        Pending,\n        Approved,\n        Rejected\n    }\n    function getSubscription(bytes32 productId, address subscriber) public view returns (bool isValid, uint endTimestamp) {}\n    function getPriceInData(uint subscriptionSeconds, uint price, Currency unit) public view returns (uint datacoinAmount) {}\n}\ncontract IMarketplace1 is IMarketplace{\n    function getProduct(bytes32 id) public view returns (string memory name, address owner, address beneficiary, uint pricePerSecond, Currency currency, uint minimumSubscriptionSeconds, ProductState state) {}\n}\ncontract IMarketplace2 is IMarketplace{\n    function getProduct(bytes32 id) public view returns (string memory name, address owner, address beneficiary, uint pricePerSecond, Currency currency, uint minimumSubscriptionSeconds, ProductState state, bool requiresWhitelist) {}\n    function buyFor(bytes32 productId, uint subscriptionSeconds, address recipient) public {}\n}\n/**\n * @title Streamr Marketplace\n * @dev note about numbers:\n *   All prices and exchange rates are in \"decimal fixed-point\", that is, scaled by 10^18, like ETH vs wei.\n *  Seconds are integers as usual.\n *\n * Next version TODO:\n *  - EIP-165 inferface definition; PurchaseListener\n */\ncontract Marketplace is Ownable, IMarketplace2 {\n    using SafeMath for uint256;\n\n    // product events\n    event ProductCreated(address indexed owner, bytes32 indexed id, string name, address beneficiary, uint pricePerSecond, Currency currency, uint minimumSubscriptionSeconds);\n    event ProductUpdated(address indexed owner, bytes32 indexed id, string name, address beneficiary, uint pricePerSecond, Currency currency, uint minimumSubscriptionSeconds);\n    event ProductDeleted(address indexed owner, bytes32 indexed id, string name, address beneficiary, uint pricePerSecond, Currency currency, uint minimumSubscriptionSeconds);\n    event ProductImported(address indexed owner, bytes32 indexed id, string name, address beneficiary, uint pricePerSecond, Currency currency, uint minimumSubscriptionSeconds);\n    event ProductRedeployed(address indexed owner, bytes32 indexed id, string name, address beneficiary, uint pricePerSecond, Currency currency, uint minimumSubscriptionSeconds);\n    event ProductOwnershipOffered(address indexed owner, bytes32 indexed id, address indexed to);\n    event ProductOwnershipChanged(address indexed newOwner, bytes32 indexed id, address indexed oldOwner);\n\n    // subscription events\n    event Subscribed(bytes32 indexed productId, address indexed subscriber, uint endTimestamp);\n    event NewSubscription(bytes32 indexed productId, address indexed subscriber, uint endTimestamp);\n    event SubscriptionExtended(bytes32 indexed productId, address indexed subscriber, uint endTimestamp);\n    event SubscriptionImported(bytes32 indexed productId, address indexed subscriber, uint endTimestamp);\n    event SubscriptionTransferred(bytes32 indexed productId, address indexed from, address indexed to, uint secondsTransferred);\n\n    // currency events\n    event ExchangeRatesUpdated(uint timestamp, uint dataInUsd);\n\n    // whitelist events\n    event WhitelistRequested(bytes32 indexed productId, address indexed subscriber);\n    event WhitelistApproved(bytes32 indexed productId, address indexed subscriber);\n    event WhitelistRejected(bytes32 indexed productId, address indexed subscriber);\n    event WhitelistEnabled(bytes32 indexed productId);\n    event WhitelistDisabled(bytes32 indexed productId);\n\n    //txFee events\n    event TxFeeChanged(uint256 indexed newTxFee);\n\n\n    struct Product {\n        bytes32 id;\n        string name;\n        address owner;\n        address beneficiary;        // account where revenue is directed to\n        uint pricePerSecond;\n        Currency priceCurrency;\n        uint minimumSubscriptionSeconds;\n        ProductState state;\n        address newOwnerCandidate;  // Two phase hand-over to minimize the chance that the product ownership is lost to a non-existent address.\n        bool requiresWhitelist;\n        mapping(address => TimeBasedSubscription) subscriptions;\n        mapping(address => WhitelistState) whitelist;\n    }\n\n    struct TimeBasedSubscription {\n        uint endTimestamp;\n    }\n\n    /////////////// Marketplace lifecycle /////////////////\n\n    ERC20 public datacoin;\n\n    address public currencyUpdateAgent;\n    IMarketplace1 prev_marketplace;\n    uint256 public txFee;\n\n    constructor(address datacoinAddress, address currencyUpdateAgentAddress, address prev_marketplace_address) Ownable() public {\n        _initialize(datacoinAddress, currencyUpdateAgentAddress, prev_marketplace_address);\n    }\n\n    function _initialize(address datacoinAddress, address currencyUpdateAgentAddress, address prev_marketplace_address) internal {\n        currencyUpdateAgent = currencyUpdateAgentAddress;\n        datacoin = ERC20(datacoinAddress);\n        prev_marketplace = IMarketplace1(prev_marketplace_address);\n    }\n\n    ////////////////// Product management /////////////////\n\n    mapping (bytes32 => Product) public products;\n    /*\n        checks this marketplace first, then the previous\n    */\n    function getProduct(bytes32 id) public view returns (string memory name, address owner, address beneficiary, uint pricePerSecond, Currency currency, uint minimumSubscriptionSeconds, ProductState state, bool requiresWhitelist) {\n        (name, owner, beneficiary, pricePerSecond, currency, minimumSubscriptionSeconds, state, requiresWhitelist) = _getProductLocal(id);\n        if (owner != address(0))\n            return (name, owner, beneficiary, pricePerSecond, currency, minimumSubscriptionSeconds, state, requiresWhitelist);\n        (name, owner, beneficiary, pricePerSecond, currency, minimumSubscriptionSeconds, state) = prev_marketplace.getProduct(id);\n        return (name, owner, beneficiary, pricePerSecond, currency, minimumSubscriptionSeconds, state, false);\n    }\n\n    /**\n    checks only this marketplace, not the previous marketplace\n     */\n\n    function _getProductLocal(bytes32 id) internal view returns (string memory name, address owner, address beneficiary, uint pricePerSecond, Currency currency, uint minimumSubscriptionSeconds, ProductState state, bool requiresWhitelist) {\n        Product memory p = products[id];\n        return (\n            p.name,\n            p.owner,\n            p.beneficiary,\n            p.pricePerSecond,\n            p.priceCurrency,\n            p.minimumSubscriptionSeconds,\n            p.state,\n            p.requiresWhitelist\n        );\n    }\n\n    // also checks that p exists: p.owner == 0 for non-existent products\n    modifier onlyProductOwner(bytes32 productId) {\n        (,address _owner,,,,,,) = getProduct(productId);\n        require(_owner != address(0), \"error_notFound\");\n        require(_owner == msg.sender || owner == msg.sender, \"error_productOwnersOnly\");\n        _;\n    }\n\n    /**\n     * Imports product details (but NOT subscription details) from previous marketplace\n     */\n    function _importProductIfNeeded(bytes32 productId) internal returns (bool imported){\n        Product storage p = products[productId];\n        if(p.id != 0x0)\n            return false;\n        (string memory _name, address _owner, address _beneficiary, uint _pricePerSecond, IMarketplace1.Currency _priceCurrency, uint _minimumSubscriptionSeconds, IMarketplace1.ProductState _state) = prev_marketplace.getProduct(productId);\n        if(_owner == address(0))\n            return false;\n        p.id = productId;\n        p.name = _name;\n        p.owner = _owner;\n        p.beneficiary = _beneficiary;\n        p.pricePerSecond = _pricePerSecond;\n        p.priceCurrency = _priceCurrency;\n        p.minimumSubscriptionSeconds = _minimumSubscriptionSeconds;\n        p.state = _state;\n        emit ProductImported(p.owner, p.id, p.name, p.beneficiary, p.pricePerSecond, p.priceCurrency, p.minimumSubscriptionSeconds);\n        return true;\n    }\n\n    function _importSubscriptionIfNeeded(bytes32 productId, address subscriber) internal returns (bool imported) {\n        bool _productImported = _importProductIfNeeded(productId);\n\n        // check that subscription didn't already exist in current marketplace\n        (Product storage product, TimeBasedSubscription storage sub) = _getSubscriptionLocal(productId, subscriber);\n        if (sub.endTimestamp != 0x0) { return false; }\n\n        // check that subscription exists in the previous marketplace(s)\n        // only call prev_marketplace.getSubscription() if product exists there\n        // consider e.g. product created in current marketplace but subscription still doesn't exist\n        // if _productImported, it must have existed in previous marketplace so no need to perform check\n        if(!_productImported){\n            (,address _owner_prev,,,,,) = prev_marketplace.getProduct(productId);\n            if (_owner_prev == address(0)) { return false; }\n        }\n        (, uint _endTimestamp) = prev_marketplace.getSubscription(productId, subscriber);\n        if (_endTimestamp == 0x0) { return false; }\n        product.subscriptions[subscriber] = TimeBasedSubscription(_endTimestamp);\n        emit SubscriptionImported(productId, subscriber, _endTimestamp);\n        return true;\n    }\n    function createProduct(bytes32 id, string memory name, address beneficiary, uint pricePerSecond, Currency currency, uint minimumSubscriptionSeconds) public whenNotHalted {\n        _createProduct(id, name, beneficiary, pricePerSecond, currency, minimumSubscriptionSeconds, false);\n    }\n\n    function createProductWithWhitelist(bytes32 id, string memory name, address beneficiary, uint pricePerSecond, Currency currency, uint minimumSubscriptionSeconds) public whenNotHalted {\n        _createProduct(id, name, beneficiary, pricePerSecond, currency, minimumSubscriptionSeconds, true);\n        emit WhitelistEnabled(id);\n    }\n\n\n    function _createProduct(bytes32 id, string memory name, address beneficiary, uint pricePerSecond, Currency currency, uint minimumSubscriptionSeconds, bool requiresWhitelist) internal {\n        require(id != 0x0, \"error_nullProductId\");\n        require(pricePerSecond > 0, \"error_freeProductsNotSupported\");\n        (,address _owner,,,,,,) = getProduct(id);\n        require(_owner == address(0), \"error_alreadyExists\");\n        products[id] = Product({id: id, name: name, owner: msg.sender, beneficiary: beneficiary, pricePerSecond: pricePerSecond,\n            priceCurrency: currency, minimumSubscriptionSeconds: minimumSubscriptionSeconds, state: ProductState.Deployed, newOwnerCandidate: address(0), requiresWhitelist: requiresWhitelist});\n        emit ProductCreated(msg.sender, id, name, beneficiary, pricePerSecond, currency, minimumSubscriptionSeconds);\n    }\n\n    /**\n    * Stop offering the product\n    */\n    function deleteProduct(bytes32 productId) public onlyProductOwner(productId) {\n        _importProductIfNeeded(productId);\n        Product storage p = products[productId];\n        require(p.state == ProductState.Deployed, \"error_notDeployed\");\n        p.state = ProductState.NotDeployed;\n        emit ProductDeleted(p.owner, productId, p.name, p.beneficiary, p.pricePerSecond, p.priceCurrency, p.minimumSubscriptionSeconds);\n    }\n\n    /**\n    * Return product to market\n    */\n    function redeployProduct(bytes32 productId) public onlyProductOwner(productId) {\n        _importProductIfNeeded(productId);\n        Product storage p = products[productId];\n        require(p.state == ProductState.NotDeployed, \"error_mustBeNotDeployed\");\n        p.state = ProductState.Deployed;\n        emit ProductRedeployed(p.owner, productId, p.name, p.beneficiary, p.pricePerSecond, p.priceCurrency, p.minimumSubscriptionSeconds);\n    }\n\n    function updateProduct(bytes32 productId, string memory name, address beneficiary, uint pricePerSecond, Currency currency, uint minimumSubscriptionSeconds) public onlyProductOwner(productId) {\n        require(pricePerSecond > 0, \"error_freeProductsNotSupported\");\n        _importProductIfNeeded(productId);\n        Product storage p = products[productId];\n        p.name = name;\n        p.beneficiary = beneficiary;\n        p.pricePerSecond = pricePerSecond;\n        p.priceCurrency = currency;\n        p.minimumSubscriptionSeconds = minimumSubscriptionSeconds;\n        emit ProductUpdated(p.owner, p.id, name, beneficiary, pricePerSecond, currency, minimumSubscriptionSeconds);\n    }\n\n    /**\n    * Changes ownership of the product. Two phase hand-over minimizes the chance that the product ownership is lost to a non-existent address.\n    */\n    function offerProductOwnership(bytes32 productId, address newOwnerCandidate) public onlyProductOwner(productId) {\n        _importProductIfNeeded(productId);\n        // that productId exists is already checked in onlyProductOwner\n        products[productId].newOwnerCandidate = newOwnerCandidate;\n        emit ProductOwnershipOffered(products[productId].owner, productId, newOwnerCandidate);\n    }\n\n    /**\n    * Changes ownership of the product. Two phase hand-over minimizes the chance that the product ownership is lost to a non-existent address.\n    */\n    function claimProductOwnership(bytes32 productId) public whenNotHalted {\n        _importProductIfNeeded(productId);\n        // also checks that productId exists (newOwnerCandidate is zero for non-existent)\n        Product storage p = products[productId];\n        require(msg.sender == p.newOwnerCandidate, \"error_notPermitted\");\n        emit ProductOwnershipChanged(msg.sender, productId, p.owner);\n        p.owner = msg.sender;\n        p.newOwnerCandidate = address(0);\n    }\n\n    /////////////// Whitelist management ///////////////\n\n    function setRequiresWhitelist(bytes32 productId, bool _requiresWhitelist) public onlyProductOwner(productId) {\n        _importProductIfNeeded(productId);\n        Product storage p = products[productId];\n        require(p.id != 0x0, \"error_notFound\");\n        p.requiresWhitelist = _requiresWhitelist;\n        if(_requiresWhitelist)\n            emit WhitelistEnabled(productId);\n        else\n            emit WhitelistDisabled(productId);\n    }\n\n    function whitelistApprove(bytes32 productId, address subscriber) public onlyProductOwner(productId) {\n        _importProductIfNeeded(productId);\n        Product storage p = products[productId];\n        require(p.id != 0x0, \"error_notFound\");\n        require(p.requiresWhitelist, \"error_whitelistNotEnabled\");\n        p.whitelist[subscriber] = WhitelistState.Approved;\n        emit WhitelistApproved(productId, subscriber);\n    }\n\n    function whitelistReject(bytes32 productId, address subscriber) public onlyProductOwner(productId) {\n        _importProductIfNeeded(productId);\n        Product storage p = products[productId];\n        require(p.id != 0x0, \"error_notFound\");\n        require(p.requiresWhitelist, \"error_whitelistNotEnabled\");\n        p.whitelist[subscriber] = WhitelistState.Rejected;\n        emit WhitelistRejected(productId, subscriber);\n    }\n\n    function whitelistRequest(bytes32 productId) public {\n        _importProductIfNeeded(productId);\n        Product storage p = products[productId];\n        require(p.id != 0x0, \"error_notFound\");\n        require(p.requiresWhitelist, \"error_whitelistNotEnabled\");\n        require(p.whitelist[msg.sender] == WhitelistState.None, \"error_whitelistRequestAlreadySubmitted\");\n        p.whitelist[msg.sender] = WhitelistState.Pending;\n        emit WhitelistRequested(productId, msg.sender);\n    }\n\n    function getWhitelistState(bytes32 productId, address subscriber) public view returns (WhitelistState wlstate) {\n        (, address _owner,,,,,,) = getProduct(productId);\n        require(_owner != address(0), \"error_notFound\");\n        //if it's not local this will return 0, which is WhitelistState.None\n        Product storage p = products[productId];\n        return p.whitelist[subscriber];\n    }\n\n    /////////////// Subscription management ///////////////\n\n    function getSubscription(bytes32 productId, address subscriber) public view returns (bool isValid, uint endTimestamp) {\n        (,address _owner,,,,,,) = _getProductLocal(productId);\n        if (_owner == address(0)) {\n            return prev_marketplace.getSubscription(productId,subscriber);\n        }\n\n        (, TimeBasedSubscription storage sub) = _getSubscriptionLocal(productId, subscriber);\n        if (sub.endTimestamp == 0x0) {\n            // only call prev_marketplace.getSubscription() if product exists in previous marketplace too\n            (,address _owner_prev,,,,,) = prev_marketplace.getProduct(productId);\n            if (_owner_prev != address(0)) {\n                return prev_marketplace.getSubscription(productId,subscriber);\n            }\n        }\n        return (_isValid(sub), sub.endTimestamp);\n    }\n\n    function getSubscriptionTo(bytes32 productId) public view returns (bool isValid, uint endTimestamp) {\n        return getSubscription(productId, msg.sender);\n    }\n\n    /**\n     * Checks if the given address currently has a valid subscription\n     * @param productId to check\n     * @param subscriber to check\n     */\n    function hasValidSubscription(bytes32 productId, address subscriber) public view returns (bool isValid) {\n        (isValid,) = getSubscription(productId, subscriber);\n    }\n\n    /**\n     * Enforces payment rules, triggers PurchaseListener event\n     */\n    function _subscribe(bytes32 productId, uint addSeconds, address subscriber, bool requirePayment) internal {\n        _importSubscriptionIfNeeded(productId, subscriber);\n        (Product storage p, TimeBasedSubscription storage oldSub) = _getSubscriptionLocal(productId, subscriber);\n        require(p.state == ProductState.Deployed, \"error_notDeployed\");\n        require(!p.requiresWhitelist || p.whitelist[subscriber] == WhitelistState.Approved, \"error_whitelistNotAllowed\");\n        uint endTimestamp;\n\n        if (oldSub.endTimestamp > block.timestamp) {\n            require(addSeconds > 0, \"error_topUpTooSmall\");\n            endTimestamp = oldSub.endTimestamp.add(addSeconds);\n            oldSub.endTimestamp = endTimestamp;\n            emit SubscriptionExtended(p.id, subscriber, endTimestamp);\n        } else {\n            require(addSeconds >= p.minimumSubscriptionSeconds, \"error_newSubscriptionTooSmall\");\n            endTimestamp = block.timestamp.add(addSeconds);\n            TimeBasedSubscription memory newSub = TimeBasedSubscription(endTimestamp);\n            p.subscriptions[subscriber] = newSub;\n            emit NewSubscription(p.id, subscriber, endTimestamp);\n        }\n        emit Subscribed(p.id, subscriber, endTimestamp);\n\n        uint256 price = 0;\n        uint256 fee = 0;\n        address recipient = p.beneficiary;\n        if (requirePayment) {\n            price = getPriceInData(addSeconds, p.pricePerSecond, p.priceCurrency);\n            fee = txFee.mul(price).div(1 ether);\n            require(datacoin.transferFrom(msg.sender, recipient, price.sub(fee)), \"error_paymentFailed\");\n            if (fee > 0) {\n                require(datacoin.transferFrom(msg.sender, owner, fee), \"error_paymentFailed\");\n            }\n        }\n\n        uint256 codeSize;\n        assembly { codeSize := extcodesize(recipient) }  // solium-disable-line security/no-inline-assembly\n        if (codeSize > 0) {\n            // solium-disable-next-line security/no-low-level-calls\n            (bool success, bytes memory returnData) = recipient.call(\n                abi.encodeWithSignature(\"onPurchase(bytes32,address,uint256,uint256,uint256)\",\n                productId, subscriber, oldSub.endTimestamp, price, fee)\n            );\n\n            if (success) {\n                (bool accepted) = abi.decode(returnData, (bool));\n                require(accepted, \"error_rejectedBySeller\");\n            }\n        }\n    }\n\n    function grantSubscription(bytes32 productId, uint subscriptionSeconds, address recipient) public whenNotHalted onlyProductOwner(productId){\n        return _subscribe(productId, subscriptionSeconds, recipient, false);\n    }\n\n\n    function buyFor(bytes32 productId, uint subscriptionSeconds, address recipient) public whenNotHalted {\n        return _subscribe(productId, subscriptionSeconds, recipient, true);\n    }\n\n\n    /**\n     * Purchases access to this stream for msg.sender.\n     * If the address already has a valid subscription, extends the subscription by the given period.\n     * @dev since v4.0: Notify the seller if the seller implements PurchaseListener interface\n     */\n    function buy(bytes32 productId, uint subscriptionSeconds) public whenNotHalted {\n        buyFor(productId,subscriptionSeconds, msg.sender);\n    }\n\n\n    /** Gets subscriptions info from the subscriptions stored in this contract */\n    function _getSubscriptionLocal(bytes32 productId, address subscriber) internal view returns (Product storage p, TimeBasedSubscription storage s) {\n        p = products[productId];\n        require(p.id != 0x0, \"error_notFound\");\n        s = p.subscriptions[subscriber];\n    }\n\n    function _isValid(TimeBasedSubscription storage s) internal view returns (bool) {\n        return s.endTimestamp >= block.timestamp;   // solium-disable-line security/no-block-members\n    }\n\n    // TODO: transfer allowance to another Marketplace contract\n    // Mechanism basically is that this Marketplace draws from the allowance and credits\n    //   the account on another Marketplace; OR that there is a central credit pool (say, an ERC20 token)\n    // Creating another ERC20 token for this could be a simple fix: it would need the ability to transfer allowances\n\n    /////////////// Currency management ///////////////\n\n    // Exchange rates are formatted as \"decimal fixed-point\", that is, scaled by 10^18, like ether.\n    //        Exponent: 10^18 15 12  9  6  3  0\n    //                      |  |  |  |  |  |  |\n    uint public dataPerUsd = 100000000000000000;   // ~= 0.1 DATA/USD\n\n    /**\n    * Update currency exchange rates; all purchases are still billed in DATAcoin\n    * @param timestamp in seconds when the exchange rates were last updated\n    * @param dataUsd how many data atoms (10^-18 DATA) equal one USD dollar\n    */\n    function updateExchangeRates(uint timestamp, uint dataUsd) public {\n        require(msg.sender == currencyUpdateAgent, \"error_notPermitted\");\n        require(dataUsd > 0, \"error_invalidRate\");\n        dataPerUsd = dataUsd;\n        emit ExchangeRatesUpdated(timestamp, dataUsd);\n    }\n\n    /**\n    * Helper function to calculate (hypothetical) subscription cost for given seconds and price, using current exchange rates.\n    * @param subscriptionSeconds length of hypothetical subscription, as a non-scaled integer\n    * @param price nominal price scaled by 10^18 (\"token wei\" or \"attodollars\")\n    * @param unit unit of the number price\n    */\n    function getPriceInData(uint subscriptionSeconds, uint price, Currency unit) public view returns (uint datacoinAmount) {\n        if (unit == Currency.DATA) {\n            return price.mul(subscriptionSeconds);\n        }\n        return price.mul(dataPerUsd).div(10**18).mul(subscriptionSeconds);\n    }\n\n    /////////////// Admin functionality ///////////////\n\n    event Halted();\n    event Resumed();\n    bool public halted = false;\n\n    modifier whenNotHalted() {\n        require(!halted || owner == msg.sender, \"error_halted\");\n        _;\n    }\n    function halt() public onlyOwner {\n        halted = true;\n        emit Halted();\n    }\n    function resume() public onlyOwner {\n        halted = false;\n        emit Resumed();\n    }\n\n    function reInitialize(address datacoinAddress, address currencyUpdateAgentAddress, address prev_marketplace_address) public onlyOwner {\n        _initialize(datacoinAddress, currencyUpdateAgentAddress, prev_marketplace_address);\n    }\n\n    function setTxFee(uint256 newTxFee) public onlyOwner {\n        require(newTxFee <= 1 ether, \"error_invalidTxFee\");\n        txFee = newTxFee;\n        emit TxFeeChanged(txFee);\n    }\n}\n",
  "sourcePath": "/home/heynow/streamr/marketplace-contracts/contracts/Marketplace.sol",
  "compiler": {
    "name": "solc",
    "version": "0.5.16+commit.9c3226ce.Emscripten.clang"
  },
  "schemaVersion": "3.0.23",
  "updatedAt": "2020-03-12T09:22:01.851Z",
  "devdoc": {
    "details": "note about numbers:  All prices and exchange rates are in \"decimal fixed-point\", that is, scaled by 10^18, like ETH vs wei. Seconds are integers as usual. * Next version TODO: - EIP-165 inferface definition; PurchaseListener",
    "methods": {
      "buy(bytes32,uint256)": {
        "details": "since v4.0: Notify the seller if the seller implements PurchaseListener interface"
      },
      "claimOwnership()": {
        "details": "Allows the pendingOwner address to finalize the transfer."
      },
      "getPriceInData(uint256,uint256,uint8)": {
        "params": {
          "price": "nominal price scaled by 10^18 (\"token wei\" or \"attodollars\")",
          "subscriptionSeconds": "length of hypothetical subscription, as a non-scaled integer",
          "unit": "unit of the number price"
        }
      },
      "hasValidSubscription(bytes32,address)": {
        "params": {
          "productId": "to check",
          "subscriber": "to check"
        }
      },
      "transferOwnership(address)": {
        "details": "Allows the current owner to set the pendingOwner address.",
        "params": {
          "newOwner": "The address to transfer ownership to."
        }
      },
      "updateExchangeRates(uint256,uint256)": {
        "params": {
          "dataUsd": "how many data atoms (10^-18 DATA) equal one USD dollar",
          "timestamp": "in seconds when the exchange rates were last updated"
        }
      }
    },
    "title": "Streamr Marketplace"
  },
  "userdoc": {
    "methods": {
      "buy(bytes32,uint256)": {
        "notice": "Purchases access to this stream for msg.sender. If the address already has a valid subscription, extends the subscription by the given period."
      },
      "claimProductOwnership(bytes32)": {
        "notice": "Changes ownership of the product. Two phase hand-over minimizes the chance that the product ownership is lost to a non-existent address."
      },
      "deleteProduct(bytes32)": {
        "notice": "Stop offering the product"
      },
      "getPriceInData(uint256,uint256,uint8)": {
        "notice": "Helper function to calculate (hypothetical) subscription cost for given seconds and price, using current exchange rates."
      },
      "getSubscription(bytes32,address)": {
        "notice": "//////////// Subscription management ///////////////"
      },
      "hasValidSubscription(bytes32,address)": {
        "notice": "Checks if the given address currently has a valid subscription"
      },
      "offerProductOwnership(bytes32,address)": {
        "notice": "Changes ownership of the product. Two phase hand-over minimizes the chance that the product ownership is lost to a non-existent address."
      },
      "redeployProduct(bytes32)": {
        "notice": "Return product to market"
      },
      "setRequiresWhitelist(bytes32,bool)": {
        "notice": "//////////// Whitelist management ///////////////"
      },
      "updateExchangeRates(uint256,uint256)": {
        "notice": "Update currency exchange rates; all purchases are still billed in DATAcoin"
      }
    }
  }
}