{
  "contractName": "Marketplace",
  "abi": [
    {
      "constant": true,
      "inputs": [],
      "name": "currencyUpdateAgent",
      "outputs": [
        {
          "name": "",
          "type": "address"
        }
      ],
      "payable": false,
      "stateMutability": "view",
      "type": "function"
    },
    {
      "constant": true,
      "inputs": [],
      "name": "owner",
      "outputs": [
        {
          "name": "",
          "type": "address"
        }
      ],
      "payable": false,
      "stateMutability": "view",
      "type": "function"
    },
    {
      "constant": true,
      "inputs": [],
      "name": "halted",
      "outputs": [
        {
          "name": "",
          "type": "bool"
        }
      ],
      "payable": false,
      "stateMutability": "view",
      "type": "function"
    },
    {
      "constant": true,
      "inputs": [],
      "name": "dataPerUsd",
      "outputs": [
        {
          "name": "",
          "type": "uint256"
        }
      ],
      "payable": false,
      "stateMutability": "view",
      "type": "function"
    },
    {
      "constant": false,
      "inputs": [
        {
          "name": "newOwner",
          "type": "address"
        }
      ],
      "name": "transferOwnership",
      "outputs": [],
      "payable": false,
      "stateMutability": "nonpayable",
      "type": "function"
    },
    {
      "inputs": [
        {
          "name": "datacoinAddress",
          "type": "address"
        },
        {
          "name": "currencyUpdateAgentAddress",
          "type": "address"
        }
      ],
      "payable": false,
      "stateMutability": "nonpayable",
      "type": "constructor"
    },
    {
      "anonymous": false,
      "inputs": [
        {
          "indexed": true,
          "name": "owner",
          "type": "address"
        },
        {
          "indexed": true,
          "name": "id",
          "type": "bytes32"
        },
        {
          "indexed": false,
          "name": "name",
          "type": "string"
        },
        {
          "indexed": false,
          "name": "beneficiary",
          "type": "address"
        },
        {
          "indexed": false,
          "name": "pricePerSecond",
          "type": "uint256"
        },
        {
          "indexed": false,
          "name": "currency",
          "type": "uint8"
        },
        {
          "indexed": false,
          "name": "minimumSubscriptionSeconds",
          "type": "uint256"
        }
      ],
      "name": "ProductCreated",
      "type": "event"
    },
    {
      "anonymous": false,
      "inputs": [
        {
          "indexed": true,
          "name": "owner",
          "type": "address"
        },
        {
          "indexed": true,
          "name": "id",
          "type": "bytes32"
        },
        {
          "indexed": false,
          "name": "name",
          "type": "string"
        },
        {
          "indexed": false,
          "name": "beneficiary",
          "type": "address"
        },
        {
          "indexed": false,
          "name": "pricePerSecond",
          "type": "uint256"
        },
        {
          "indexed": false,
          "name": "currency",
          "type": "uint8"
        },
        {
          "indexed": false,
          "name": "minimumSubscriptionSeconds",
          "type": "uint256"
        }
      ],
      "name": "ProductUpdated",
      "type": "event"
    },
    {
      "anonymous": false,
      "inputs": [
        {
          "indexed": true,
          "name": "owner",
          "type": "address"
        },
        {
          "indexed": true,
          "name": "id",
          "type": "bytes32"
        },
        {
          "indexed": false,
          "name": "name",
          "type": "string"
        },
        {
          "indexed": false,
          "name": "beneficiary",
          "type": "address"
        },
        {
          "indexed": false,
          "name": "pricePerSecond",
          "type": "uint256"
        },
        {
          "indexed": false,
          "name": "currency",
          "type": "uint8"
        },
        {
          "indexed": false,
          "name": "minimumSubscriptionSeconds",
          "type": "uint256"
        }
      ],
      "name": "ProductDeleted",
      "type": "event"
    },
    {
      "anonymous": false,
      "inputs": [
        {
          "indexed": true,
          "name": "owner",
          "type": "address"
        },
        {
          "indexed": true,
          "name": "id",
          "type": "bytes32"
        },
        {
          "indexed": false,
          "name": "name",
          "type": "string"
        },
        {
          "indexed": false,
          "name": "beneficiary",
          "type": "address"
        },
        {
          "indexed": false,
          "name": "pricePerSecond",
          "type": "uint256"
        },
        {
          "indexed": false,
          "name": "currency",
          "type": "uint8"
        },
        {
          "indexed": false,
          "name": "minimumSubscriptionSeconds",
          "type": "uint256"
        }
      ],
      "name": "ProductRedeployed",
      "type": "event"
    },
    {
      "anonymous": false,
      "inputs": [
        {
          "indexed": true,
          "name": "owner",
          "type": "address"
        },
        {
          "indexed": true,
          "name": "id",
          "type": "bytes32"
        },
        {
          "indexed": true,
          "name": "to",
          "type": "address"
        }
      ],
      "name": "ProductOwnershipOffered",
      "type": "event"
    },
    {
      "anonymous": false,
      "inputs": [
        {
          "indexed": true,
          "name": "newOwner",
          "type": "address"
        },
        {
          "indexed": true,
          "name": "id",
          "type": "bytes32"
        },
        {
          "indexed": true,
          "name": "oldOwner",
          "type": "address"
        }
      ],
      "name": "ProductOwnershipChanged",
      "type": "event"
    },
    {
      "anonymous": false,
      "inputs": [
        {
          "indexed": true,
          "name": "productId",
          "type": "bytes32"
        },
        {
          "indexed": true,
          "name": "subscriber",
          "type": "address"
        },
        {
          "indexed": false,
          "name": "endTimestamp",
          "type": "uint256"
        }
      ],
      "name": "Subscribed",
      "type": "event"
    },
    {
      "anonymous": false,
      "inputs": [
        {
          "indexed": true,
          "name": "productId",
          "type": "bytes32"
        },
        {
          "indexed": true,
          "name": "subscriber",
          "type": "address"
        },
        {
          "indexed": false,
          "name": "endTimestamp",
          "type": "uint256"
        }
      ],
      "name": "NewSubscription",
      "type": "event"
    },
    {
      "anonymous": false,
      "inputs": [
        {
          "indexed": true,
          "name": "productId",
          "type": "bytes32"
        },
        {
          "indexed": true,
          "name": "subscriber",
          "type": "address"
        },
        {
          "indexed": false,
          "name": "endTimestamp",
          "type": "uint256"
        }
      ],
      "name": "SubscriptionExtended",
      "type": "event"
    },
    {
      "anonymous": false,
      "inputs": [
        {
          "indexed": true,
          "name": "productId",
          "type": "bytes32"
        },
        {
          "indexed": true,
          "name": "from",
          "type": "address"
        },
        {
          "indexed": true,
          "name": "to",
          "type": "address"
        },
        {
          "indexed": false,
          "name": "secondsTransferred",
          "type": "uint256"
        },
        {
          "indexed": false,
          "name": "datacoinTransferred",
          "type": "uint256"
        }
      ],
      "name": "SubscriptionTransferred",
      "type": "event"
    },
    {
      "anonymous": false,
      "inputs": [
        {
          "indexed": false,
          "name": "timestamp",
          "type": "uint256"
        },
        {
          "indexed": false,
          "name": "dataInUsd",
          "type": "uint256"
        }
      ],
      "name": "ExchangeRatesUpdated",
      "type": "event"
    },
    {
      "anonymous": false,
      "inputs": [],
      "name": "Halted",
      "type": "event"
    },
    {
      "anonymous": false,
      "inputs": [],
      "name": "Resumed",
      "type": "event"
    },
    {
      "anonymous": false,
      "inputs": [
        {
          "indexed": true,
          "name": "previousOwner",
          "type": "address"
        },
        {
          "indexed": true,
          "name": "newOwner",
          "type": "address"
        }
      ],
      "name": "OwnershipTransferred",
      "type": "event"
    },
    {
      "constant": true,
      "inputs": [
        {
          "name": "id",
          "type": "bytes32"
        }
      ],
      "name": "getProduct",
      "outputs": [
        {
          "name": "name",
          "type": "string"
        },
        {
          "name": "owner",
          "type": "address"
        },
        {
          "name": "beneficiary",
          "type": "address"
        },
        {
          "name": "pricePerSecond",
          "type": "uint256"
        },
        {
          "name": "currency",
          "type": "uint8"
        },
        {
          "name": "minimumSubscriptionSeconds",
          "type": "uint256"
        },
        {
          "name": "state",
          "type": "uint8"
        }
      ],
      "payable": false,
      "stateMutability": "view",
      "type": "function"
    },
    {
      "constant": true,
      "inputs": [
        {
          "name": "productId",
          "type": "bytes32"
        },
        {
          "name": "subscriber",
          "type": "address"
        }
      ],
      "name": "getSubscription",
      "outputs": [
        {
          "name": "isValid",
          "type": "bool"
        },
        {
          "name": "endTimestamp",
          "type": "uint256"
        }
      ],
      "payable": false,
      "stateMutability": "view",
      "type": "function"
    },
    {
      "constant": true,
      "inputs": [
        {
          "name": "productId",
          "type": "bytes32"
        }
      ],
      "name": "getSubscriptionTo",
      "outputs": [
        {
          "name": "isValid",
          "type": "bool"
        },
        {
          "name": "endTimestamp",
          "type": "uint256"
        }
      ],
      "payable": false,
      "stateMutability": "view",
      "type": "function"
    },
    {
      "constant": false,
      "inputs": [
        {
          "name": "id",
          "type": "bytes32"
        },
        {
          "name": "name",
          "type": "string"
        },
        {
          "name": "beneficiary",
          "type": "address"
        },
        {
          "name": "pricePerSecond",
          "type": "uint256"
        },
        {
          "name": "currency",
          "type": "uint8"
        },
        {
          "name": "minimumSubscriptionSeconds",
          "type": "uint256"
        }
      ],
      "name": "createProduct",
      "outputs": [],
      "payable": false,
      "stateMutability": "nonpayable",
      "type": "function"
    },
    {
      "constant": false,
      "inputs": [
        {
          "name": "productId",
          "type": "bytes32"
        }
      ],
      "name": "deleteProduct",
      "outputs": [],
      "payable": false,
      "stateMutability": "nonpayable",
      "type": "function"
    },
    {
      "constant": false,
      "inputs": [
        {
          "name": "productId",
          "type": "bytes32"
        }
      ],
      "name": "redeployProduct",
      "outputs": [],
      "payable": false,
      "stateMutability": "nonpayable",
      "type": "function"
    },
    {
      "constant": false,
      "inputs": [
        {
          "name": "productId",
          "type": "bytes32"
        },
        {
          "name": "name",
          "type": "string"
        },
        {
          "name": "beneficiary",
          "type": "address"
        },
        {
          "name": "pricePerSecond",
          "type": "uint256"
        },
        {
          "name": "currency",
          "type": "uint8"
        },
        {
          "name": "minimumSubscriptionSeconds",
          "type": "uint256"
        }
      ],
      "name": "updateProduct",
      "outputs": [],
      "payable": false,
      "stateMutability": "nonpayable",
      "type": "function"
    },
    {
      "constant": false,
      "inputs": [
        {
          "name": "productId",
          "type": "bytes32"
        },
        {
          "name": "newOwnerCandidate",
          "type": "address"
        }
      ],
      "name": "offerProductOwnership",
      "outputs": [],
      "payable": false,
      "stateMutability": "nonpayable",
      "type": "function"
    },
    {
      "constant": false,
      "inputs": [
        {
          "name": "productId",
          "type": "bytes32"
        }
      ],
      "name": "claimProductOwnership",
      "outputs": [],
      "payable": false,
      "stateMutability": "nonpayable",
      "type": "function"
    },
    {
      "constant": false,
      "inputs": [
        {
          "name": "productId",
          "type": "bytes32"
        },
        {
          "name": "subscriptionSeconds",
          "type": "uint256"
        }
      ],
      "name": "buy",
      "outputs": [],
      "payable": false,
      "stateMutability": "nonpayable",
      "type": "function"
    },
    {
      "constant": true,
      "inputs": [
        {
          "name": "productId",
          "type": "bytes32"
        },
        {
          "name": "subscriber",
          "type": "address"
        }
      ],
      "name": "hasValidSubscription",
      "outputs": [
        {
          "name": "isValid",
          "type": "bool"
        }
      ],
      "payable": false,
      "stateMutability": "view",
      "type": "function"
    },
    {
      "constant": false,
      "inputs": [
        {
          "name": "productId",
          "type": "bytes32"
        },
        {
          "name": "newSubscriber",
          "type": "address"
        }
      ],
      "name": "transferSubscription",
      "outputs": [],
      "payable": false,
      "stateMutability": "nonpayable",
      "type": "function"
    },
    {
      "constant": false,
      "inputs": [
        {
          "name": "timestamp",
          "type": "uint256"
        },
        {
          "name": "dataUsd",
          "type": "uint256"
        }
      ],
      "name": "updateExchangeRates",
      "outputs": [],
      "payable": false,
      "stateMutability": "nonpayable",
      "type": "function"
    },
    {
      "constant": false,
      "inputs": [
        {
          "name": "dataUsd",
          "type": "uint256"
        }
      ],
      "name": "updateExchangeRates",
      "outputs": [],
      "payable": false,
      "stateMutability": "nonpayable",
      "type": "function"
    },
    {
      "constant": false,
      "inputs": [],
      "name": "halt",
      "outputs": [],
      "payable": false,
      "stateMutability": "nonpayable",
      "type": "function"
    },
    {
      "constant": false,
      "inputs": [],
      "name": "resume",
      "outputs": [],
      "payable": false,
      "stateMutability": "nonpayable",
      "type": "function"
    },
    {
      "constant": false,
      "inputs": [
        {
          "name": "datacoinAddress",
          "type": "address"
        },
        {
          "name": "currencyUpdateAgentAddress",
          "type": "address"
        }
      ],
      "name": "reInitialize",
      "outputs": [],
      "payable": false,
      "stateMutability": "nonpayable",
      "type": "function"
    }
  ],
  "bytecode": "0x606060405260016004556000600560006101000a81548160ff021916908315150217905550341561002f57600080fd5b60405160408062002a5683398101604052808051906020019091908051906020019091905050336000806101000a81548173ffffffffffffffffffffffffffffffffffffffff021916908373ffffffffffffffffffffffffffffffffffffffff1602179055506100b282826100b9640100000000026126ea176401000000009004565b505061013f565b80600360006101000a81548173ffffffffffffffffffffffffffffffffffffffff021916908373ffffffffffffffffffffffffffffffffffffffff16021790555081600260006101000a81548173ffffffffffffffffffffffffffffffffffffffff021916908373ffffffffffffffffffffffffffffffffffffffff1602179055505050565b612907806200014f6000396000f300606060405260043610610128576000357c0100000000000000000000000000000000000000000000000000000000900463ffffffff168063046f7da21461012d5780630ddeb632146101425780631a464fa11461017257806325017e10146101995780633a20e9df146101df5780634a54fb0a1461031d57806353f81ef8146103c457806358f816bf1461040a5780635ed7ca5b146104315780635f28cb741461044657806361362b68146104ab57806389aaad29146105035780638da5cb5b1461055857806394727b41146105ad57806396002aef146105d4578063b14f84321461061a578063b9b8af0b14610678578063cafbc49d146106a5578063d50a04f41461074c578063db6c709c14610775578063e54135ac146107a1578063f2fde38b146107c4575b600080fd5b341561013857600080fd5b6101406107fd565b005b341561014d57600080fd5b6101706004808035600019169060200190919080359060200190919050506108a1565b005b341561017d57600080fd5b610197600480803560001916906020019091905050610ae7565b005b34156101a457600080fd5b6101dd60048080356000191690602001909190803573ffffffffffffffffffffffffffffffffffffffff16906020019091905050610ce4565b005b34156101ea57600080fd5b610204600480803560001916906020019091905050610ecf565b60405180806020018873ffffffffffffffffffffffffffffffffffffffff1673ffffffffffffffffffffffffffffffffffffffff1681526020018773ffffffffffffffffffffffffffffffffffffffff1673ffffffffffffffffffffffffffffffffffffffff16815260200186815260200185600181111561028257fe5b60ff16815260200184815260200183600181111561029c57fe5b60ff168152602001828103825289818151815260200191508051906020019080838360005b838110156102dc5780820151818401526020810190506102c1565b50505050905090810190601f1680156103095780820380516001836020036101000a031916815260200191505b509850505050505050505060405180910390f35b341561032857600080fd5b6103c260048080356000191690602001909190803590602001908201803590602001908080601f0160208091040260200160405190810160405280939291908181526020018383808284378201915050505050509190803573ffffffffffffffffffffffffffffffffffffffff1690602001909190803590602001909190803560ff169060200190919080359060200190919050506110c7565b005b34156103cf57600080fd5b6103e96004808035600019169060200190919050506113a2565b60405180831515151581526020018281526020019250505060405180910390f35b341561041557600080fd5b61042f6004808035600019169060200190919050506113b8565b005b341561043c57600080fd5b6104446116a1565b005b341561045157600080fd5b61048a60048080356000191690602001909190803573ffffffffffffffffffffffffffffffffffffffff16906020019091905050611745565b60405180831515151581526020018281526020019250505060405180910390f35b34156104b657600080fd5b610501600480803573ffffffffffffffffffffffffffffffffffffffff1690602001909190803573ffffffffffffffffffffffffffffffffffffffff1690602001909190505061176d565b005b341561050e57600080fd5b6105166117d6565b604051808273ffffffffffffffffffffffffffffffffffffffff1673ffffffffffffffffffffffffffffffffffffffff16815260200191505060405180910390f35b341561056357600080fd5b61056b6117fc565b604051808273ffffffffffffffffffffffffffffffffffffffff1673ffffffffffffffffffffffffffffffffffffffff16815260200191505060405180910390f35b34156105b857600080fd5b6105d2600480803560001916906020019091905050611821565b005b34156105df57600080fd5b61061860048080356000191690602001909190803573ffffffffffffffffffffffffffffffffffffffff16906020019091905050611b09565b005b341561062557600080fd5b61065e60048080356000191690602001909190803573ffffffffffffffffffffffffffffffffffffffff16906020019091905050611cde565b604051808215151515815260200191505060405180910390f35b341561068357600080fd5b61068b611cf7565b604051808215151515815260200191505060405180910390f35b34156106b057600080fd5b61074a60048080356000191690602001909190803590602001908201803590602001908080601f0160208091040260200160405190810160405280939291908181526020018383808284378201915050505050509190803573ffffffffffffffffffffffffffffffffffffffff1690602001909190803590602001909190803560ff16906020019091908035906020019091905050611d0a565b005b341561075757600080fd5b61075f61211c565b6040518082815260200191505060405180910390f35b341561078057600080fd5b61079f6004808035906020019091908035906020019091905050612122565b005b34156107ac57600080fd5b6107c260048080359060200190919050506121d7565b005b34156107cf57600080fd5b6107fb600480803573ffffffffffffffffffffffffffffffffffffffff1690602001909190505061227c565b005b6000809054906101000a900473ffffffffffffffffffffffffffffffffffffffff1673ffffffffffffffffffffffffffffffffffffffff163373ffffffffffffffffffffffffffffffffffffffff1614151561085857600080fd5b6000600560006101000a81548160ff0219169083151502179055507f62451d457bc659158be6e6247f56ec1df424a5c7597f71c20c2bc44e0965c8f960405160405180910390a1565b6000806000600560009054906101000a900460ff16158061090e57503373ffffffffffffffffffffffffffffffffffffffff166000809054906101000a900473ffffffffffffffffffffffffffffffffffffffff1673ffffffffffffffffffffffffffffffffffffffff16145b151561091957600080fd5b61092385336123d1565b909150809350819450505060018081111561093a57fe5b8360070160009054906101000a900460ff16600181111561095757fe5b14151561096357600080fd5b61096f8333868561246d565b6109a061098985856004015461265090919063ffffffff16565b8460050160009054906101000a900460ff1661268b565b9050600260009054906101000a900473ffffffffffffffffffffffffffffffffffffffff1673ffffffffffffffffffffffffffffffffffffffff166323b872dd338560030160009054906101000a900473ffffffffffffffffffffffffffffffffffffffff16846040518463ffffffff167c0100000000000000000000000000000000000000000000000000000000028152600401808473ffffffffffffffffffffffffffffffffffffffff1673ffffffffffffffffffffffffffffffffffffffff1681526020018373ffffffffffffffffffffffffffffffffffffffff1673ffffffffffffffffffffffffffffffffffffffff1681526020018281526020019350505050602060405180830381600087803b1515610abe57600080fd5b5af11515610acb57600080fd5b505050604051805190501515610ae057600080fd5b5050505050565b6000600560009054906101000a900460ff161580610b5157503373ffffffffffffffffffffffffffffffffffffffff166000809054906101000a900473ffffffffffffffffffffffffffffffffffffffff1673ffffffffffffffffffffffffffffffffffffffff16145b1515610b5c57600080fd5b60016000836000191660001916815260200190815260200160002090508060090160009054906101000a900473ffffffffffffffffffffffffffffffffffffffff1673ffffffffffffffffffffffffffffffffffffffff163373ffffffffffffffffffffffffffffffffffffffff16141515610bd757600080fd5b8060020160009054906101000a900473ffffffffffffffffffffffffffffffffffffffff1673ffffffffffffffffffffffffffffffffffffffff1682600019163373ffffffffffffffffffffffffffffffffffffffff167eaf27297c740fbece798135b71b06164310e0591b6c729e50b8026dcc60be5060405160405180910390a4338160020160006101000a81548173ffffffffffffffffffffffffffffffffffffffff021916908373ffffffffffffffffffffffffffffffffffffffff16021790555060008160090160006101000a81548173ffffffffffffffffffffffffffffffffffffffff021916908373ffffffffffffffffffffffffffffffffffffffff1602179055505050565b600080600080600080600560009054906101000a900460ff161580610d5557503373ffffffffffffffffffffffffffffffffffffffff166000809054906101000a900473ffffffffffffffffffffffffffffffffffffffff1673ffffffffffffffffffffffffffffffffffffffff16145b1515610d6057600080fd5b60009550610d6e88336123d1565b809650819750829850505050851515610d8657600080fd5b610d9d4285600001546126d190919063ffffffff16565b9250610db685600401548461265090919063ffffffff16565b91508460080160008873ffffffffffffffffffffffffffffffffffffffff1673ffffffffffffffffffffffffffffffffffffffff1681526020019081526020016000209050610e078588858461246d565b8460080160003373ffffffffffffffffffffffffffffffffffffffff1673ffffffffffffffffffffffffffffffffffffffff16815260200190815260200160002060008082016000905550508673ffffffffffffffffffffffffffffffffffffffff163373ffffffffffffffffffffffffffffffffffffffff1689600019167fd48f962428456c3dad240e62550064e40e985c034aba41b08972dfa1df82dac98686604051808381526020018281526020019250505060405180910390a45050505050505050565b610ed761278e565b600080600080600080600160008960001916600019168152602001908152602001600020600101600160008a6000191660001916815260200190815260200160002060020160009054906101000a900473ffffffffffffffffffffffffffffffffffffffff16600160008b6000191660001916815260200190815260200160002060030160009054906101000a900473ffffffffffffffffffffffffffffffffffffffff16600160008c6000191660001916815260200190815260200160002060040154600160008d6000191660001916815260200190815260200160002060050160009054906101000a900460ff16600160008e6000191660001916815260200190815260200160002060060154600160008f6000191660001916815260200190815260200160002060070160009054906101000a900460ff16868054600181600116156101000203166002900480601f0160208091040260200160405190810160405280929190818152602001828054600181600116156101000203166002900480156110a75780601f1061107c576101008083540402835291602001916110a7565b820191906000526020600020905b81548152906001019060200180831161108a57829003601f168201915b505050505096509650965096509650965096509650919395979092949650565b600086600060016000836000191660001916815260200190815260200160002090503373ffffffffffffffffffffffffffffffffffffffff168160020160009054906101000a900473ffffffffffffffffffffffffffffffffffffffff1673ffffffffffffffffffffffffffffffffffffffff16148061119357503373ffffffffffffffffffffffffffffffffffffffff166000809054906101000a900473ffffffffffffffffffffffffffffffffffffffff1673ffffffffffffffffffffffffffffffffffffffff16145b151561119e57600080fd5b6000861115156111ad57600080fd5b600160008a600019166000191681526020019081526020016000209250878360010190805190602001906111e29291906127a2565b50868360030160006101000a81548173ffffffffffffffffffffffffffffffffffffffff021916908373ffffffffffffffffffffffffffffffffffffffff160217905550858360040181905550848360050160006101000a81548160ff0219169083600181111561124f57fe5b02179055508383600601819055508260000154600019168360020160009054906101000a900473ffffffffffffffffffffffffffffffffffffffff1673ffffffffffffffffffffffffffffffffffffffff167f21953ef62f6c172d864b9ae2181d3c7114ef506c3546057e354cf6b5bab03ec48a8a8a8a8a60405180806020018673ffffffffffffffffffffffffffffffffffffffff1673ffffffffffffffffffffffffffffffffffffffff16815260200185815260200184600181111561131357fe5b60ff168152602001838152602001828103825287818151815260200191508051906020019080838360005b8381101561135957808201518184015260208101905061133e565b50505050905090810190601f1680156113865780820380516001836020036101000a031916815260200191505b50965050505050505060405180910390a3505050505050505050565b6000806113af8333611745565b91509150915091565b600081600060016000836000191660001916815260200190815260200160002090503373ffffffffffffffffffffffffffffffffffffffff168160020160009054906101000a900473ffffffffffffffffffffffffffffffffffffffff1673ffffffffffffffffffffffffffffffffffffffff16148061148457503373ffffffffffffffffffffffffffffffffffffffff166000809054906101000a900473ffffffffffffffffffffffffffffffffffffffff1673ffffffffffffffffffffffffffffffffffffffff16145b151561148f57600080fd5b6001600085600019166000191681526020019081526020016000209250600060018111156114b957fe5b8360070160009054906101000a900460ff1660018111156114d657fe5b1415156114e257600080fd5b60018360070160006101000a81548160ff0219169083600181111561150357fe5b021790555083600019168360020160009054906101000a900473ffffffffffffffffffffffffffffffffffffffff1673ffffffffffffffffffffffffffffffffffffffff167f07ace6911e28d0d5b2e773ce49cdfa29db157b38bffccd5f0b56f02cfba8a64f856001018660030160009054906101000a900473ffffffffffffffffffffffffffffffffffffffff1687600401548860050160009054906101000a900460ff16896006015460405180806020018673ffffffffffffffffffffffffffffffffffffffff1673ffffffffffffffffffffffffffffffffffffffff1681526020018581526020018460018111156115fa57fe5b60ff1681526020018381526020018281038252878181546001816001161561010002031660029004815260200191508054600181600116156101000203166002900480156116895780601f1061165e57610100808354040283529160200191611689565b820191906000526020600020905b81548152906001019060200180831161166c57829003601f168201915b5050965050505050505060405180910390a350505050565b6000809054906101000a900473ffffffffffffffffffffffffffffffffffffffff1673ffffffffffffffffffffffffffffffffffffffff163373ffffffffffffffffffffffffffffffffffffffff161415156116fc57600080fd5b6001600560006101000a81548160ff0219169083151502179055507f1ee9080f6b55ca44ce58681c8162e6c1ac1c47e1da791a4a1c1ec6186d8af1f360405160405180910390a1565b600080600061175485856123d1565b9050809250819450505080600001549150509250929050565b6000809054906101000a900473ffffffffffffffffffffffffffffffffffffffff1673ffffffffffffffffffffffffffffffffffffffff163373ffffffffffffffffffffffffffffffffffffffff161415156117c857600080fd5b6117d282826126ea565b5050565b600360009054906101000a900473ffffffffffffffffffffffffffffffffffffffff1681565b6000809054906101000a900473ffffffffffffffffffffffffffffffffffffffff1681565b600081600060016000836000191660001916815260200190815260200160002090503373ffffffffffffffffffffffffffffffffffffffff168160020160009054906101000a900473ffffffffffffffffffffffffffffffffffffffff1673ffffffffffffffffffffffffffffffffffffffff1614806118ed57503373ffffffffffffffffffffffffffffffffffffffff166000809054906101000a900473ffffffffffffffffffffffffffffffffffffffff1673ffffffffffffffffffffffffffffffffffffffff16145b15156118f857600080fd5b600160008560001916600019168152602001908152602001600020925060018081111561192157fe5b8360070160009054906101000a900460ff16600181111561193e57fe5b14151561194a57600080fd5b60008360070160006101000a81548160ff0219169083600181111561196b57fe5b021790555083600019168360020160009054906101000a900473ffffffffffffffffffffffffffffffffffffffff1673ffffffffffffffffffffffffffffffffffffffff167ffc64345d61f75f77f5039b0e23107d4abd73ecb7cd6c94fd44e8a6dd85918f6a856001018660030160009054906101000a900473ffffffffffffffffffffffffffffffffffffffff1687600401548860050160009054906101000a900460ff16896006015460405180806020018673ffffffffffffffffffffffffffffffffffffffff1673ffffffffffffffffffffffffffffffffffffffff168152602001858152602001846001811115611a6257fe5b60ff168152602001838152602001828103825287818154600181600116156101000203166002900481526020019150805460018160011615610100020316600290048015611af15780601f10611ac657610100808354040283529160200191611af1565b820191906000526020600020905b815481529060010190602001808311611ad457829003601f168201915b5050965050505050505060405180910390a350505050565b81600060016000836000191660001916815260200190815260200160002090503373ffffffffffffffffffffffffffffffffffffffff168160020160009054906101000a900473ffffffffffffffffffffffffffffffffffffffff1673ffffffffffffffffffffffffffffffffffffffff161480611bd357503373ffffffffffffffffffffffffffffffffffffffff166000809054906101000a900473ffffffffffffffffffffffffffffffffffffffff1673ffffffffffffffffffffffffffffffffffffffff16145b1515611bde57600080fd5b8260016000866000191660001916815260200190815260200160002060090160006101000a81548173ffffffffffffffffffffffffffffffffffffffff021916908373ffffffffffffffffffffffffffffffffffffffff1602179055508273ffffffffffffffffffffffffffffffffffffffff16846000191660016000876000191660001916815260200190815260200160002060020160009054906101000a900473ffffffffffffffffffffffffffffffffffffffff1673ffffffffffffffffffffffffffffffffffffffff167f62160e4abadfc3a6afc583d10586d737c813753fe64d93f4283282b2b600a34460405160405180910390a450505050565b6000611cea83836123d1565b9050508091505092915050565b600560009054906101000a900460ff1681565b6000600560009054906101000a900460ff161580611d7457503373ffffffffffffffffffffffffffffffffffffffff166000809054906101000a900473ffffffffffffffffffffffffffffffffffffffff1673ffffffffffffffffffffffffffffffffffffffff16145b1515611d7f57600080fd5b6000600102876000191614151515611d9657600080fd5b600084111515611da557600080fd5b60016000886000191660001916815260200190815260200160002090506000600102816000015460001916141515611ddc57600080fd5b61012060405190810160405280886000191681526020018781526020013373ffffffffffffffffffffffffffffffffffffffff1681526020018673ffffffffffffffffffffffffffffffffffffffff168152602001858152602001846001811115611e4357fe5b8152602001838152602001600180811115611e5a57fe5b8152602001600073ffffffffffffffffffffffffffffffffffffffff16815250600160008960001916600019168152602001908152602001600020600082015181600001906000191690556020820151816001019080519060200190611ec1929190612822565b5060408201518160020160006101000a81548173ffffffffffffffffffffffffffffffffffffffff021916908373ffffffffffffffffffffffffffffffffffffffff16021790555060608201518160030160006101000a81548173ffffffffffffffffffffffffffffffffffffffff021916908373ffffffffffffffffffffffffffffffffffffffff1602179055506080820151816004015560a08201518160050160006101000a81548160ff02191690836001811115611f7e57fe5b021790555060c0820151816006015560e08201518160070160006101000a81548160ff02191690836001811115611fb157fe5b02179055506101008201518160090160006101000a81548173ffffffffffffffffffffffffffffffffffffffff021916908373ffffffffffffffffffffffffffffffffffffffff16021790555090505086600019163373ffffffffffffffffffffffffffffffffffffffff167f397627c8e8e4324a0f8a98a8274c00e4cee798d000625304ffbae6144ec64e54888888888860405180806020018673ffffffffffffffffffffffffffffffffffffffff1673ffffffffffffffffffffffffffffffffffffffff16815260200185815260200184600181111561208f57fe5b60ff168152602001838152602001828103825287818151815260200191508051906020019080838360005b838110156120d55780820151818401526020810190506120ba565b50505050905090810190601f1680156121025780820380516001836020036101000a031916815260200191505b50965050505050505060405180910390a350505050505050565b60045481565b600360009054906101000a900473ffffffffffffffffffffffffffffffffffffffff1673ffffffffffffffffffffffffffffffffffffffff163373ffffffffffffffffffffffffffffffffffffffff1614151561217e57600080fd5b60008111151561218d57600080fd5b806004819055507fc84d758f9836fe65b8f2be13d5e364b9373411e1158b63c1c5abbbae789496098282604051808381526020018281526020019250505060405180910390a15050565b600360009054906101000a900473ffffffffffffffffffffffffffffffffffffffff1673ffffffffffffffffffffffffffffffffffffffff163373ffffffffffffffffffffffffffffffffffffffff1614151561223357600080fd5b806004819055507fc84d758f9836fe65b8f2be13d5e364b9373411e1158b63c1c5abbbae789496094282604051808381526020018281526020019250505060405180910390a150565b6000809054906101000a900473ffffffffffffffffffffffffffffffffffffffff1673ffffffffffffffffffffffffffffffffffffffff163373ffffffffffffffffffffffffffffffffffffffff161415156122d757600080fd5b600073ffffffffffffffffffffffffffffffffffffffff168173ffffffffffffffffffffffffffffffffffffffff161415151561231357600080fd5b8073ffffffffffffffffffffffffffffffffffffffff166000809054906101000a900473ffffffffffffffffffffffffffffffffffffffff1673ffffffffffffffffffffffffffffffffffffffff167f8be0079c531659141344cd1fd0a4f28419497f9722a3daafe3b4186f6b6457e060405160405180910390a3806000806101000a81548173ffffffffffffffffffffffffffffffffffffffff021916908373ffffffffffffffffffffffffffffffffffffffff16021790555050565b6000806000806000600160008860001916600019168152602001908152602001600020915060006001028260000154600019161415151561241157600080fd5b8160080160008773ffffffffffffffffffffffffffffffffffffffff1673ffffffffffffffffffffffffffffffffffffffff16815260200190815260200160002090504281600001541015828294509450945050509250925092565b60006124776128a2565b42836000015411156125105760008411151561249257600080fd5b6124a984846000015461277090919063ffffffff16565b91508183600001819055508473ffffffffffffffffffffffffffffffffffffffff168660000154600019167f602ca7f17c81aa5e62b3381000dd445f5af7c333574da85f4b246288afc07322846040518082815260200191505060405180910390a36125f1565b8560060154841015151561252357600080fd5b612536844261277090919063ffffffff16565b9150602060405190810160405280838152509050808660080160008773ffffffffffffffffffffffffffffffffffffffff1673ffffffffffffffffffffffffffffffffffffffff168152602001908152602001600020600082015181600001559050508473ffffffffffffffffffffffffffffffffffffffff168660000154600019167f9c3ab7e86c11d820cc311335294ebdf7299d8637d47253b930c4120b775d7cca846040518082815260200191505060405180910390a35b8473ffffffffffffffffffffffffffffffffffffffff168660000154600019167fe22e8c2d8a284063fec10f270bc3c776ffb40bcf816b73eef36354d5f3d7b3d4846040518082815260200191505060405180910390a3505050505050565b60008060008414156126655760009150612684565b828402905082848281151561267657fe5b0414151561268057fe5b8091505b5092915050565b600080600181111561269957fe5b8260018111156126a557fe5b14156126b3578290506126cb565b6126c86004548461265090919063ffffffff16565b90505b92915050565b60008282111515156126df57fe5b818303905092915050565b80600360006101000a81548173ffffffffffffffffffffffffffffffffffffffff021916908373ffffffffffffffffffffffffffffffffffffffff16021790555081600260006101000a81548173ffffffffffffffffffffffffffffffffffffffff021916908373ffffffffffffffffffffffffffffffffffffffff1602179055505050565b600080828401905083811015151561278457fe5b8091505092915050565b602060405190810160405280600081525090565b828054600181600116156101000203166002900490600052602060002090601f016020900481019282601f106127e357805160ff1916838001178555612811565b82800160010185558215612811579182015b828111156128105782518255916020019190600101906127f5565b5b50905061281e91906128b6565b5090565b828054600181600116156101000203166002900490600052602060002090601f016020900481019282601f1061286357805160ff1916838001178555612891565b82800160010185558215612891579182015b82811115612890578251825591602001919060010190612875565b5b50905061289e91906128b6565b5090565b602060405190810160405280600081525090565b6128d891905b808211156128d45760008160009055506001016128bc565b5090565b905600a165627a7a723058204eaa7a4e69d5a709267b8673bc887f45979d3f98e4297bc53939bffa67a77a8f0029",
  "source": "pragma solidity ^0.4.0;\n\nimport \"../node_modules/zeppelin-solidity/contracts/token/ERC20/ERC20.sol\";\nimport \"../node_modules/zeppelin-solidity/contracts/math/SafeMath.sol\";\nimport \"../node_modules/zeppelin-solidity/contracts/ownership/Ownable.sol\";\n\n// TODO: Add require reasons as soon as Solidity 0.4.22 is out (now commented out)\n//   follow progress at https://github.com/ethereum/solidity/projects/6\ncontract Marketplace is Ownable {\n    using SafeMath for uint256;\n\n    // product events\n    event ProductCreated(address indexed owner, bytes32 indexed id, string name, address beneficiary, uint pricePerSecond, Currency currency, uint minimumSubscriptionSeconds);\n    event ProductUpdated(address indexed owner, bytes32 indexed id, string name, address beneficiary, uint pricePerSecond, Currency currency, uint minimumSubscriptionSeconds);\n    event ProductDeleted(address indexed owner, bytes32 indexed id, string name, address beneficiary, uint pricePerSecond, Currency currency, uint minimumSubscriptionSeconds);\n    event ProductRedeployed(address indexed owner, bytes32 indexed id, string name, address beneficiary, uint pricePerSecond, Currency currency, uint minimumSubscriptionSeconds);\n    event ProductOwnershipOffered(address indexed owner, bytes32 indexed id, address indexed to);\n    event ProductOwnershipChanged(address indexed newOwner, bytes32 indexed id, address indexed oldOwner);\n\n    // subscription events\n    event Subscribed(bytes32 indexed productId, address indexed subscriber, uint endTimestamp);\n    event NewSubscription(bytes32 indexed productId, address indexed subscriber, uint endTimestamp);\n    event SubscriptionExtended(bytes32 indexed productId, address indexed subscriber, uint endTimestamp);\n    event SubscriptionTransferred(bytes32 indexed productId, address indexed from, address indexed to, uint secondsTransferred, uint datacoinTransferred);    \n\n    // currency events\n    event ExchangeRatesUpdated(uint timestamp, uint dataInUsd);\n\n    enum ProductState {\n        NotDeployed,                // non-existent or deleted\n        Deployed                    // created or redeployed\n    }\n\n    enum Currency {\n        DATA,                       // data atoms or \"wei\" (10^-18 DATA)\n        USD                         // nanodollars (10^-9 USD)\n    }\n\n    struct Product {\n        bytes32 id;\n        string name;\n        address owner;\n        address beneficiary;        // account where revenue is directed to\n        uint pricePerSecond;\n        Currency priceCurrency;\n        uint minimumSubscriptionSeconds;\n        ProductState state;\n        mapping(address => TimeBasedSubscription) subscriptions;\n        address newOwnerCandidate;  // Two phase hand-over to minimize the chance that the product ownership is lost to a non-existent address.\n    }\n\n    struct TimeBasedSubscription {        \n        uint endTimestamp;\n    }\n\n    mapping (bytes32 => Product) products;\n    function getProduct(bytes32 id) public view returns (string name, address owner, address beneficiary, uint pricePerSecond, Currency currency, uint minimumSubscriptionSeconds, ProductState state) {\n        return (\n            products[id].name,\n            products[id].owner,\n            products[id].beneficiary,\n            products[id].pricePerSecond,\n            products[id].priceCurrency,\n            products[id].minimumSubscriptionSeconds,\n            products[id].state\n        );\n    }\n\n    function getSubscription(bytes32 productId, address subscriber) public view returns (bool isValid, uint endTimestamp) {\n        TimeBasedSubscription storage sub;\n        (isValid, , sub) = _getSubscription(productId, subscriber);\n        endTimestamp = sub.endTimestamp;        \n    }\n\n    function getSubscriptionTo(bytes32 productId) public view returns (bool isValid, uint endTimestamp) {\n        return getSubscription(productId, msg.sender);\n    }\n\n    ERC20 datacoin;\n\n    address public currencyUpdateAgent;\n\n    function Marketplace(address datacoinAddress, address currencyUpdateAgentAddress) Ownable() public {        \n        _initialize(datacoinAddress, currencyUpdateAgentAddress);\n    }\n\n    function _initialize(address datacoinAddress, address currencyUpdateAgentAddress) internal {\n        currencyUpdateAgent = currencyUpdateAgentAddress;\n        datacoin = ERC20(datacoinAddress);\n    }\n\n    ////////////////// Product management /////////////////\n\n    // also checks that p exists: p.owner == 0 for non-existent products    \n    modifier onlyProductOwner(bytes32 productId) {\n        Product storage p = products[productId];\n        require(p.owner == msg.sender || owner == msg.sender); //, \"Only product owner may call this function\");\n        _;\n    }\n\n    function createProduct(bytes32 id, string name, address beneficiary, uint pricePerSecond, Currency currency, uint minimumSubscriptionSeconds) public whenNotHalted {\n        require(id != 0); //, \"Product ID can't be empty/null\");\n        require(pricePerSecond > 0); //, \"Free streams go through different channel\");\n        Product storage p = products[id];\n        require(p.id == 0); //, \"Product with this ID already exists\");        \n        products[id] = Product(id, name, msg.sender, beneficiary, pricePerSecond, currency, minimumSubscriptionSeconds, ProductState.Deployed, 0);\n        emit ProductCreated(msg.sender, id, name, beneficiary, pricePerSecond, currency, minimumSubscriptionSeconds);\n    }\n\n    /**\n    * Stop offering the product\n    */\n    function deleteProduct(bytes32 productId) public onlyProductOwner(productId) {        \n        Product storage p = products[productId];\n        require(p.state == ProductState.Deployed);\n        p.state = ProductState.NotDeployed;\n        emit ProductDeleted(p.owner, productId, p.name, p.beneficiary, p.pricePerSecond, p.priceCurrency, p.minimumSubscriptionSeconds);\n    }\n\n    /**\n    * Return product to market\n    */\n    function redeployProduct(bytes32 productId) public onlyProductOwner(productId) {        \n        Product storage p = products[productId];\n        require(p.state == ProductState.NotDeployed);\n        p.state = ProductState.Deployed;\n        emit ProductRedeployed(p.owner, productId, p.name, p.beneficiary, p.pricePerSecond, p.priceCurrency, p.minimumSubscriptionSeconds);\n    }\n\n    function updateProduct(bytes32 productId, string name, address beneficiary, uint pricePerSecond, Currency currency, uint minimumSubscriptionSeconds) public onlyProductOwner(productId) {\n        require(pricePerSecond > 0); //, \"Free streams go through different channel\");\n        Product storage p = products[productId]; \n        p.name = name;\n        p.beneficiary = beneficiary;\n        p.pricePerSecond = pricePerSecond;\n        p.priceCurrency = currency;\n        p.minimumSubscriptionSeconds = minimumSubscriptionSeconds;        \n        emit ProductUpdated(p.owner, p.id, name, beneficiary, pricePerSecond, currency, minimumSubscriptionSeconds);\n    }\n\n    /**\n    * Changes ownership of the product. Two phase hand-over minimizes the chance that the product ownership is lost to a non-existent address.\n    */\n    function offerProductOwnership(bytes32 productId, address newOwnerCandidate) public onlyProductOwner(productId) {\n        // that productId exists is already checked in onlyProductOwner\n        products[productId].newOwnerCandidate = newOwnerCandidate;\n        emit ProductOwnershipOffered(products[productId].owner, productId, newOwnerCandidate);\n    }\n\n    /**\n    * Changes ownership of the product. Two phase hand-over minimizes the chance that the product ownership is lost to a non-existent address.\n    */\n    function claimProductOwnership(bytes32 productId) public whenNotHalted {\n        // also checks that productId exists (newOwnerCandidate is zero for non-existent)\n        Product storage p = products[productId]; \n        require(msg.sender == p.newOwnerCandidate);\n        emit ProductOwnershipChanged(msg.sender, productId, p.owner);\n        p.owner = msg.sender;\n        p.newOwnerCandidate = 0;\n    }\n\n    /////////////// Subscription management ///////////////\n\n    /**\n     * Purchases access to this stream for msg.sender.\n     * If the address already has a valid subscription, extends the subscription by the given period.\n     */\n    function buy(bytes32 productId, uint subscriptionSeconds) public whenNotHalted {\n        Product storage product;\n        TimeBasedSubscription storage sub;\n        (, product, sub) = _getSubscription(productId, msg.sender);\n        require(product.state == ProductState.Deployed); //, \"Product has been deleted\");        \n        _addSubscription(product, msg.sender, subscriptionSeconds, sub);\n\n        uint price = _toDatacoin(product.pricePerSecond.mul(subscriptionSeconds), product.priceCurrency);\n        require(datacoin.transferFrom(msg.sender, product.beneficiary, price));  //, \"Not enough DATAcoin allowance\");\n    }\n\n    /**\n    * Checks if the given address currently has a valid subscription\n    */\n    function hasValidSubscription(bytes32 productId, address subscriber) public constant returns (bool isValid) {\n        (isValid, ,) = _getSubscription(productId, subscriber);\n    }\n\n    /**\n    * Transfer a valid subscription from msg.sender to a new address.\n    * If the address already has a valid subscription, extends the subscription by the msg.sender's remaining period.\n    */\n    function transferSubscription(bytes32 productId, address newSubscriber) public whenNotHalted {\n        bool isValid = false;\n        Product storage product;\n        TimeBasedSubscription storage sub;\n        (isValid, product, sub) = _getSubscription(productId, msg.sender);\n        require(isValid);   //, \"Only valid subscriptions can be transferred\");\n        uint secondsLeft = sub.endTimestamp.sub(block.timestamp);\n        uint datacoinLeft = secondsLeft.mul(product.pricePerSecond);\n        TimeBasedSubscription storage newSub = product.subscriptions[newSubscriber];\n        _addSubscription(product, newSubscriber, secondsLeft, newSub);\n        delete product.subscriptions[msg.sender];\n        emit SubscriptionTransferred(productId, msg.sender, newSubscriber, secondsLeft, datacoinLeft);\n    }\n\n    function _getSubscription(bytes32 productId, address subscriber) internal constant returns (bool subIsValid, Product storage, TimeBasedSubscription storage) {\n        Product storage p = products[productId];\n        require(p.id != 0); //, \"Product doesn't exist\");\n        TimeBasedSubscription storage s = p.subscriptions[subscriber];\n        return (s.endTimestamp >= block.timestamp, p, s);\n    }\n    \n    function _addSubscription(Product storage p, address subscriber, uint addSeconds, TimeBasedSubscription storage oldSub) internal {\n        uint endTimestamp;\n        if (oldSub.endTimestamp > block.timestamp) {\n            require(addSeconds > 0); //, \"Must top up worth at least one second\");\n            endTimestamp = oldSub.endTimestamp.add(addSeconds);\n            oldSub.endTimestamp = endTimestamp;  \n            emit SubscriptionExtended(p.id, subscriber, endTimestamp);\n        } else {\n            require(addSeconds >= p.minimumSubscriptionSeconds); //, \"More ether required to meet the minimum subscription period\");\n            endTimestamp = block.timestamp.add(addSeconds);\n            TimeBasedSubscription memory newSub = TimeBasedSubscription(endTimestamp);\n            p.subscriptions[subscriber] = newSub;\n            emit NewSubscription(p.id, subscriber, endTimestamp);\n        }\n        emit Subscribed(p.id, subscriber, endTimestamp);\n    }\n\n    // TODO: transfer allowance to another Marketplace contract\n    // Mechanism basically is that this Marketplace draws from the allowance and credits\n    //   the account on another Marketplace; OR that there is a central credit pool (say, an ERC20 token)\n    // Creating another ERC20 token for this could be a simple fix: it would need the ability to transfer allowances\n\n    /////////////// Currency management ///////////////\n\n    uint public dataPerUsd = 1;\n\n    /**\n    * Update currency exchange rates; all purchases are still billed in DATAcoin\n    * @param timestamp in seconds when the exchange rates were last updated\n    * @param dataUsd how many data atoms (10^-18 DATA) equal one nanodollar (10^-9 USD)\n    */\n    function updateExchangeRates(uint timestamp, uint dataUsd) public {\n        require(msg.sender == currencyUpdateAgent);\n        require(dataUsd > 0);\n        dataPerUsd = dataUsd;\n        emit ExchangeRatesUpdated(timestamp, dataUsd);\n    }\n\n    /**\n    * Allow updating currency exchange rates even if time of exchange rate isn't known\n    */\n    function updateExchangeRates(uint dataUsd) public {\n        require(msg.sender == currencyUpdateAgent);\n        dataPerUsd = dataUsd;\n        emit ExchangeRatesUpdated(block.timestamp, dataUsd);\n    }    \n\n    function _toDatacoin(uint number, Currency unit) view internal returns (uint datacoinAmount) {\n        if (unit == Currency.DATA) {\n            return number;\n        }\n        return number.mul(dataPerUsd);\n    }\n\n    /////////////// Admin functionality ///////////////\n    \n    event Halted();\n    event Resumed();\n    bool public halted = false;\n\n    modifier whenNotHalted() {\n        require(!halted || owner == msg.sender);\n        _;\n    }\n    function halt() public onlyOwner {\n        halted = true;\n        emit Halted();\n    }\n    function resume() public onlyOwner {\n        halted = false;\n        emit Resumed();\n    }\n\n    function reInitialize(address datacoinAddress, address currencyUpdateAgentAddress) public onlyOwner {\n        _initialize(datacoinAddress, currencyUpdateAgentAddress);\n    }\n}",
  "sourcePath": "/home/ubuntu/marketplace-contracts/contracts/Marketplace.sol",
  "compiler": {
    "name": "solc",
    "version": "0.4.21+commit.dfe3193c.Emscripten.clang"
  },
  "schemaVersion": "2.0.0",
  "updatedAt": "2018-04-19T17:34:16.219Z"
}