{
  "contractName": "Marketplace",
  "abi": [
    {
      "constant": false,
      "inputs": [],
      "name": "claimOwnership",
      "outputs": [],
      "payable": false,
      "stateMutability": "nonpayable",
      "type": "function"
    },
    {
      "constant": true,
      "inputs": [
        {
          "name": "",
          "type": "bytes32"
        }
      ],
      "name": "products",
      "outputs": [
        {
          "name": "id",
          "type": "bytes32"
        },
        {
          "name": "name",
          "type": "string"
        },
        {
          "name": "owner",
          "type": "address"
        },
        {
          "name": "beneficiary",
          "type": "address"
        },
        {
          "name": "pricePerSecond",
          "type": "uint256"
        },
        {
          "name": "priceCurrency",
          "type": "uint8"
        },
        {
          "name": "minimumSubscriptionSeconds",
          "type": "uint256"
        },
        {
          "name": "state",
          "type": "uint8"
        },
        {
          "name": "newOwnerCandidate",
          "type": "address"
        },
        {
          "name": "requiresWhitelist",
          "type": "bool"
        }
      ],
      "payable": false,
      "stateMutability": "view",
      "type": "function"
    },
    {
      "constant": true,
      "inputs": [],
      "name": "datacoin",
      "outputs": [
        {
          "name": "",
          "type": "address"
        }
      ],
      "payable": false,
      "stateMutability": "view",
      "type": "function"
    },
    {
      "constant": true,
      "inputs": [],
      "name": "currencyUpdateAgent",
      "outputs": [
        {
          "name": "",
          "type": "address"
        }
      ],
      "payable": false,
      "stateMutability": "view",
      "type": "function"
    },
    {
      "constant": true,
      "inputs": [],
      "name": "owner",
      "outputs": [
        {
          "name": "",
          "type": "address"
        }
      ],
      "payable": false,
      "stateMutability": "view",
      "type": "function"
    },
    {
      "constant": true,
      "inputs": [],
      "name": "halted",
      "outputs": [
        {
          "name": "",
          "type": "bool"
        }
      ],
      "payable": false,
      "stateMutability": "view",
      "type": "function"
    },
    {
      "constant": true,
      "inputs": [],
      "name": "txFee",
      "outputs": [
        {
          "name": "",
          "type": "uint256"
        }
      ],
      "payable": false,
      "stateMutability": "view",
      "type": "function"
    },
    {
      "constant": true,
      "inputs": [],
      "name": "dataPerUsd",
      "outputs": [
        {
          "name": "",
          "type": "uint256"
        }
      ],
      "payable": false,
      "stateMutability": "view",
      "type": "function"
    },
    {
      "constant": true,
      "inputs": [],
      "name": "pendingOwner",
      "outputs": [
        {
          "name": "",
          "type": "address"
        }
      ],
      "payable": false,
      "stateMutability": "view",
      "type": "function"
    },
    {
      "constant": false,
      "inputs": [
        {
          "name": "newOwner",
          "type": "address"
        }
      ],
      "name": "transferOwnership",
      "outputs": [],
      "payable": false,
      "stateMutability": "nonpayable",
      "type": "function"
    },
    {
      "inputs": [
        {
          "name": "datacoinAddress",
          "type": "address"
        },
        {
          "name": "currencyUpdateAgentAddress",
          "type": "address"
        },
        {
          "name": "prev_marketplace_address",
          "type": "address"
        }
      ],
      "payable": false,
      "stateMutability": "nonpayable",
      "type": "constructor"
    },
    {
      "anonymous": false,
      "inputs": [
        {
          "indexed": true,
          "name": "owner",
          "type": "address"
        },
        {
          "indexed": true,
          "name": "id",
          "type": "bytes32"
        },
        {
          "indexed": false,
          "name": "name",
          "type": "string"
        },
        {
          "indexed": false,
          "name": "beneficiary",
          "type": "address"
        },
        {
          "indexed": false,
          "name": "pricePerSecond",
          "type": "uint256"
        },
        {
          "indexed": false,
          "name": "currency",
          "type": "uint8"
        },
        {
          "indexed": false,
          "name": "minimumSubscriptionSeconds",
          "type": "uint256"
        }
      ],
      "name": "ProductCreated",
      "type": "event"
    },
    {
      "anonymous": false,
      "inputs": [
        {
          "indexed": true,
          "name": "owner",
          "type": "address"
        },
        {
          "indexed": true,
          "name": "id",
          "type": "bytes32"
        },
        {
          "indexed": false,
          "name": "name",
          "type": "string"
        },
        {
          "indexed": false,
          "name": "beneficiary",
          "type": "address"
        },
        {
          "indexed": false,
          "name": "pricePerSecond",
          "type": "uint256"
        },
        {
          "indexed": false,
          "name": "currency",
          "type": "uint8"
        },
        {
          "indexed": false,
          "name": "minimumSubscriptionSeconds",
          "type": "uint256"
        }
      ],
      "name": "ProductUpdated",
      "type": "event"
    },
    {
      "anonymous": false,
      "inputs": [
        {
          "indexed": true,
          "name": "owner",
          "type": "address"
        },
        {
          "indexed": true,
          "name": "id",
          "type": "bytes32"
        },
        {
          "indexed": false,
          "name": "name",
          "type": "string"
        },
        {
          "indexed": false,
          "name": "beneficiary",
          "type": "address"
        },
        {
          "indexed": false,
          "name": "pricePerSecond",
          "type": "uint256"
        },
        {
          "indexed": false,
          "name": "currency",
          "type": "uint8"
        },
        {
          "indexed": false,
          "name": "minimumSubscriptionSeconds",
          "type": "uint256"
        }
      ],
      "name": "ProductDeleted",
      "type": "event"
    },
    {
      "anonymous": false,
      "inputs": [
        {
          "indexed": true,
          "name": "owner",
          "type": "address"
        },
        {
          "indexed": true,
          "name": "id",
          "type": "bytes32"
        },
        {
          "indexed": false,
          "name": "name",
          "type": "string"
        },
        {
          "indexed": false,
          "name": "beneficiary",
          "type": "address"
        },
        {
          "indexed": false,
          "name": "pricePerSecond",
          "type": "uint256"
        },
        {
          "indexed": false,
          "name": "currency",
          "type": "uint8"
        },
        {
          "indexed": false,
          "name": "minimumSubscriptionSeconds",
          "type": "uint256"
        }
      ],
      "name": "ProductImported",
      "type": "event"
    },
    {
      "anonymous": false,
      "inputs": [
        {
          "indexed": true,
          "name": "owner",
          "type": "address"
        },
        {
          "indexed": true,
          "name": "id",
          "type": "bytes32"
        },
        {
          "indexed": false,
          "name": "name",
          "type": "string"
        },
        {
          "indexed": false,
          "name": "beneficiary",
          "type": "address"
        },
        {
          "indexed": false,
          "name": "pricePerSecond",
          "type": "uint256"
        },
        {
          "indexed": false,
          "name": "currency",
          "type": "uint8"
        },
        {
          "indexed": false,
          "name": "minimumSubscriptionSeconds",
          "type": "uint256"
        }
      ],
      "name": "ProductRedeployed",
      "type": "event"
    },
    {
      "anonymous": false,
      "inputs": [
        {
          "indexed": true,
          "name": "owner",
          "type": "address"
        },
        {
          "indexed": true,
          "name": "id",
          "type": "bytes32"
        },
        {
          "indexed": true,
          "name": "to",
          "type": "address"
        }
      ],
      "name": "ProductOwnershipOffered",
      "type": "event"
    },
    {
      "anonymous": false,
      "inputs": [
        {
          "indexed": true,
          "name": "newOwner",
          "type": "address"
        },
        {
          "indexed": true,
          "name": "id",
          "type": "bytes32"
        },
        {
          "indexed": true,
          "name": "oldOwner",
          "type": "address"
        }
      ],
      "name": "ProductOwnershipChanged",
      "type": "event"
    },
    {
      "anonymous": false,
      "inputs": [
        {
          "indexed": true,
          "name": "productId",
          "type": "bytes32"
        },
        {
          "indexed": true,
          "name": "subscriber",
          "type": "address"
        },
        {
          "indexed": false,
          "name": "endTimestamp",
          "type": "uint256"
        }
      ],
      "name": "Subscribed",
      "type": "event"
    },
    {
      "anonymous": false,
      "inputs": [
        {
          "indexed": true,
          "name": "productId",
          "type": "bytes32"
        },
        {
          "indexed": true,
          "name": "subscriber",
          "type": "address"
        },
        {
          "indexed": false,
          "name": "endTimestamp",
          "type": "uint256"
        }
      ],
      "name": "NewSubscription",
      "type": "event"
    },
    {
      "anonymous": false,
      "inputs": [
        {
          "indexed": true,
          "name": "productId",
          "type": "bytes32"
        },
        {
          "indexed": true,
          "name": "subscriber",
          "type": "address"
        },
        {
          "indexed": false,
          "name": "endTimestamp",
          "type": "uint256"
        }
      ],
      "name": "SubscriptionExtended",
      "type": "event"
    },
    {
      "anonymous": false,
      "inputs": [
        {
          "indexed": true,
          "name": "productId",
          "type": "bytes32"
        },
        {
          "indexed": true,
          "name": "subscriber",
          "type": "address"
        },
        {
          "indexed": false,
          "name": "endTimestamp",
          "type": "uint256"
        }
      ],
      "name": "SubscriptionImported",
      "type": "event"
    },
    {
      "anonymous": false,
      "inputs": [
        {
          "indexed": true,
          "name": "productId",
          "type": "bytes32"
        },
        {
          "indexed": true,
          "name": "from",
          "type": "address"
        },
        {
          "indexed": true,
          "name": "to",
          "type": "address"
        },
        {
          "indexed": false,
          "name": "secondsTransferred",
          "type": "uint256"
        }
      ],
      "name": "SubscriptionTransferred",
      "type": "event"
    },
    {
      "anonymous": false,
      "inputs": [
        {
          "indexed": false,
          "name": "timestamp",
          "type": "uint256"
        },
        {
          "indexed": false,
          "name": "dataInUsd",
          "type": "uint256"
        }
      ],
      "name": "ExchangeRatesUpdated",
      "type": "event"
    },
    {
      "anonymous": false,
      "inputs": [
        {
          "indexed": true,
          "name": "productId",
          "type": "bytes32"
        },
        {
          "indexed": true,
          "name": "subscriber",
          "type": "address"
        }
      ],
      "name": "WhitelistRequested",
      "type": "event"
    },
    {
      "anonymous": false,
      "inputs": [
        {
          "indexed": true,
          "name": "productId",
          "type": "bytes32"
        },
        {
          "indexed": true,
          "name": "subscriber",
          "type": "address"
        }
      ],
      "name": "WhitelistApproved",
      "type": "event"
    },
    {
      "anonymous": false,
      "inputs": [
        {
          "indexed": true,
          "name": "productId",
          "type": "bytes32"
        },
        {
          "indexed": true,
          "name": "subscriber",
          "type": "address"
        }
      ],
      "name": "WhitelistRejected",
      "type": "event"
    },
    {
      "anonymous": false,
      "inputs": [
        {
          "indexed": true,
          "name": "productId",
          "type": "bytes32"
        }
      ],
      "name": "WhitelistEnabled",
      "type": "event"
    },
    {
      "anonymous": false,
      "inputs": [
        {
          "indexed": true,
          "name": "productId",
          "type": "bytes32"
        }
      ],
      "name": "WhitelistDisabled",
      "type": "event"
    },
    {
      "anonymous": false,
      "inputs": [
        {
          "indexed": true,
          "name": "newTxFee",
          "type": "uint256"
        }
      ],
      "name": "TxFeeChanged",
      "type": "event"
    },
    {
      "anonymous": false,
      "inputs": [],
      "name": "Halted",
      "type": "event"
    },
    {
      "anonymous": false,
      "inputs": [],
      "name": "Resumed",
      "type": "event"
    },
    {
      "anonymous": false,
      "inputs": [
        {
          "indexed": true,
          "name": "previousOwner",
          "type": "address"
        },
        {
          "indexed": true,
          "name": "newOwner",
          "type": "address"
        }
      ],
      "name": "OwnershipTransferred",
      "type": "event"
    },
    {
      "constant": true,
      "inputs": [
        {
          "name": "id",
          "type": "bytes32"
        }
      ],
      "name": "getProduct",
      "outputs": [
        {
          "name": "name",
          "type": "string"
        },
        {
          "name": "owner",
          "type": "address"
        },
        {
          "name": "beneficiary",
          "type": "address"
        },
        {
          "name": "pricePerSecond",
          "type": "uint256"
        },
        {
          "name": "currency",
          "type": "uint8"
        },
        {
          "name": "minimumSubscriptionSeconds",
          "type": "uint256"
        },
        {
          "name": "state",
          "type": "uint8"
        },
        {
          "name": "requiresWhitelist",
          "type": "bool"
        }
      ],
      "payable": false,
      "stateMutability": "view",
      "type": "function"
    },
    {
      "constant": false,
      "inputs": [
        {
          "name": "id",
          "type": "bytes32"
        },
        {
          "name": "name",
          "type": "string"
        },
        {
          "name": "beneficiary",
          "type": "address"
        },
        {
          "name": "pricePerSecond",
          "type": "uint256"
        },
        {
          "name": "currency",
          "type": "uint8"
        },
        {
          "name": "minimumSubscriptionSeconds",
          "type": "uint256"
        }
      ],
      "name": "createProduct",
      "outputs": [],
      "payable": false,
      "stateMutability": "nonpayable",
      "type": "function"
    },
    {
      "constant": false,
      "inputs": [
        {
          "name": "id",
          "type": "bytes32"
        },
        {
          "name": "name",
          "type": "string"
        },
        {
          "name": "beneficiary",
          "type": "address"
        },
        {
          "name": "pricePerSecond",
          "type": "uint256"
        },
        {
          "name": "currency",
          "type": "uint8"
        },
        {
          "name": "minimumSubscriptionSeconds",
          "type": "uint256"
        }
      ],
      "name": "createProductWithWhitelist",
      "outputs": [],
      "payable": false,
      "stateMutability": "nonpayable",
      "type": "function"
    },
    {
      "constant": false,
      "inputs": [
        {
          "name": "productId",
          "type": "bytes32"
        }
      ],
      "name": "deleteProduct",
      "outputs": [],
      "payable": false,
      "stateMutability": "nonpayable",
      "type": "function"
    },
    {
      "constant": false,
      "inputs": [
        {
          "name": "productId",
          "type": "bytes32"
        }
      ],
      "name": "redeployProduct",
      "outputs": [],
      "payable": false,
      "stateMutability": "nonpayable",
      "type": "function"
    },
    {
      "constant": false,
      "inputs": [
        {
          "name": "productId",
          "type": "bytes32"
        },
        {
          "name": "name",
          "type": "string"
        },
        {
          "name": "beneficiary",
          "type": "address"
        },
        {
          "name": "pricePerSecond",
          "type": "uint256"
        },
        {
          "name": "currency",
          "type": "uint8"
        },
        {
          "name": "minimumSubscriptionSeconds",
          "type": "uint256"
        }
      ],
      "name": "updateProduct",
      "outputs": [],
      "payable": false,
      "stateMutability": "nonpayable",
      "type": "function"
    },
    {
      "constant": false,
      "inputs": [
        {
          "name": "productId",
          "type": "bytes32"
        },
        {
          "name": "newOwnerCandidate",
          "type": "address"
        }
      ],
      "name": "offerProductOwnership",
      "outputs": [],
      "payable": false,
      "stateMutability": "nonpayable",
      "type": "function"
    },
    {
      "constant": false,
      "inputs": [
        {
          "name": "productId",
          "type": "bytes32"
        }
      ],
      "name": "claimProductOwnership",
      "outputs": [],
      "payable": false,
      "stateMutability": "nonpayable",
      "type": "function"
    },
    {
      "constant": true,
      "inputs": [
        {
          "name": "productId",
          "type": "bytes32"
        },
        {
          "name": "subscriber",
          "type": "address"
        }
      ],
      "name": "getSubscription",
      "outputs": [
        {
          "name": "isValid",
          "type": "bool"
        },
        {
          "name": "endTimestamp",
          "type": "uint256"
        }
      ],
      "payable": false,
      "stateMutability": "view",
      "type": "function"
    },
    {
      "constant": true,
      "inputs": [
        {
          "name": "productId",
          "type": "bytes32"
        }
      ],
      "name": "getSubscriptionTo",
      "outputs": [
        {
          "name": "isValid",
          "type": "bool"
        },
        {
          "name": "endTimestamp",
          "type": "uint256"
        }
      ],
      "payable": false,
      "stateMutability": "view",
      "type": "function"
    },
    {
      "constant": true,
      "inputs": [
        {
          "name": "productId",
          "type": "bytes32"
        },
        {
          "name": "subscriber",
          "type": "address"
        }
      ],
      "name": "hasValidSubscription",
      "outputs": [
        {
          "name": "isValid",
          "type": "bool"
        }
      ],
      "payable": false,
      "stateMutability": "view",
      "type": "function"
    },
    {
      "constant": false,
      "inputs": [
        {
          "name": "productId",
          "type": "bytes32"
        },
        {
          "name": "subscriptionSeconds",
          "type": "uint256"
        },
        {
          "name": "recipient",
          "type": "address"
        }
      ],
      "name": "grantSubscription",
      "outputs": [],
      "payable": false,
      "stateMutability": "nonpayable",
      "type": "function"
    },
    {
      "constant": false,
      "inputs": [
        {
          "name": "productId",
          "type": "bytes32"
        },
        {
          "name": "subscriptionSeconds",
          "type": "uint256"
        },
        {
          "name": "recipient",
          "type": "address"
        }
      ],
      "name": "buyFor",
      "outputs": [],
      "payable": false,
      "stateMutability": "nonpayable",
      "type": "function"
    },
    {
      "constant": false,
      "inputs": [
        {
          "name": "productId",
          "type": "bytes32"
        },
        {
          "name": "subscriptionSeconds",
          "type": "uint256"
        }
      ],
      "name": "buy",
      "outputs": [],
      "payable": false,
      "stateMutability": "nonpayable",
      "type": "function"
    },
    {
      "constant": false,
      "inputs": [
        {
          "name": "timestamp",
          "type": "uint256"
        },
        {
          "name": "dataUsd",
          "type": "uint256"
        }
      ],
      "name": "updateExchangeRates",
      "outputs": [],
      "payable": false,
      "stateMutability": "nonpayable",
      "type": "function"
    },
    {
      "constant": true,
      "inputs": [
        {
          "name": "subscriptionSeconds",
          "type": "uint256"
        },
        {
          "name": "price",
          "type": "uint256"
        },
        {
          "name": "unit",
          "type": "uint8"
        }
      ],
      "name": "getPriceInData",
      "outputs": [
        {
          "name": "datacoinAmount",
          "type": "uint256"
        }
      ],
      "payable": false,
      "stateMutability": "view",
      "type": "function"
    },
    {
      "constant": false,
      "inputs": [],
      "name": "halt",
      "outputs": [],
      "payable": false,
      "stateMutability": "nonpayable",
      "type": "function"
    },
    {
      "constant": false,
      "inputs": [],
      "name": "resume",
      "outputs": [],
      "payable": false,
      "stateMutability": "nonpayable",
      "type": "function"
    },
    {
      "constant": false,
      "inputs": [
        {
          "name": "datacoinAddress",
          "type": "address"
        },
        {
          "name": "currencyUpdateAgentAddress",
          "type": "address"
        },
        {
          "name": "prev_marketplace_address",
          "type": "address"
        }
      ],
      "name": "reInitialize",
      "outputs": [],
      "payable": false,
      "stateMutability": "nonpayable",
      "type": "function"
    },
    {
      "constant": false,
      "inputs": [
        {
          "name": "productId",
          "type": "bytes32"
        },
        {
          "name": "_requiresWhitelist",
          "type": "bool"
        }
      ],
      "name": "setRequiresWhitelist",
      "outputs": [],
      "payable": false,
      "stateMutability": "nonpayable",
      "type": "function"
    },
    {
      "constant": false,
      "inputs": [
        {
          "name": "productId",
          "type": "bytes32"
        },
        {
          "name": "subscriber",
          "type": "address"
        }
      ],
      "name": "whitelistApprove",
      "outputs": [],
      "payable": false,
      "stateMutability": "nonpayable",
      "type": "function"
    },
    {
      "constant": false,
      "inputs": [
        {
          "name": "productId",
          "type": "bytes32"
        },
        {
          "name": "subscriber",
          "type": "address"
        }
      ],
      "name": "whitelistReject",
      "outputs": [],
      "payable": false,
      "stateMutability": "nonpayable",
      "type": "function"
    },
    {
      "constant": false,
      "inputs": [
        {
          "name": "productId",
          "type": "bytes32"
        }
      ],
      "name": "whitelistRequest",
      "outputs": [],
      "payable": false,
      "stateMutability": "nonpayable",
      "type": "function"
    },
    {
      "constant": true,
      "inputs": [
        {
          "name": "productId",
          "type": "bytes32"
        },
        {
          "name": "subscriber",
          "type": "address"
        }
      ],
      "name": "getWhitelistState",
      "outputs": [
        {
          "name": "wlstate",
          "type": "uint8"
        }
      ],
      "payable": false,
      "stateMutability": "view",
      "type": "function"
    },
    {
      "constant": false,
      "inputs": [
        {
          "name": "newTxFee",
          "type": "uint256"
        }
      ],
      "name": "setTxFee",
      "outputs": [],
      "payable": false,
      "stateMutability": "nonpayable",
      "type": "function"
    }
  ],
  "bytecode": "0x608060405267016345785d8a00006007556008805460ff191690553480156200002757600080fd5b5060405160608062003bac83398101604090815281516020830151919092015160008054600160a060020a031916331790556200006f83838364010000000062000078810204565b505050620000b5565b60038054600160a060020a0319908116600160a060020a039485161790915560028054821694841694909417909355600480549093169116179055565b613ae780620000c56000396000f3006080604052600436106101b65763ffffffff7c01000000000000000000000000000000000000000000000000000000006000350416630398751281146101bb578063046f7da2146101e45780630ddeb632146101f95780631a464fa1146102145780631f4e09af1461022c57806325cc3a20146102535780633a20e9df146102775780634a54fb0a1461037c5780634d8a9499146103f75780634e71e0c81461041b57806353f81ef81461043057806357fa3db71461046357806358f816bf146104ab5780635ed7ca5b146104c35780635f28cb74146104d8578063683ec0a7146104fc578063790543911461057757806379c88f201461068857806389aaad29146106b95780638da5cb5b146106ce57806394727b41146106e357806396002aef146106fb578063a4b138b01461071f578063b14f84321461074c578063b9b8af0b14610784578063bee7d43314610799578063cafbc49d146107cc578063cf82046114610847578063d50a04f41461085c578063db6c709c14610871578063de2273241461088c578063e0d5b9e1146108a9578063e30c3978146108c1578063f05d16f7146108d6578063f2fde38b146108ee575b600080fd5b3480156101c757600080fd5b506101e2600435602435600160a060020a036044351661090f565b005b3480156101f057600080fd5b506101e2610981565b34801561020557600080fd5b506101e2600435602435610a06565b34801561022057600080fd5b506101e2600435610a75565b34801561023857600080fd5b506101e2600435602435600160a060020a0360443516610bcd565b34801561025f57600080fd5b506101e2600435600160a060020a0360243516610d0d565b34801561028357600080fd5b5061028f600435610ef4565b604051808060200189600160a060020a0316600160a060020a0316815260200188600160a060020a0316600160a060020a031681526020018781526020018660018111156102d957fe5b60ff1681526020018581526020018460018111156102f357fe5b60ff1681526020018315151515815260200182810382528a818151815260200191508051906020019080838360005b8381101561033a578181015183820152602001610322565b50505050905090810190601f1680156103675780820380516001836020036101000a031916815260200191505b50995050505050505050505060405180910390f35b34801561038857600080fd5b5060408051602060046024803582810135601f81018590048502860185019096528585526101e295833595369560449491939091019190819084018382808284375094975050508335600160a060020a031694505050602082013591604081013560ff16915060600135611047565b34801561040357600080fd5b506101e2600435600160a060020a03602435166112d7565b34801561042757600080fd5b506101e26114be565b34801561043c57600080fd5b50610448600435611584565b60408051921515835260208301919091528051918290030190f35b34801561046f57600080fd5b50610487600435600160a060020a036024351661159a565b6040518082600381111561049757fe5b60ff16815260200191505060405180910390f35b3480156104b757600080fd5b506101e2600435611635565b3480156104cf57600080fd5b506101e26118b4565b3480156104e457600080fd5b50610448600435600160a060020a036024351661193c565b34801561050857600080fd5b5060408051602060046024803582810135601f81018590048502860185019096528585526101e295833595369560449491939091019190819084018382808284375094975050508335600160a060020a031694505050602082013591604081013560ff16915060600135611b93565b34801561058357600080fd5b5061058f600435611c36565b604080518b8152600160a060020a03808b16928201929092529088166060820152608081018790526020810160a082018760018111156105cb57fe5b60ff1681526020018681526020018560018111156105e557fe5b60ff16815260200184600160a060020a0316600160a060020a031681526020018315151515815260200182810382528b818151815260200191508051906020019080838360005b8381101561064457818101518382015260200161062c565b50505050905090810190601f1680156106715780820380516001836020036101000a031916815260200191505b509b50505050505050505050505060405180910390f35b34801561069457600080fd5b5061069d611d2a565b60408051600160a060020a039092168252519081900360200190f35b3480156106c557600080fd5b5061069d611d39565b3480156106da57600080fd5b5061069d611d48565b3480156106ef57600080fd5b506101e2600435611d57565b34801561070757600080fd5b506101e2600435600160a060020a0360243516611f34565b34801561072b57600080fd5b506101e2600160a060020a0360043581169060243581169060443516612088565b34801561075857600080fd5b50610770600435600160a060020a03602435166120e3565b604080519115158252519081900360200190f35b34801561079057600080fd5b506107706120f7565b3480156107a557600080fd5b506107ba60043560243560ff60443516612100565b60408051918252519081900360200190f35b3480156107d857600080fd5b5060408051602060046024803582810135601f81018590048502860185019096528585526101e295833595369560449491939091019190819084018382808284375094975050508335600160a060020a031694505050602082013591604081013560ff16915060600135612173565b34801561085357600080fd5b506107ba6121eb565b34801561086857600080fd5b506107ba6121f1565b34801561087d57600080fd5b506101e26004356024356121f7565b34801561089857600080fd5b506101e260043560243515156122aa565b3480156108b557600080fd5b506101e2600435612471565b3480156108cd57600080fd5b5061069d612619565b3480156108e257600080fd5b506101e2600435612628565b3480156108fa57600080fd5b506101e2600160a060020a036004351661270b565b60085460ff16158061092b5750600054600160a060020a031633145b151561096f576040805160e560020a62461bcd02815260206004820152600c6024820152600080516020613a5c833981519152604482015290519081900360640190fd5b61097c838383600161277d565b505050565b600054600160a060020a031633146109d1576040805160e560020a62461bcd0281526020600482015260096024820152600080516020613a9c833981519152604482015290519081900360640190fd5b6008805460ff191690556040517f62451d457bc659158be6e6247f56ec1df424a5c7597f71c20c2bc44e0965c8f990600090a1565b60085460ff161580610a225750600054600160a060020a031633145b1515610a66576040805160e560020a62461bcd02815260206004820152600c6024820152600080516020613a5c833981519152604482015290519081900360640190fd5b610a7182823361090f565b5050565b60085460009060ff161580610a945750600054600160a060020a031633145b1515610ad8576040805160e560020a62461bcd02815260206004820152600c6024820152600080516020613a5c833981519152604482015290519081900360640190fd5b610ae182612d75565b5050600081815260066020526040902060078101546101009004600160a060020a03163314610b5a576040805160e560020a62461bcd02815260206004820152601260248201527f6572726f725f6e6f745065726d69747465640000000000000000000000000000604482015290519081900360640190fd5b6002810154604051600160a060020a0390911690839033907eaf27297c740fbece798135b71b06164310e0591b6c729e50b8026dcc60be5090600090a4600281018054600160a060020a03191633179055600701805474ffffffffffffffffffffffffffffffffffffffff001916905550565b60085460ff161580610be95750600054600160a060020a031633145b1515610c2d576040805160e560020a62461bcd02815260206004820152600c6024820152600080516020613a5c833981519152604482015290519081900360640190fd5b826000610c3982610ef4565b50505050505091505080600160a060020a0316600014151515610c94576040805160e560020a62461bcd02815260206004820152600e6024820152600080516020613a7c833981519152604482015290519081900360640190fd5b600160a060020a038116331480610cb55750600054600160a060020a031633145b1515610cf9576040805160e560020a62461bcd0281526020600482015260176024820152600080516020613a3c833981519152604482015290519081900360640190fd5b610d06858585600061277d565b5050505050565b6000826000610d1b82610ef4565b50505050505091505080600160a060020a0316600014151515610d76576040805160e560020a62461bcd02815260206004820152600e6024820152600080516020613a7c833981519152604482015290519081900360640190fd5b600160a060020a038116331480610d975750600054600160a060020a031633145b1515610ddb576040805160e560020a62461bcd0281526020600482015260176024820152600080516020613a3c833981519152604482015290519081900360640190fd5b610de485612d75565b50600085815260066020526040902080549093501515610e3c576040805160e560020a62461bcd02815260206004820152600e6024820152600080516020613a7c833981519152604482015290519081900360640190fd5b600783015460a860020a900460ff161515610ea1576040805160e560020a62461bcd02815260206004820152601960248201527f6572726f725f77686974656c6973744e6f74456e61626c656400000000000000604482015290519081900360640190fd5b600160a060020a0384166000818152600985016020526040808220805460ff191660021790555187917f391da9ecb91abda3886c59d98ecdb8fa7154c525b5c6a575ef67cef1f5a8d85491a35050505050565b60606000806000806000806000610f0a896130b7565b969e50949c50929a509098509650945092509050600160a060020a03871615610f325761103c565b600480546040805160e060020a633a20e9df0281529283018c905251600160a060020a0390911691633a20e9df91602480830192600092919082900301818387803b158015610f8057600080fd5b505af1158015610f94573d6000803e3d6000fd5b505050506040513d6000823e601f3d908101601f1916820160405260e0811015610fbd57600080fd5b810190808051640100000000811115610fd557600080fd5b82016020810184811115610fe857600080fd5b815164010000000081118282018710171561100257600080fd5b5050602082015160408301516060840151608085015160a086015160c090960151949f50929d50909b509950975090955093506000925050505b919395975091939597565b600086600061105582610ef4565b50505050505091505080600160a060020a03166000141515156110b0576040805160e560020a62461bcd02815260206004820152600e6024820152600080516020613a7c833981519152604482015290519081900360640190fd5b600160a060020a0381163314806110d15750600054600160a060020a031633145b1515611115576040805160e560020a62461bcd0281526020600482015260176024820152600080516020613a3c833981519152604482015290519081900360640190fd5b6000861161116d576040805160e560020a62461bcd02815260206004820152601e60248201527f6572726f725f6672656550726f64756374734e6f74537570706f727465640000604482015290519081900360640190fd5b61117689612d75565b506000898152600660209081526040909120895190945061119f916001860191908b019061393a565b50600383018054600160a060020a031916600160a060020a0389161790556004830186905560058301805486919060ff1916600183818111156111de57fe5b0217905550600683018490558254600284015460408051600160a060020a038b811660208301529181018a90529116907f21953ef62f6c172d864b9ae2181d3c7114ef506c3546057e354cf6b5bab03ec4908b908b908b908b908b90806060810184600181111561124b57fe5b60ff168152602001838152602001828103825287818151815260200191508051906020019080838360005b8381101561128e578181015183820152602001611276565b50505050905090810190601f1680156112bb5780820380516001836020036101000a031916815260200191505b50965050505050505060405180910390a3505050505050505050565b60008260006112e582610ef4565b50505050505091505080600160a060020a0316600014151515611340576040805160e560020a62461bcd02815260206004820152600e6024820152600080516020613a7c833981519152604482015290519081900360640190fd5b600160a060020a0381163314806113615750600054600160a060020a031633145b15156113a5576040805160e560020a62461bcd0281526020600482015260176024820152600080516020613a3c833981519152604482015290519081900360640190fd5b6113ae85612d75565b50600085815260066020526040902080549093501515611406576040805160e560020a62461bcd02815260206004820152600e6024820152600080516020613a7c833981519152604482015290519081900360640190fd5b600783015460a860020a900460ff16151561146b576040805160e560020a62461bcd02815260206004820152601960248201527f6572726f725f77686974656c6973744e6f74456e61626c656400000000000000604482015290519081900360640190fd5b600160a060020a0384166000818152600985016020526040808220805460ff191660031790555187917f71195ce6244a4b5ea0742ce64ede6bac9a2111edb4e732886198ff6ecf58651c91a35050505050565b600154600160a060020a03163314611520576040805160e560020a62461bcd02815260206004820152601060248201527f6f6e6c7950656e64696e674f776e657200000000000000000000000000000000604482015290519081900360640190fd5b60015460008054604051600160a060020a0393841693909116917f8be0079c531659141344cd1fd0a4f28419497f9722a3daafe3b4186f6b6457e091a36001805460008054600160a060020a0319908116600160a060020a03841617909155169055565b600080611591833361193c565b91509150915091565b60008060006115a885610ef4565b50505050505092505081600160a060020a0316600014151515611603576040805160e560020a62461bcd02815260206004820152600e6024820152600080516020613a7c833981519152604482015290519081900360640190fd5b5050506000918252600660209081526040808420600160a060020a039390931684526009909201905290205460ff1690565b600081600061164382610ef4565b50505050505091505080600160a060020a031660001415151561169e576040805160e560020a62461bcd02815260206004820152600e6024820152600080516020613a7c833981519152604482015290519081900360640190fd5b600160a060020a0381163314806116bf5750600054600160a060020a031633145b1515611703576040805160e560020a62461bcd0281526020600482015260176024820152600080516020613a3c833981519152604482015290519081900360640190fd5b61170c84612d75565b5060008481526006602052604081209350600784015460ff16600181111561173057fe5b14611785576040805160e560020a62461bcd02815260206004820152601760248201527f6572726f725f6d75737442654e6f744465706c6f796564000000000000000000604482015290519081900360640190fd5b60078301805460ff191660019081179091556002840154600385015460048601546005870154600688015460408051600160a060020a03958616602082018190529181018590528b9795909616957f07ace6911e28d0d5b2e773ce49cdfa29db157b38bffccd5f0b56f02cfba8a64f95808c01959294929360ff90931692919081906060820190859081111561181757fe5b60ff168152602081018490526040838203810183528854600260018216156101000260001901909116049082018190526060909101908890801561189c5780601f106118715761010080835404028352916020019161189c565b820191906000526020600020905b81548152906001019060200180831161187f57829003601f168201915b5050965050505050505060405180910390a350505050565b600054600160a060020a03163314611904576040805160e560020a62461bcd0281526020600482015260096024820152600080516020613a9c833981519152604482015290519081900360640190fd5b6008805460ff191660011790556040517f1ee9080f6b55ca44ce58681c8162e6c1ac1c47e1da791a4a1c1ec6186d8af1f390600090a1565b600080600080600061194d876130b7565b50505050505093505082600160a060020a031660001415611a0e5760048054604080517f5f28cb740000000000000000000000000000000000000000000000000000000081529283018a9052600160a060020a0389811660248501528151921692635f28cb7492604480830193928290030181600087803b1580156119d157600080fd5b505af11580156119e5573d6000803e3d6000fd5b505050506040513d60408110156119fb57600080fd5b5080516020909101519095509350611b89565b611a18878761329a565b805490935015159050611b7857600480546040805160e060020a633a20e9df0281529283018a905251600160a060020a0390911691633a20e9df91602480830192600092919082900301818387803b158015611a7357600080fd5b505af1158015611a87573d6000803e3d6000fd5b505050506040513d6000823e601f3d908101601f1916820160405260e0811015611ab057600080fd5b810190808051640100000000811115611ac857600080fd5b82016020810184811115611adb57600080fd5b8151640100000000811182820187101715611af557600080fd5b5050506020015192505050600160a060020a03811615611b785760048054604080517f5f28cb740000000000000000000000000000000000000000000000000000000081529283018a9052600160a060020a0389811660248501528151921692635f28cb7492604480830193928290030181600087803b1580156119d157600080fd5b611b8182613314565b825490955093505b5050509250929050565b60085460ff161580611baf5750600054600160a060020a031633145b1515611bf3576040805160e560020a62461bcd02815260206004820152600c6024820152600080516020613a5c833981519152604482015290519081900360640190fd5b611c03868686868686600161331b565b60405186907f507847149b655f0d87f5cadd67619cd1c0a53b2cbb153d2f08f83614b4c29b7890600090a2505050505050565b6006602090815260009182526040918290208054600180830180548651600293821615610100026000190190911692909204601f810186900486028301860190965285825291949293909290830182828015611cd35780601f10611ca857610100808354040283529160200191611cd3565b820191906000526020600020905b815481529060010190602001808311611cb657829003601f168201915b505050600284015460038501546004860154600587015460068801546007909801549697600160a060020a0394851697938516965091945060ff908116939192808216926101008204169160a860020a909104168a565b600254600160a060020a031681565b600354600160a060020a031681565b600054600160a060020a031681565b6000816000611d6582610ef4565b50505050505091505080600160a060020a0316600014151515611dc0576040805160e560020a62461bcd02815260206004820152600e6024820152600080516020613a7c833981519152604482015290519081900360640190fd5b600160a060020a038116331480611de15750600054600160a060020a031633145b1515611e25576040805160e560020a62461bcd0281526020600482015260176024820152600080516020613a3c833981519152604482015290519081900360640190fd5b611e2e84612d75565b50600084815260066020526040902092506001600784015460ff166001811115611e5457fe5b14611ea9576040805160e560020a62461bcd02815260206004820152601160248201527f6572726f725f6e6f744465706c6f796564000000000000000000000000000000604482015290519081900360640190fd5b60078301805460ff191690556002830154600384015460048501546005860154600687015460408051600160a060020a03958616602082018190529181018590528a9695909516947ffc64345d61f75f77f5039b0e23107d4abd73ecb7cd6c94fd44e8a6dd85918f6a946001808c01959394919360ff16929081906060820190859081111561181757fe5b816000611f4082610ef4565b50505050505091505080600160a060020a0316600014151515611f9b576040805160e560020a62461bcd02815260206004820152600e6024820152600080516020613a7c833981519152604482015290519081900360640190fd5b600160a060020a038116331480611fbc5750600054600160a060020a031633145b1515612000576040805160e560020a62461bcd0281526020600482015260176024820152600080516020613a3c833981519152604482015290519081900360640190fd5b61200984612d75565b5060008481526006602052604080822060078101805474ffffffffffffffffffffffffffffffffffffffff001916610100600160a060020a0389811691820292909217909255600290920154925190938893909216917f62160e4abadfc3a6afc583d10586d737c813753fe64d93f4283282b2b600a34491a450505050565b600054600160a060020a031633146120d8576040805160e560020a62461bcd0281526020600482015260096024820152600080516020613a9c833981519152604482015290519081900360640190fd5b61097c83838361362f565b60006120ef838361193c565b509392505050565b60085460ff1681565b60008082600181111561210f57fe5b141561212c57612125838563ffffffff61366c16565b905061216c565b6121698461215d670de0b6b3a76400006121516007548861366c90919063ffffffff16565b9063ffffffff6136a516565b9063ffffffff61366c16565b90505b9392505050565b60085460ff16158061218f5750600054600160a060020a031633145b15156121d3576040805160e560020a62461bcd02815260206004820152600c6024820152600080516020613a5c833981519152604482015290519081900360640190fd5b6121e3868686868686600061331b565b505050505050565b60055481565b60075481565b600354600160a060020a03163314612259576040805160e560020a62461bcd02815260206004820152601260248201527f6572726f725f6e6f745065726d69747465640000000000000000000000000000604482015290519081900360640190fd5b6000811161226657600080fd5b6007819055604080518381526020810183905281517fc84d758f9836fe65b8f2be13d5e364b9373411e1158b63c1c5abbbae78949609929181900390910190a15050565b60008260006122b882610ef4565b50505050505091505080600160a060020a0316600014151515612313576040805160e560020a62461bcd02815260206004820152600e6024820152600080516020613a7c833981519152604482015290519081900360640190fd5b600160a060020a0381163314806123345750600054600160a060020a031633145b1515612378576040805160e560020a62461bcd0281526020600482015260176024820152600080516020613a3c833981519152604482015290519081900360640190fd5b61238185612d75565b506000858152600660205260409020805490935015156123d9576040805160e560020a62461bcd02815260206004820152600e6024820152600080516020613a7c833981519152604482015290519081900360640190fd5b6007830180548515801560a860020a0275ff000000000000000000000000000000000000000000199092169190911790915561243f5760405185907f507847149b655f0d87f5cadd67619cd1c0a53b2cbb153d2f08f83614b4c29b7890600090a2610d06565b60405185907fd8eb01debfba6841d33231e9b6df615367d622af29059b91eeb39b62f81f79ca90600090a25050505050565b600061247c82612d75565b50506000818152600660205260409020805415156124d2576040805160e560020a62461bcd02815260206004820152600e6024820152600080516020613a7c833981519152604482015290519081900360640190fd5b600781015460a860020a900460ff161515612537576040805160e560020a62461bcd02815260206004820152601960248201527f6572726f725f77686974656c6973744e6f74456e61626c656400000000000000604482015290519081900360640190fd5b33600090815260098201602052604081205460ff16600381111561255757fe5b146125d2576040805160e560020a62461bcd02815260206004820152602660248201527f6572726f725f77686974656c69737452657175657374416c726561647953756260448201527f6d69747465640000000000000000000000000000000000000000000000000000606482015290519081900360840190fd5b336000818152600983016020526040808220805460ff191660011790555184917fd07377dfece33da04bb307fc530a0eb06929f31a09309c84ae38079aad7b16a891a35050565b600154600160a060020a031681565b600054600160a060020a03163314612678576040805160e560020a62461bcd0281526020600482015260096024820152600080516020613a9c833981519152604482015290519081900360640190fd5b670de0b6b3a76400008111156126d8576040805160e560020a62461bcd02815260206004820152601260248201527f6572726f725f696e76616c696454784665650000000000000000000000000000604482015290519081900360640190fd5b600581905560405181907f3115e922830fe4bd99b46316ef2a8939b665b45d008bc585fb784f754abf038b90600090a250565b600054600160a060020a0316331461275b576040805160e560020a62461bcd0281526020600482015260096024820152600080516020613a9c833981519152604482015290519081900360640190fd5b60018054600160a060020a031916600160a060020a0392909216919091179055565b600080600061278a6139b8565b6000806127978a896136c8565b506127a28a8961329a565b90965094506001600787015460ff1660018111156127bc57fe5b14612811576040805160e560020a62461bcd02815260206004820152601160248201527f6572726f725f6e6f744465706c6f796564000000000000000000000000000000604482015290519081900360640190fd5b600786015460a860020a900460ff16158061285457506002600160a060020a038916600090815260098801602052604090205460ff16600381111561285257fe5b145b15156128aa576040805160e560020a62461bcd02815260206004820152601960248201527f6572726f725f77686974656c6973744e6f74416c6c6f77656400000000000000604482015290519081900360640190fd5b8454421015612968576000891161290b576040805160e560020a62461bcd02815260206004820152601360248201527f6572726f725f746f705570546f6f536d616c6c00000000000000000000000000604482015290519081900360640190fd5b845461291d908a63ffffffff61391116565b8086558654604080518381529051929650600160a060020a038b16927f602ca7f17c81aa5e62b3381000dd445f5af7c333574da85f4b246288afc073229181900360200190a3612a3c565b60068601548910156129c4576040805160e560020a62461bcd02815260206004820152601d60248201527f6572726f725f6e6577537562736372697074696f6e546f6f536d616c6c000000604482015290519081900360640190fd5b6129d4428a63ffffffff61391116565b6040805160208181018352838252600160a060020a038c16600081815260088c018352849020835190558a54845186815294519599509297509391927f9c3ab7e86c11d820cc311335294ebdf7299d8637d47253b930c4120b775d7cca929081900390910190a35b8554604080518681529051600160a060020a038b1692917fe22e8c2d8a284063fec10f270bc3c776ffb40bcf816b73eef36354d5f3d7b3d4919081900360200190a3600091508615612ce95760048601546005870154612aa0918b9160ff16612100565b9150612ac3670de0b6b3a76400006121518460055461366c90919063ffffffff16565b6002546003880154919250600160a060020a03908116916323b872dd91339116612af3868663ffffffff61392316565b604080517c010000000000000000000000000000000000000000000000000000000063ffffffff8716028152600160a060020a0394851660048201529290931660248301526044820152905160648083019260209291908290030181600087803b158015612b6057600080fd5b505af1158015612b74573d6000803e3d6000fd5b505050506040513d6020811015612b8a57600080fd5b50511515612be2576040805160e560020a62461bcd02815260206004820152601360248201527f6572726f725f7061796d656e744661696c656400000000000000000000000000604482015290519081900360640190fd5b6000811115612ce95760025460008054604080517f23b872dd000000000000000000000000000000000000000000000000000000008152336004820152600160a060020a03928316602482015260448101869052905191909316926323b872dd9260648083019360209390929083900390910190829087803b158015612c6757600080fd5b505af1158015612c7b573d6000803e3d6000fd5b505050506040513d6020811015612c9157600080fd5b50511515612ce9576040805160e560020a62461bcd02815260206004820152601360248201527f6572726f725f7061796d656e744661696c656400000000000000000000000000604482015290519081900360640190fd5b60038601548554604080517f4a439cc0000000000000000000000000000000000000000000000000000000008152600481018e9052600160a060020a038c811660248301526044820193909352606481018690526084810185905290519190921691634a439cc09160a4808301926000929190829003018183875af15050505050505050505050505050565b6000818152600660205260408120805460609083908190819081908190819015612da257600098506130aa565b600480546040805160e060020a633a20e9df0281529283018d905251600160a060020a0390911691633a20e9df91602480830192600092919082900301818387803b158015612df057600080fd5b505af1158015612e04573d6000803e3d6000fd5b505050506040513d6000823e601f3d908101601f1916820160405260e0811015612e2d57600080fd5b810190808051640100000000811115612e4557600080fd5b82016020810184811115612e5857600080fd5b8151640100000000811182820187101715612e7257600080fd5b5050602082015160408301516060840151608085015160a086015160c090960151949e50929c50909a509850965090945092505050600160a060020a0386161515612ec057600098506130aa565b8988558651612ed89060018a019060208a019061393a565b50600288018054600160a060020a03808916600160a060020a03199283161790925560038a018054928816929091169190911790556004880184905560058801805484919060ff191660018381811115612f2e57fe5b02179055506006880182905560078801805482919060ff191660018381811115612f5457fe5b02179055508760000154600019168860020160009054906101000a9004600160a060020a0316600160a060020a03167fd608cf60e5a08e9db0f10b63c150bb7cdc66ee6286eb04ec5ba01d178e9010d68a6001018b60030160009054906101000a9004600160a060020a03168c600401548d60050160009054906101000a900460ff168e60060154604051808060200186600160a060020a0316600160a060020a0316815260200185815260200184600181111561300e57fe5b60ff16815260208101849052604083820381018352885460026001821615610100026000190190911604908201819052606090910190889080156130935780601f1061306857610100808354040283529160200191613093565b820191906000526020600020905b81548152906001019060200180831161307657829003601f168201915b5050965050505050505060405180910390a3600198505b5050505050505050919050565b606060008060008060008060006130cc6139ca565b60008a81526006602090815260409182902082516101408101845281548152600180830180548651600260001994831615610100029490940190911692909204601f810186900486028301860190965285825291949293858101939192919083018282801561317c5780601f106131515761010080835404028352916020019161317c565b820191906000526020600020905b81548152906001019060200180831161315f57829003601f168201915b50505091835250506002820154600160a060020a039081166020830152600383015416604082015260048201546060820152600582015460809091019060ff1660018111156131c757fe5b60018111156131d257fe5b815260068201546020820152600782015460409091019060ff1660018111156131f757fe5b600181111561320257fe5b81526020016007820160019054906101000a9004600160a060020a0316600160a060020a0316600160a060020a031681526020016007820160159054906101000a900460ff161515151581525050905080602001518160400151826060015183608001518460a001518560c001518660e001518761012001518797509850985098509850985098509850985050919395975091939597565b6000828152600660205260408120805490919015156132f1576040805160e560020a62461bcd02815260206004820152600e6024820152600080516020613a7c833981519152604482015290519081900360640190fd5b50600160a060020a03909116600090815260088201602052604090209092909150565b5442111590565b600080881515613375576040805160e560020a62461bcd02815260206004820152601360248201527f6572726f725f6e756c6c50726f64756374496400000000000000000000000000604482015290519081900360640190fd5b600086116133cd576040805160e560020a62461bcd02815260206004820152601e60248201527f6572726f725f6672656550726f64756374734e6f74537570706f727465640000604482015290519081900360640190fd5b6133d689610ef4565b50505050505092505081600160a060020a03166000141515613442576040805160e560020a62461bcd02815260206004820152601360248201527f6572726f725f616c726561647945786973747300000000000000000000000000604482015290519081900360640190fd5b506000888152600660209081526040918290208251610140810184528b81529182018a90523392820192909252600160a060020a03881660608201526080810187905260a0810186600181111561349557fe5b81526020810186905260400160018152600060208083018290528615156040938401528c8252600681529190208251815582820151805191926134e09260018501929091019061393a565b506040820151600282018054600160a060020a03928316600160a060020a03199182161790915560608401516003840180549190931691161790556080820151600482015560a082015160058201805460ff19166001838181111561354157fe5b021790555060c0820151600682015560e082015160078201805460ff19166001838181111561356c57fe5b0217905550610100828101516007909201805461012090940151151560a860020a0275ff00000000000000000000000000000000000000000019600160a060020a0394851690930274ffffffffffffffffffffffffffffffffffffffff00199095169490941791909116929092179091556040805191891660208301528101879052899033907f397627c8e8e4324a0f8a98a8274c00e4cee798d000625304ffbae6144ec64e54908b908b908b908b908b90806060810184600181111561124b57fe5b60038054600160a060020a0319908116600160a060020a039485161790915560028054821694841694909417909355600480549093169116179055565b60008083151561367f576000915061369e565b5082820282848281151561368f57fe5b041461369a57600080fd5b8091505b5092915050565b6000808083116136b457600080fd5b82848115156136bf57fe5b04949350505050565b6000806000806000806136da88612d75565b94506136e6888861329a565b80549195509350156136fb5760009550613906565b8415156137f657600480546040805160e060020a633a20e9df0281529283018b905251600160a060020a0390911691633a20e9df91602480830192600092919082900301818387803b15801561375057600080fd5b505af1158015613764573d6000803e3d6000fd5b505050506040513d6000823e601f3d908101601f1916820160405260e081101561378d57600080fd5b8101908080516401000000008111156137a557600080fd5b820160208101848111156137b857600080fd5b81516401000000008111828201871017156137d257600080fd5b5050506020015193505050600160a060020a03821615156137f65760009550613906565b60048054604080517f5f28cb740000000000000000000000000000000000000000000000000000000081529283018b9052600160a060020a038a811660248501528151921692635f28cb7492604480830193928290030181600087803b15801561385f57600080fd5b505af1158015613873573d6000803e3d6000fd5b505050506040513d604081101561388957600080fd5b506020015190508015156138a05760009550613906565b6040805160208181018352838252600160a060020a038a16600081815260088901835284902092519092558251848152925191928b927f9a2546e503275a77e7c86606d6512431c9046ffc6d3e53678e2693b201275714929181900390910190a3600195505b505050505092915050565b60008282018381101561369a57600080fd5b6000808383111561393357600080fd5b5050900390565b828054600181600116156101000203166002900490600052602060002090601f016020900481019282601f1061397b57805160ff19168380011785556139a8565b828001600101855582156139a8579182015b828111156139a857825182559160200191906001019061398d565b506139b4929150613a1e565b5090565b60408051602081019091526000815290565b604080516101408101825260008082526060602083018190529282018190529181018290526080810182905260a0810182905260c081018290529060e0820190815260006020820181905260409091015290565b613a3891905b808211156139b45760008155600101613a24565b9056006572726f725f70726f647563744f776e6572734f6e6c790000000000000000006572726f725f68616c74656400000000000000000000000000000000000000006572726f725f6e6f74466f756e640000000000000000000000000000000000006f6e6c794f776e65720000000000000000000000000000000000000000000000a165627a7a723058202e2d721c9a44d749c3e8510d0906492630dd6c567b897e8942d06821071ace200029",
  "source": "// solhint-disable not-rely-on-time\npragma solidity ^0.4.25;\n\nimport \"openzeppelin-solidity/contracts/token/ERC20/ERC20.sol\";\nimport \"openzeppelin-solidity/contracts/math/SafeMath.sol\";\n\nimport \"./PurchaseListener.sol\";\nimport \"./Ownable.sol\";\n\n\ncontract IMarketplace {\n    enum ProductState {\n        NotDeployed,                // non-existent or deleted\n        Deployed                    // created or redeployed\n    }\n\n    enum Currency {\n        DATA,                       // \"token wei\" (10^-18 DATA)\n        USD                         // attodollars (10^-18 USD)\n    }\n\n    enum WhitelistState{\n        None,\n        Pending,\n        Approved,\n        Rejected\n    }\n    function getSubscription(bytes32 productId, address subscriber) public view returns (bool isValid, uint endTimestamp) {}\n    function getPriceInData(uint subscriptionSeconds, uint price, Currency unit) public view returns (uint datacoinAmount) {}\n}\ncontract IMarketplace1 is IMarketplace{\n    function getProduct(bytes32 id) public view returns (string name, address owner, address beneficiary, uint pricePerSecond, Currency currency, uint minimumSubscriptionSeconds, ProductState state) {}\n}\ncontract IMarketplace2 is IMarketplace{\n    function getProduct(bytes32 id) public view returns (string name, address owner, address beneficiary, uint pricePerSecond, Currency currency, uint minimumSubscriptionSeconds, ProductState state, bool requiresWhitelist) {}\n    function buyFor(bytes32 productId, uint subscriptionSeconds, address recipient) public {}\n}\n/**\n * @title Streamr Marketplace\n * @dev note about numbers:\n *   All prices and exchange rates are in \"decimal fixed-point\", that is, scaled by 10^18, like ETH vs wei.\n *  Seconds are integers as usual.\n *\n * Next version TODO:\n *  - EIP-165 inferface definition; PurchaseListener\n */\ncontract Marketplace is Ownable, IMarketplace2 {\n    using SafeMath for uint256;\n\n    // product events\n    event ProductCreated(address indexed owner, bytes32 indexed id, string name, address beneficiary, uint pricePerSecond, Currency currency, uint minimumSubscriptionSeconds);\n    event ProductUpdated(address indexed owner, bytes32 indexed id, string name, address beneficiary, uint pricePerSecond, Currency currency, uint minimumSubscriptionSeconds);\n    event ProductDeleted(address indexed owner, bytes32 indexed id, string name, address beneficiary, uint pricePerSecond, Currency currency, uint minimumSubscriptionSeconds);\n    event ProductImported(address indexed owner, bytes32 indexed id, string name, address beneficiary, uint pricePerSecond, Currency currency, uint minimumSubscriptionSeconds);\n    event ProductRedeployed(address indexed owner, bytes32 indexed id, string name, address beneficiary, uint pricePerSecond, Currency currency, uint minimumSubscriptionSeconds);\n    event ProductOwnershipOffered(address indexed owner, bytes32 indexed id, address indexed to);\n    event ProductOwnershipChanged(address indexed newOwner, bytes32 indexed id, address indexed oldOwner);\n\n    // subscription events\n    event Subscribed(bytes32 indexed productId, address indexed subscriber, uint endTimestamp);\n    event NewSubscription(bytes32 indexed productId, address indexed subscriber, uint endTimestamp);\n    event SubscriptionExtended(bytes32 indexed productId, address indexed subscriber, uint endTimestamp);\n    event SubscriptionImported(bytes32 indexed productId, address indexed subscriber, uint endTimestamp);\n    event SubscriptionTransferred(bytes32 indexed productId, address indexed from, address indexed to, uint secondsTransferred);\n\n    // currency events\n    event ExchangeRatesUpdated(uint timestamp, uint dataInUsd);\n\n    // whitelist events\n    event WhitelistRequested(bytes32 indexed productId, address indexed subscriber);\n    event WhitelistApproved(bytes32 indexed productId, address indexed subscriber);\n    event WhitelistRejected(bytes32 indexed productId, address indexed subscriber);\n    event WhitelistEnabled(bytes32 indexed productId);\n    event WhitelistDisabled(bytes32 indexed productId);\n\n    //txFee events\n    event TxFeeChanged(uint256 indexed newTxFee);\n\n\n    struct Product {\n        bytes32 id;\n        string name;\n        address owner;\n        address beneficiary;        // account where revenue is directed to\n        uint pricePerSecond;\n        Currency priceCurrency;\n        uint minimumSubscriptionSeconds;\n        ProductState state;\n        address newOwnerCandidate;  // Two phase hand-over to minimize the chance that the product ownership is lost to a non-existent address.\n        bool requiresWhitelist;\n        mapping(address => TimeBasedSubscription) subscriptions;\n        mapping(address => WhitelistState) whitelist;\n    }\n\n    struct TimeBasedSubscription {\n        uint endTimestamp;\n    }\n\n    /////////////// Marketplace lifecycle /////////////////\n\n    ERC20 public datacoin;\n\n    address public currencyUpdateAgent;\n    IMarketplace1 prev_marketplace;\n    uint256 public txFee;\n\n    constructor(address datacoinAddress, address currencyUpdateAgentAddress, address prev_marketplace_address) Ownable() public {\n        _initialize(datacoinAddress, currencyUpdateAgentAddress, prev_marketplace_address);\n    }\n\n    function _initialize(address datacoinAddress, address currencyUpdateAgentAddress, address prev_marketplace_address) internal {\n        currencyUpdateAgent = currencyUpdateAgentAddress;\n        datacoin = ERC20(datacoinAddress);\n        prev_marketplace = IMarketplace1(prev_marketplace_address);\n    }\n\n    ////////////////// Product management /////////////////\n\n    mapping (bytes32 => Product) public products;\n    /*\n        checks this marketplace first, then the previous\n    */\n    function getProduct(bytes32 id) public view returns (string name, address owner, address beneficiary, uint pricePerSecond, Currency currency, uint minimumSubscriptionSeconds, ProductState state, bool requiresWhitelist) {\n        (name, owner, beneficiary, pricePerSecond, currency, minimumSubscriptionSeconds, state, requiresWhitelist) = _getProductLocal(id);\n        if (owner != 0x0)\n            return (name, owner, beneficiary, pricePerSecond, currency, minimumSubscriptionSeconds, state, requiresWhitelist);\n        (name, owner, beneficiary, pricePerSecond, currency, minimumSubscriptionSeconds, state) = prev_marketplace.getProduct(id);\n        return (name, owner, beneficiary, pricePerSecond, currency, minimumSubscriptionSeconds, state, false);\n    }\n\n    /**\n    checks only this marketplace, not the previous marketplace\n     */\n\n    function _getProductLocal(bytes32 id) internal view returns (string name, address owner, address beneficiary, uint pricePerSecond, Currency currency, uint minimumSubscriptionSeconds, ProductState state, bool requiresWhitelist) {\n        Product memory p = products[id];\n        return (\n            p.name,\n            p.owner,\n            p.beneficiary,\n            p.pricePerSecond,\n            p.priceCurrency,\n            p.minimumSubscriptionSeconds,\n            p.state,\n            p.requiresWhitelist\n        );\n    }\n\n    // also checks that p exists: p.owner == 0 for non-existent products\n    modifier onlyProductOwner(bytes32 productId) {\n        (,address _owner,,,,,,) = getProduct(productId);\n        require(_owner != 0x0, \"error_notFound\");\n        require(_owner == msg.sender || owner == msg.sender, \"error_productOwnersOnly\");\n        _;\n    }\n\n    /**\n     * Imports product details (but NOT subscription details) from previous marketplace\n     */\n    function _importProductIfNeeded(bytes32 productId) internal returns (bool imported){\n        Product storage p = products[productId];\n        if(p.id != 0x0)\n            return false;\n        (string memory _name, address _owner, address _beneficiary, uint _pricePerSecond, IMarketplace1.Currency _priceCurrency, uint _minimumSubscriptionSeconds, IMarketplace1.ProductState _state) = prev_marketplace.getProduct(productId);\n        if(_owner == 0x0)\n            return false;\n        p.id = productId;\n        p.name = _name;\n        p.owner = _owner;\n        p.beneficiary = _beneficiary;\n        p.pricePerSecond = _pricePerSecond;\n        p.priceCurrency = _priceCurrency;\n        p.minimumSubscriptionSeconds = _minimumSubscriptionSeconds;\n        p.state = _state;\n        emit ProductImported(p.owner, p.id, p.name, p.beneficiary, p.pricePerSecond, p.priceCurrency, p.minimumSubscriptionSeconds);\n        return true;\n    }\n\n    function _importSubscriptionIfNeeded(bytes32 productId, address subscriber) internal returns (bool imported) {\n        bool _productImported = _importProductIfNeeded(productId);\n\n        // check that subscription didn't already exist in current marketplace\n        (Product storage product, TimeBasedSubscription storage sub) = _getSubscriptionLocal(productId, subscriber);\n        if (sub.endTimestamp != 0x0) { return false; }\n\n        // check that subscription exists in the previous marketplace(s)\n        // only call prev_marketplace.getSubscription() if product exists there\n        // consider e.g. product created in current marketplace but subscription still doesn't exist\n        // if _productImported, it must have existed in previous marketplace so no need to perform check\n        if(!_productImported){\n            (,address _owner_prev,,,,,) = prev_marketplace.getProduct(productId);\n            if (_owner_prev == 0x0) { return false; }\n        }\n        (, uint _endTimestamp) = prev_marketplace.getSubscription(productId, subscriber);\n        if (_endTimestamp == 0x0) { return false; }\n        product.subscriptions[subscriber] = TimeBasedSubscription(_endTimestamp);\n        emit SubscriptionImported(productId, subscriber, _endTimestamp);\n        return true;\n    }\n    function createProduct(bytes32 id, string name, address beneficiary, uint pricePerSecond, Currency currency, uint minimumSubscriptionSeconds) public whenNotHalted {\n        _createProduct(id, name, beneficiary, pricePerSecond, currency, minimumSubscriptionSeconds, false);\n    }\n\n    function createProductWithWhitelist(bytes32 id, string name, address beneficiary, uint pricePerSecond, Currency currency, uint minimumSubscriptionSeconds) public whenNotHalted {\n        _createProduct(id, name, beneficiary, pricePerSecond, currency, minimumSubscriptionSeconds, true);\n        emit WhitelistEnabled(id);\n    }\n\n\n    function _createProduct(bytes32 id, string name, address beneficiary, uint pricePerSecond, Currency currency, uint minimumSubscriptionSeconds, bool requiresWhitelist) internal {\n        require(id != 0x0, \"error_nullProductId\");\n        require(pricePerSecond > 0, \"error_freeProductsNotSupported\");\n        (,address _owner,,,,,,) = getProduct(id);\n        require(_owner == 0x0, \"error_alreadyExists\");\n        Product storage p = products[id];\n        products[id] = Product({id: id, name: name, owner: msg.sender, beneficiary: beneficiary, pricePerSecond: pricePerSecond,\n            priceCurrency: currency, minimumSubscriptionSeconds: minimumSubscriptionSeconds, state: ProductState.Deployed, newOwnerCandidate: 0, requiresWhitelist: requiresWhitelist});\n        emit ProductCreated(msg.sender, id, name, beneficiary, pricePerSecond, currency, minimumSubscriptionSeconds);\n    }\n\n    /**\n    * Stop offering the product\n    */\n    function deleteProduct(bytes32 productId) public onlyProductOwner(productId) {\n        _importProductIfNeeded(productId);\n        Product storage p = products[productId];\n        require(p.state == ProductState.Deployed, \"error_notDeployed\");\n        p.state = ProductState.NotDeployed;\n        emit ProductDeleted(p.owner, productId, p.name, p.beneficiary, p.pricePerSecond, p.priceCurrency, p.minimumSubscriptionSeconds);\n    }\n\n    /**\n    * Return product to market\n    */\n    function redeployProduct(bytes32 productId) public onlyProductOwner(productId) {\n        _importProductIfNeeded(productId);\n        Product storage p = products[productId];\n        require(p.state == ProductState.NotDeployed, \"error_mustBeNotDeployed\");\n        p.state = ProductState.Deployed;\n        emit ProductRedeployed(p.owner, productId, p.name, p.beneficiary, p.pricePerSecond, p.priceCurrency, p.minimumSubscriptionSeconds);\n    }\n\n    function updateProduct(bytes32 productId, string name, address beneficiary, uint pricePerSecond, Currency currency, uint minimumSubscriptionSeconds) public onlyProductOwner(productId) {\n        require(pricePerSecond > 0, \"error_freeProductsNotSupported\");\n        _importProductIfNeeded(productId);\n        Product storage p = products[productId];\n        p.name = name;\n        p.beneficiary = beneficiary;\n        p.pricePerSecond = pricePerSecond;\n        p.priceCurrency = currency;\n        p.minimumSubscriptionSeconds = minimumSubscriptionSeconds;\n        emit ProductUpdated(p.owner, p.id, name, beneficiary, pricePerSecond, currency, minimumSubscriptionSeconds);\n    }\n\n    /**\n    * Changes ownership of the product. Two phase hand-over minimizes the chance that the product ownership is lost to a non-existent address.\n    */\n    function offerProductOwnership(bytes32 productId, address newOwnerCandidate) public onlyProductOwner(productId) {\n        _importProductIfNeeded(productId);\n        // that productId exists is already checked in onlyProductOwner\n        products[productId].newOwnerCandidate = newOwnerCandidate;\n        emit ProductOwnershipOffered(products[productId].owner, productId, newOwnerCandidate);\n    }\n\n    /**\n    * Changes ownership of the product. Two phase hand-over minimizes the chance that the product ownership is lost to a non-existent address.\n    */\n    function claimProductOwnership(bytes32 productId) public whenNotHalted {\n        _importProductIfNeeded(productId);\n        // also checks that productId exists (newOwnerCandidate is zero for non-existent)\n        Product storage p = products[productId];\n        require(msg.sender == p.newOwnerCandidate, \"error_notPermitted\");\n        emit ProductOwnershipChanged(msg.sender, productId, p.owner);\n        p.owner = msg.sender;\n        p.newOwnerCandidate = 0;\n    }\n\n    /////////////// Subscription management ///////////////\n\n    function getSubscription(bytes32 productId, address subscriber) public view returns (bool isValid, uint endTimestamp) {\n        (,address _owner,,,,,,) = _getProductLocal(productId);\n        if(_owner == 0x0){ return prev_marketplace.getSubscription(productId,subscriber);}\n        (, TimeBasedSubscription storage sub) = _getSubscriptionLocal(productId, subscriber);\n        if(sub.endTimestamp == 0x0){\n            // only call prev_marketplace.getSubscription() if product exists in previous marketplace too\n            (,address _owner_prev,,,,,) = prev_marketplace.getProduct(productId);\n            if(_owner_prev != 0x0)\n                return prev_marketplace.getSubscription(productId,subscriber);\n        }\n        return (_isValid(sub), sub.endTimestamp);\n    }\n\n    function getSubscriptionTo(bytes32 productId) public view returns (bool isValid, uint endTimestamp) {\n        return getSubscription(productId, msg.sender);\n    }\n\n    /**\n     * Checks if the given address currently has a valid subscription\n     */\n    function hasValidSubscription(bytes32 productId, address subscriber) public view returns (bool isValid) {\n        (isValid,) = getSubscription(productId, subscriber);\n    }\n    /**\n    _subscribe invokes _addSubscription, enforces payment rules, triggers PurchaseListener event\n     */\n\n    function _subscribe(bytes32 productId, uint addSeconds, address subscriber, bool requirePayment) internal {\n        _importSubscriptionIfNeeded(productId, subscriber);\n        (Product storage p, TimeBasedSubscription storage oldSub) = _getSubscriptionLocal(productId, subscriber);\n        require(p.state == ProductState.Deployed, \"error_notDeployed\");\n        require(!p.requiresWhitelist || p.whitelist[subscriber] == WhitelistState.Approved, \"error_whitelistNotAllowed\");\n        uint endTimestamp;\n        if (oldSub.endTimestamp > block.timestamp) {\n            require(addSeconds > 0, \"error_topUpTooSmall\");\n            endTimestamp = oldSub.endTimestamp.add(addSeconds);\n            oldSub.endTimestamp = endTimestamp;\n            emit SubscriptionExtended(p.id, subscriber, endTimestamp);\n        } else {\n            require(addSeconds >= p.minimumSubscriptionSeconds, \"error_newSubscriptionTooSmall\");\n            endTimestamp = block.timestamp.add(addSeconds);\n            TimeBasedSubscription memory newSub = TimeBasedSubscription(endTimestamp);\n            p.subscriptions[subscriber] = newSub;\n            emit NewSubscription(p.id, subscriber, endTimestamp);\n        }\n        emit Subscribed(p.id, subscriber, endTimestamp);\n        uint256 price = 0;\n        if (requirePayment){\n            price = getPriceInData(addSeconds, p.pricePerSecond, p.priceCurrency);\n            uint256 fee = txFee.mul(price).div(1 ether);\n            require(datacoin.transferFrom(msg.sender, p.beneficiary, price.sub(fee)), \"error_paymentFailed\");\n            if(fee > 0){\n                require(datacoin.transferFrom(msg.sender, owner, fee), \"error_paymentFailed\");\n            }\n        }\n\n        // Solidity 5:\n        //(bool success, bytes memory returnData) = p.beneficiary.call(abi.encodeWithSignature(\"onPurchase(bytes32,address,uint256,uint256)\", productId, subscriber, oldSub.endTimestamp, price));\n        // TODO: check returnData if onPurchase returned true (accept purchase) or false (reject purchase)\n        // TODO: require(purchaseAccepted, \"error_rejectedBySeller\")\n\n        // Solidity 4:\n        // 0x4a439cc0 = keccak256(\"onPurchase(bytes32,address,uint256,uint256,uint256)\")\n        // this call returns true if beneficiary is a PurchaseListener, return value is ignored\n        //(bool success, bytes memory returnData) = \n        p.beneficiary.call(0x4a439cc0, productId, subscriber, oldSub.endTimestamp, price, fee);\n        /*\n        if(success){\n            (bool accepted) = abi.decode(returnData, (bool));\n            require(accepted, \"error_rejectedBySeller\");\n        }\n        */\n    }\n\n    function grantSubscription(bytes32 productId, uint subscriptionSeconds, address recipient) public whenNotHalted onlyProductOwner(productId){\n        return _subscribe(productId, subscriptionSeconds, recipient, false);\n    }\n\n\n    function buyFor(bytes32 productId, uint subscriptionSeconds, address recipient)  public whenNotHalted {\n        return _subscribe(productId, subscriptionSeconds, recipient, true);\n    }\n\n\n     /**\n     * Purchases access to this stream for msg.sender.\n     * If the address already has a valid subscription, extends the subscription by the given period.\n     * @dev since v4.0: Notify the seller if the seller implements PurchaseListener interface\n     */\n    function buy(bytes32 productId, uint subscriptionSeconds) public whenNotHalted {\n        buyFor(productId,subscriptionSeconds, msg.sender);\n    }\n\n\n    /**\n        gets subscriptions info from the subscriptions stored in this contract\n     */\n    function _getSubscriptionLocal(bytes32 productId, address subscriber) internal view returns (Product storage p, TimeBasedSubscription storage s) {\n        p = products[productId];\n        require(p.id != 0x0, \"error_notFound\");\n        s = p.subscriptions[subscriber];\n    }\n\n    function _isValid(TimeBasedSubscription storage s) internal view returns (bool) {\n        return s.endTimestamp >= block.timestamp;\n    }\n\n    // TODO: transfer allowance to another Marketplace contract\n    // Mechanism basically is that this Marketplace draws from the allowance and credits\n    //   the account on another Marketplace; OR that there is a central credit pool (say, an ERC20 token)\n    // Creating another ERC20 token for this could be a simple fix: it would need the ability to transfer allowances\n\n    /////////////// Currency management ///////////////\n\n    // Exchange rates are formatted as \"decimal fixed-point\", that is, scaled by 10^18, like ether.\n    //        Exponent: 10^18 15 12  9  6  3  0\n    //                      |  |  |  |  |  |  |\n    uint public dataPerUsd = 100000000000000000;   // ~= 0.1 DATA/USD\n\n    /**\n    * Update currency exchange rates; all purchases are still billed in DATAcoin\n    * @param timestamp in seconds when the exchange rates were last updated\n    * @param dataUsd how many data atoms (10^-18 DATA) equal one USD dollar\n    */\n    function updateExchangeRates(uint timestamp, uint dataUsd) public {\n        require(msg.sender == currencyUpdateAgent, \"error_notPermitted\");\n        require(dataUsd > 0);\n        dataPerUsd = dataUsd;\n        emit ExchangeRatesUpdated(timestamp, dataUsd);\n    }\n\n    /**\n    * Helper function to calculate (hypothetical) subscription cost for given seconds and price, using current exchange rates.\n    * @param subscriptionSeconds length of hypothetical subscription, as a non-scaled integer\n    * @param price nominal price scaled by 10^18 (\"token wei\" or \"attodollars\")\n    * @param unit unit of the number price\n    */\n    function getPriceInData(uint subscriptionSeconds, uint price, Currency unit) public view returns (uint datacoinAmount) {\n        if (unit == Currency.DATA) {\n            return price.mul(subscriptionSeconds);\n        }\n        return price.mul(dataPerUsd).div(10**18).mul(subscriptionSeconds);\n    }\n\n    /////////////// Admin functionality ///////////////\n\n    event Halted();\n    event Resumed();\n    bool public halted = false;\n\n    modifier whenNotHalted() {\n        require(!halted || owner == msg.sender, \"error_halted\");\n        _;\n    }\n    function halt() public onlyOwner {\n        halted = true;\n        emit Halted();\n    }\n    function resume() public onlyOwner {\n        halted = false;\n        emit Resumed();\n    }\n\n    function reInitialize(address datacoinAddress, address currencyUpdateAgentAddress, address prev_marketplace_address) public onlyOwner {\n        _initialize(datacoinAddress, currencyUpdateAgentAddress, prev_marketplace_address);\n    }\n\n    //whitelist functionality\n\n    function setRequiresWhitelist(bytes32 productId, bool _requiresWhitelist) public onlyProductOwner(productId) {\n        _importProductIfNeeded(productId);\n        Product storage p = products[productId];\n        require(p.id != 0x0, \"error_notFound\");\n        p.requiresWhitelist = _requiresWhitelist;\n        if(_requiresWhitelist)\n            emit WhitelistEnabled(productId);\n        else\n            emit WhitelistDisabled(productId);\n    }\n\n    function whitelistApprove(bytes32 productId, address subscriber) public onlyProductOwner(productId) {\n        _importProductIfNeeded(productId);\n        Product storage p = products[productId];\n        require(p.id != 0x0, \"error_notFound\");\n        require(p.requiresWhitelist, \"error_whitelistNotEnabled\");\n        p.whitelist[subscriber] = WhitelistState.Approved;\n        emit WhitelistApproved(productId,subscriber);\n    }\n\n    function whitelistReject(bytes32 productId, address subscriber) public onlyProductOwner(productId) {\n        _importProductIfNeeded(productId);\n        Product storage p = products[productId];\n        require(p.id != 0x0, \"error_notFound\");\n        require(p.requiresWhitelist, \"error_whitelistNotEnabled\");\n        p.whitelist[subscriber] = WhitelistState.Rejected;\n        emit WhitelistRejected(productId,subscriber);\n    }\n\n    function whitelistRequest(bytes32 productId) public {\n        _importProductIfNeeded(productId);\n        Product storage p = products[productId];\n        require(p.id != 0x0, \"error_notFound\");\n        require(p.requiresWhitelist, \"error_whitelistNotEnabled\");\n        require(p.whitelist[msg.sender] == WhitelistState.None, \"error_whitelistRequestAlreadySubmitted\");\n        p.whitelist[msg.sender] = WhitelistState.Pending;\n        emit WhitelistRequested(productId,msg.sender);\n    }\n\n    function getWhitelistState(bytes32 productId, address subscriber) public view returns (WhitelistState wlstate) {\n        (,address _owner,,,,,,) = getProduct(productId);\n        require(_owner != 0x0, \"error_notFound\");\n        //if it's not local this will return 0, which is WhitelistState.None\n        Product storage p = products[productId];\n        return p.whitelist[subscriber];\n    }\n\n    //tx fee\n    function setTxFee(uint256 newTxFee) public onlyOwner {\n        require(newTxFee <= 1 ether, \"error_invalidTxFee\");\n        txFee = newTxFee;\n        emit TxFeeChanged(txFee);\n    }\n\n\n}\n",
  "sourcePath": "/home/heynow/streamr/marketplace-contracts/contracts/Marketplace.sol",
  "compiler": {
    "name": "solc",
    "version": "0.4.25+commit.59dbf8f1.Emscripten.clang"
  },
  "schemaVersion": "2.0.2",
  "updatedAt": "2020-02-28T15:44:10.950Z"
}