{
  "contractName": "Marketplace",
  "abi": [
    {
      "constant": false,
      "inputs": [],
      "name": "claimOwnership",
      "outputs": [],
      "payable": false,
      "stateMutability": "nonpayable",
      "type": "function"
    },
    {
      "constant": true,
      "inputs": [
        {
          "name": "",
          "type": "bytes32"
        }
      ],
      "name": "products",
      "outputs": [
        {
          "name": "id",
          "type": "bytes32"
        },
        {
          "name": "name",
          "type": "string"
        },
        {
          "name": "owner",
          "type": "address"
        },
        {
          "name": "beneficiary",
          "type": "address"
        },
        {
          "name": "pricePerSecond",
          "type": "uint256"
        },
        {
          "name": "priceCurrency",
          "type": "uint8"
        },
        {
          "name": "minimumSubscriptionSeconds",
          "type": "uint256"
        },
        {
          "name": "state",
          "type": "uint8"
        },
        {
          "name": "newOwnerCandidate",
          "type": "address"
        }
      ],
      "payable": false,
      "stateMutability": "view",
      "type": "function"
    },
    {
      "constant": true,
      "inputs": [],
      "name": "datacoin",
      "outputs": [
        {
          "name": "",
          "type": "address"
        }
      ],
      "payable": false,
      "stateMutability": "view",
      "type": "function"
    },
    {
      "constant": true,
      "inputs": [],
      "name": "currencyUpdateAgent",
      "outputs": [
        {
          "name": "",
          "type": "address"
        }
      ],
      "payable": false,
      "stateMutability": "view",
      "type": "function"
    },
    {
      "constant": true,
      "inputs": [],
      "name": "owner",
      "outputs": [
        {
          "name": "",
          "type": "address"
        }
      ],
      "payable": false,
      "stateMutability": "view",
      "type": "function"
    },
    {
      "constant": true,
      "inputs": [],
      "name": "halted",
      "outputs": [
        {
          "name": "",
          "type": "bool"
        }
      ],
      "payable": false,
      "stateMutability": "view",
      "type": "function"
    },
    {
      "constant": true,
      "inputs": [],
      "name": "dataPerUsd",
      "outputs": [
        {
          "name": "",
          "type": "uint256"
        }
      ],
      "payable": false,
      "stateMutability": "view",
      "type": "function"
    },
    {
      "constant": true,
      "inputs": [],
      "name": "pendingOwner",
      "outputs": [
        {
          "name": "",
          "type": "address"
        }
      ],
      "payable": false,
      "stateMutability": "view",
      "type": "function"
    },
    {
      "constant": false,
      "inputs": [
        {
          "name": "newOwner",
          "type": "address"
        }
      ],
      "name": "transferOwnership",
      "outputs": [],
      "payable": false,
      "stateMutability": "nonpayable",
      "type": "function"
    },
    {
      "inputs": [
        {
          "name": "datacoinAddress",
          "type": "address"
        },
        {
          "name": "currencyUpdateAgentAddress",
          "type": "address"
        },
        {
          "name": "prev_marketplace_address",
          "type": "address"
        }
      ],
      "payable": false,
      "stateMutability": "nonpayable",
      "type": "constructor"
    },
    {
      "anonymous": false,
      "inputs": [
        {
          "indexed": true,
          "name": "owner",
          "type": "address"
        },
        {
          "indexed": true,
          "name": "id",
          "type": "bytes32"
        },
        {
          "indexed": false,
          "name": "name",
          "type": "string"
        },
        {
          "indexed": false,
          "name": "beneficiary",
          "type": "address"
        },
        {
          "indexed": false,
          "name": "pricePerSecond",
          "type": "uint256"
        },
        {
          "indexed": false,
          "name": "currency",
          "type": "uint8"
        },
        {
          "indexed": false,
          "name": "minimumSubscriptionSeconds",
          "type": "uint256"
        }
      ],
      "name": "ProductCreated",
      "type": "event"
    },
    {
      "anonymous": false,
      "inputs": [
        {
          "indexed": true,
          "name": "owner",
          "type": "address"
        },
        {
          "indexed": true,
          "name": "id",
          "type": "bytes32"
        },
        {
          "indexed": false,
          "name": "name",
          "type": "string"
        },
        {
          "indexed": false,
          "name": "beneficiary",
          "type": "address"
        },
        {
          "indexed": false,
          "name": "pricePerSecond",
          "type": "uint256"
        },
        {
          "indexed": false,
          "name": "currency",
          "type": "uint8"
        },
        {
          "indexed": false,
          "name": "minimumSubscriptionSeconds",
          "type": "uint256"
        }
      ],
      "name": "ProductUpdated",
      "type": "event"
    },
    {
      "anonymous": false,
      "inputs": [
        {
          "indexed": true,
          "name": "owner",
          "type": "address"
        },
        {
          "indexed": true,
          "name": "id",
          "type": "bytes32"
        },
        {
          "indexed": false,
          "name": "name",
          "type": "string"
        },
        {
          "indexed": false,
          "name": "beneficiary",
          "type": "address"
        },
        {
          "indexed": false,
          "name": "pricePerSecond",
          "type": "uint256"
        },
        {
          "indexed": false,
          "name": "currency",
          "type": "uint8"
        },
        {
          "indexed": false,
          "name": "minimumSubscriptionSeconds",
          "type": "uint256"
        }
      ],
      "name": "ProductDeleted",
      "type": "event"
    },
    {
      "anonymous": false,
      "inputs": [
        {
          "indexed": true,
          "name": "owner",
          "type": "address"
        },
        {
          "indexed": true,
          "name": "id",
          "type": "bytes32"
        },
        {
          "indexed": false,
          "name": "name",
          "type": "string"
        },
        {
          "indexed": false,
          "name": "beneficiary",
          "type": "address"
        },
        {
          "indexed": false,
          "name": "pricePerSecond",
          "type": "uint256"
        },
        {
          "indexed": false,
          "name": "currency",
          "type": "uint8"
        },
        {
          "indexed": false,
          "name": "minimumSubscriptionSeconds",
          "type": "uint256"
        }
      ],
      "name": "ProductImported",
      "type": "event"
    },
    {
      "anonymous": false,
      "inputs": [
        {
          "indexed": true,
          "name": "owner",
          "type": "address"
        },
        {
          "indexed": true,
          "name": "id",
          "type": "bytes32"
        },
        {
          "indexed": false,
          "name": "name",
          "type": "string"
        },
        {
          "indexed": false,
          "name": "beneficiary",
          "type": "address"
        },
        {
          "indexed": false,
          "name": "pricePerSecond",
          "type": "uint256"
        },
        {
          "indexed": false,
          "name": "currency",
          "type": "uint8"
        },
        {
          "indexed": false,
          "name": "minimumSubscriptionSeconds",
          "type": "uint256"
        }
      ],
      "name": "ProductRedeployed",
      "type": "event"
    },
    {
      "anonymous": false,
      "inputs": [
        {
          "indexed": true,
          "name": "owner",
          "type": "address"
        },
        {
          "indexed": true,
          "name": "id",
          "type": "bytes32"
        },
        {
          "indexed": true,
          "name": "to",
          "type": "address"
        }
      ],
      "name": "ProductOwnershipOffered",
      "type": "event"
    },
    {
      "anonymous": false,
      "inputs": [
        {
          "indexed": true,
          "name": "newOwner",
          "type": "address"
        },
        {
          "indexed": true,
          "name": "id",
          "type": "bytes32"
        },
        {
          "indexed": true,
          "name": "oldOwner",
          "type": "address"
        }
      ],
      "name": "ProductOwnershipChanged",
      "type": "event"
    },
    {
      "anonymous": false,
      "inputs": [
        {
          "indexed": true,
          "name": "productId",
          "type": "bytes32"
        },
        {
          "indexed": true,
          "name": "subscriber",
          "type": "address"
        },
        {
          "indexed": false,
          "name": "endTimestamp",
          "type": "uint256"
        }
      ],
      "name": "Subscribed",
      "type": "event"
    },
    {
      "anonymous": false,
      "inputs": [
        {
          "indexed": true,
          "name": "productId",
          "type": "bytes32"
        },
        {
          "indexed": true,
          "name": "subscriber",
          "type": "address"
        },
        {
          "indexed": false,
          "name": "endTimestamp",
          "type": "uint256"
        }
      ],
      "name": "NewSubscription",
      "type": "event"
    },
    {
      "anonymous": false,
      "inputs": [
        {
          "indexed": true,
          "name": "productId",
          "type": "bytes32"
        },
        {
          "indexed": true,
          "name": "subscriber",
          "type": "address"
        },
        {
          "indexed": false,
          "name": "endTimestamp",
          "type": "uint256"
        }
      ],
      "name": "SubscriptionExtended",
      "type": "event"
    },
    {
      "anonymous": false,
      "inputs": [
        {
          "indexed": true,
          "name": "productId",
          "type": "bytes32"
        },
        {
          "indexed": true,
          "name": "subscriber",
          "type": "address"
        },
        {
          "indexed": false,
          "name": "endTimestamp",
          "type": "uint256"
        }
      ],
      "name": "SubscriptionImported",
      "type": "event"
    },
    {
      "anonymous": false,
      "inputs": [
        {
          "indexed": true,
          "name": "productId",
          "type": "bytes32"
        },
        {
          "indexed": true,
          "name": "from",
          "type": "address"
        },
        {
          "indexed": true,
          "name": "to",
          "type": "address"
        },
        {
          "indexed": false,
          "name": "secondsTransferred",
          "type": "uint256"
        }
      ],
      "name": "SubscriptionTransferred",
      "type": "event"
    },
    {
      "anonymous": false,
      "inputs": [
        {
          "indexed": false,
          "name": "timestamp",
          "type": "uint256"
        },
        {
          "indexed": false,
          "name": "dataInUsd",
          "type": "uint256"
        }
      ],
      "name": "ExchangeRatesUpdated",
      "type": "event"
    },
    {
      "anonymous": false,
      "inputs": [],
      "name": "Halted",
      "type": "event"
    },
    {
      "anonymous": false,
      "inputs": [],
      "name": "Resumed",
      "type": "event"
    },
    {
      "anonymous": false,
      "inputs": [
        {
          "indexed": true,
          "name": "previousOwner",
          "type": "address"
        },
        {
          "indexed": true,
          "name": "newOwner",
          "type": "address"
        }
      ],
      "name": "OwnershipTransferred",
      "type": "event"
    },
    {
      "constant": true,
      "inputs": [
        {
          "name": "id",
          "type": "bytes32"
        }
      ],
      "name": "getProduct",
      "outputs": [
        {
          "name": "name",
          "type": "string"
        },
        {
          "name": "owner",
          "type": "address"
        },
        {
          "name": "beneficiary",
          "type": "address"
        },
        {
          "name": "pricePerSecond",
          "type": "uint256"
        },
        {
          "name": "currency",
          "type": "uint8"
        },
        {
          "name": "minimumSubscriptionSeconds",
          "type": "uint256"
        },
        {
          "name": "state",
          "type": "uint8"
        }
      ],
      "payable": false,
      "stateMutability": "view",
      "type": "function"
    },
    {
      "constant": false,
      "inputs": [
        {
          "name": "id",
          "type": "bytes32"
        },
        {
          "name": "name",
          "type": "string"
        },
        {
          "name": "beneficiary",
          "type": "address"
        },
        {
          "name": "pricePerSecond",
          "type": "uint256"
        },
        {
          "name": "currency",
          "type": "uint8"
        },
        {
          "name": "minimumSubscriptionSeconds",
          "type": "uint256"
        }
      ],
      "name": "createProduct",
      "outputs": [],
      "payable": false,
      "stateMutability": "nonpayable",
      "type": "function"
    },
    {
      "constant": false,
      "inputs": [
        {
          "name": "productId",
          "type": "bytes32"
        }
      ],
      "name": "deleteProduct",
      "outputs": [],
      "payable": false,
      "stateMutability": "nonpayable",
      "type": "function"
    },
    {
      "constant": false,
      "inputs": [
        {
          "name": "productId",
          "type": "bytes32"
        }
      ],
      "name": "redeployProduct",
      "outputs": [],
      "payable": false,
      "stateMutability": "nonpayable",
      "type": "function"
    },
    {
      "constant": false,
      "inputs": [
        {
          "name": "productId",
          "type": "bytes32"
        },
        {
          "name": "name",
          "type": "string"
        },
        {
          "name": "beneficiary",
          "type": "address"
        },
        {
          "name": "pricePerSecond",
          "type": "uint256"
        },
        {
          "name": "currency",
          "type": "uint8"
        },
        {
          "name": "minimumSubscriptionSeconds",
          "type": "uint256"
        }
      ],
      "name": "updateProduct",
      "outputs": [],
      "payable": false,
      "stateMutability": "nonpayable",
      "type": "function"
    },
    {
      "constant": false,
      "inputs": [
        {
          "name": "productId",
          "type": "bytes32"
        },
        {
          "name": "newOwnerCandidate",
          "type": "address"
        }
      ],
      "name": "offerProductOwnership",
      "outputs": [],
      "payable": false,
      "stateMutability": "nonpayable",
      "type": "function"
    },
    {
      "constant": false,
      "inputs": [
        {
          "name": "productId",
          "type": "bytes32"
        }
      ],
      "name": "claimProductOwnership",
      "outputs": [],
      "payable": false,
      "stateMutability": "nonpayable",
      "type": "function"
    },
    {
      "constant": true,
      "inputs": [
        {
          "name": "productId",
          "type": "bytes32"
        },
        {
          "name": "subscriber",
          "type": "address"
        }
      ],
      "name": "getSubscription",
      "outputs": [
        {
          "name": "isValid",
          "type": "bool"
        },
        {
          "name": "endTimestamp",
          "type": "uint256"
        }
      ],
      "payable": false,
      "stateMutability": "view",
      "type": "function"
    },
    {
      "constant": true,
      "inputs": [
        {
          "name": "productId",
          "type": "bytes32"
        }
      ],
      "name": "getSubscriptionTo",
      "outputs": [
        {
          "name": "isValid",
          "type": "bool"
        },
        {
          "name": "endTimestamp",
          "type": "uint256"
        }
      ],
      "payable": false,
      "stateMutability": "view",
      "type": "function"
    },
    {
      "constant": true,
      "inputs": [
        {
          "name": "productId",
          "type": "bytes32"
        },
        {
          "name": "subscriber",
          "type": "address"
        }
      ],
      "name": "hasValidSubscription",
      "outputs": [
        {
          "name": "isValid",
          "type": "bool"
        }
      ],
      "payable": false,
      "stateMutability": "view",
      "type": "function"
    },
    {
      "constant": false,
      "inputs": [
        {
          "name": "productId",
          "type": "bytes32"
        },
        {
          "name": "subscriptionSeconds",
          "type": "uint256"
        },
        {
          "name": "recipient",
          "type": "address"
        }
      ],
      "name": "grantSubscription",
      "outputs": [],
      "payable": false,
      "stateMutability": "nonpayable",
      "type": "function"
    },
    {
      "constant": false,
      "inputs": [
        {
          "name": "productId",
          "type": "bytes32"
        },
        {
          "name": "subscriptionSeconds",
          "type": "uint256"
        },
        {
          "name": "recipient",
          "type": "address"
        }
      ],
      "name": "buyFor",
      "outputs": [],
      "payable": false,
      "stateMutability": "nonpayable",
      "type": "function"
    },
    {
      "constant": false,
      "inputs": [
        {
          "name": "productId",
          "type": "bytes32"
        },
        {
          "name": "subscriptionSeconds",
          "type": "uint256"
        }
      ],
      "name": "buy",
      "outputs": [],
      "payable": false,
      "stateMutability": "nonpayable",
      "type": "function"
    },
    {
      "constant": false,
      "inputs": [
        {
          "name": "productId",
          "type": "bytes32"
        },
        {
          "name": "newSubscriber",
          "type": "address"
        }
      ],
      "name": "transferSubscription",
      "outputs": [],
      "payable": false,
      "stateMutability": "nonpayable",
      "type": "function"
    },
    {
      "constant": false,
      "inputs": [
        {
          "name": "timestamp",
          "type": "uint256"
        },
        {
          "name": "dataUsd",
          "type": "uint256"
        }
      ],
      "name": "updateExchangeRates",
      "outputs": [],
      "payable": false,
      "stateMutability": "nonpayable",
      "type": "function"
    },
    {
      "constant": true,
      "inputs": [
        {
          "name": "subscriptionSeconds",
          "type": "uint256"
        },
        {
          "name": "price",
          "type": "uint256"
        },
        {
          "name": "unit",
          "type": "uint8"
        }
      ],
      "name": "getPriceInData",
      "outputs": [
        {
          "name": "datacoinAmount",
          "type": "uint256"
        }
      ],
      "payable": false,
      "stateMutability": "view",
      "type": "function"
    },
    {
      "constant": false,
      "inputs": [],
      "name": "halt",
      "outputs": [],
      "payable": false,
      "stateMutability": "nonpayable",
      "type": "function"
    },
    {
      "constant": false,
      "inputs": [],
      "name": "resume",
      "outputs": [],
      "payable": false,
      "stateMutability": "nonpayable",
      "type": "function"
    },
    {
      "constant": false,
      "inputs": [
        {
          "name": "datacoinAddress",
          "type": "address"
        },
        {
          "name": "currencyUpdateAgentAddress",
          "type": "address"
        },
        {
          "name": "prev_marketplace_address",
          "type": "address"
        }
      ],
      "name": "reInitialize",
      "outputs": [],
      "payable": false,
      "stateMutability": "nonpayable",
      "type": "function"
    }
  ],
  "bytecode": "0x608060405267016345785d8a00006006556000600760006101000a81548160ff0219169083151502179055503480156200003857600080fd5b50604051606080620051c9833981018060405281019080805190602001909291908051906020019092919080519060200190929190505050336000806101000a81548173ffffffffffffffffffffffffffffffffffffffff021916908373ffffffffffffffffffffffffffffffffffffffff160217905550620000cc838383620000d5640100000000026401000000009004565b5050506200019d565b81600360006101000a81548173ffffffffffffffffffffffffffffffffffffffff021916908373ffffffffffffffffffffffffffffffffffffffff16021790555082600260006101000a81548173ffffffffffffffffffffffffffffffffffffffff021916908373ffffffffffffffffffffffffffffffffffffffff16021790555080600460006101000a81548173ffffffffffffffffffffffffffffffffffffffff021916908373ffffffffffffffffffffffffffffffffffffffff160217905550505050565b61501c80620001ad6000396000f30060806040526004361061016a576000357c0100000000000000000000000000000000000000000000000000000000900463ffffffff168063039875121461016f578063046f7da2146101ca5780630ddeb632146101e15780631a464fa11461021c5780631f4e09af1461024d57806325017e10146102a85780633a20e9df146102f95780634a54fb0a146104415780634e71e0c8146104f957806353f81ef81461051057806358f816bf146105605780635ed7ca5b146105915780635f28cb74146105a8578063790543911461061857806379c88f20146107a257806389aaad29146107f95780638da5cb5b1461085057806394727b41146108a757806396002aef146108d8578063a4b138b014610929578063b14f8432146109ac578063b9b8af0b14610a15578063bee7d43314610a44578063cafbc49d14610a9c578063d50a04f414610b54578063db6c709c14610b7f578063e30c397814610bb6578063f2fde38b14610c0d575b600080fd5b34801561017b57600080fd5b506101c8600480360381019080803560001916906020019092919080359060200190929190803573ffffffffffffffffffffffffffffffffffffffff169060200190929190505050610c50565b005b3480156101d657600080fd5b506101df610d3e565b005b3480156101ed57600080fd5b5061021a600480360381019080803560001916906020019092919080359060200190929190505050610e4b565b005b34801561022857600080fd5b5061024b6004803603810190808035600019169060200190929190505050610f36565b005b34801561025957600080fd5b506102a6600480360381019080803560001916906020019092919080359060200190929190803573ffffffffffffffffffffffffffffffffffffffff16906020019092919050505061120f565b005b3480156102b457600080fd5b506102f76004803603810190808035600019169060200190929190803573ffffffffffffffffffffffffffffffffffffffff16906020019092919050505061149c565b005b34801561030557600080fd5b50610328600480360381019080803560001916906020019092919050505061174d565b60405180806020018873ffffffffffffffffffffffffffffffffffffffff1673ffffffffffffffffffffffffffffffffffffffff1681526020018773ffffffffffffffffffffffffffffffffffffffff1673ffffffffffffffffffffffffffffffffffffffff1681526020018681526020018560018111156103a657fe5b60ff1681526020018481526020018360018111156103c057fe5b60ff168152602001828103825289818151815260200191508051906020019080838360005b838110156104005780820151818401526020810190506103e5565b50505050905090810190601f16801561042d5780820380516001836020036101000a031916815260200191505b509850505050505050505060405180910390f35b34801561044d57600080fd5b506104f76004803603810190808035600019169060200190929190803590602001908201803590602001908080601f0160208091040260200160405190810160405280939291908181526020018383808284378201915050505050509192919290803573ffffffffffffffffffffffffffffffffffffffff16906020019092919080359060200190929190803560ff1690602001909291908035906020019092919050505061193a565b005b34801561050557600080fd5b5061050e611d50565b005b34801561051c57600080fd5b5061053f6004803603810190808035600019169060200190929190505050611f58565b60405180831515151581526020018281526020019250505060405180910390f35b34801561056c57600080fd5b5061058f6004803603810190808035600019169060200190929190505050611f6e565b005b34801561059d57600080fd5b506105a6612392565b005b3480156105b457600080fd5b506105f76004803603810190808035600019169060200190929190803573ffffffffffffffffffffffffffffffffffffffff16906020019092919050505061249f565b60405180831515151581526020018281526020019250505060405180910390f35b34801561062457600080fd5b5061064760048036038101908080356000191690602001909291905050506128d4565b604051808a60001916600019168152602001806020018973ffffffffffffffffffffffffffffffffffffffff1673ffffffffffffffffffffffffffffffffffffffff1681526020018873ffffffffffffffffffffffffffffffffffffffff1673ffffffffffffffffffffffffffffffffffffffff1681526020018781526020018660018111156106d357fe5b60ff1681526020018581526020018460018111156106ed57fe5b60ff1681526020018373ffffffffffffffffffffffffffffffffffffffff1673ffffffffffffffffffffffffffffffffffffffff16815260200182810382528a818151815260200191508051906020019080838360005b8381101561075f578082015181840152602081019050610744565b50505050905090810190601f16801561078c5780820380516001836020036101000a031916815260200191505b509a505050505050505050505060405180910390f35b3480156107ae57600080fd5b506107b7612a34565b604051808273ffffffffffffffffffffffffffffffffffffffff1673ffffffffffffffffffffffffffffffffffffffff16815260200191505060405180910390f35b34801561080557600080fd5b5061080e612a5a565b604051808273ffffffffffffffffffffffffffffffffffffffff1673ffffffffffffffffffffffffffffffffffffffff16815260200191505060405180910390f35b34801561085c57600080fd5b50610865612a80565b604051808273ffffffffffffffffffffffffffffffffffffffff1673ffffffffffffffffffffffffffffffffffffffff16815260200191505060405180910390f35b3480156108b357600080fd5b506108d66004803603810190808035600019169060200190929190505050612aa5565b005b3480156108e457600080fd5b506109276004803603810190808035600019169060200190929190803573ffffffffffffffffffffffffffffffffffffffff169060200190929190505050612ec8565b005b34801561093557600080fd5b506109aa600480360381019080803573ffffffffffffffffffffffffffffffffffffffff169060200190929190803573ffffffffffffffffffffffffffffffffffffffff169060200190929190803573ffffffffffffffffffffffffffffffffffffffff16906020019092919050505061316f565b005b3480156109b857600080fd5b506109fb6004803603810190808035600019169060200190929190803573ffffffffffffffffffffffffffffffffffffffff169060200190929190505050613243565b604051808215151515815260200191505060405180910390f35b348015610a2157600080fd5b50610a2a61325a565b604051808215151515815260200191505060405180910390f35b348015610a5057600080fd5b50610a866004803603810190808035906020019092919080359060200190929190803560ff16906020019092919050505061326d565b6040518082815260200191505060405180910390f35b348015610aa857600080fd5b50610b526004803603810190808035600019169060200190929190803590602001908201803590602001908080601f0160208091040260200160405190810160405280939291908181526020018383808284378201915050505050509192919290803573ffffffffffffffffffffffffffffffffffffffff16906020019092919080359060200190929190803560ff169060200190929190803590602001909291905050506132f2565b005b348015610b6057600080fd5b50610b696138c6565b6040518082815260200191505060405180910390f35b348015610b8b57600080fd5b50610bb460048036038101908080359060200190929190803590602001909291905050506138cc565b005b348015610bc257600080fd5b50610bcb6139ea565b604051808273ffffffffffffffffffffffffffffffffffffffff1673ffffffffffffffffffffffffffffffffffffffff16815260200191505060405180910390f35b348015610c1957600080fd5b50610c4e600480360381019080803573ffffffffffffffffffffffffffffffffffffffff169060200190929190505050613a10565b005b600760009054906101000a900460ff161580610cb857503373ffffffffffffffffffffffffffffffffffffffff166000809054906101000a900473ffffffffffffffffffffffffffffffffffffffff1673ffffffffffffffffffffffffffffffffffffffff16145b1515610d2c576040517f08c379a000000000000000000000000000000000000000000000000000000000815260040180806020018281038252600c8152602001807f6572726f725f68616c746564000000000000000000000000000000000000000081525060200191505060405180910390fd5b610d398383836001613b18565b505050565b6000809054906101000a900473ffffffffffffffffffffffffffffffffffffffff1673ffffffffffffffffffffffffffffffffffffffff163373ffffffffffffffffffffffffffffffffffffffff16141515610e02576040517f08c379a00000000000000000000000000000000000000000000000000000000081526004018080602001828103825260098152602001807f6f6e6c794f776e6572000000000000000000000000000000000000000000000081525060200191505060405180910390fd5b6000600760006101000a81548160ff0219169083151502179055507f62451d457bc659158be6e6247f56ec1df424a5c7597f71c20c2bc44e0965c8f960405160405180910390a1565b600760009054906101000a900460ff161580610eb357503373ffffffffffffffffffffffffffffffffffffffff166000809054906101000a900473ffffffffffffffffffffffffffffffffffffffff1673ffffffffffffffffffffffffffffffffffffffff16145b1515610f27576040517f08c379a000000000000000000000000000000000000000000000000000000000815260040180806020018281038252600c8152602001807f6572726f725f68616c746564000000000000000000000000000000000000000081525060200191505060405180910390fd5b610f32828233610c50565b5050565b6000600760009054906101000a900460ff161580610fa057503373ffffffffffffffffffffffffffffffffffffffff166000809054906101000a900473ffffffffffffffffffffffffffffffffffffffff1673ffffffffffffffffffffffffffffffffffffffff16145b1515611014576040517f08c379a000000000000000000000000000000000000000000000000000000000815260040180806020018281038252600c8152602001807f6572726f725f68616c746564000000000000000000000000000000000000000081525060200191505060405180910390fd5b61101d82613f45565b5060056000836000191660001916815260200190815260200160002090508060090160009054906101000a900473ffffffffffffffffffffffffffffffffffffffff1673ffffffffffffffffffffffffffffffffffffffff163373ffffffffffffffffffffffffffffffffffffffff16141515611102576040517f08c379a00000000000000000000000000000000000000000000000000000000081526004018080602001828103825260128152602001807f6572726f725f6e6f745065726d6974746564000000000000000000000000000081525060200191505060405180910390fd5b8060020160009054906101000a900473ffffffffffffffffffffffffffffffffffffffff1673ffffffffffffffffffffffffffffffffffffffff1682600019163373ffffffffffffffffffffffffffffffffffffffff167eaf27297c740fbece798135b71b06164310e0591b6c729e50b8026dcc60be5060405160405180910390a4338160020160006101000a81548173ffffffffffffffffffffffffffffffffffffffff021916908373ffffffffffffffffffffffffffffffffffffffff16021790555060008160090160006101000a81548173ffffffffffffffffffffffffffffffffffffffff021916908373ffffffffffffffffffffffffffffffffffffffff1602179055505050565b600760009054906101000a900460ff16158061127757503373ffffffffffffffffffffffffffffffffffffffff166000809054906101000a900473ffffffffffffffffffffffffffffffffffffffff1673ffffffffffffffffffffffffffffffffffffffff16145b15156112eb576040517f08c379a000000000000000000000000000000000000000000000000000000000815260040180806020018281038252600c8152602001807f6572726f725f68616c746564000000000000000000000000000000000000000081525060200191505060405180910390fd5b8260006112f78261174d565b505050505091505060008173ffffffffffffffffffffffffffffffffffffffff161415151561138e576040517f08c379a000000000000000000000000000000000000000000000000000000000815260040180806020018281038252600e8152602001807f6572726f725f6e6f74466f756e6400000000000000000000000000000000000081525060200191505060405180910390fd5b3373ffffffffffffffffffffffffffffffffffffffff168173ffffffffffffffffffffffffffffffffffffffff16148061141457503373ffffffffffffffffffffffffffffffffffffffff166000809054906101000a900473ffffffffffffffffffffffffffffffffffffffff1673ffffffffffffffffffffffffffffffffffffffff16145b1515611488576040517f08c379a00000000000000000000000000000000000000000000000000000000081526004018080602001828103825260178152602001807f6572726f725f70726f647563744f776e6572734f6e6c7900000000000000000081525060200191505060405180910390fd5b6114958585856000613b18565b5050505050565b600080600080600760009054906101000a900460ff16158061150a57503373ffffffffffffffffffffffffffffffffffffffff166000809054906101000a900473ffffffffffffffffffffffffffffffffffffffff1673ffffffffffffffffffffffffffffffffffffffff16145b151561157e576040517f08c379a000000000000000000000000000000000000000000000000000000000815260040180806020018281038252600c8152602001807f6572726f725f68616c746564000000000000000000000000000000000000000081525060200191505060405180910390fd5b61158886336143de565b50611593863361479f565b935093506115a08361488d565b1515611614576040517f08c379a000000000000000000000000000000000000000000000000000000000815260040180806020018281038252601a8152602001807f6572726f725f737562736372697074696f6e4e6f7456616c696400000000000081525060200191505060405180910390fd5b61162b42846000015461489e90919063ffffffff16565b91508360080160008673ffffffffffffffffffffffffffffffffffffffff1673ffffffffffffffffffffffffffffffffffffffff168152602001908152602001600020905061167c848684846148bf565b60206040519081016040528060018152508460080160003373ffffffffffffffffffffffffffffffffffffffff1673ffffffffffffffffffffffffffffffffffffffff168152602001908152602001600020600082015181600001559050508473ffffffffffffffffffffffffffffffffffffffff163373ffffffffffffffffffffffffffffffffffffffff1687600019167f748c12d8611352a3ff4f8d6d8405f8fd259695b031b2000827b207975a05cea0856040518082815260200191505060405180910390a4505050505050565b606060008060008060008061176188614b74565b809750819850829950839a50849b50859c50869d505050505050505060008673ffffffffffffffffffffffffffffffffffffffff161415156117b75786868686868686965096509650965096509650965061192f565b600460009054906101000a900473ffffffffffffffffffffffffffffffffffffffff1673ffffffffffffffffffffffffffffffffffffffff16633a20e9df896040518263ffffffff167c0100000000000000000000000000000000000000000000000000000000028152600401808260001916600019168152602001915050600060405180830381600087803b15801561185057600080fd5b505af1158015611864573d6000803e3d6000fd5b505050506040513d6000823e3d601f19601f8201168201806040525060e081101561188e57600080fd5b8101908080516401000000008111156118a657600080fd5b828101905060208101848111156118bc57600080fd5b81518560018202830111640100000000821117156118d957600080fd5b505092919060200180519060200190929190805190602001909291908051906020019092919080519060200190929190805190602001909291908051906020019092919050505096509650965096509650965096505b919395979092949650565b60008660006119488261174d565b505050505091505060008173ffffffffffffffffffffffffffffffffffffffff16141515156119df576040517f08c379a000000000000000000000000000000000000000000000000000000000815260040180806020018281038252600e8152602001807f6572726f725f6e6f74466f756e6400000000000000000000000000000000000081525060200191505060405180910390fd5b3373ffffffffffffffffffffffffffffffffffffffff168173ffffffffffffffffffffffffffffffffffffffff161480611a6557503373ffffffffffffffffffffffffffffffffffffffff166000809054906101000a900473ffffffffffffffffffffffffffffffffffffffff1673ffffffffffffffffffffffffffffffffffffffff16145b1515611ad9576040517f08c379a00000000000000000000000000000000000000000000000000000000081526004018080602001828103825260178152602001807f6572726f725f70726f647563744f776e6572734f6e6c7900000000000000000081525060200191505060405180910390fd5b600086111515611b51576040517f08c379a000000000000000000000000000000000000000000000000000000000815260040180806020018281038252601e8152602001807f6572726f725f6672656550726f64756374734e6f74537570706f72746564000081525060200191505060405180910390fd5b611b5a89613f45565b50600560008a60001916600019168152602001908152602001600020925087836001019080519060200190611b90929190614eb7565b50868360030160006101000a81548173ffffffffffffffffffffffffffffffffffffffff021916908373ffffffffffffffffffffffffffffffffffffffff160217905550858360040181905550848360050160006101000a81548160ff02191690836001811115611bfd57fe5b02179055508383600601819055508260000154600019168360020160009054906101000a900473ffffffffffffffffffffffffffffffffffffffff1673ffffffffffffffffffffffffffffffffffffffff167f21953ef62f6c172d864b9ae2181d3c7114ef506c3546057e354cf6b5bab03ec48a8a8a8a8a60405180806020018673ffffffffffffffffffffffffffffffffffffffff1673ffffffffffffffffffffffffffffffffffffffff168152602001858152602001846001811115611cc157fe5b60ff168152602001838152602001828103825287818151815260200191508051906020019080838360005b83811015611d07578082015181840152602081019050611cec565b50505050905090810190601f168015611d345780820380516001836020036101000a031916815260200191505b50965050505050505060405180910390a3505050505050505050565b600160009054906101000a900473ffffffffffffffffffffffffffffffffffffffff1673ffffffffffffffffffffffffffffffffffffffff163373ffffffffffffffffffffffffffffffffffffffff16141515611e15576040517f08c379a00000000000000000000000000000000000000000000000000000000081526004018080602001828103825260108152602001807f6f6e6c7950656e64696e674f776e65720000000000000000000000000000000081525060200191505060405180910390fd5b600160009054906101000a900473ffffffffffffffffffffffffffffffffffffffff1673ffffffffffffffffffffffffffffffffffffffff166000809054906101000a900473ffffffffffffffffffffffffffffffffffffffff1673ffffffffffffffffffffffffffffffffffffffff167f8be0079c531659141344cd1fd0a4f28419497f9722a3daafe3b4186f6b6457e060405160405180910390a3600160009054906101000a900473ffffffffffffffffffffffffffffffffffffffff166000806101000a81548173ffffffffffffffffffffffffffffffffffffffff021916908373ffffffffffffffffffffffffffffffffffffffff1602179055506000600160006101000a81548173ffffffffffffffffffffffffffffffffffffffff021916908373ffffffffffffffffffffffffffffffffffffffff160217905550565b600080611f65833361249f565b91509150915091565b6000816000611f7c8261174d565b505050505091505060008173ffffffffffffffffffffffffffffffffffffffff1614151515612013576040517f08c379a000000000000000000000000000000000000000000000000000000000815260040180806020018281038252600e8152602001807f6572726f725f6e6f74466f756e6400000000000000000000000000000000000081525060200191505060405180910390fd5b3373ffffffffffffffffffffffffffffffffffffffff168173ffffffffffffffffffffffffffffffffffffffff16148061209957503373ffffffffffffffffffffffffffffffffffffffff166000809054906101000a900473ffffffffffffffffffffffffffffffffffffffff1673ffffffffffffffffffffffffffffffffffffffff16145b151561210d576040517f08c379a00000000000000000000000000000000000000000000000000000000081526004018080602001828103825260178152602001807f6572726f725f70726f647563744f776e6572734f6e6c7900000000000000000081525060200191505060405180910390fd5b61211684613f45565b5060056000856000191660001916815260200190815260200160002092506000600181111561214157fe5b8360070160009054906101000a900460ff16600181111561215e57fe5b1415156121d3576040517f08c379a00000000000000000000000000000000000000000000000000000000081526004018080602001828103825260178152602001807f6572726f725f6d75737442654e6f744465706c6f79656400000000000000000081525060200191505060405180910390fd5b60018360070160006101000a81548160ff021916908360018111156121f457fe5b021790555083600019168360020160009054906101000a900473ffffffffffffffffffffffffffffffffffffffff1673ffffffffffffffffffffffffffffffffffffffff167f07ace6911e28d0d5b2e773ce49cdfa29db157b38bffccd5f0b56f02cfba8a64f856001018660030160009054906101000a900473ffffffffffffffffffffffffffffffffffffffff1687600401548860050160009054906101000a900460ff16896006015460405180806020018673ffffffffffffffffffffffffffffffffffffffff1673ffffffffffffffffffffffffffffffffffffffff1681526020018581526020018460018111156122eb57fe5b60ff16815260200183815260200182810382528781815460018160011615610100020316600290048152602001915080546001816001161561010002031660029004801561237a5780601f1061234f5761010080835404028352916020019161237a565b820191906000526020600020905b81548152906001019060200180831161235d57829003601f168201915b5050965050505050505060405180910390a350505050565b6000809054906101000a900473ffffffffffffffffffffffffffffffffffffffff1673ffffffffffffffffffffffffffffffffffffffff163373ffffffffffffffffffffffffffffffffffffffff16141515612456576040517f08c379a00000000000000000000000000000000000000000000000000000000081526004018080602001828103825260098152602001807f6f6e6c794f776e6572000000000000000000000000000000000000000000000081525060200191505060405180910390fd5b6001600760006101000a81548160ff0219169083151502179055507f1ee9080f6b55ca44ce58681c8162e6c1ac1c47e1da791a4a1c1ec6186d8af1f360405160405180910390a1565b60008060008060006124b087614b74565b505050505093505060008373ffffffffffffffffffffffffffffffffffffffff1614156125f157600460009054906101000a900473ffffffffffffffffffffffffffffffffffffffff1673ffffffffffffffffffffffffffffffffffffffff16635f28cb7488886040518363ffffffff167c01000000000000000000000000000000000000000000000000000000000281526004018083600019166000191681526020018273ffffffffffffffffffffffffffffffffffffffff1673ffffffffffffffffffffffffffffffffffffffff168152602001925050506040805180830381600087803b1580156125a357600080fd5b505af11580156125b7573d6000803e3d6000fd5b505050506040513d60408110156125cd57600080fd5b810190808051906020019092919080519060200190929190505050945094506128ca565b6125fb878761479f565b9250506000826000015414156128b757600460009054906101000a900473ffffffffffffffffffffffffffffffffffffffff1673ffffffffffffffffffffffffffffffffffffffff16633a20e9df886040518263ffffffff167c0100000000000000000000000000000000000000000000000000000000028152600401808260001916600019168152602001915050600060405180830381600087803b1580156126a457600080fd5b505af11580156126b8573d6000803e3d6000fd5b505050506040513d6000823e3d601f19601f8201168201806040525060e08110156126e257600080fd5b8101908080516401000000008111156126fa57600080fd5b8281019050602081018481111561271057600080fd5b815185600182028301116401000000008211171561272d57600080fd5b5050929190602001805190602001909291908051906020019092919080519060200190929190805190602001909291908051906020019092919080519060200190929190505050505050505091505060008173ffffffffffffffffffffffffffffffffffffffff161415156128b657600460009054906101000a900473ffffffffffffffffffffffffffffffffffffffff1673ffffffffffffffffffffffffffffffffffffffff16635f28cb7488886040518363ffffffff167c01000000000000000000000000000000000000000000000000000000000281526004018083600019166000191681526020018273ffffffffffffffffffffffffffffffffffffffff1673ffffffffffffffffffffffffffffffffffffffff168152602001925050506040805180830381600087803b15801561286857600080fd5b505af115801561287c573d6000803e3d6000fd5b505050506040513d604081101561289257600080fd5b810190808051906020019092919080519060200190929190505050945094506128ca565b5b6128c08261488d565b8260000154945094505b5050509250929050565b6005602052806000526040600020600091509050806000015490806001018054600181600116156101000203166002900480601f0160208091040260200160405190810160405280929190818152602001828054600181600116156101000203166002900480156129865780601f1061295b57610100808354040283529160200191612986565b820191906000526020600020905b81548152906001019060200180831161296957829003601f168201915b5050505050908060020160009054906101000a900473ffffffffffffffffffffffffffffffffffffffff16908060030160009054906101000a900473ffffffffffffffffffffffffffffffffffffffff16908060040154908060050160009054906101000a900460ff16908060060154908060070160009054906101000a900460ff16908060090160009054906101000a900473ffffffffffffffffffffffffffffffffffffffff16905089565b600260009054906101000a900473ffffffffffffffffffffffffffffffffffffffff1681565b600360009054906101000a900473ffffffffffffffffffffffffffffffffffffffff1681565b6000809054906101000a900473ffffffffffffffffffffffffffffffffffffffff1681565b6000816000612ab38261174d565b505050505091505060008173ffffffffffffffffffffffffffffffffffffffff1614151515612b4a576040517f08c379a000000000000000000000000000000000000000000000000000000000815260040180806020018281038252600e8152602001807f6572726f725f6e6f74466f756e6400000000000000000000000000000000000081525060200191505060405180910390fd5b3373ffffffffffffffffffffffffffffffffffffffff168173ffffffffffffffffffffffffffffffffffffffff161480612bd057503373ffffffffffffffffffffffffffffffffffffffff166000809054906101000a900473ffffffffffffffffffffffffffffffffffffffff1673ffffffffffffffffffffffffffffffffffffffff16145b1515612c44576040517f08c379a00000000000000000000000000000000000000000000000000000000081526004018080602001828103825260178152602001807f6572726f725f70726f647563744f776e6572734f6e6c7900000000000000000081525060200191505060405180910390fd5b612c4d84613f45565b506005600085600019166000191681526020019081526020016000209250600180811115612c7757fe5b8360070160009054906101000a900460ff166001811115612c9457fe5b141515612d09576040517f08c379a00000000000000000000000000000000000000000000000000000000081526004018080602001828103825260118152602001807f6572726f725f6e6f744465706c6f79656400000000000000000000000000000081525060200191505060405180910390fd5b60008360070160006101000a81548160ff02191690836001811115612d2a57fe5b021790555083600019168360020160009054906101000a900473ffffffffffffffffffffffffffffffffffffffff1673ffffffffffffffffffffffffffffffffffffffff167ffc64345d61f75f77f5039b0e23107d4abd73ecb7cd6c94fd44e8a6dd85918f6a856001018660030160009054906101000a900473ffffffffffffffffffffffffffffffffffffffff1687600401548860050160009054906101000a900460ff16896006015460405180806020018673ffffffffffffffffffffffffffffffffffffffff1673ffffffffffffffffffffffffffffffffffffffff168152602001858152602001846001811115612e2157fe5b60ff168152602001838152602001828103825287818154600181600116156101000203166002900481526020019150805460018160011615610100020316600290048015612eb05780601f10612e8557610100808354040283529160200191612eb0565b820191906000526020600020905b815481529060010190602001808311612e9357829003601f168201915b5050965050505050505060405180910390a350505050565b816000612ed48261174d565b505050505091505060008173ffffffffffffffffffffffffffffffffffffffff1614151515612f6b576040517f08c379a000000000000000000000000000000000000000000000000000000000815260040180806020018281038252600e8152602001807f6572726f725f6e6f74466f756e6400000000000000000000000000000000000081525060200191505060405180910390fd5b3373ffffffffffffffffffffffffffffffffffffffff168173ffffffffffffffffffffffffffffffffffffffff161480612ff157503373ffffffffffffffffffffffffffffffffffffffff166000809054906101000a900473ffffffffffffffffffffffffffffffffffffffff1673ffffffffffffffffffffffffffffffffffffffff16145b1515613065576040517f08c379a00000000000000000000000000000000000000000000000000000000081526004018080602001828103825260178152602001807f6572726f725f70726f647563744f776e6572734f6e6c7900000000000000000081525060200191505060405180910390fd5b61306e84613f45565b508260056000866000191660001916815260200190815260200160002060090160006101000a81548173ffffffffffffffffffffffffffffffffffffffff021916908373ffffffffffffffffffffffffffffffffffffffff1602179055508273ffffffffffffffffffffffffffffffffffffffff16846000191660056000876000191660001916815260200190815260200160002060020160009054906101000a900473ffffffffffffffffffffffffffffffffffffffff1673ffffffffffffffffffffffffffffffffffffffff167f62160e4abadfc3a6afc583d10586d737c813753fe64d93f4283282b2b600a34460405160405180910390a450505050565b6000809054906101000a900473ffffffffffffffffffffffffffffffffffffffff1673ffffffffffffffffffffffffffffffffffffffff163373ffffffffffffffffffffffffffffffffffffffff16141515613233576040517f08c379a00000000000000000000000000000000000000000000000000000000081526004018080602001828103825260098152602001807f6f6e6c794f776e6572000000000000000000000000000000000000000000000081525060200191505060405180910390fd5b61323e838383614d66565b505050565b600061324f838361249f565b508091505092915050565b600760009054906101000a900460ff1681565b600080600181111561327b57fe5b82600181111561328757fe5b14156132a7576132a08484614e2e90919063ffffffff16565b90506132eb565b6132e8846132da670de0b6b3a76400006132cc60065488614e2e90919063ffffffff16565b614e6c90919063ffffffff16565b614e2e90919063ffffffff16565b90505b9392505050565b600080600760009054906101000a900460ff16158061335d57503373ffffffffffffffffffffffffffffffffffffffff166000809054906101000a900473ffffffffffffffffffffffffffffffffffffffff1673ffffffffffffffffffffffffffffffffffffffff16145b15156133d1576040517f08c379a000000000000000000000000000000000000000000000000000000000815260040180806020018281038252600c8152602001807f6572726f725f68616c746564000000000000000000000000000000000000000081525060200191505060405180910390fd5b6000600102886000191614151515613451576040517f08c379a00000000000000000000000000000000000000000000000000000000081526004018080602001828103825260138152602001807f6572726f725f6e756c6c50726f6475637449640000000000000000000000000081525060200191505060405180910390fd5b6000851115156134c9576040517f08c379a000000000000000000000000000000000000000000000000000000000815260040180806020018281038252601e8152602001807f6572726f725f6672656550726f64756374734e6f74537570706f72746564000081525060200191505060405180910390fd5b6134d28861174d565b505050505092505060008273ffffffffffffffffffffffffffffffffffffffff16141515613568576040517f08c379a00000000000000000000000000000000000000000000000000000000081526004018080602001828103825260138152602001807f6572726f725f616c72656164794578697374730000000000000000000000000081525060200191505060405180910390fd5b600560008960001916600019168152602001908152602001600020905061012060405190810160405280896000191681526020018881526020013373ffffffffffffffffffffffffffffffffffffffff1681526020018773ffffffffffffffffffffffffffffffffffffffff1681526020018681526020018560018111156135ec57fe5b815260200184815260200160018081111561360357fe5b8152602001600073ffffffffffffffffffffffffffffffffffffffff16815250600560008a6000191660001916815260200190815260200160002060008201518160000190600019169055602082015181600101908051906020019061366a929190614f37565b5060408201518160020160006101000a81548173ffffffffffffffffffffffffffffffffffffffff021916908373ffffffffffffffffffffffffffffffffffffffff16021790555060608201518160030160006101000a81548173ffffffffffffffffffffffffffffffffffffffff021916908373ffffffffffffffffffffffffffffffffffffffff1602179055506080820151816004015560a08201518160050160006101000a81548160ff0219169083600181111561372757fe5b021790555060c0820151816006015560e08201518160070160006101000a81548160ff0219169083600181111561375a57fe5b02179055506101008201518160090160006101000a81548173ffffffffffffffffffffffffffffffffffffffff021916908373ffffffffffffffffffffffffffffffffffffffff16021790555090505087600019163373ffffffffffffffffffffffffffffffffffffffff167f397627c8e8e4324a0f8a98a8274c00e4cee798d000625304ffbae6144ec64e54898989898960405180806020018673ffffffffffffffffffffffffffffffffffffffff1673ffffffffffffffffffffffffffffffffffffffff16815260200185815260200184600181111561383857fe5b60ff168152602001838152602001828103825287818151815260200191508051906020019080838360005b8381101561387e578082015181840152602081019050613863565b50505050905090810190601f1680156138ab5780820380516001836020036101000a031916815260200191505b50965050505050505060405180910390a35050505050505050565b60065481565b600360009054906101000a900473ffffffffffffffffffffffffffffffffffffffff1673ffffffffffffffffffffffffffffffffffffffff163373ffffffffffffffffffffffffffffffffffffffff16141515613991576040517f08c379a00000000000000000000000000000000000000000000000000000000081526004018080602001828103825260128152602001807f6572726f725f6e6f745065726d6974746564000000000000000000000000000081525060200191505060405180910390fd5b6000811115156139a057600080fd5b806006819055507fc84d758f9836fe65b8f2be13d5e364b9373411e1158b63c1c5abbbae789496098282604051808381526020018281526020019250505060405180910390a15050565b600160009054906101000a900473ffffffffffffffffffffffffffffffffffffffff1681565b6000809054906101000a900473ffffffffffffffffffffffffffffffffffffffff1673ffffffffffffffffffffffffffffffffffffffff163373ffffffffffffffffffffffffffffffffffffffff16141515613ad4576040517f08c379a00000000000000000000000000000000000000000000000000000000081526004018080602001828103825260098152602001807f6f6e6c794f776e6572000000000000000000000000000000000000000000000081525060200191505060405180910390fd5b80600160006101000a81548173ffffffffffffffffffffffffffffffffffffffff021916908373ffffffffffffffffffffffffffffffffffffffff16021790555050565b6000806000806000613b2a89886143de565b50613b35898861479f565b94509450600180811115613b4557fe5b8560070160009054906101000a900460ff166001811115613b6257fe5b141515613bd7576040517f08c379a00000000000000000000000000000000000000000000000000000000081526004018080602001828103825260118152602001807f6572726f725f6e6f744465706c6f79656400000000000000000000000000000081525060200191505060405180910390fd5b613be385888a876148bf565b600092508515613ddc57613c0d8886600401548760050160009054906101000a900460ff1661326d565b9250600260009054906101000a900473ffffffffffffffffffffffffffffffffffffffff1673ffffffffffffffffffffffffffffffffffffffff166323b872dd338760030160009054906101000a900473ffffffffffffffffffffffffffffffffffffffff16866040518463ffffffff167c0100000000000000000000000000000000000000000000000000000000028152600401808473ffffffffffffffffffffffffffffffffffffffff1673ffffffffffffffffffffffffffffffffffffffff1681526020018373ffffffffffffffffffffffffffffffffffffffff1673ffffffffffffffffffffffffffffffffffffffff1681526020018281526020019350505050602060405180830381600087803b158015613d2c57600080fd5b505af1158015613d40573d6000803e3d6000fd5b505050506040513d6020811015613d5657600080fd5b81019080805190602001909291905050501515613ddb576040517f08c379a00000000000000000000000000000000000000000000000000000000081526004018080602001828103825260138152602001807f6572726f725f7061796d656e744661696c65640000000000000000000000000081525060200191505060405180910390fd5b5b8460030160009054906101000a900473ffffffffffffffffffffffffffffffffffffffff169050803b91506000821115613f3a578460030160009054906101000a900473ffffffffffffffffffffffffffffffffffffffff1673ffffffffffffffffffffffffffffffffffffffff166391517bdd8a898760000154876040518563ffffffff167c01000000000000000000000000000000000000000000000000000000000281526004018085600019166000191681526020018473ffffffffffffffffffffffffffffffffffffffff1673ffffffffffffffffffffffffffffffffffffffff168152602001838152602001828152602001945050505050602060405180830381600087803b158015613ef357600080fd5b505af1158015613f07573d6000803e3d6000fd5b505050506040513d6020811015613f1d57600080fd5b81019080805190602001909291905050501515613f3957600080fd5b5b505050505050505050565b6000806060600080600080600080600560008b6000191660001916815260200190815260200160002097506000600102886000015460001916141515613f8e57600098506143d1565b600460009054906101000a900473ffffffffffffffffffffffffffffffffffffffff1673ffffffffffffffffffffffffffffffffffffffff16633a20e9df8b6040518263ffffffff167c0100000000000000000000000000000000000000000000000000000000028152600401808260001916600019168152602001915050600060405180830381600087803b15801561402757600080fd5b505af115801561403b573d6000803e3d6000fd5b505050506040513d6000823e3d601f19601f8201168201806040525060e081101561406557600080fd5b81019080805164010000000081111561407d57600080fd5b8281019050602081018481111561409357600080fd5b81518560018202830111640100000000821117156140b057600080fd5b5050929190602001805190602001909291908051906020019092919080519060200190929190805190602001909291908051906020019092919080519060200190929190505050965096509650965096509650965060008673ffffffffffffffffffffffffffffffffffffffff16141561412d57600098506143d1565b8988600001816000191690555086886001019080519060200190614152929190614eb7565b50858860020160006101000a81548173ffffffffffffffffffffffffffffffffffffffff021916908373ffffffffffffffffffffffffffffffffffffffff160217905550848860030160006101000a81548173ffffffffffffffffffffffffffffffffffffffff021916908373ffffffffffffffffffffffffffffffffffffffff160217905550838860040181905550828860050160006101000a81548160ff0219169083600181111561420257fe5b0217905550818860060181905550808860070160006101000a81548160ff0219169083600181111561423057fe5b02179055508760000154600019168860020160009054906101000a900473ffffffffffffffffffffffffffffffffffffffff1673ffffffffffffffffffffffffffffffffffffffff167fd608cf60e5a08e9db0f10b63c150bb7cdc66ee6286eb04ec5ba01d178e9010d68a6001018b60030160009054906101000a900473ffffffffffffffffffffffffffffffffffffffff168c600401548d60050160009054906101000a900460ff168e6006015460405180806020018673ffffffffffffffffffffffffffffffffffffffff1673ffffffffffffffffffffffffffffffffffffffff16815260200185815260200184600181111561432b57fe5b60ff1681526020018381526020018281038252878181546001816001161561010002031660029004815260200191508054600181600116156101000203166002900480156143ba5780601f1061438f576101008083540402835291602001916143ba565b820191906000526020600020905b81548152906001019060200180831161439d57829003601f168201915b5050965050505050505060405180910390a3600198505b5050505050505050919050565b6000806000806000806143f088613f45565b94506143fc888861479f565b93509350600083600001541415156144175760009550614794565b8415156145b857600460009054906101000a900473ffffffffffffffffffffffffffffffffffffffff1673ffffffffffffffffffffffffffffffffffffffff16633a20e9df896040518263ffffffff167c0100000000000000000000000000000000000000000000000000000000028152600401808260001916600019168152602001915050600060405180830381600087803b1580156144b757600080fd5b505af11580156144cb573d6000803e3d6000fd5b505050506040513d6000823e3d601f19601f8201168201806040525060e08110156144f557600080fd5b81019080805164010000000081111561450d57600080fd5b8281019050602081018481111561452357600080fd5b815185600182028301116401000000008211171561454057600080fd5b5050929190602001805190602001909291908051906020019092919080519060200190929190805190602001909291908051906020019092919080519060200190929190505050505050505092505060008273ffffffffffffffffffffffffffffffffffffffff1614156145b75760009550614794565b5b600460009054906101000a900473ffffffffffffffffffffffffffffffffffffffff1673ffffffffffffffffffffffffffffffffffffffff16635f28cb7489896040518363ffffffff167c01000000000000000000000000000000000000000000000000000000000281526004018083600019166000191681526020018273ffffffffffffffffffffffffffffffffffffffff1673ffffffffffffffffffffffffffffffffffffffff168152602001925050506040805180830381600087803b15801561468457600080fd5b505af1158015614698573d6000803e3d6000fd5b505050506040513d60408110156146ae57600080fd5b81019080805190602001909291908051906020019092919050505091505060008114156146de5760009550614794565b602060405190810160405280828152508460080160008973ffffffffffffffffffffffffffffffffffffffff1673ffffffffffffffffffffffffffffffffffffffff168152602001908152602001600020600082015181600001559050508673ffffffffffffffffffffffffffffffffffffffff1688600019167f9a2546e503275a77e7c86606d6512431c9046ffc6d3e53678e2693b201275714836040518082815260200191505060405180910390a3600195505b505050505092915050565b6000806005600085600019166000191681526020019081526020016000209150600060010282600001546000191614151515614843576040517f08c379a000000000000000000000000000000000000000000000000000000000815260040180806020018281038252600e8152602001807f6572726f725f6e6f74466f756e6400000000000000000000000000000000000081525060200191505060405180910390fd5b8160080160008473ffffffffffffffffffffffffffffffffffffffff1673ffffffffffffffffffffffffffffffffffffffff16815260200190815260200160002090509250929050565b600042826000015410159050919050565b6000808383111515156148b057600080fd5b82840390508091505092915050565b60006148c9614fb7565b42836000015411156149cb5760008411151561494d576040517f08c379a00000000000000000000000000000000000000000000000000000000081526004018080602001828103825260138152602001807f6572726f725f746f705570546f6f536d616c6c0000000000000000000000000081525060200191505060405180910390fd5b614964848460000154614e9690919063ffffffff16565b91508183600001819055508473ffffffffffffffffffffffffffffffffffffffff168660000154600019167f602ca7f17c81aa5e62b3381000dd445f5af7c333574da85f4b246288afc07322846040518082815260200191505060405180910390a3614b15565b85600601548410151515614a47576040517f08c379a000000000000000000000000000000000000000000000000000000000815260040180806020018281038252601d8152602001807f6572726f725f6e6577537562736372697074696f6e546f6f536d616c6c00000081525060200191505060405180910390fd5b614a5a8442614e9690919063ffffffff16565b9150602060405190810160405280838152509050808660080160008773ffffffffffffffffffffffffffffffffffffffff1673ffffffffffffffffffffffffffffffffffffffff168152602001908152602001600020600082015181600001559050508473ffffffffffffffffffffffffffffffffffffffff168660000154600019167f9c3ab7e86c11d820cc311335294ebdf7299d8637d47253b930c4120b775d7cca846040518082815260200191505060405180910390a35b8473ffffffffffffffffffffffffffffffffffffffff168660000154600019167fe22e8c2d8a284063fec10f270bc3c776ffb40bcf816b73eef36354d5f3d7b3d4846040518082815260200191505060405180910390a3505050505050565b6060600080600080600080600560008960001916600019168152602001908152602001600020600101600560008a6000191660001916815260200190815260200160002060020160009054906101000a900473ffffffffffffffffffffffffffffffffffffffff16600560008b6000191660001916815260200190815260200160002060030160009054906101000a900473ffffffffffffffffffffffffffffffffffffffff16600560008c6000191660001916815260200190815260200160002060040154600560008d6000191660001916815260200190815260200160002060050160009054906101000a900460ff16600560008e6000191660001916815260200190815260200160002060060154600560008f6000191660001916815260200190815260200160002060070160009054906101000a900460ff16868054600181600116156101000203166002900480601f016020809104026020016040519081016040528092919081815260200182805460018160011615610100020316600290048015614d465780601f10614d1b57610100808354040283529160200191614d46565b820191906000526020600020905b815481529060010190602001808311614d2957829003601f168201915b505050505096509650965096509650965096509650919395979092949650565b81600360006101000a81548173ffffffffffffffffffffffffffffffffffffffff021916908373ffffffffffffffffffffffffffffffffffffffff16021790555082600260006101000a81548173ffffffffffffffffffffffffffffffffffffffff021916908373ffffffffffffffffffffffffffffffffffffffff16021790555080600460006101000a81548173ffffffffffffffffffffffffffffffffffffffff021916908373ffffffffffffffffffffffffffffffffffffffff160217905550505050565b6000806000841415614e435760009150614e65565b8284029050828482811515614e5457fe5b04141515614e6157600080fd5b8091505b5092915050565b600080600083111515614e7e57600080fd5b8284811515614e8957fe5b0490508091505092915050565b6000808284019050838110151515614ead57600080fd5b8091505092915050565b828054600181600116156101000203166002900490600052602060002090601f016020900481019282601f10614ef857805160ff1916838001178555614f26565b82800160010185558215614f26579182015b82811115614f25578251825591602001919060010190614f0a565b5b509050614f339190614fcb565b5090565b828054600181600116156101000203166002900490600052602060002090601f016020900481019282601f10614f7857805160ff1916838001178555614fa6565b82800160010185558215614fa6579182015b82811115614fa5578251825591602001919060010190614f8a565b5b509050614fb39190614fcb565b5090565b602060405190810160405280600081525090565b614fed91905b80821115614fe9576000816000905550600101614fd1565b5090565b905600a165627a7a723058200e3402a3a40349daf7bc0a48e29b64b9092ae38e8274798594bba765f22ca34a0029",
  "source": "// solhint-disable not-rely-on-time\npragma solidity 0.4.25;\n\nimport \"openzeppelin-solidity/contracts/token/ERC20/ERC20.sol\";\nimport \"openzeppelin-solidity/contracts/math/SafeMath.sol\";\n\nimport \"./PurchaseListener.sol\";\nimport \"./Ownable.sol\";\n\n\ncontract IMarketplace {\n    enum ProductState {\n        NotDeployed,                // non-existent or deleted\n        Deployed                    // created or redeployed\n    }\n\n    enum Currency {\n        DATA,                       // \"token wei\" (10^-18 DATA)\n        USD                         // attodollars (10^-18 USD)\n    }\n\n    function getProduct(bytes32 id) public view returns (string name, address owner, address beneficiary, uint pricePerSecond, Currency currency, uint minimumSubscriptionSeconds, ProductState state) {}\n    function getSubscription(bytes32 productId, address subscriber) public view returns (bool isValid, uint endTimestamp) {}\n    function getPriceInData(uint subscriptionSeconds, uint price, Currency unit) public view returns (uint datacoinAmount) {}\n    function buyFor(bytes32 productId, uint subscriptionSeconds, address recipient) public {}\n\n}\n\n/**\n * @title Streamr Marketplace\n * @dev note about numbers:\n *   All prices and exchange rates are in \"decimal fixed-point\", that is, scaled by 10^18, like ETH vs wei.\n *  Seconds are integers as usual.\n *\n * Next version TODO:\n *  - EIP-165 inferface definition; PurchaseListener\n */\ncontract Marketplace is Ownable, IMarketplace {\n    using SafeMath for uint256;\n\n    // product events\n    event ProductCreated(address indexed owner, bytes32 indexed id, string name, address beneficiary, uint pricePerSecond, Currency currency, uint minimumSubscriptionSeconds);\n    event ProductUpdated(address indexed owner, bytes32 indexed id, string name, address beneficiary, uint pricePerSecond, Currency currency, uint minimumSubscriptionSeconds);\n    event ProductDeleted(address indexed owner, bytes32 indexed id, string name, address beneficiary, uint pricePerSecond, Currency currency, uint minimumSubscriptionSeconds);\n    event ProductImported(address indexed owner, bytes32 indexed id, string name, address beneficiary, uint pricePerSecond, Currency currency, uint minimumSubscriptionSeconds);\n    event ProductRedeployed(address indexed owner, bytes32 indexed id, string name, address beneficiary, uint pricePerSecond, Currency currency, uint minimumSubscriptionSeconds);\n    event ProductOwnershipOffered(address indexed owner, bytes32 indexed id, address indexed to);\n    event ProductOwnershipChanged(address indexed newOwner, bytes32 indexed id, address indexed oldOwner);\n\n    // subscription events\n    event Subscribed(bytes32 indexed productId, address indexed subscriber, uint endTimestamp);\n    event NewSubscription(bytes32 indexed productId, address indexed subscriber, uint endTimestamp);\n    event SubscriptionExtended(bytes32 indexed productId, address indexed subscriber, uint endTimestamp);\n    event SubscriptionImported(bytes32 indexed productId, address indexed subscriber, uint endTimestamp);\n    event SubscriptionTransferred(bytes32 indexed productId, address indexed from, address indexed to, uint secondsTransferred);\n\n    // currency events\n    event ExchangeRatesUpdated(uint timestamp, uint dataInUsd);\n\n    struct Product {\n        bytes32 id;\n        string name;\n        address owner;\n        address beneficiary;        // account where revenue is directed to\n        uint pricePerSecond;\n        Currency priceCurrency;\n        uint minimumSubscriptionSeconds;\n        ProductState state;\n        mapping(address => TimeBasedSubscription) subscriptions;\n        address newOwnerCandidate;  // Two phase hand-over to minimize the chance that the product ownership is lost to a non-existent address.\n    }\n\n    struct TimeBasedSubscription {\n        uint endTimestamp;\n    }\n\n    /////////////// Marketplace lifecycle /////////////////\n\n    ERC20 public datacoin;\n\n    address public currencyUpdateAgent;\n    IMarketplace prev_marketplace;\n\n    constructor(address datacoinAddress, address currencyUpdateAgentAddress, address prev_marketplace_address) Ownable() public {\n        _initialize(datacoinAddress, currencyUpdateAgentAddress, prev_marketplace_address);\n    }\n\n    function _initialize(address datacoinAddress, address currencyUpdateAgentAddress, address prev_marketplace_address) internal {\n        currencyUpdateAgent = currencyUpdateAgentAddress;\n        datacoin = ERC20(datacoinAddress);\n        prev_marketplace = IMarketplace(prev_marketplace_address);\n    }\n\n    ////////////////// Product management /////////////////\n\n    mapping (bytes32 => Product) public products;\n    /*\n        checks this marketplace first, then the previous\n    */\n    function getProduct(bytes32 id) public view returns (string name, address owner, address beneficiary, uint pricePerSecond, Currency currency, uint minimumSubscriptionSeconds, ProductState state) {\n        (name, owner, beneficiary, pricePerSecond, currency, minimumSubscriptionSeconds, state) = _getProductLocal(id);\n        if (owner != 0x0)\n            return (name, owner, beneficiary, pricePerSecond, currency, minimumSubscriptionSeconds, state);\n        return prev_marketplace.getProduct(id);\n    }\n\n    /**\n    checks only this marketplace, not the previous marketplace\n     */\n\n    function _getProductLocal(bytes32 id) internal view returns (string name, address owner, address beneficiary, uint pricePerSecond, Currency currency, uint minimumSubscriptionSeconds, ProductState state) {\n\n        return (\n            products[id].name,\n            products[id].owner,\n            products[id].beneficiary,\n            products[id].pricePerSecond,\n            products[id].priceCurrency,\n            products[id].minimumSubscriptionSeconds,\n            products[id].state\n        );\n    }\n\n    // also checks that p exists: p.owner == 0 for non-existent products\n    modifier onlyProductOwner(bytes32 productId) {\n        (,address _owner,,,,,) = getProduct(productId);\n        require(_owner != 0x0, \"error_notFound\");\n        require(_owner == msg.sender || owner == msg.sender, \"error_productOwnersOnly\");\n        _;\n    }\n\n    /**\n     * Imports product details (but NOT subscription details) from previous marketplace\n     */\n    function _importProductIfNeeded(bytes32 productId) internal returns (bool imported){\n        Product storage p = products[productId];\n        if(p.id != 0x0)\n            return false;\n        (string memory _name, address _owner, address _beneficiary, uint _pricePerSecond, IMarketplace.Currency _priceCurrency, uint _minimumSubscriptionSeconds, IMarketplace.ProductState _state) = prev_marketplace.getProduct(productId);\n        if(_owner == 0x0)\n            return false;\n        p.id = productId;\n        p.name = _name;\n        p.owner = _owner;\n        p.beneficiary = _beneficiary;\n        p.pricePerSecond = _pricePerSecond;\n        p.priceCurrency = _priceCurrency;\n        p.minimumSubscriptionSeconds = _minimumSubscriptionSeconds;\n        p.state = _state;\n        emit ProductImported(p.owner, p.id, p.name, p.beneficiary, p.pricePerSecond, p.priceCurrency, p.minimumSubscriptionSeconds);\n        return true;\n    }\n\n    function _importSubscriptionIfNeeded(bytes32 productId, address subscriber) internal returns (bool imported) {\n        bool _productImported = _importProductIfNeeded(productId);\n\n        // check that subscription didn't already exist in current marketplace\n        (Product storage product, TimeBasedSubscription storage sub) = _getSubscriptionLocal(productId, subscriber);\n        if (sub.endTimestamp != 0x0) { return false; }\n\n        // check that subscription exists in the previous marketplace(s)\n        // only call prev_marketplace.getSubscription() if product exists there\n        // consider e.g. product created in current marketplace but subscription still doesn't exist\n        // if _productImported, it must have existed in previous marketplace so no need to perform check\n        if(!_productImported){\n            (,address _owner_prev,,,,,) = prev_marketplace.getProduct(productId);\n            if (_owner_prev == 0x0) { return false; }\n        }\n        (, uint _endTimestamp) = prev_marketplace.getSubscription(productId, subscriber);\n        if (_endTimestamp == 0x0) { return false; }\n        product.subscriptions[subscriber] = TimeBasedSubscription(_endTimestamp);\n        emit SubscriptionImported(productId, subscriber, _endTimestamp);\n        return true;\n    }\n\n\n    function createProduct(bytes32 id, string name, address beneficiary, uint pricePerSecond, Currency currency, uint minimumSubscriptionSeconds) public whenNotHalted {\n        require(id != 0x0, \"error_nullProductId\");\n        require(pricePerSecond > 0, \"error_freeProductsNotSupported\");\n        (,address _owner,,,,,) = getProduct(id);\n        require(_owner == 0x0, \"error_alreadyExists\");\n        Product storage p = products[id];\n        products[id] = Product({id: id, name: name, owner: msg.sender, beneficiary: beneficiary, pricePerSecond: pricePerSecond, \n            priceCurrency: currency, minimumSubscriptionSeconds: minimumSubscriptionSeconds, state: ProductState.Deployed, newOwnerCandidate: 0});\n        emit ProductCreated(msg.sender, id, name, beneficiary, pricePerSecond, currency, minimumSubscriptionSeconds);\n    }\n\n    /**\n    * Stop offering the product\n    */\n    function deleteProduct(bytes32 productId) public onlyProductOwner(productId) {\n        _importProductIfNeeded(productId);\n        Product storage p = products[productId];\n        require(p.state == ProductState.Deployed, \"error_notDeployed\");\n        p.state = ProductState.NotDeployed;\n        emit ProductDeleted(p.owner, productId, p.name, p.beneficiary, p.pricePerSecond, p.priceCurrency, p.minimumSubscriptionSeconds);\n    }\n\n    /**\n    * Return product to market\n    */\n    function redeployProduct(bytes32 productId) public onlyProductOwner(productId) {\n        _importProductIfNeeded(productId);\n        Product storage p = products[productId];\n        require(p.state == ProductState.NotDeployed, \"error_mustBeNotDeployed\");\n        p.state = ProductState.Deployed;\n        emit ProductRedeployed(p.owner, productId, p.name, p.beneficiary, p.pricePerSecond, p.priceCurrency, p.minimumSubscriptionSeconds);\n    }\n\n    function updateProduct(bytes32 productId, string name, address beneficiary, uint pricePerSecond, Currency currency, uint minimumSubscriptionSeconds) public onlyProductOwner(productId) {\n        require(pricePerSecond > 0, \"error_freeProductsNotSupported\");\n        _importProductIfNeeded(productId);\n        Product storage p = products[productId];\n        p.name = name;\n        p.beneficiary = beneficiary;\n        p.pricePerSecond = pricePerSecond;\n        p.priceCurrency = currency;\n        p.minimumSubscriptionSeconds = minimumSubscriptionSeconds;\n        emit ProductUpdated(p.owner, p.id, name, beneficiary, pricePerSecond, currency, minimumSubscriptionSeconds);\n    }\n\n    /**\n    * Changes ownership of the product. Two phase hand-over minimizes the chance that the product ownership is lost to a non-existent address.\n    */\n    function offerProductOwnership(bytes32 productId, address newOwnerCandidate) public onlyProductOwner(productId) {\n        _importProductIfNeeded(productId);\n        // that productId exists is already checked in onlyProductOwner\n        products[productId].newOwnerCandidate = newOwnerCandidate;\n        emit ProductOwnershipOffered(products[productId].owner, productId, newOwnerCandidate);\n    }\n\n    /**\n    * Changes ownership of the product. Two phase hand-over minimizes the chance that the product ownership is lost to a non-existent address.\n    */\n    function claimProductOwnership(bytes32 productId) public whenNotHalted {\n        _importProductIfNeeded(productId);\n        // also checks that productId exists (newOwnerCandidate is zero for non-existent)\n        Product storage p = products[productId];\n        require(msg.sender == p.newOwnerCandidate, \"error_notPermitted\");\n        emit ProductOwnershipChanged(msg.sender, productId, p.owner);\n        p.owner = msg.sender;\n        p.newOwnerCandidate = 0;\n    }\n\n    /////////////// Subscription management ///////////////\n\n    function getSubscription(bytes32 productId, address subscriber) public view returns (bool isValid, uint endTimestamp) {\n        (,address _owner,,,,,) = _getProductLocal(productId);\n        if(_owner == 0x0){ return prev_marketplace.getSubscription(productId,subscriber);}\n        (, TimeBasedSubscription storage sub) = _getSubscriptionLocal(productId, subscriber);\n        if(sub.endTimestamp == 0x0){\n            // only call prev_marketplace.getSubscription() if product exists in previous marketplace too\n            (,address _owner_prev,,,,,) = prev_marketplace.getProduct(productId);\n            if(_owner_prev != 0x0)\n                return prev_marketplace.getSubscription(productId,subscriber);\n        }\n        return (_isValid(sub), sub.endTimestamp);\n    }\n\n    function getSubscriptionTo(bytes32 productId) public view returns (bool isValid, uint endTimestamp) {\n        return getSubscription(productId, msg.sender);\n    }\n\n    /**\n     * Checks if the given address currently has a valid subscription\n     */\n    function hasValidSubscription(bytes32 productId, address subscriber) public view returns (bool isValid) {\n        (isValid,) = getSubscription(productId, subscriber);\n    }\n    /**\n    _subscribe invokes _addSubscription, enforces payment rules, triggers PurchaseListener event\n     */\n\n    function _subscribe(bytes32 productId, uint subscriptionSeconds, address recipient, bool requirePayment) internal {\n        _importSubscriptionIfNeeded(productId, recipient);\n        (Product storage product, TimeBasedSubscription storage subcr) = _getSubscriptionLocal(productId, recipient);\n        require(product.state == ProductState.Deployed, \"error_notDeployed\");\n        _addSubscription(product, recipient, subscriptionSeconds, subcr);\n\n        uint price = 0;\n        if (requirePayment){\n            price = getPriceInData(subscriptionSeconds, product.pricePerSecond, product.priceCurrency);\n            require(datacoin.transferFrom(msg.sender, product.beneficiary, price), \"error_paymentFailed\");\n        }\n        uint256 codeSize;\n        address addr = product.beneficiary;\n        assembly { codeSize := extcodesize(addr) }  // solhint-disable-line no-inline-assembly\n        if (codeSize > 0) {\n            require(PurchaseListener(product.beneficiary).onPurchase(productId, recipient, subcr.endTimestamp, price));\n        }\n    }\n\n    function grantSubscription(bytes32 productId, uint subscriptionSeconds, address recipient) public whenNotHalted onlyProductOwner(productId){\n        return _subscribe(productId, subscriptionSeconds, recipient, false);\n    }\n\n\n    function buyFor(bytes32 productId, uint subscriptionSeconds, address recipient)  public whenNotHalted {\n        return _subscribe(productId, subscriptionSeconds, recipient, true);\n    }\n\n\n     /**\n     * Purchases access to this stream for msg.sender.\n     * If the address already has a valid subscription, extends the subscription by the given period.\n     * @dev since v4.0: Notify the seller if the seller implements PurchaseListener interface\n     */\n    function buy(bytes32 productId, uint subscriptionSeconds) public whenNotHalted {\n        buyFor(productId,subscriptionSeconds, msg.sender);\n    }\n\n\n\n    /**\n    * Transfer a valid subscription from msg.sender to a new address.\n    * If the address already has a valid subscription, extends the subscription by the msg.sender's remaining period.\n    */\n    function transferSubscription(bytes32 productId, address newSubscriber) public whenNotHalted {\n        _importSubscriptionIfNeeded(productId, msg.sender);\n        (Product storage product, TimeBasedSubscription storage sub) = _getSubscriptionLocal(productId, msg.sender);\n        require(_isValid(sub), \"error_subscriptionNotValid\");\n        uint secondsLeft = sub.endTimestamp.sub(block.timestamp);\n        TimeBasedSubscription storage newSub = product.subscriptions[newSubscriber];\n        _addSubscription(product, newSubscriber, secondsLeft, newSub);\n        //insert a dummy expired subscription to delete because the previous marketplace is read-only\n        product.subscriptions[msg.sender] = TimeBasedSubscription(1);\n        emit SubscriptionTransferred(productId, msg.sender, newSubscriber, secondsLeft);\n    }\n\n    /**\n        gets subscriptions info from the subscriptions stored in this contract\n     */\n    function _getSubscriptionLocal(bytes32 productId, address subscriber) internal view returns (Product storage p, TimeBasedSubscription storage s) {\n        p = products[productId];\n        require(p.id != 0x0, \"error_notFound\");\n        s = p.subscriptions[subscriber];\n    }\n\n    function _isValid(TimeBasedSubscription storage s) internal view returns (bool) {\n        return s.endTimestamp >= block.timestamp;\n    }\n\n    function _addSubscription(Product storage p, address subscriber, uint addSeconds, TimeBasedSubscription storage oldSub) internal {\n        uint endTimestamp;\n        if (oldSub.endTimestamp > block.timestamp) {\n            require(addSeconds > 0, \"error_topUpTooSmall\");\n            endTimestamp = oldSub.endTimestamp.add(addSeconds);\n            oldSub.endTimestamp = endTimestamp;\n            emit SubscriptionExtended(p.id, subscriber, endTimestamp);\n        } else {\n            require(addSeconds >= p.minimumSubscriptionSeconds, \"error_newSubscriptionTooSmall\");\n            endTimestamp = block.timestamp.add(addSeconds);\n            TimeBasedSubscription memory newSub = TimeBasedSubscription(endTimestamp);\n            p.subscriptions[subscriber] = newSub;\n            emit NewSubscription(p.id, subscriber, endTimestamp);\n        }\n        emit Subscribed(p.id, subscriber, endTimestamp);\n    }\n\n    // TODO: transfer allowance to another Marketplace contract\n    // Mechanism basically is that this Marketplace draws from the allowance and credits\n    //   the account on another Marketplace; OR that there is a central credit pool (say, an ERC20 token)\n    // Creating another ERC20 token for this could be a simple fix: it would need the ability to transfer allowances\n\n    /////////////// Currency management ///////////////\n\n    // Exchange rates are formatted as \"decimal fixed-point\", that is, scaled by 10^18, like ether.\n    //        Exponent: 10^18 15 12  9  6  3  0\n    //                      |  |  |  |  |  |  |\n    uint public dataPerUsd = 100000000000000000;   // ~= 0.1 DATA/USD\n\n    /**\n    * Update currency exchange rates; all purchases are still billed in DATAcoin\n    * @param timestamp in seconds when the exchange rates were last updated\n    * @param dataUsd how many data atoms (10^-18 DATA) equal one USD dollar\n    */\n    function updateExchangeRates(uint timestamp, uint dataUsd) public {\n        require(msg.sender == currencyUpdateAgent, \"error_notPermitted\");\n        require(dataUsd > 0);\n        dataPerUsd = dataUsd;\n        emit ExchangeRatesUpdated(timestamp, dataUsd);\n    }\n\n    /**\n    * Helper function to calculate (hypothetical) subscription cost for given seconds and price, using current exchange rates.\n    * @param subscriptionSeconds length of hypothetical subscription, as a non-scaled integer\n    * @param price nominal price scaled by 10^18 (\"token wei\" or \"attodollars\")\n    * @param unit unit of the number price\n    */\n    function getPriceInData(uint subscriptionSeconds, uint price, Currency unit) public view returns (uint datacoinAmount) {\n        if (unit == Currency.DATA) {\n            return price.mul(subscriptionSeconds);\n        }\n        return price.mul(dataPerUsd).div(10**18).mul(subscriptionSeconds);\n    }\n\n    /////////////// Admin functionality ///////////////\n\n    event Halted();\n    event Resumed();\n    bool public halted = false;\n\n    modifier whenNotHalted() {\n        require(!halted || owner == msg.sender, \"error_halted\");\n        _;\n    }\n    function halt() public onlyOwner {\n        halted = true;\n        emit Halted();\n    }\n    function resume() public onlyOwner {\n        halted = false;\n        emit Resumed();\n    }\n\n    function reInitialize(address datacoinAddress, address currencyUpdateAgentAddress, address prev_marketplace_address) public onlyOwner {\n        _initialize(datacoinAddress, currencyUpdateAgentAddress, prev_marketplace_address);\n    }\n}",
  "sourcePath": "/Users/jtakalai/Documents/workspace/marketplace-contracts/contracts/Marketplace.sol",
  "compiler": {
    "name": "solc",
    "version": "0.4.25+commit.59dbf8f1.Emscripten.clang"
  },
  "schemaVersion": "2.0.2",
  "updatedAt": "2019-03-15T09:39:41.304Z"
}