{
  "contractName": "Marketplace",
  "abi": [
    {
      "constant": false,
      "inputs": [],
      "name": "claimOwnership",
      "outputs": [],
      "payable": false,
      "stateMutability": "nonpayable",
      "type": "function"
    },
    {
      "constant": true,
      "inputs": [
        {
          "name": "",
          "type": "bytes32"
        }
      ],
      "name": "products",
      "outputs": [
        {
          "name": "id",
          "type": "bytes32"
        },
        {
          "name": "name",
          "type": "string"
        },
        {
          "name": "owner",
          "type": "address"
        },
        {
          "name": "beneficiary",
          "type": "address"
        },
        {
          "name": "pricePerSecond",
          "type": "uint256"
        },
        {
          "name": "priceCurrency",
          "type": "uint8"
        },
        {
          "name": "minimumSubscriptionSeconds",
          "type": "uint256"
        },
        {
          "name": "state",
          "type": "uint8"
        },
        {
          "name": "newOwnerCandidate",
          "type": "address"
        },
        {
          "name": "requiresWhitelist",
          "type": "bool"
        }
      ],
      "payable": false,
      "stateMutability": "view",
      "type": "function"
    },
    {
      "constant": true,
      "inputs": [],
      "name": "datacoin",
      "outputs": [
        {
          "name": "",
          "type": "address"
        }
      ],
      "payable": false,
      "stateMutability": "view",
      "type": "function"
    },
    {
      "constant": true,
      "inputs": [],
      "name": "currencyUpdateAgent",
      "outputs": [
        {
          "name": "",
          "type": "address"
        }
      ],
      "payable": false,
      "stateMutability": "view",
      "type": "function"
    },
    {
      "constant": true,
      "inputs": [],
      "name": "owner",
      "outputs": [
        {
          "name": "",
          "type": "address"
        }
      ],
      "payable": false,
      "stateMutability": "view",
      "type": "function"
    },
    {
      "constant": true,
      "inputs": [],
      "name": "halted",
      "outputs": [
        {
          "name": "",
          "type": "bool"
        }
      ],
      "payable": false,
      "stateMutability": "view",
      "type": "function"
    },
    {
      "constant": true,
      "inputs": [],
      "name": "dataPerUsd",
      "outputs": [
        {
          "name": "",
          "type": "uint256"
        }
      ],
      "payable": false,
      "stateMutability": "view",
      "type": "function"
    },
    {
      "constant": true,
      "inputs": [],
      "name": "pendingOwner",
      "outputs": [
        {
          "name": "",
          "type": "address"
        }
      ],
      "payable": false,
      "stateMutability": "view",
      "type": "function"
    },
    {
      "constant": false,
      "inputs": [
        {
          "name": "newOwner",
          "type": "address"
        }
      ],
      "name": "transferOwnership",
      "outputs": [],
      "payable": false,
      "stateMutability": "nonpayable",
      "type": "function"
    },
    {
      "inputs": [
        {
          "name": "datacoinAddress",
          "type": "address"
        },
        {
          "name": "currencyUpdateAgentAddress",
          "type": "address"
        },
        {
          "name": "prev_marketplace_address",
          "type": "address"
        }
      ],
      "payable": false,
      "stateMutability": "nonpayable",
      "type": "constructor"
    },
    {
      "anonymous": false,
      "inputs": [
        {
          "indexed": true,
          "name": "owner",
          "type": "address"
        },
        {
          "indexed": true,
          "name": "id",
          "type": "bytes32"
        },
        {
          "indexed": false,
          "name": "name",
          "type": "string"
        },
        {
          "indexed": false,
          "name": "beneficiary",
          "type": "address"
        },
        {
          "indexed": false,
          "name": "pricePerSecond",
          "type": "uint256"
        },
        {
          "indexed": false,
          "name": "currency",
          "type": "uint8"
        },
        {
          "indexed": false,
          "name": "minimumSubscriptionSeconds",
          "type": "uint256"
        }
      ],
      "name": "ProductCreated",
      "type": "event"
    },
    {
      "anonymous": false,
      "inputs": [
        {
          "indexed": true,
          "name": "owner",
          "type": "address"
        },
        {
          "indexed": true,
          "name": "id",
          "type": "bytes32"
        },
        {
          "indexed": false,
          "name": "name",
          "type": "string"
        },
        {
          "indexed": false,
          "name": "beneficiary",
          "type": "address"
        },
        {
          "indexed": false,
          "name": "pricePerSecond",
          "type": "uint256"
        },
        {
          "indexed": false,
          "name": "currency",
          "type": "uint8"
        },
        {
          "indexed": false,
          "name": "minimumSubscriptionSeconds",
          "type": "uint256"
        }
      ],
      "name": "ProductUpdated",
      "type": "event"
    },
    {
      "anonymous": false,
      "inputs": [
        {
          "indexed": true,
          "name": "owner",
          "type": "address"
        },
        {
          "indexed": true,
          "name": "id",
          "type": "bytes32"
        },
        {
          "indexed": false,
          "name": "name",
          "type": "string"
        },
        {
          "indexed": false,
          "name": "beneficiary",
          "type": "address"
        },
        {
          "indexed": false,
          "name": "pricePerSecond",
          "type": "uint256"
        },
        {
          "indexed": false,
          "name": "currency",
          "type": "uint8"
        },
        {
          "indexed": false,
          "name": "minimumSubscriptionSeconds",
          "type": "uint256"
        }
      ],
      "name": "ProductDeleted",
      "type": "event"
    },
    {
      "anonymous": false,
      "inputs": [
        {
          "indexed": true,
          "name": "owner",
          "type": "address"
        },
        {
          "indexed": true,
          "name": "id",
          "type": "bytes32"
        },
        {
          "indexed": false,
          "name": "name",
          "type": "string"
        },
        {
          "indexed": false,
          "name": "beneficiary",
          "type": "address"
        },
        {
          "indexed": false,
          "name": "pricePerSecond",
          "type": "uint256"
        },
        {
          "indexed": false,
          "name": "currency",
          "type": "uint8"
        },
        {
          "indexed": false,
          "name": "minimumSubscriptionSeconds",
          "type": "uint256"
        }
      ],
      "name": "ProductImported",
      "type": "event"
    },
    {
      "anonymous": false,
      "inputs": [
        {
          "indexed": true,
          "name": "owner",
          "type": "address"
        },
        {
          "indexed": true,
          "name": "id",
          "type": "bytes32"
        },
        {
          "indexed": false,
          "name": "name",
          "type": "string"
        },
        {
          "indexed": false,
          "name": "beneficiary",
          "type": "address"
        },
        {
          "indexed": false,
          "name": "pricePerSecond",
          "type": "uint256"
        },
        {
          "indexed": false,
          "name": "currency",
          "type": "uint8"
        },
        {
          "indexed": false,
          "name": "minimumSubscriptionSeconds",
          "type": "uint256"
        }
      ],
      "name": "ProductRedeployed",
      "type": "event"
    },
    {
      "anonymous": false,
      "inputs": [
        {
          "indexed": true,
          "name": "owner",
          "type": "address"
        },
        {
          "indexed": true,
          "name": "id",
          "type": "bytes32"
        },
        {
          "indexed": true,
          "name": "to",
          "type": "address"
        }
      ],
      "name": "ProductOwnershipOffered",
      "type": "event"
    },
    {
      "anonymous": false,
      "inputs": [
        {
          "indexed": true,
          "name": "newOwner",
          "type": "address"
        },
        {
          "indexed": true,
          "name": "id",
          "type": "bytes32"
        },
        {
          "indexed": true,
          "name": "oldOwner",
          "type": "address"
        }
      ],
      "name": "ProductOwnershipChanged",
      "type": "event"
    },
    {
      "anonymous": false,
      "inputs": [
        {
          "indexed": true,
          "name": "productId",
          "type": "bytes32"
        },
        {
          "indexed": true,
          "name": "subscriber",
          "type": "address"
        },
        {
          "indexed": false,
          "name": "endTimestamp",
          "type": "uint256"
        }
      ],
      "name": "Subscribed",
      "type": "event"
    },
    {
      "anonymous": false,
      "inputs": [
        {
          "indexed": true,
          "name": "productId",
          "type": "bytes32"
        },
        {
          "indexed": true,
          "name": "subscriber",
          "type": "address"
        },
        {
          "indexed": false,
          "name": "endTimestamp",
          "type": "uint256"
        }
      ],
      "name": "NewSubscription",
      "type": "event"
    },
    {
      "anonymous": false,
      "inputs": [
        {
          "indexed": true,
          "name": "productId",
          "type": "bytes32"
        },
        {
          "indexed": true,
          "name": "subscriber",
          "type": "address"
        },
        {
          "indexed": false,
          "name": "endTimestamp",
          "type": "uint256"
        }
      ],
      "name": "SubscriptionExtended",
      "type": "event"
    },
    {
      "anonymous": false,
      "inputs": [
        {
          "indexed": true,
          "name": "productId",
          "type": "bytes32"
        },
        {
          "indexed": true,
          "name": "subscriber",
          "type": "address"
        },
        {
          "indexed": false,
          "name": "endTimestamp",
          "type": "uint256"
        }
      ],
      "name": "SubscriptionImported",
      "type": "event"
    },
    {
      "anonymous": false,
      "inputs": [
        {
          "indexed": true,
          "name": "productId",
          "type": "bytes32"
        },
        {
          "indexed": true,
          "name": "from",
          "type": "address"
        },
        {
          "indexed": true,
          "name": "to",
          "type": "address"
        },
        {
          "indexed": false,
          "name": "secondsTransferred",
          "type": "uint256"
        }
      ],
      "name": "SubscriptionTransferred",
      "type": "event"
    },
    {
      "anonymous": false,
      "inputs": [
        {
          "indexed": false,
          "name": "timestamp",
          "type": "uint256"
        },
        {
          "indexed": false,
          "name": "dataInUsd",
          "type": "uint256"
        }
      ],
      "name": "ExchangeRatesUpdated",
      "type": "event"
    },
    {
      "anonymous": false,
      "inputs": [
        {
          "indexed": true,
          "name": "productId",
          "type": "bytes32"
        },
        {
          "indexed": true,
          "name": "subscriber",
          "type": "address"
        }
      ],
      "name": "WhitelistRequested",
      "type": "event"
    },
    {
      "anonymous": false,
      "inputs": [
        {
          "indexed": true,
          "name": "productId",
          "type": "bytes32"
        },
        {
          "indexed": true,
          "name": "subscriber",
          "type": "address"
        }
      ],
      "name": "WhitelistApproved",
      "type": "event"
    },
    {
      "anonymous": false,
      "inputs": [
        {
          "indexed": true,
          "name": "productId",
          "type": "bytes32"
        },
        {
          "indexed": true,
          "name": "subscriber",
          "type": "address"
        }
      ],
      "name": "WhitelistRejected",
      "type": "event"
    },
    {
      "anonymous": false,
      "inputs": [
        {
          "indexed": true,
          "name": "productId",
          "type": "bytes32"
        }
      ],
      "name": "WhitelistEnabled",
      "type": "event"
    },
    {
      "anonymous": false,
      "inputs": [
        {
          "indexed": true,
          "name": "productId",
          "type": "bytes32"
        }
      ],
      "name": "WhitelistDisabled",
      "type": "event"
    },
    {
      "anonymous": false,
      "inputs": [],
      "name": "Halted",
      "type": "event"
    },
    {
      "anonymous": false,
      "inputs": [],
      "name": "Resumed",
      "type": "event"
    },
    {
      "anonymous": false,
      "inputs": [
        {
          "indexed": true,
          "name": "previousOwner",
          "type": "address"
        },
        {
          "indexed": true,
          "name": "newOwner",
          "type": "address"
        }
      ],
      "name": "OwnershipTransferred",
      "type": "event"
    },
    {
      "constant": true,
      "inputs": [
        {
          "name": "id",
          "type": "bytes32"
        }
      ],
      "name": "getProduct",
      "outputs": [
        {
          "name": "name",
          "type": "string"
        },
        {
          "name": "owner",
          "type": "address"
        },
        {
          "name": "beneficiary",
          "type": "address"
        },
        {
          "name": "pricePerSecond",
          "type": "uint256"
        },
        {
          "name": "currency",
          "type": "uint8"
        },
        {
          "name": "minimumSubscriptionSeconds",
          "type": "uint256"
        },
        {
          "name": "state",
          "type": "uint8"
        }
      ],
      "payable": false,
      "stateMutability": "view",
      "type": "function"
    },
    {
      "constant": false,
      "inputs": [
        {
          "name": "id",
          "type": "bytes32"
        },
        {
          "name": "name",
          "type": "string"
        },
        {
          "name": "beneficiary",
          "type": "address"
        },
        {
          "name": "pricePerSecond",
          "type": "uint256"
        },
        {
          "name": "currency",
          "type": "uint8"
        },
        {
          "name": "minimumSubscriptionSeconds",
          "type": "uint256"
        },
        {
          "name": "requiresWhitelist",
          "type": "bool"
        }
      ],
      "name": "createProductWhitelist",
      "outputs": [],
      "payable": false,
      "stateMutability": "nonpayable",
      "type": "function"
    },
    {
      "constant": false,
      "inputs": [
        {
          "name": "id",
          "type": "bytes32"
        },
        {
          "name": "name",
          "type": "string"
        },
        {
          "name": "beneficiary",
          "type": "address"
        },
        {
          "name": "pricePerSecond",
          "type": "uint256"
        },
        {
          "name": "currency",
          "type": "uint8"
        },
        {
          "name": "minimumSubscriptionSeconds",
          "type": "uint256"
        }
      ],
      "name": "createProduct",
      "outputs": [],
      "payable": false,
      "stateMutability": "nonpayable",
      "type": "function"
    },
    {
      "constant": false,
      "inputs": [
        {
          "name": "productId",
          "type": "bytes32"
        }
      ],
      "name": "deleteProduct",
      "outputs": [],
      "payable": false,
      "stateMutability": "nonpayable",
      "type": "function"
    },
    {
      "constant": false,
      "inputs": [
        {
          "name": "productId",
          "type": "bytes32"
        }
      ],
      "name": "redeployProduct",
      "outputs": [],
      "payable": false,
      "stateMutability": "nonpayable",
      "type": "function"
    },
    {
      "constant": false,
      "inputs": [
        {
          "name": "productId",
          "type": "bytes32"
        },
        {
          "name": "name",
          "type": "string"
        },
        {
          "name": "beneficiary",
          "type": "address"
        },
        {
          "name": "pricePerSecond",
          "type": "uint256"
        },
        {
          "name": "currency",
          "type": "uint8"
        },
        {
          "name": "minimumSubscriptionSeconds",
          "type": "uint256"
        }
      ],
      "name": "updateProduct",
      "outputs": [],
      "payable": false,
      "stateMutability": "nonpayable",
      "type": "function"
    },
    {
      "constant": false,
      "inputs": [
        {
          "name": "productId",
          "type": "bytes32"
        },
        {
          "name": "newOwnerCandidate",
          "type": "address"
        }
      ],
      "name": "offerProductOwnership",
      "outputs": [],
      "payable": false,
      "stateMutability": "nonpayable",
      "type": "function"
    },
    {
      "constant": false,
      "inputs": [
        {
          "name": "productId",
          "type": "bytes32"
        }
      ],
      "name": "claimProductOwnership",
      "outputs": [],
      "payable": false,
      "stateMutability": "nonpayable",
      "type": "function"
    },
    {
      "constant": true,
      "inputs": [
        {
          "name": "productId",
          "type": "bytes32"
        },
        {
          "name": "subscriber",
          "type": "address"
        }
      ],
      "name": "getSubscription",
      "outputs": [
        {
          "name": "isValid",
          "type": "bool"
        },
        {
          "name": "endTimestamp",
          "type": "uint256"
        }
      ],
      "payable": false,
      "stateMutability": "view",
      "type": "function"
    },
    {
      "constant": true,
      "inputs": [
        {
          "name": "productId",
          "type": "bytes32"
        }
      ],
      "name": "getSubscriptionTo",
      "outputs": [
        {
          "name": "isValid",
          "type": "bool"
        },
        {
          "name": "endTimestamp",
          "type": "uint256"
        }
      ],
      "payable": false,
      "stateMutability": "view",
      "type": "function"
    },
    {
      "constant": true,
      "inputs": [
        {
          "name": "productId",
          "type": "bytes32"
        },
        {
          "name": "subscriber",
          "type": "address"
        }
      ],
      "name": "hasValidSubscription",
      "outputs": [
        {
          "name": "isValid",
          "type": "bool"
        }
      ],
      "payable": false,
      "stateMutability": "view",
      "type": "function"
    },
    {
      "constant": false,
      "inputs": [
        {
          "name": "productId",
          "type": "bytes32"
        },
        {
          "name": "subscriptionSeconds",
          "type": "uint256"
        },
        {
          "name": "recipient",
          "type": "address"
        }
      ],
      "name": "grantSubscription",
      "outputs": [],
      "payable": false,
      "stateMutability": "nonpayable",
      "type": "function"
    },
    {
      "constant": false,
      "inputs": [
        {
          "name": "productId",
          "type": "bytes32"
        },
        {
          "name": "subscriptionSeconds",
          "type": "uint256"
        },
        {
          "name": "recipient",
          "type": "address"
        }
      ],
      "name": "buyFor",
      "outputs": [],
      "payable": false,
      "stateMutability": "nonpayable",
      "type": "function"
    },
    {
      "constant": false,
      "inputs": [
        {
          "name": "productId",
          "type": "bytes32"
        },
        {
          "name": "subscriptionSeconds",
          "type": "uint256"
        }
      ],
      "name": "buy",
      "outputs": [],
      "payable": false,
      "stateMutability": "nonpayable",
      "type": "function"
    },
    {
      "constant": false,
      "inputs": [
        {
          "name": "timestamp",
          "type": "uint256"
        },
        {
          "name": "dataUsd",
          "type": "uint256"
        }
      ],
      "name": "updateExchangeRates",
      "outputs": [],
      "payable": false,
      "stateMutability": "nonpayable",
      "type": "function"
    },
    {
      "constant": true,
      "inputs": [
        {
          "name": "subscriptionSeconds",
          "type": "uint256"
        },
        {
          "name": "price",
          "type": "uint256"
        },
        {
          "name": "unit",
          "type": "uint8"
        }
      ],
      "name": "getPriceInData",
      "outputs": [
        {
          "name": "datacoinAmount",
          "type": "uint256"
        }
      ],
      "payable": false,
      "stateMutability": "view",
      "type": "function"
    },
    {
      "constant": false,
      "inputs": [],
      "name": "halt",
      "outputs": [],
      "payable": false,
      "stateMutability": "nonpayable",
      "type": "function"
    },
    {
      "constant": false,
      "inputs": [],
      "name": "resume",
      "outputs": [],
      "payable": false,
      "stateMutability": "nonpayable",
      "type": "function"
    },
    {
      "constant": false,
      "inputs": [
        {
          "name": "datacoinAddress",
          "type": "address"
        },
        {
          "name": "currencyUpdateAgentAddress",
          "type": "address"
        },
        {
          "name": "prev_marketplace_address",
          "type": "address"
        }
      ],
      "name": "reInitialize",
      "outputs": [],
      "payable": false,
      "stateMutability": "nonpayable",
      "type": "function"
    },
    {
      "constant": true,
      "inputs": [
        {
          "name": "productId",
          "type": "bytes32"
        }
      ],
      "name": "getRequiresWhitelist",
      "outputs": [
        {
          "name": "",
          "type": "bool"
        }
      ],
      "payable": false,
      "stateMutability": "view",
      "type": "function"
    },
    {
      "constant": false,
      "inputs": [
        {
          "name": "productId",
          "type": "bytes32"
        },
        {
          "name": "_requiresWhitelist",
          "type": "bool"
        }
      ],
      "name": "setRequiresWhitelist",
      "outputs": [],
      "payable": false,
      "stateMutability": "nonpayable",
      "type": "function"
    },
    {
      "constant": false,
      "inputs": [
        {
          "name": "productId",
          "type": "bytes32"
        },
        {
          "name": "subscriber",
          "type": "address"
        }
      ],
      "name": "whitelistApprove",
      "outputs": [],
      "payable": false,
      "stateMutability": "nonpayable",
      "type": "function"
    },
    {
      "constant": false,
      "inputs": [
        {
          "name": "productId",
          "type": "bytes32"
        },
        {
          "name": "subscriber",
          "type": "address"
        }
      ],
      "name": "whitelistReject",
      "outputs": [],
      "payable": false,
      "stateMutability": "nonpayable",
      "type": "function"
    },
    {
      "constant": false,
      "inputs": [
        {
          "name": "productId",
          "type": "bytes32"
        }
      ],
      "name": "whitelistRequest",
      "outputs": [],
      "payable": false,
      "stateMutability": "nonpayable",
      "type": "function"
    }
  ],
  "bytecode": "0x608060405267016345785d8a00006006556000600760006101000a81548160ff0219169083151502179055503480156200003857600080fd5b50604051606080620060ba833981018060405281019080805190602001909291908051906020019092919080519060200190929190505050336000806101000a81548173ffffffffffffffffffffffffffffffffffffffff021916908373ffffffffffffffffffffffffffffffffffffffff160217905550620000cc838383620000d5640100000000026401000000009004565b5050506200019d565b81600360006101000a81548173ffffffffffffffffffffffffffffffffffffffff021916908373ffffffffffffffffffffffffffffffffffffffff16021790555082600260006101000a81548173ffffffffffffffffffffffffffffffffffffffff021916908373ffffffffffffffffffffffffffffffffffffffff16021790555080600460006101000a81548173ffffffffffffffffffffffffffffffffffffffff021916908373ffffffffffffffffffffffffffffffffffffffff160217905550505050565b615f0d80620001ad6000396000f3006080604052600436106101a1576000357c0100000000000000000000000000000000000000000000000000000000900463ffffffff16806303987512146101a6578063046f7da21461020157806308f8613c146102185780630ddeb632146102dc5780631a464fa1146103175780631f4e09af1461034857806325cc3a20146103a35780633a20e9df146103f45780634a54fb0a1461053c5780634d8a9499146105f45780634e71e0c81461064557806353f81ef81461065c57806358f816bf146106ac5780635ed7ca5b146106dd5780635f28cb74146106f4578063790543911461076457806379c88f20146108f957806389aaad29146109505780638da5cb5b146109a757806394727b41146109fe57806396002aef14610a2f578063a4b138b014610a80578063b14f843214610b03578063b8b378c814610b6c578063b9b8af0b14610bb5578063bee7d43314610be4578063cafbc49d14610c3c578063d50a04f414610cf4578063db6c709c14610d1f578063de22732414610d56578063e0d5b9e114610d93578063e30c397814610dc4578063f2fde38b14610e1b575b600080fd5b3480156101b257600080fd5b506101ff600480360381019080803560001916906020019092919080359060200190929190803573ffffffffffffffffffffffffffffffffffffffff169060200190929190505050610e5e565b005b34801561020d57600080fd5b50610216610f4c565b005b34801561022457600080fd5b506102da6004803603810190808035600019169060200190929190803590602001908201803590602001908080601f0160208091040260200160405190810160405280939291908181526020018383808284378201915050505050509192919290803573ffffffffffffffffffffffffffffffffffffffff16906020019092919080359060200190929190803560ff16906020019092919080359060200190929190803515159060200190929190505050611059565b005b3480156102e857600080fd5b50610315600480360381019080803560001916906020019092919080359060200190929190505050611657565b005b34801561032357600080fd5b506103466004803603810190808035600019169060200190929190505050611742565b005b34801561035457600080fd5b506103a1600480360381019080803560001916906020019092919080359060200190929190803573ffffffffffffffffffffffffffffffffffffffff169060200190929190505050611a1b565b005b3480156103af57600080fd5b506103f26004803603810190808035600019169060200190929190803573ffffffffffffffffffffffffffffffffffffffff169060200190929190505050611ca8565b005b34801561040057600080fd5b50610423600480360381019080803560001916906020019092919050505061202a565b60405180806020018873ffffffffffffffffffffffffffffffffffffffff1673ffffffffffffffffffffffffffffffffffffffff1681526020018773ffffffffffffffffffffffffffffffffffffffff1673ffffffffffffffffffffffffffffffffffffffff1681526020018681526020018560018111156104a157fe5b60ff1681526020018481526020018360018111156104bb57fe5b60ff168152602001828103825289818151815260200191508051906020019080838360005b838110156104fb5780820151818401526020810190506104e0565b50505050905090810190601f1680156105285780820380516001836020036101000a031916815260200191505b509850505050505050505060405180910390f35b34801561054857600080fd5b506105f26004803603810190808035600019169060200190929190803590602001908201803590602001908080601f0160208091040260200160405190810160405280939291908181526020018383808284378201915050505050509192919290803573ffffffffffffffffffffffffffffffffffffffff16906020019092919080359060200190929190803560ff16906020019092919080359060200190929190505050612217565b005b34801561060057600080fd5b506106436004803603810190808035600019169060200190929190803573ffffffffffffffffffffffffffffffffffffffff16906020019092919050505061262d565b005b34801561065157600080fd5b5061065a6129af565b005b34801561066857600080fd5b5061068b6004803603810190808035600019169060200190929190505050612bb7565b60405180831515151581526020018281526020019250505060405180910390f35b3480156106b857600080fd5b506106db6004803603810190808035600019169060200190929190505050612bcd565b005b3480156106e957600080fd5b506106f2612ff1565b005b34801561070057600080fd5b506107436004803603810190808035600019169060200190929190803573ffffffffffffffffffffffffffffffffffffffff1690602001909291905050506130fe565b60405180831515151581526020018281526020019250505060405180910390f35b34801561077057600080fd5b506107936004803603810190808035600019169060200190929190505050613533565b604051808b60001916600019168152602001806020018a73ffffffffffffffffffffffffffffffffffffffff1673ffffffffffffffffffffffffffffffffffffffff1681526020018973ffffffffffffffffffffffffffffffffffffffff1673ffffffffffffffffffffffffffffffffffffffff16815260200188815260200187600181111561081f57fe5b60ff16815260200186815260200185600181111561083957fe5b60ff1681526020018473ffffffffffffffffffffffffffffffffffffffff1673ffffffffffffffffffffffffffffffffffffffff1681526020018315151515815260200182810382528b818151815260200191508051906020019080838360005b838110156108b557808201518184015260208101905061089a565b50505050905090810190601f1680156108e25780820380516001836020036101000a031916815260200191505b509b50505050505050505050505060405180910390f35b34801561090557600080fd5b5061090e6136a6565b604051808273ffffffffffffffffffffffffffffffffffffffff1673ffffffffffffffffffffffffffffffffffffffff16815260200191505060405180910390f35b34801561095c57600080fd5b506109656136cc565b604051808273ffffffffffffffffffffffffffffffffffffffff1673ffffffffffffffffffffffffffffffffffffffff16815260200191505060405180910390f35b3480156109b357600080fd5b506109bc6136f2565b604051808273ffffffffffffffffffffffffffffffffffffffff1673ffffffffffffffffffffffffffffffffffffffff16815260200191505060405180910390f35b348015610a0a57600080fd5b50610a2d6004803603810190808035600019169060200190929190505050613717565b005b348015610a3b57600080fd5b50610a7e6004803603810190808035600019169060200190929190803573ffffffffffffffffffffffffffffffffffffffff169060200190929190505050613b3a565b005b348015610a8c57600080fd5b50610b01600480360381019080803573ffffffffffffffffffffffffffffffffffffffff169060200190929190803573ffffffffffffffffffffffffffffffffffffffff169060200190929190803573ffffffffffffffffffffffffffffffffffffffff169060200190929190505050613de1565b005b348015610b0f57600080fd5b50610b526004803603810190808035600019169060200190929190803573ffffffffffffffffffffffffffffffffffffffff169060200190929190505050613eb5565b604051808215151515815260200191505060405180910390f35b348015610b7857600080fd5b50610b9b6004803603810190808035600019169060200190929190505050613ecc565b604051808215151515815260200191505060405180910390f35b348015610bc157600080fd5b50610bca613fa9565b604051808215151515815260200191505060405180910390f35b348015610bf057600080fd5b50610c266004803603810190808035906020019092919080359060200190929190803560ff169060200190929190505050613fbc565b6040518082815260200191505060405180910390f35b348015610c4857600080fd5b50610cf26004803603810190808035600019169060200190929190803590602001908201803590602001908080601f0160208091040260200160405190810160405280939291908181526020018383808284378201915050505050509192919290803573ffffffffffffffffffffffffffffffffffffffff16906020019092919080359060200190929190803560ff16906020019092919080359060200190929190505050614041565b005b348015610d0057600080fd5b50610d09614135565b6040518082815260200191505060405180910390f35b348015610d2b57600080fd5b50610d54600480360381019080803590602001909291908035906020019092919050505061413b565b005b348015610d6257600080fd5b50610d916004803603810190808035600019169060200190929190803515159060200190929190505050614259565b005b348015610d9f57600080fd5b50610dc26004803603810190808035600019169060200190929190505050614534565b005b348015610dd057600080fd5b50610dd9614818565b604051808273ffffffffffffffffffffffffffffffffffffffff1673ffffffffffffffffffffffffffffffffffffffff16815260200191505060405180910390f35b348015610e2757600080fd5b50610e5c600480360381019080803573ffffffffffffffffffffffffffffffffffffffff16906020019092919050505061483e565b005b600760009054906101000a900460ff161580610ec657503373ffffffffffffffffffffffffffffffffffffffff166000809054906101000a900473ffffffffffffffffffffffffffffffffffffffff1673ffffffffffffffffffffffffffffffffffffffff16145b1515610f3a576040517f08c379a000000000000000000000000000000000000000000000000000000000815260040180806020018281038252600c8152602001807f6572726f725f68616c746564000000000000000000000000000000000000000081525060200191505060405180910390fd5b610f478383836001614946565b505050565b6000809054906101000a900473ffffffffffffffffffffffffffffffffffffffff1673ffffffffffffffffffffffffffffffffffffffff163373ffffffffffffffffffffffffffffffffffffffff16141515611010576040517f08c379a00000000000000000000000000000000000000000000000000000000081526004018080602001828103825260098152602001807f6f6e6c794f776e6572000000000000000000000000000000000000000000000081525060200191505060405180910390fd5b6000600760006101000a81548160ff0219169083151502179055507f62451d457bc659158be6e6247f56ec1df424a5c7597f71c20c2bc44e0965c8f960405160405180910390a1565b600080600760009054906101000a900460ff1615806110c457503373ffffffffffffffffffffffffffffffffffffffff166000809054906101000a900473ffffffffffffffffffffffffffffffffffffffff1673ffffffffffffffffffffffffffffffffffffffff16145b1515611138576040517f08c379a000000000000000000000000000000000000000000000000000000000815260040180806020018281038252600c8152602001807f6572726f725f68616c746564000000000000000000000000000000000000000081525060200191505060405180910390fd5b60006001028960001916141515156111b8576040517f08c379a00000000000000000000000000000000000000000000000000000000081526004018080602001828103825260138152602001807f6572726f725f6e756c6c50726f6475637449640000000000000000000000000081525060200191505060405180910390fd5b600086111515611230576040517f08c379a000000000000000000000000000000000000000000000000000000000815260040180806020018281038252601e8152602001807f6572726f725f6672656550726f64756374734e6f74537570706f72746564000081525060200191505060405180910390fd5b6112398961202a565b505050505092505060008273ffffffffffffffffffffffffffffffffffffffff161415156112cf576040517f08c379a00000000000000000000000000000000000000000000000000000000081526004018080602001828103825260138152602001807f6572726f725f616c72656164794578697374730000000000000000000000000081525060200191505060405180910390fd5b600560008a600019166000191681526020019081526020016000209050610140604051908101604052808a6000191681526020018981526020013373ffffffffffffffffffffffffffffffffffffffff1681526020018873ffffffffffffffffffffffffffffffffffffffff16815260200187815260200186600181111561135357fe5b815260200185815260200160018081111561136a57fe5b8152602001600073ffffffffffffffffffffffffffffffffffffffff168152602001841515815250600560008b600019166000191681526020019081526020016000206000820151816000019060001916905560208201518160010190805190602001906113d9929190615da8565b5060408201518160020160006101000a81548173ffffffffffffffffffffffffffffffffffffffff021916908373ffffffffffffffffffffffffffffffffffffffff16021790555060608201518160030160006101000a81548173ffffffffffffffffffffffffffffffffffffffff021916908373ffffffffffffffffffffffffffffffffffffffff1602179055506080820151816004015560a08201518160050160006101000a81548160ff0219169083600181111561149657fe5b021790555060c0820151816006015560e08201518160070160006101000a81548160ff021916908360018111156114c957fe5b02179055506101008201518160070160016101000a81548173ffffffffffffffffffffffffffffffffffffffff021916908373ffffffffffffffffffffffffffffffffffffffff1602179055506101208201518160070160156101000a81548160ff02191690831515021790555090505088600019163373ffffffffffffffffffffffffffffffffffffffff167f397627c8e8e4324a0f8a98a8274c00e4cee798d000625304ffbae6144ec64e548a8a8a8a8a60405180806020018673ffffffffffffffffffffffffffffffffffffffff1673ffffffffffffffffffffffffffffffffffffffff1681526020018581526020018460018111156115c857fe5b60ff168152602001838152602001828103825287818151815260200191508051906020019080838360005b8381101561160e5780820151818401526020810190506115f3565b50505050905090810190601f16801561163b5780820380516001836020036101000a031916815260200191505b50965050505050505060405180910390a3505050505050505050565b600760009054906101000a900460ff1615806116bf57503373ffffffffffffffffffffffffffffffffffffffff166000809054906101000a900473ffffffffffffffffffffffffffffffffffffffff1673ffffffffffffffffffffffffffffffffffffffff16145b1515611733576040517f08c379a000000000000000000000000000000000000000000000000000000000815260040180806020018281038252600c8152602001807f6572726f725f68616c746564000000000000000000000000000000000000000081525060200191505060405180910390fd5b61173e828233610e5e565b5050565b6000600760009054906101000a900460ff1615806117ac57503373ffffffffffffffffffffffffffffffffffffffff166000809054906101000a900473ffffffffffffffffffffffffffffffffffffffff1673ffffffffffffffffffffffffffffffffffffffff16145b1515611820576040517f08c379a000000000000000000000000000000000000000000000000000000000815260040180806020018281038252600c8152602001807f6572726f725f68616c746564000000000000000000000000000000000000000081525060200191505060405180910390fd5b6118298261510c565b5060056000836000191660001916815260200190815260200160002090508060070160019054906101000a900473ffffffffffffffffffffffffffffffffffffffff1673ffffffffffffffffffffffffffffffffffffffff163373ffffffffffffffffffffffffffffffffffffffff1614151561190e576040517f08c379a00000000000000000000000000000000000000000000000000000000081526004018080602001828103825260128152602001807f6572726f725f6e6f745065726d6974746564000000000000000000000000000081525060200191505060405180910390fd5b8060020160009054906101000a900473ffffffffffffffffffffffffffffffffffffffff1673ffffffffffffffffffffffffffffffffffffffff1682600019163373ffffffffffffffffffffffffffffffffffffffff167eaf27297c740fbece798135b71b06164310e0591b6c729e50b8026dcc60be5060405160405180910390a4338160020160006101000a81548173ffffffffffffffffffffffffffffffffffffffff021916908373ffffffffffffffffffffffffffffffffffffffff16021790555060008160070160016101000a81548173ffffffffffffffffffffffffffffffffffffffff021916908373ffffffffffffffffffffffffffffffffffffffff1602179055505050565b600760009054906101000a900460ff161580611a8357503373ffffffffffffffffffffffffffffffffffffffff166000809054906101000a900473ffffffffffffffffffffffffffffffffffffffff1673ffffffffffffffffffffffffffffffffffffffff16145b1515611af7576040517f08c379a000000000000000000000000000000000000000000000000000000000815260040180806020018281038252600c8152602001807f6572726f725f68616c746564000000000000000000000000000000000000000081525060200191505060405180910390fd5b826000611b038261202a565b505050505091505060008173ffffffffffffffffffffffffffffffffffffffff1614151515611b9a576040517f08c379a000000000000000000000000000000000000000000000000000000000815260040180806020018281038252600e8152602001807f6572726f725f6e6f74466f756e6400000000000000000000000000000000000081525060200191505060405180910390fd5b3373ffffffffffffffffffffffffffffffffffffffff168173ffffffffffffffffffffffffffffffffffffffff161480611c2057503373ffffffffffffffffffffffffffffffffffffffff166000809054906101000a900473ffffffffffffffffffffffffffffffffffffffff1673ffffffffffffffffffffffffffffffffffffffff16145b1515611c94576040517f08c379a00000000000000000000000000000000000000000000000000000000081526004018080602001828103825260178152602001807f6572726f725f70726f647563744f776e6572734f6e6c7900000000000000000081525060200191505060405180910390fd5b611ca18585856000614946565b5050505050565b6000826000611cb68261202a565b505050505091505060008173ffffffffffffffffffffffffffffffffffffffff1614151515611d4d576040517f08c379a000000000000000000000000000000000000000000000000000000000815260040180806020018281038252600e8152602001807f6572726f725f6e6f74466f756e6400000000000000000000000000000000000081525060200191505060405180910390fd5b3373ffffffffffffffffffffffffffffffffffffffff168173ffffffffffffffffffffffffffffffffffffffff161480611dd357503373ffffffffffffffffffffffffffffffffffffffff166000809054906101000a900473ffffffffffffffffffffffffffffffffffffffff1673ffffffffffffffffffffffffffffffffffffffff16145b1515611e47576040517f08c379a00000000000000000000000000000000000000000000000000000000081526004018080602001828103825260178152602001807f6572726f725f70726f647563744f776e6572734f6e6c7900000000000000000081525060200191505060405180910390fd5b611e508561510c565b506005600086600019166000191681526020019081526020016000209250600060010283600001546000191614151515611ef2576040517f08c379a00000000000000000000000000000000000000000000000000000000081526004018080602001828103825260118152602001807f50726f64756374206e6f7420666f756e6400000000000000000000000000000081525060200191505060405180910390fd5b8260070160159054906101000a900460ff161515611f78576040517f08c379a00000000000000000000000000000000000000000000000000000000081526004018080602001828103825260158152602001807f57686974656c697374206e6f7420656e61626c6564000000000000000000000081525060200191505060405180910390fd5b60028360090160008673ffffffffffffffffffffffffffffffffffffffff1673ffffffffffffffffffffffffffffffffffffffff16815260200190815260200160002060006101000a81548160ff02191690836003811115611fd657fe5b02179055508373ffffffffffffffffffffffffffffffffffffffff1685600019167f391da9ecb91abda3886c59d98ecdb8fa7154c525b5c6a575ef67cef1f5a8d85460405160405180910390a35050505050565b606060008060008060008061203e886155a5565b809750819850829950839a50849b50859c50869d505050505050505060008673ffffffffffffffffffffffffffffffffffffffff161415156120945786868686868686965096509650965096509650965061220c565b600460009054906101000a900473ffffffffffffffffffffffffffffffffffffffff1673ffffffffffffffffffffffffffffffffffffffff16633a20e9df896040518263ffffffff167c0100000000000000000000000000000000000000000000000000000000028152600401808260001916600019168152602001915050600060405180830381600087803b15801561212d57600080fd5b505af1158015612141573d6000803e3d6000fd5b505050506040513d6000823e3d601f19601f8201168201806040525060e081101561216b57600080fd5b81019080805164010000000081111561218357600080fd5b8281019050602081018481111561219957600080fd5b81518560018202830111640100000000821117156121b657600080fd5b505092919060200180519060200190929190805190602001909291908051906020019092919080519060200190929190805190602001909291908051906020019092919050505096509650965096509650965096505b919395979092949650565b60008660006122258261202a565b505050505091505060008173ffffffffffffffffffffffffffffffffffffffff16141515156122bc576040517f08c379a000000000000000000000000000000000000000000000000000000000815260040180806020018281038252600e8152602001807f6572726f725f6e6f74466f756e6400000000000000000000000000000000000081525060200191505060405180910390fd5b3373ffffffffffffffffffffffffffffffffffffffff168173ffffffffffffffffffffffffffffffffffffffff16148061234257503373ffffffffffffffffffffffffffffffffffffffff166000809054906101000a900473ffffffffffffffffffffffffffffffffffffffff1673ffffffffffffffffffffffffffffffffffffffff16145b15156123b6576040517f08c379a00000000000000000000000000000000000000000000000000000000081526004018080602001828103825260178152602001807f6572726f725f70726f647563744f776e6572734f6e6c7900000000000000000081525060200191505060405180910390fd5b60008611151561242e576040517f08c379a000000000000000000000000000000000000000000000000000000000815260040180806020018281038252601e8152602001807f6572726f725f6672656550726f64756374734e6f74537570706f72746564000081525060200191505060405180910390fd5b6124378961510c565b50600560008a6000191660001916815260200190815260200160002092508783600101908051906020019061246d929190615e28565b50868360030160006101000a81548173ffffffffffffffffffffffffffffffffffffffff021916908373ffffffffffffffffffffffffffffffffffffffff160217905550858360040181905550848360050160006101000a81548160ff021916908360018111156124da57fe5b02179055508383600601819055508260000154600019168360020160009054906101000a900473ffffffffffffffffffffffffffffffffffffffff1673ffffffffffffffffffffffffffffffffffffffff167f21953ef62f6c172d864b9ae2181d3c7114ef506c3546057e354cf6b5bab03ec48a8a8a8a8a60405180806020018673ffffffffffffffffffffffffffffffffffffffff1673ffffffffffffffffffffffffffffffffffffffff16815260200185815260200184600181111561259e57fe5b60ff168152602001838152602001828103825287818151815260200191508051906020019080838360005b838110156125e45780820151818401526020810190506125c9565b50505050905090810190601f1680156126115780820380516001836020036101000a031916815260200191505b50965050505050505060405180910390a3505050505050505050565b600082600061263b8261202a565b505050505091505060008173ffffffffffffffffffffffffffffffffffffffff16141515156126d2576040517f08c379a000000000000000000000000000000000000000000000000000000000815260040180806020018281038252600e8152602001807f6572726f725f6e6f74466f756e6400000000000000000000000000000000000081525060200191505060405180910390fd5b3373ffffffffffffffffffffffffffffffffffffffff168173ffffffffffffffffffffffffffffffffffffffff16148061275857503373ffffffffffffffffffffffffffffffffffffffff166000809054906101000a900473ffffffffffffffffffffffffffffffffffffffff1673ffffffffffffffffffffffffffffffffffffffff16145b15156127cc576040517f08c379a00000000000000000000000000000000000000000000000000000000081526004018080602001828103825260178152602001807f6572726f725f70726f647563744f776e6572734f6e6c7900000000000000000081525060200191505060405180910390fd5b6127d58561510c565b506005600086600019166000191681526020019081526020016000209250600060010283600001546000191614151515612877576040517f08c379a00000000000000000000000000000000000000000000000000000000081526004018080602001828103825260118152602001807f50726f64756374206e6f7420666f756e6400000000000000000000000000000081525060200191505060405180910390fd5b8260070160159054906101000a900460ff1615156128fd576040517f08c379a00000000000000000000000000000000000000000000000000000000081526004018080602001828103825260158152602001807f57686974656c697374206e6f7420656e61626c6564000000000000000000000081525060200191505060405180910390fd5b60038360090160008673ffffffffffffffffffffffffffffffffffffffff1673ffffffffffffffffffffffffffffffffffffffff16815260200190815260200160002060006101000a81548160ff0219169083600381111561295b57fe5b02179055508373ffffffffffffffffffffffffffffffffffffffff1685600019167f71195ce6244a4b5ea0742ce64ede6bac9a2111edb4e732886198ff6ecf58651c60405160405180910390a35050505050565b600160009054906101000a900473ffffffffffffffffffffffffffffffffffffffff1673ffffffffffffffffffffffffffffffffffffffff163373ffffffffffffffffffffffffffffffffffffffff16141515612a74576040517f08c379a00000000000000000000000000000000000000000000000000000000081526004018080602001828103825260108152602001807f6f6e6c7950656e64696e674f776e65720000000000000000000000000000000081525060200191505060405180910390fd5b600160009054906101000a900473ffffffffffffffffffffffffffffffffffffffff1673ffffffffffffffffffffffffffffffffffffffff166000809054906101000a900473ffffffffffffffffffffffffffffffffffffffff1673ffffffffffffffffffffffffffffffffffffffff167f8be0079c531659141344cd1fd0a4f28419497f9722a3daafe3b4186f6b6457e060405160405180910390a3600160009054906101000a900473ffffffffffffffffffffffffffffffffffffffff166000806101000a81548173ffffffffffffffffffffffffffffffffffffffff021916908373ffffffffffffffffffffffffffffffffffffffff1602179055506000600160006101000a81548173ffffffffffffffffffffffffffffffffffffffff021916908373ffffffffffffffffffffffffffffffffffffffff160217905550565b600080612bc483336130fe565b91509150915091565b6000816000612bdb8261202a565b505050505091505060008173ffffffffffffffffffffffffffffffffffffffff1614151515612c72576040517f08c379a000000000000000000000000000000000000000000000000000000000815260040180806020018281038252600e8152602001807f6572726f725f6e6f74466f756e6400000000000000000000000000000000000081525060200191505060405180910390fd5b3373ffffffffffffffffffffffffffffffffffffffff168173ffffffffffffffffffffffffffffffffffffffff161480612cf857503373ffffffffffffffffffffffffffffffffffffffff166000809054906101000a900473ffffffffffffffffffffffffffffffffffffffff1673ffffffffffffffffffffffffffffffffffffffff16145b1515612d6c576040517f08c379a00000000000000000000000000000000000000000000000000000000081526004018080602001828103825260178152602001807f6572726f725f70726f647563744f776e6572734f6e6c7900000000000000000081525060200191505060405180910390fd5b612d758461510c565b50600560008560001916600019168152602001908152602001600020925060006001811115612da057fe5b8360070160009054906101000a900460ff166001811115612dbd57fe5b141515612e32576040517f08c379a00000000000000000000000000000000000000000000000000000000081526004018080602001828103825260178152602001807f6572726f725f6d75737442654e6f744465706c6f79656400000000000000000081525060200191505060405180910390fd5b60018360070160006101000a81548160ff02191690836001811115612e5357fe5b021790555083600019168360020160009054906101000a900473ffffffffffffffffffffffffffffffffffffffff1673ffffffffffffffffffffffffffffffffffffffff167f07ace6911e28d0d5b2e773ce49cdfa29db157b38bffccd5f0b56f02cfba8a64f856001018660030160009054906101000a900473ffffffffffffffffffffffffffffffffffffffff1687600401548860050160009054906101000a900460ff16896006015460405180806020018673ffffffffffffffffffffffffffffffffffffffff1673ffffffffffffffffffffffffffffffffffffffff168152602001858152602001846001811115612f4a57fe5b60ff168152602001838152602001828103825287818154600181600116156101000203166002900481526020019150805460018160011615610100020316600290048015612fd95780601f10612fae57610100808354040283529160200191612fd9565b820191906000526020600020905b815481529060010190602001808311612fbc57829003601f168201915b5050965050505050505060405180910390a350505050565b6000809054906101000a900473ffffffffffffffffffffffffffffffffffffffff1673ffffffffffffffffffffffffffffffffffffffff163373ffffffffffffffffffffffffffffffffffffffff161415156130b5576040517f08c379a00000000000000000000000000000000000000000000000000000000081526004018080602001828103825260098152602001807f6f6e6c794f776e6572000000000000000000000000000000000000000000000081525060200191505060405180910390fd5b6001600760006101000a81548160ff0219169083151502179055507f1ee9080f6b55ca44ce58681c8162e6c1ac1c47e1da791a4a1c1ec6186d8af1f360405160405180910390a1565b600080600080600061310f876155a5565b505050505093505060008373ffffffffffffffffffffffffffffffffffffffff16141561325057600460009054906101000a900473ffffffffffffffffffffffffffffffffffffffff1673ffffffffffffffffffffffffffffffffffffffff16635f28cb7488886040518363ffffffff167c01000000000000000000000000000000000000000000000000000000000281526004018083600019166000191681526020018273ffffffffffffffffffffffffffffffffffffffff1673ffffffffffffffffffffffffffffffffffffffff168152602001925050506040805180830381600087803b15801561320257600080fd5b505af1158015613216573d6000803e3d6000fd5b505050506040513d604081101561322c57600080fd5b81019080805190602001909291908051906020019092919050505094509450613529565b61325a8787615797565b92505060008260000154141561351657600460009054906101000a900473ffffffffffffffffffffffffffffffffffffffff1673ffffffffffffffffffffffffffffffffffffffff16633a20e9df886040518263ffffffff167c0100000000000000000000000000000000000000000000000000000000028152600401808260001916600019168152602001915050600060405180830381600087803b15801561330357600080fd5b505af1158015613317573d6000803e3d6000fd5b505050506040513d6000823e3d601f19601f8201168201806040525060e081101561334157600080fd5b81019080805164010000000081111561335957600080fd5b8281019050602081018481111561336f57600080fd5b815185600182028301116401000000008211171561338c57600080fd5b5050929190602001805190602001909291908051906020019092919080519060200190929190805190602001909291908051906020019092919080519060200190929190505050505050505091505060008173ffffffffffffffffffffffffffffffffffffffff1614151561351557600460009054906101000a900473ffffffffffffffffffffffffffffffffffffffff1673ffffffffffffffffffffffffffffffffffffffff16635f28cb7488886040518363ffffffff167c01000000000000000000000000000000000000000000000000000000000281526004018083600019166000191681526020018273ffffffffffffffffffffffffffffffffffffffff1673ffffffffffffffffffffffffffffffffffffffff168152602001925050506040805180830381600087803b1580156134c757600080fd5b505af11580156134db573d6000803e3d6000fd5b505050506040513d60408110156134f157600080fd5b81019080805190602001909291908051906020019092919050505094509450613529565b5b61351f82615885565b8260000154945094505b5050509250929050565b6005602052806000526040600020600091509050806000015490806001018054600181600116156101000203166002900480601f0160208091040260200160405190810160405280929190818152602001828054600181600116156101000203166002900480156135e55780601f106135ba576101008083540402835291602001916135e5565b820191906000526020600020905b8154815290600101906020018083116135c857829003601f168201915b5050505050908060020160009054906101000a900473ffffffffffffffffffffffffffffffffffffffff16908060030160009054906101000a900473ffffffffffffffffffffffffffffffffffffffff16908060040154908060050160009054906101000a900460ff16908060060154908060070160009054906101000a900460ff16908060070160019054906101000a900473ffffffffffffffffffffffffffffffffffffffff16908060070160159054906101000a900460ff1690508a565b600260009054906101000a900473ffffffffffffffffffffffffffffffffffffffff1681565b600360009054906101000a900473ffffffffffffffffffffffffffffffffffffffff1681565b6000809054906101000a900473ffffffffffffffffffffffffffffffffffffffff1681565b60008160006137258261202a565b505050505091505060008173ffffffffffffffffffffffffffffffffffffffff16141515156137bc576040517f08c379a000000000000000000000000000000000000000000000000000000000815260040180806020018281038252600e8152602001807f6572726f725f6e6f74466f756e6400000000000000000000000000000000000081525060200191505060405180910390fd5b3373ffffffffffffffffffffffffffffffffffffffff168173ffffffffffffffffffffffffffffffffffffffff16148061384257503373ffffffffffffffffffffffffffffffffffffffff166000809054906101000a900473ffffffffffffffffffffffffffffffffffffffff1673ffffffffffffffffffffffffffffffffffffffff16145b15156138b6576040517f08c379a00000000000000000000000000000000000000000000000000000000081526004018080602001828103825260178152602001807f6572726f725f70726f647563744f776e6572734f6e6c7900000000000000000081525060200191505060405180910390fd5b6138bf8461510c565b5060056000856000191660001916815260200190815260200160002092506001808111156138e957fe5b8360070160009054906101000a900460ff16600181111561390657fe5b14151561397b576040517f08c379a00000000000000000000000000000000000000000000000000000000081526004018080602001828103825260118152602001807f6572726f725f6e6f744465706c6f79656400000000000000000000000000000081525060200191505060405180910390fd5b60008360070160006101000a81548160ff0219169083600181111561399c57fe5b021790555083600019168360020160009054906101000a900473ffffffffffffffffffffffffffffffffffffffff1673ffffffffffffffffffffffffffffffffffffffff167ffc64345d61f75f77f5039b0e23107d4abd73ecb7cd6c94fd44e8a6dd85918f6a856001018660030160009054906101000a900473ffffffffffffffffffffffffffffffffffffffff1687600401548860050160009054906101000a900460ff16896006015460405180806020018673ffffffffffffffffffffffffffffffffffffffff1673ffffffffffffffffffffffffffffffffffffffff168152602001858152602001846001811115613a9357fe5b60ff168152602001838152602001828103825287818154600181600116156101000203166002900481526020019150805460018160011615610100020316600290048015613b225780601f10613af757610100808354040283529160200191613b22565b820191906000526020600020905b815481529060010190602001808311613b0557829003601f168201915b5050965050505050505060405180910390a350505050565b816000613b468261202a565b505050505091505060008173ffffffffffffffffffffffffffffffffffffffff1614151515613bdd576040517f08c379a000000000000000000000000000000000000000000000000000000000815260040180806020018281038252600e8152602001807f6572726f725f6e6f74466f756e6400000000000000000000000000000000000081525060200191505060405180910390fd5b3373ffffffffffffffffffffffffffffffffffffffff168173ffffffffffffffffffffffffffffffffffffffff161480613c6357503373ffffffffffffffffffffffffffffffffffffffff166000809054906101000a900473ffffffffffffffffffffffffffffffffffffffff1673ffffffffffffffffffffffffffffffffffffffff16145b1515613cd7576040517f08c379a00000000000000000000000000000000000000000000000000000000081526004018080602001828103825260178152602001807f6572726f725f70726f647563744f776e6572734f6e6c7900000000000000000081525060200191505060405180910390fd5b613ce08461510c565b508260056000866000191660001916815260200190815260200160002060070160016101000a81548173ffffffffffffffffffffffffffffffffffffffff021916908373ffffffffffffffffffffffffffffffffffffffff1602179055508273ffffffffffffffffffffffffffffffffffffffff16846000191660056000876000191660001916815260200190815260200160002060020160009054906101000a900473ffffffffffffffffffffffffffffffffffffffff1673ffffffffffffffffffffffffffffffffffffffff167f62160e4abadfc3a6afc583d10586d737c813753fe64d93f4283282b2b600a34460405160405180910390a450505050565b6000809054906101000a900473ffffffffffffffffffffffffffffffffffffffff1673ffffffffffffffffffffffffffffffffffffffff163373ffffffffffffffffffffffffffffffffffffffff16141515613ea5576040517f08c379a00000000000000000000000000000000000000000000000000000000081526004018080602001828103825260098152602001807f6f6e6c794f776e6572000000000000000000000000000000000000000000000081525060200191505060405180910390fd5b613eb0838383615896565b505050565b6000613ec183836130fe565b508091505092915050565b6000806000613eda8461202a565b505050505092505060008273ffffffffffffffffffffffffffffffffffffffff1614151515613f71576040517f08c379a000000000000000000000000000000000000000000000000000000000815260040180806020018281038252600e8152602001807f6572726f725f6e6f74466f756e6400000000000000000000000000000000000081525060200191505060405180910390fd5b60056000856000191660001916815260200190815260200160002090508060070160159054906101000a900460ff1692505050919050565b600760009054906101000a900460ff1681565b6000806001811115613fca57fe5b826001811115613fd657fe5b1415613ff657613fef848461595e90919063ffffffff16565b905061403a565b61403784614029670de0b6b3a764000061401b6006548861595e90919063ffffffff16565b61599c90919063ffffffff16565b61595e90919063ffffffff16565b90505b9392505050565b600760009054906101000a900460ff1615806140a957503373ffffffffffffffffffffffffffffffffffffffff166000809054906101000a900473ffffffffffffffffffffffffffffffffffffffff1673ffffffffffffffffffffffffffffffffffffffff16145b151561411d576040517f08c379a000000000000000000000000000000000000000000000000000000000815260040180806020018281038252600c8152602001807f6572726f725f68616c746564000000000000000000000000000000000000000081525060200191505060405180910390fd5b61412d8686868686866000611059565b505050505050565b60065481565b600360009054906101000a900473ffffffffffffffffffffffffffffffffffffffff1673ffffffffffffffffffffffffffffffffffffffff163373ffffffffffffffffffffffffffffffffffffffff16141515614200576040517f08c379a00000000000000000000000000000000000000000000000000000000081526004018080602001828103825260128152602001807f6572726f725f6e6f745065726d6974746564000000000000000000000000000081525060200191505060405180910390fd5b60008111151561420f57600080fd5b806006819055507fc84d758f9836fe65b8f2be13d5e364b9373411e1158b63c1c5abbbae789496098282604051808381526020018281526020019250505060405180910390a15050565b60008260006142678261202a565b505050505091505060008173ffffffffffffffffffffffffffffffffffffffff16141515156142fe576040517f08c379a000000000000000000000000000000000000000000000000000000000815260040180806020018281038252600e8152602001807f6572726f725f6e6f74466f756e6400000000000000000000000000000000000081525060200191505060405180910390fd5b3373ffffffffffffffffffffffffffffffffffffffff168173ffffffffffffffffffffffffffffffffffffffff16148061438457503373ffffffffffffffffffffffffffffffffffffffff166000809054906101000a900473ffffffffffffffffffffffffffffffffffffffff1673ffffffffffffffffffffffffffffffffffffffff16145b15156143f8576040517f08c379a00000000000000000000000000000000000000000000000000000000081526004018080602001828103825260178152602001807f6572726f725f70726f647563744f776e6572734f6e6c7900000000000000000081525060200191505060405180910390fd5b6144018561510c565b5060056000866000191660001916815260200190815260200160002092506000600102836000015460001916141515156144a3576040517f08c379a00000000000000000000000000000000000000000000000000000000081526004018080602001828103825260118152602001807f50726f64756374206e6f7420666f756e6400000000000000000000000000000081525060200191505060405180910390fd5b838360070160156101000a81548160ff02191690831515021790555083156144fb5784600019167f507847149b655f0d87f5cadd67619cd1c0a53b2cbb153d2f08f83614b4c29b7860405160405180910390a261452d565b84600019167fd8eb01debfba6841d33231e9b6df615367d622af29059b91eeb39b62f81f79ca60405160405180910390a25b5050505050565b600061453f8261510c565b5060056000836000191660001916815260200190815260200160002090506000600102816000015460001916141515156145e1576040517f08c379a00000000000000000000000000000000000000000000000000000000081526004018080602001828103825260118152602001807f50726f64756374206e6f7420666f756e6400000000000000000000000000000081525060200191505060405180910390fd5b8060070160159054906101000a900460ff161515614667576040517f08c379a00000000000000000000000000000000000000000000000000000000081526004018080602001828103825260158152602001807f57686974656c697374206e6f7420656e61626c6564000000000000000000000081525060200191505060405180910390fd5b6000600381111561467457fe5b8160090160003373ffffffffffffffffffffffffffffffffffffffff1673ffffffffffffffffffffffffffffffffffffffff16815260200190815260200160002060009054906101000a900460ff1660038111156146ce57fe5b141515614769576040517f08c379a00000000000000000000000000000000000000000000000000000000081526004018080602001828103825260238152602001807f57686974656c697374207265717565737420616c7265616479207375626d697481526020017f746564000000000000000000000000000000000000000000000000000000000081525060400191505060405180910390fd5b60018160090160003373ffffffffffffffffffffffffffffffffffffffff1673ffffffffffffffffffffffffffffffffffffffff16815260200190815260200160002060006101000a81548160ff021916908360038111156147c757fe5b02179055503373ffffffffffffffffffffffffffffffffffffffff1682600019167fd07377dfece33da04bb307fc530a0eb06929f31a09309c84ae38079aad7b16a860405160405180910390a35050565b600160009054906101000a900473ffffffffffffffffffffffffffffffffffffffff1681565b6000809054906101000a900473ffffffffffffffffffffffffffffffffffffffff1673ffffffffffffffffffffffffffffffffffffffff163373ffffffffffffffffffffffffffffffffffffffff16141515614902576040517f08c379a00000000000000000000000000000000000000000000000000000000081526004018080602001828103825260098152602001807f6f6e6c794f776e6572000000000000000000000000000000000000000000000081525060200191505060405180910390fd5b80600160006101000a81548173ffffffffffffffffffffffffffffffffffffffff021916908373ffffffffffffffffffffffffffffffffffffffff16021790555050565b6000806000614953615ea8565b60008060006149628b8a6159c6565b5061496d8b8a615797565b9650965060018081111561497d57fe5b8760070160009054906101000a900460ff16600181111561499a57fe5b141515614a0f576040517f08c379a00000000000000000000000000000000000000000000000000000000081526004018080602001828103825260118152602001807f6572726f725f6e6f744465706c6f79656400000000000000000000000000000081525060200191505060405180910390fd5b8660070160159054906101000a900460ff161580614a91575060026003811115614a3557fe5b8760090160008b73ffffffffffffffffffffffffffffffffffffffff1673ffffffffffffffffffffffffffffffffffffffff16815260200190815260200160002060009054906101000a900460ff166003811115614a8f57fe5b145b1515614b05576040517f08c379a000000000000000000000000000000000000000000000000000000000815260040180806020018281038252601b8152602001807f52657175697265732077686974656c69737420617070726f76616c000000000081525060200191505060405180910390fd5b4286600001541115614c075760008a111515614b89576040517f08c379a00000000000000000000000000000000000000000000000000000000081526004018080602001828103825260138152602001807f6572726f725f746f705570546f6f536d616c6c0000000000000000000000000081525060200191505060405180910390fd5b614ba08a8760000154615d8790919063ffffffff16565b94508486600001819055508873ffffffffffffffffffffffffffffffffffffffff168760000154600019167f602ca7f17c81aa5e62b3381000dd445f5af7c333574da85f4b246288afc07322876040518082815260200191505060405180910390a3614d51565b86600601548a10151515614c83576040517f08c379a000000000000000000000000000000000000000000000000000000000815260040180806020018281038252601d8152602001807f6572726f725f6e6577537562736372697074696f6e546f6f536d616c6c00000081525060200191505060405180910390fd5b614c968a42615d8790919063ffffffff16565b9450602060405190810160405280868152509350838760080160008b73ffffffffffffffffffffffffffffffffffffffff1673ffffffffffffffffffffffffffffffffffffffff168152602001908152602001600020600082015181600001559050508873ffffffffffffffffffffffffffffffffffffffff168760000154600019167f9c3ab7e86c11d820cc311335294ebdf7299d8637d47253b930c4120b775d7cca876040518082815260200191505060405180910390a35b8873ffffffffffffffffffffffffffffffffffffffff168760000154600019167fe22e8c2d8a284063fec10f270bc3c776ffb40bcf816b73eef36354d5f3d7b3d4876040518082815260200191505060405180910390a3600092508715614fa157614dd28a88600401548960050160009054906101000a900460ff16613fbc565b9250600260009054906101000a900473ffffffffffffffffffffffffffffffffffffffff1673ffffffffffffffffffffffffffffffffffffffff166323b872dd338960030160009054906101000a900473ffffffffffffffffffffffffffffffffffffffff16866040518463ffffffff167c0100000000000000000000000000000000000000000000000000000000028152600401808473ffffffffffffffffffffffffffffffffffffffff1673ffffffffffffffffffffffffffffffffffffffff1681526020018373ffffffffffffffffffffffffffffffffffffffff1673ffffffffffffffffffffffffffffffffffffffff1681526020018281526020019350505050602060405180830381600087803b158015614ef157600080fd5b505af1158015614f05573d6000803e3d6000fd5b505050506040513d6020811015614f1b57600080fd5b81019080805190602001909291905050501515614fa0576040517f08c379a00000000000000000000000000000000000000000000000000000000081526004018080602001828103825260138152602001807f6572726f725f7061796d656e744661696c65640000000000000000000000000081525060200191505060405180910390fd5b5b8660030160009054906101000a900473ffffffffffffffffffffffffffffffffffffffff169050803b915060008211156150ff578660030160009054906101000a900473ffffffffffffffffffffffffffffffffffffffff1673ffffffffffffffffffffffffffffffffffffffff166391517bdd8c8b8960000154876040518563ffffffff167c01000000000000000000000000000000000000000000000000000000000281526004018085600019166000191681526020018473ffffffffffffffffffffffffffffffffffffffff1673ffffffffffffffffffffffffffffffffffffffff168152602001838152602001828152602001945050505050602060405180830381600087803b1580156150b857600080fd5b505af11580156150cc573d6000803e3d6000fd5b505050506040513d60208110156150e257600080fd5b810190808051906020019092919050505015156150fe57600080fd5b5b5050505050505050505050565b6000806060600080600080600080600560008b60001916600019168152602001908152602001600020975060006001028860000154600019161415156151555760009850615598565b600460009054906101000a900473ffffffffffffffffffffffffffffffffffffffff1673ffffffffffffffffffffffffffffffffffffffff16633a20e9df8b6040518263ffffffff167c0100000000000000000000000000000000000000000000000000000000028152600401808260001916600019168152602001915050600060405180830381600087803b1580156151ee57600080fd5b505af1158015615202573d6000803e3d6000fd5b505050506040513d6000823e3d601f19601f8201168201806040525060e081101561522c57600080fd5b81019080805164010000000081111561524457600080fd5b8281019050602081018481111561525a57600080fd5b815185600182028301116401000000008211171561527757600080fd5b5050929190602001805190602001909291908051906020019092919080519060200190929190805190602001909291908051906020019092919080519060200190929190505050965096509650965096509650965060008673ffffffffffffffffffffffffffffffffffffffff1614156152f45760009850615598565b8988600001816000191690555086886001019080519060200190615319929190615e28565b50858860020160006101000a81548173ffffffffffffffffffffffffffffffffffffffff021916908373ffffffffffffffffffffffffffffffffffffffff160217905550848860030160006101000a81548173ffffffffffffffffffffffffffffffffffffffff021916908373ffffffffffffffffffffffffffffffffffffffff160217905550838860040181905550828860050160006101000a81548160ff021916908360018111156153c957fe5b0217905550818860060181905550808860070160006101000a81548160ff021916908360018111156153f757fe5b02179055508760000154600019168860020160009054906101000a900473ffffffffffffffffffffffffffffffffffffffff1673ffffffffffffffffffffffffffffffffffffffff167fd608cf60e5a08e9db0f10b63c150bb7cdc66ee6286eb04ec5ba01d178e9010d68a6001018b60030160009054906101000a900473ffffffffffffffffffffffffffffffffffffffff168c600401548d60050160009054906101000a900460ff168e6006015460405180806020018673ffffffffffffffffffffffffffffffffffffffff1673ffffffffffffffffffffffffffffffffffffffff1681526020018581526020018460018111156154f257fe5b60ff1681526020018381526020018281038252878181546001816001161561010002031660029004815260200191508054600181600116156101000203166002900480156155815780601f1061555657610100808354040283529160200191615581565b820191906000526020600020905b81548152906001019060200180831161556457829003601f168201915b5050965050505050505060405180910390a3600198505b5050505050505050919050565b6060600080600080600080600560008960001916600019168152602001908152602001600020600101600560008a6000191660001916815260200190815260200160002060020160009054906101000a900473ffffffffffffffffffffffffffffffffffffffff16600560008b6000191660001916815260200190815260200160002060030160009054906101000a900473ffffffffffffffffffffffffffffffffffffffff16600560008c6000191660001916815260200190815260200160002060040154600560008d6000191660001916815260200190815260200160002060050160009054906101000a900460ff16600560008e6000191660001916815260200190815260200160002060060154600560008f6000191660001916815260200190815260200160002060070160009054906101000a900460ff16868054600181600116156101000203166002900480601f0160208091040260200160405190810160405280929190818152602001828054600181600116156101000203166002900480156157775780601f1061574c57610100808354040283529160200191615777565b820191906000526020600020905b81548152906001019060200180831161575a57829003601f168201915b505050505096509650965096509650965096509650919395979092949650565b600080600560008560001916600019168152602001908152602001600020915060006001028260000154600019161415151561583b576040517f08c379a000000000000000000000000000000000000000000000000000000000815260040180806020018281038252600e8152602001807f6572726f725f6e6f74466f756e6400000000000000000000000000000000000081525060200191505060405180910390fd5b8160080160008473ffffffffffffffffffffffffffffffffffffffff1673ffffffffffffffffffffffffffffffffffffffff16815260200190815260200160002090509250929050565b600042826000015410159050919050565b81600360006101000a81548173ffffffffffffffffffffffffffffffffffffffff021916908373ffffffffffffffffffffffffffffffffffffffff16021790555082600260006101000a81548173ffffffffffffffffffffffffffffffffffffffff021916908373ffffffffffffffffffffffffffffffffffffffff16021790555080600460006101000a81548173ffffffffffffffffffffffffffffffffffffffff021916908373ffffffffffffffffffffffffffffffffffffffff160217905550505050565b60008060008414156159735760009150615995565b828402905082848281151561598457fe5b0414151561599157600080fd5b8091505b5092915050565b6000806000831115156159ae57600080fd5b82848115156159b957fe5b0490508091505092915050565b6000806000806000806159d88861510c565b94506159e48888615797565b93509350600083600001541415156159ff5760009550615d7c565b841515615ba057600460009054906101000a900473ffffffffffffffffffffffffffffffffffffffff1673ffffffffffffffffffffffffffffffffffffffff16633a20e9df896040518263ffffffff167c0100000000000000000000000000000000000000000000000000000000028152600401808260001916600019168152602001915050600060405180830381600087803b158015615a9f57600080fd5b505af1158015615ab3573d6000803e3d6000fd5b505050506040513d6000823e3d601f19601f8201168201806040525060e0811015615add57600080fd5b810190808051640100000000811115615af557600080fd5b82810190506020810184811115615b0b57600080fd5b8151856001820283011164010000000082111715615b2857600080fd5b5050929190602001805190602001909291908051906020019092919080519060200190929190805190602001909291908051906020019092919080519060200190929190505050505050505092505060008273ffffffffffffffffffffffffffffffffffffffff161415615b9f5760009550615d7c565b5b600460009054906101000a900473ffffffffffffffffffffffffffffffffffffffff1673ffffffffffffffffffffffffffffffffffffffff16635f28cb7489896040518363ffffffff167c01000000000000000000000000000000000000000000000000000000000281526004018083600019166000191681526020018273ffffffffffffffffffffffffffffffffffffffff1673ffffffffffffffffffffffffffffffffffffffff168152602001925050506040805180830381600087803b158015615c6c57600080fd5b505af1158015615c80573d6000803e3d6000fd5b505050506040513d6040811015615c9657600080fd5b8101908080519060200190929190805190602001909291905050509150506000811415615cc65760009550615d7c565b602060405190810160405280828152508460080160008973ffffffffffffffffffffffffffffffffffffffff1673ffffffffffffffffffffffffffffffffffffffff168152602001908152602001600020600082015181600001559050508673ffffffffffffffffffffffffffffffffffffffff1688600019167f9a2546e503275a77e7c86606d6512431c9046ffc6d3e53678e2693b201275714836040518082815260200191505060405180910390a3600195505b505050505092915050565b6000808284019050838110151515615d9e57600080fd5b8091505092915050565b828054600181600116156101000203166002900490600052602060002090601f016020900481019282601f10615de957805160ff1916838001178555615e17565b82800160010185558215615e17579182015b82811115615e16578251825591602001919060010190615dfb565b5b509050615e249190615ebc565b5090565b828054600181600116156101000203166002900490600052602060002090601f016020900481019282601f10615e6957805160ff1916838001178555615e97565b82800160010185558215615e97579182015b82811115615e96578251825591602001919060010190615e7b565b5b509050615ea49190615ebc565b5090565b602060405190810160405280600081525090565b615ede91905b80821115615eda576000816000905550600101615ec2565b5090565b905600a165627a7a7230582074077d7617d3747d5595d490107dde487af3cf3259e4374b50c4f95fec02d5a40029",
  "source": "// solhint-disable not-rely-on-time\npragma solidity 0.4.25;\n\nimport \"openzeppelin-solidity/contracts/token/ERC20/ERC20.sol\";\nimport \"openzeppelin-solidity/contracts/math/SafeMath.sol\";\n\nimport \"./PurchaseListener.sol\";\nimport \"./Ownable.sol\";\n\n\ncontract IMarketplace {\n    enum ProductState {\n        NotDeployed,                // non-existent or deleted\n        Deployed                    // created or redeployed\n    }\n\n    enum Currency {\n        DATA,                       // \"token wei\" (10^-18 DATA)\n        USD                         // attodollars (10^-18 USD)\n    }\n\n    enum WhitelistState{\n        None,\n        Pending,\n        Approved,\n        Rejected\n    }\n    \n    function getProduct(bytes32 id) public view returns (string name, address owner, address beneficiary, uint pricePerSecond, Currency currency, uint minimumSubscriptionSeconds, ProductState state) {}\n    function getSubscription(bytes32 productId, address subscriber) public view returns (bool isValid, uint endTimestamp) {}\n    function getPriceInData(uint subscriptionSeconds, uint price, Currency unit) public view returns (uint datacoinAmount) {}\n    function buyFor(bytes32 productId, uint subscriptionSeconds, address recipient) public {}\n\n}\n\n/**\n * @title Streamr Marketplace\n * @dev note about numbers:\n *   All prices and exchange rates are in \"decimal fixed-point\", that is, scaled by 10^18, like ETH vs wei.\n *  Seconds are integers as usual.\n *\n * Next version TODO:\n *  - EIP-165 inferface definition; PurchaseListener\n */\ncontract Marketplace is Ownable, IMarketplace {\n    using SafeMath for uint256;\n\n    // product events\n    event ProductCreated(address indexed owner, bytes32 indexed id, string name, address beneficiary, uint pricePerSecond, Currency currency, uint minimumSubscriptionSeconds);\n    event ProductUpdated(address indexed owner, bytes32 indexed id, string name, address beneficiary, uint pricePerSecond, Currency currency, uint minimumSubscriptionSeconds);\n    event ProductDeleted(address indexed owner, bytes32 indexed id, string name, address beneficiary, uint pricePerSecond, Currency currency, uint minimumSubscriptionSeconds);\n    event ProductImported(address indexed owner, bytes32 indexed id, string name, address beneficiary, uint pricePerSecond, Currency currency, uint minimumSubscriptionSeconds);\n    event ProductRedeployed(address indexed owner, bytes32 indexed id, string name, address beneficiary, uint pricePerSecond, Currency currency, uint minimumSubscriptionSeconds);\n    event ProductOwnershipOffered(address indexed owner, bytes32 indexed id, address indexed to);\n    event ProductOwnershipChanged(address indexed newOwner, bytes32 indexed id, address indexed oldOwner);\n\n    // subscription events\n    event Subscribed(bytes32 indexed productId, address indexed subscriber, uint endTimestamp);\n    event NewSubscription(bytes32 indexed productId, address indexed subscriber, uint endTimestamp);\n    event SubscriptionExtended(bytes32 indexed productId, address indexed subscriber, uint endTimestamp);\n    event SubscriptionImported(bytes32 indexed productId, address indexed subscriber, uint endTimestamp);\n    event SubscriptionTransferred(bytes32 indexed productId, address indexed from, address indexed to, uint secondsTransferred);\n\n    // currency events\n    event ExchangeRatesUpdated(uint timestamp, uint dataInUsd);\n\n    // whitelist events\n    event WhitelistRequested(bytes32 indexed productId, address indexed subscriber);\n    event WhitelistApproved(bytes32 indexed productId, address indexed subscriber);\n    event WhitelistRejected(bytes32 indexed productId, address indexed subscriber);\n    event WhitelistEnabled(bytes32 indexed productId);\n    event WhitelistDisabled(bytes32 indexed productId);\n    \n    \n\n    struct Product {\n        bytes32 id;\n        string name;\n        address owner;\n        address beneficiary;        // account where revenue is directed to\n        uint pricePerSecond;\n        Currency priceCurrency;\n        uint minimumSubscriptionSeconds;\n        ProductState state;\n        address newOwnerCandidate;  // Two phase hand-over to minimize the chance that the product ownership is lost to a non-existent address.\n        bool requiresWhitelist;\n        mapping(address => TimeBasedSubscription) subscriptions;\n        mapping(address => WhitelistState) whitelist;\n    }\n\n    struct TimeBasedSubscription {\n        uint endTimestamp;\n    }\n\n    /////////////// Marketplace lifecycle /////////////////\n\n    ERC20 public datacoin;\n\n    address public currencyUpdateAgent;\n    IMarketplace prev_marketplace;\n\n    constructor(address datacoinAddress, address currencyUpdateAgentAddress, address prev_marketplace_address) Ownable() public {\n        _initialize(datacoinAddress, currencyUpdateAgentAddress, prev_marketplace_address);\n    }\n\n    function _initialize(address datacoinAddress, address currencyUpdateAgentAddress, address prev_marketplace_address) internal {\n        currencyUpdateAgent = currencyUpdateAgentAddress;\n        datacoin = ERC20(datacoinAddress);\n        prev_marketplace = IMarketplace(prev_marketplace_address);\n    }\n\n    ////////////////// Product management /////////////////\n\n    mapping (bytes32 => Product) public products;\n    /*\n        checks this marketplace first, then the previous\n    */\n    function getProduct(bytes32 id) public view returns (string name, address owner, address beneficiary, uint pricePerSecond, Currency currency, uint minimumSubscriptionSeconds, ProductState state) {\n        (name, owner, beneficiary, pricePerSecond, currency, minimumSubscriptionSeconds, state) = _getProductLocal(id);\n        if (owner != 0x0)\n            return (name, owner, beneficiary, pricePerSecond, currency, minimumSubscriptionSeconds, state);\n        return prev_marketplace.getProduct(id);\n    }\n\n    /**\n    checks only this marketplace, not the previous marketplace\n     */\n\n    function _getProductLocal(bytes32 id) internal view returns (string name, address owner, address beneficiary, uint pricePerSecond, Currency currency, uint minimumSubscriptionSeconds, ProductState state) {\n\n        return (\n            products[id].name,\n            products[id].owner,\n            products[id].beneficiary,\n            products[id].pricePerSecond,\n            products[id].priceCurrency,\n            products[id].minimumSubscriptionSeconds,\n            products[id].state\n        );\n    }\n\n    // also checks that p exists: p.owner == 0 for non-existent products\n    modifier onlyProductOwner(bytes32 productId) {\n        (,address _owner,,,,,) = getProduct(productId);\n        require(_owner != 0x0, \"error_notFound\");\n        require(_owner == msg.sender || owner == msg.sender, \"error_productOwnersOnly\");\n        _;\n    }\n\n    /**\n     * Imports product details (but NOT subscription details) from previous marketplace\n     */\n    function _importProductIfNeeded(bytes32 productId) internal returns (bool imported){\n        Product storage p = products[productId];\n        if(p.id != 0x0)\n            return false;\n        (string memory _name, address _owner, address _beneficiary, uint _pricePerSecond, IMarketplace.Currency _priceCurrency, uint _minimumSubscriptionSeconds, IMarketplace.ProductState _state) = prev_marketplace.getProduct(productId);\n        if(_owner == 0x0)\n            return false;\n        p.id = productId;\n        p.name = _name;\n        p.owner = _owner;\n        p.beneficiary = _beneficiary;\n        p.pricePerSecond = _pricePerSecond;\n        p.priceCurrency = _priceCurrency;\n        p.minimumSubscriptionSeconds = _minimumSubscriptionSeconds;\n        p.state = _state;\n        emit ProductImported(p.owner, p.id, p.name, p.beneficiary, p.pricePerSecond, p.priceCurrency, p.minimumSubscriptionSeconds);\n        return true;\n    }\n\n    function _importSubscriptionIfNeeded(bytes32 productId, address subscriber) internal returns (bool imported) {\n        bool _productImported = _importProductIfNeeded(productId);\n\n        // check that subscription didn't already exist in current marketplace\n        (Product storage product, TimeBasedSubscription storage sub) = _getSubscriptionLocal(productId, subscriber);\n        if (sub.endTimestamp != 0x0) { return false; }\n\n        // check that subscription exists in the previous marketplace(s)\n        // only call prev_marketplace.getSubscription() if product exists there\n        // consider e.g. product created in current marketplace but subscription still doesn't exist\n        // if _productImported, it must have existed in previous marketplace so no need to perform check\n        if(!_productImported){\n            (,address _owner_prev,,,,,) = prev_marketplace.getProduct(productId);\n            if (_owner_prev == 0x0) { return false; }\n        }\n        (, uint _endTimestamp) = prev_marketplace.getSubscription(productId, subscriber);\n        if (_endTimestamp == 0x0) { return false; }\n        product.subscriptions[subscriber] = TimeBasedSubscription(_endTimestamp);\n        emit SubscriptionImported(productId, subscriber, _endTimestamp);\n        return true;\n    }\n\n    /*\n    createProductWhitelist is createProduct with extra whitelist arg. truffle test doesn't like 2 functions named createProduct,\n    although 2 functions with differing numbers of args is valid Solidity \n    */\n    function createProductWhitelist(bytes32 id, string name, address beneficiary, uint pricePerSecond, Currency currency, uint minimumSubscriptionSeconds, bool requiresWhitelist) public whenNotHalted {\n        require(id != 0x0, \"error_nullProductId\");\n        require(pricePerSecond > 0, \"error_freeProductsNotSupported\");\n        (,address _owner,,,,,) = getProduct(id);\n        require(_owner == 0x0, \"error_alreadyExists\");\n        Product storage p = products[id];\n        products[id] = Product({id: id, name: name, owner: msg.sender, beneficiary: beneficiary, pricePerSecond: pricePerSecond, \n            priceCurrency: currency, minimumSubscriptionSeconds: minimumSubscriptionSeconds, state: ProductState.Deployed, newOwnerCandidate: 0, requiresWhitelist: requiresWhitelist});\n        emit ProductCreated(msg.sender, id, name, beneficiary, pricePerSecond, currency, minimumSubscriptionSeconds);\n    }\n    \n    function createProduct(bytes32 id, string name, address beneficiary, uint pricePerSecond, Currency currency, uint minimumSubscriptionSeconds) public whenNotHalted {\n        createProductWhitelist(id, name, beneficiary, pricePerSecond, currency, minimumSubscriptionSeconds,false);\n    }   \n    \n\n    /**\n    * Stop offering the product\n    */\n    function deleteProduct(bytes32 productId) public onlyProductOwner(productId) {\n        _importProductIfNeeded(productId);\n        Product storage p = products[productId];\n        require(p.state == ProductState.Deployed, \"error_notDeployed\");\n        p.state = ProductState.NotDeployed;\n        emit ProductDeleted(p.owner, productId, p.name, p.beneficiary, p.pricePerSecond, p.priceCurrency, p.minimumSubscriptionSeconds);\n    }\n\n    /**\n    * Return product to market\n    */\n    function redeployProduct(bytes32 productId) public onlyProductOwner(productId) {\n        _importProductIfNeeded(productId);\n        Product storage p = products[productId];\n        require(p.state == ProductState.NotDeployed, \"error_mustBeNotDeployed\");\n        p.state = ProductState.Deployed;\n        emit ProductRedeployed(p.owner, productId, p.name, p.beneficiary, p.pricePerSecond, p.priceCurrency, p.minimumSubscriptionSeconds);\n    }\n\n    function updateProduct(bytes32 productId, string name, address beneficiary, uint pricePerSecond, Currency currency, uint minimumSubscriptionSeconds) public onlyProductOwner(productId) {\n        require(pricePerSecond > 0, \"error_freeProductsNotSupported\");\n        _importProductIfNeeded(productId);\n        Product storage p = products[productId];\n        p.name = name;\n        p.beneficiary = beneficiary;\n        p.pricePerSecond = pricePerSecond;\n        p.priceCurrency = currency;\n        p.minimumSubscriptionSeconds = minimumSubscriptionSeconds;\n        emit ProductUpdated(p.owner, p.id, name, beneficiary, pricePerSecond, currency, minimumSubscriptionSeconds);\n    }\n\n    /**\n    * Changes ownership of the product. Two phase hand-over minimizes the chance that the product ownership is lost to a non-existent address.\n    */\n    function offerProductOwnership(bytes32 productId, address newOwnerCandidate) public onlyProductOwner(productId) {\n        _importProductIfNeeded(productId);\n        // that productId exists is already checked in onlyProductOwner\n        products[productId].newOwnerCandidate = newOwnerCandidate;\n        emit ProductOwnershipOffered(products[productId].owner, productId, newOwnerCandidate);\n    }\n\n    /**\n    * Changes ownership of the product. Two phase hand-over minimizes the chance that the product ownership is lost to a non-existent address.\n    */\n    function claimProductOwnership(bytes32 productId) public whenNotHalted {\n        _importProductIfNeeded(productId);\n        // also checks that productId exists (newOwnerCandidate is zero for non-existent)\n        Product storage p = products[productId];\n        require(msg.sender == p.newOwnerCandidate, \"error_notPermitted\");\n        emit ProductOwnershipChanged(msg.sender, productId, p.owner);\n        p.owner = msg.sender;\n        p.newOwnerCandidate = 0;\n    }\n\n    /////////////// Subscription management ///////////////\n\n    function getSubscription(bytes32 productId, address subscriber) public view returns (bool isValid, uint endTimestamp) {\n        (,address _owner,,,,,) = _getProductLocal(productId);\n        if(_owner == 0x0){ return prev_marketplace.getSubscription(productId,subscriber);}\n        (, TimeBasedSubscription storage sub) = _getSubscriptionLocal(productId, subscriber);\n        if(sub.endTimestamp == 0x0){\n            // only call prev_marketplace.getSubscription() if product exists in previous marketplace too\n            (,address _owner_prev,,,,,) = prev_marketplace.getProduct(productId);\n            if(_owner_prev != 0x0)\n                return prev_marketplace.getSubscription(productId,subscriber);\n        }\n        return (_isValid(sub), sub.endTimestamp);\n    }\n\n    function getSubscriptionTo(bytes32 productId) public view returns (bool isValid, uint endTimestamp) {\n        return getSubscription(productId, msg.sender);\n    }\n\n    /**\n     * Checks if the given address currently has a valid subscription\n     */\n    function hasValidSubscription(bytes32 productId, address subscriber) public view returns (bool isValid) {\n        (isValid,) = getSubscription(productId, subscriber);\n    }\n    /**\n    _subscribe invokes _addSubscription, enforces payment rules, triggers PurchaseListener event\n     */\n\n    function _subscribe(bytes32 productId, uint addSeconds, address subscriber, bool requirePayment) internal {\n        _importSubscriptionIfNeeded(productId, subscriber);\n        (Product storage p, TimeBasedSubscription storage oldSub) = _getSubscriptionLocal(productId, subscriber);\n        require(p.state == ProductState.Deployed, \"error_notDeployed\");\n        require(!p.requiresWhitelist || p.whitelist[subscriber] == WhitelistState.Approved, \"Requires whitelist approval\");\n        uint endTimestamp;\n        if (oldSub.endTimestamp > block.timestamp) {\n            require(addSeconds > 0, \"error_topUpTooSmall\");\n            endTimestamp = oldSub.endTimestamp.add(addSeconds);\n            oldSub.endTimestamp = endTimestamp;\n            emit SubscriptionExtended(p.id, subscriber, endTimestamp);\n        } else {\n            require(addSeconds >= p.minimumSubscriptionSeconds, \"error_newSubscriptionTooSmall\");\n            endTimestamp = block.timestamp.add(addSeconds);\n            TimeBasedSubscription memory newSub = TimeBasedSubscription(endTimestamp);\n            p.subscriptions[subscriber] = newSub;\n            emit NewSubscription(p.id, subscriber, endTimestamp);\n        }\n        emit Subscribed(p.id, subscriber, endTimestamp);\n        uint price = 0;\n        if (requirePayment){\n            price = getPriceInData(addSeconds, p.pricePerSecond, p.priceCurrency);\n            require(datacoin.transferFrom(msg.sender, p.beneficiary, price), \"error_paymentFailed\");\n        }\n        uint256 codeSize;\n        address addr = p.beneficiary;\n        assembly { codeSize := extcodesize(addr) }  // solhint-disable-line no-inline-assembly\n        if (codeSize > 0) {\n            require(PurchaseListener(p.beneficiary).onPurchase(productId, subscriber, oldSub.endTimestamp, price));\n        }\n    }\n\n    function grantSubscription(bytes32 productId, uint subscriptionSeconds, address recipient) public whenNotHalted onlyProductOwner(productId){\n        return _subscribe(productId, subscriptionSeconds, recipient, false);\n    }\n\n\n    function buyFor(bytes32 productId, uint subscriptionSeconds, address recipient)  public whenNotHalted {\n        return _subscribe(productId, subscriptionSeconds, recipient, true);\n    }\n\n\n     /**\n     * Purchases access to this stream for msg.sender.\n     * If the address already has a valid subscription, extends the subscription by the given period.\n     * @dev since v4.0: Notify the seller if the seller implements PurchaseListener interface\n     */\n    function buy(bytes32 productId, uint subscriptionSeconds) public whenNotHalted {\n        buyFor(productId,subscriptionSeconds, msg.sender);\n    }\n\n\n    /**\n        gets subscriptions info from the subscriptions stored in this contract\n     */\n    function _getSubscriptionLocal(bytes32 productId, address subscriber) internal view returns (Product storage p, TimeBasedSubscription storage s) {\n        p = products[productId];\n        require(p.id != 0x0, \"error_notFound\");\n        s = p.subscriptions[subscriber];\n    }\n\n    function _isValid(TimeBasedSubscription storage s) internal view returns (bool) {\n        return s.endTimestamp >= block.timestamp;\n    }\n\n    // TODO: transfer allowance to another Marketplace contract\n    // Mechanism basically is that this Marketplace draws from the allowance and credits\n    //   the account on another Marketplace; OR that there is a central credit pool (say, an ERC20 token)\n    // Creating another ERC20 token for this could be a simple fix: it would need the ability to transfer allowances\n\n    /////////////// Currency management ///////////////\n\n    // Exchange rates are formatted as \"decimal fixed-point\", that is, scaled by 10^18, like ether.\n    //        Exponent: 10^18 15 12  9  6  3  0\n    //                      |  |  |  |  |  |  |\n    uint public dataPerUsd = 100000000000000000;   // ~= 0.1 DATA/USD\n\n    /**\n    * Update currency exchange rates; all purchases are still billed in DATAcoin\n    * @param timestamp in seconds when the exchange rates were last updated\n    * @param dataUsd how many data atoms (10^-18 DATA) equal one USD dollar\n    */\n    function updateExchangeRates(uint timestamp, uint dataUsd) public {\n        require(msg.sender == currencyUpdateAgent, \"error_notPermitted\");\n        require(dataUsd > 0);\n        dataPerUsd = dataUsd;\n        emit ExchangeRatesUpdated(timestamp, dataUsd);\n    }\n\n    /**\n    * Helper function to calculate (hypothetical) subscription cost for given seconds and price, using current exchange rates.\n    * @param subscriptionSeconds length of hypothetical subscription, as a non-scaled integer\n    * @param price nominal price scaled by 10^18 (\"token wei\" or \"attodollars\")\n    * @param unit unit of the number price\n    */\n    function getPriceInData(uint subscriptionSeconds, uint price, Currency unit) public view returns (uint datacoinAmount) {\n        if (unit == Currency.DATA) {\n            return price.mul(subscriptionSeconds);\n        }\n        return price.mul(dataPerUsd).div(10**18).mul(subscriptionSeconds);\n    }\n\n    /////////////// Admin functionality ///////////////\n\n    event Halted();\n    event Resumed();\n    bool public halted = false;\n\n    modifier whenNotHalted() {\n        require(!halted || owner == msg.sender, \"error_halted\");\n        _;\n    }\n    function halt() public onlyOwner {\n        halted = true;\n        emit Halted();\n    }\n    function resume() public onlyOwner {\n        halted = false;\n        emit Resumed();\n    }\n\n    function reInitialize(address datacoinAddress, address currencyUpdateAgentAddress, address prev_marketplace_address) public onlyOwner {\n        _initialize(datacoinAddress, currencyUpdateAgentAddress, prev_marketplace_address);\n    }\n\n    //whitelist functionality\n\n    //should the whitelist getter be built into getProduct()?\n    function getRequiresWhitelist(bytes32 productId) public view returns (bool) {\n        (,address _owner,,,,,) = getProduct(productId);\n        require(_owner != 0x0, \"error_notFound\");\n        //if it's not local this will return 0, which is false\n        Product storage p = products[productId];\n        return p.requiresWhitelist;\n    }\n\n    function setRequiresWhitelist(bytes32 productId, bool _requiresWhitelist) public onlyProductOwner(productId) {\n        _importProductIfNeeded(productId);\n        Product storage p = products[productId];\n        require(p.id != 0x0, \"Product not found\");\n        p.requiresWhitelist = _requiresWhitelist;\n        if(_requiresWhitelist)\n            emit WhitelistEnabled(productId);\n        else\n            emit WhitelistDisabled(productId);\n    }\n\n    function whitelistApprove(bytes32 productId, address subscriber) public onlyProductOwner(productId) {\n        _importProductIfNeeded(productId);\n        Product storage p = products[productId];\n        require(p.id != 0x0, \"Product not found\");\n        require(p.requiresWhitelist, \"Whitelist not enabled\");\n        p.whitelist[subscriber] = WhitelistState.Approved;\n        emit WhitelistApproved(productId,subscriber);\n    }\n\n    function whitelistReject(bytes32 productId, address subscriber) public onlyProductOwner(productId) {\n        _importProductIfNeeded(productId);\n        Product storage p = products[productId];\n        require(p.id != 0x0, \"Product not found\");\n        require(p.requiresWhitelist, \"Whitelist not enabled\");\n        p.whitelist[subscriber] = WhitelistState.Rejected;\n        emit WhitelistRejected(productId,subscriber);\n    }\n\n    function whitelistRequest(bytes32 productId) public {\n        _importProductIfNeeded(productId);\n        Product storage p = products[productId];\n        require(p.id != 0x0, \"Product not found\");\n        require(p.requiresWhitelist, \"Whitelist not enabled\");\n        require(p.whitelist[msg.sender] == WhitelistState.None, \"Whitelist request already submitted\");\n        p.whitelist[msg.sender] = WhitelistState.Pending;\n        emit WhitelistRequested(productId,msg.sender);\n    }\n\n    // Do we need a getter like this?\n    /*\n    function getWhitelistState(bytes32 productId, address subscriber) public view returns (WhitelistState wlstate) {\n        (,address _owner,,,,,) = getProduct(productId);\n        require(_owner != 0x0, \"error_notFound\");\n        //if it's not local this will return 0, which is WhitelistState.None\n        Product storage p = products[productId];\n        return p.whitelist[subscriber];\n    }\n    */\n\n}",
  "sourcePath": "/Users/jtakalai/Documents/workspace/marketplace-contracts/contracts/Marketplace.sol",
  "compiler": {
    "name": "solc",
    "version": "0.4.25+commit.59dbf8f1.Emscripten.clang"
  },
  "schemaVersion": "2.0.2",
  "updatedAt": "2019-03-15T12:14:34.468Z"
}