{
  "contractName": "Marketplace",
  "abi": [
    {
      "constant": true,
      "inputs": [],
      "name": "currencyUpdateAgent",
      "outputs": [
        {
          "name": "",
          "type": "address"
        }
      ],
      "payable": false,
      "stateMutability": "view",
      "type": "function"
    },
    {
      "constant": true,
      "inputs": [],
      "name": "dataPerUsd",
      "outputs": [
        {
          "name": "",
          "type": "uint256"
        }
      ],
      "payable": false,
      "stateMutability": "view",
      "type": "function"
    },
    {
      "inputs": [
        {
          "name": "datacoinAddress",
          "type": "address"
        },
        {
          "name": "currencyUpdateAgentAddress",
          "type": "address"
        }
      ],
      "payable": false,
      "stateMutability": "nonpayable",
      "type": "constructor"
    },
    {
      "anonymous": false,
      "inputs": [
        {
          "indexed": true,
          "name": "owner",
          "type": "address"
        },
        {
          "indexed": true,
          "name": "id",
          "type": "bytes32"
        },
        {
          "indexed": false,
          "name": "name",
          "type": "string"
        },
        {
          "indexed": false,
          "name": "beneficiary",
          "type": "address"
        },
        {
          "indexed": false,
          "name": "pricePerSecond",
          "type": "uint256"
        },
        {
          "indexed": false,
          "name": "minimumSubscriptionSeconds",
          "type": "uint256"
        }
      ],
      "name": "ProductCreated",
      "type": "event"
    },
    {
      "anonymous": false,
      "inputs": [
        {
          "indexed": true,
          "name": "owner",
          "type": "address"
        },
        {
          "indexed": true,
          "name": "id",
          "type": "bytes32"
        },
        {
          "indexed": false,
          "name": "name",
          "type": "string"
        },
        {
          "indexed": false,
          "name": "beneficiary",
          "type": "address"
        },
        {
          "indexed": false,
          "name": "pricePerSecond",
          "type": "uint256"
        },
        {
          "indexed": false,
          "name": "minimumSubscriptionSeconds",
          "type": "uint256"
        }
      ],
      "name": "ProductUpdated",
      "type": "event"
    },
    {
      "anonymous": false,
      "inputs": [
        {
          "indexed": true,
          "name": "owner",
          "type": "address"
        },
        {
          "indexed": true,
          "name": "id",
          "type": "bytes32"
        }
      ],
      "name": "ProductDeleted",
      "type": "event"
    },
    {
      "anonymous": false,
      "inputs": [
        {
          "indexed": true,
          "name": "owner",
          "type": "address"
        },
        {
          "indexed": true,
          "name": "id",
          "type": "bytes32"
        }
      ],
      "name": "ProductRedeployed",
      "type": "event"
    },
    {
      "anonymous": false,
      "inputs": [
        {
          "indexed": true,
          "name": "owner",
          "type": "address"
        },
        {
          "indexed": true,
          "name": "id",
          "type": "bytes32"
        },
        {
          "indexed": true,
          "name": "to",
          "type": "address"
        }
      ],
      "name": "ProductOwnershipOffered",
      "type": "event"
    },
    {
      "anonymous": false,
      "inputs": [
        {
          "indexed": true,
          "name": "newOwner",
          "type": "address"
        },
        {
          "indexed": true,
          "name": "id",
          "type": "bytes32"
        },
        {
          "indexed": true,
          "name": "oldOwner",
          "type": "address"
        }
      ],
      "name": "ProductOwnershipChanged",
      "type": "event"
    },
    {
      "anonymous": false,
      "inputs": [
        {
          "indexed": true,
          "name": "productId",
          "type": "bytes32"
        },
        {
          "indexed": true,
          "name": "subscriber",
          "type": "address"
        },
        {
          "indexed": false,
          "name": "endTimestamp",
          "type": "uint256"
        }
      ],
      "name": "Subscribed",
      "type": "event"
    },
    {
      "anonymous": false,
      "inputs": [
        {
          "indexed": true,
          "name": "productId",
          "type": "bytes32"
        },
        {
          "indexed": true,
          "name": "subscriber",
          "type": "address"
        },
        {
          "indexed": false,
          "name": "endTimestamp",
          "type": "uint256"
        }
      ],
      "name": "NewSubscription",
      "type": "event"
    },
    {
      "anonymous": false,
      "inputs": [
        {
          "indexed": true,
          "name": "productId",
          "type": "bytes32"
        },
        {
          "indexed": true,
          "name": "subscriber",
          "type": "address"
        },
        {
          "indexed": false,
          "name": "endTimestamp",
          "type": "uint256"
        }
      ],
      "name": "SubscriptionExtended",
      "type": "event"
    },
    {
      "anonymous": false,
      "inputs": [
        {
          "indexed": true,
          "name": "productId",
          "type": "bytes32"
        },
        {
          "indexed": true,
          "name": "from",
          "type": "address"
        },
        {
          "indexed": true,
          "name": "to",
          "type": "address"
        },
        {
          "indexed": false,
          "name": "secondsTransferred",
          "type": "uint256"
        },
        {
          "indexed": false,
          "name": "datacoinTransferred",
          "type": "uint256"
        }
      ],
      "name": "SubscriptionTransferred",
      "type": "event"
    },
    {
      "anonymous": false,
      "inputs": [
        {
          "indexed": false,
          "name": "timestamp",
          "type": "uint256"
        },
        {
          "indexed": false,
          "name": "dataInUsd",
          "type": "uint256"
        }
      ],
      "name": "ExchangeRatesUpdated",
      "type": "event"
    },
    {
      "constant": true,
      "inputs": [
        {
          "name": "id",
          "type": "bytes32"
        }
      ],
      "name": "getProduct",
      "outputs": [
        {
          "name": "name",
          "type": "string"
        },
        {
          "name": "owner",
          "type": "address"
        },
        {
          "name": "beneficiary",
          "type": "address"
        },
        {
          "name": "pricePerSecond",
          "type": "uint256"
        },
        {
          "name": "minimumSubscriptionSeconds",
          "type": "uint256"
        },
        {
          "name": "state",
          "type": "uint8"
        }
      ],
      "payable": false,
      "stateMutability": "view",
      "type": "function"
    },
    {
      "constant": true,
      "inputs": [
        {
          "name": "productId",
          "type": "bytes32"
        }
      ],
      "name": "getSubscription",
      "outputs": [
        {
          "name": "isValid",
          "type": "bool"
        },
        {
          "name": "endTimestamp",
          "type": "uint256"
        },
        {
          "name": "secondsLeft",
          "type": "uint256"
        }
      ],
      "payable": false,
      "stateMutability": "view",
      "type": "function"
    },
    {
      "constant": true,
      "inputs": [
        {
          "name": "productId",
          "type": "bytes32"
        },
        {
          "name": "subscriber",
          "type": "address"
        }
      ],
      "name": "getSubscription",
      "outputs": [
        {
          "name": "isValid",
          "type": "bool"
        },
        {
          "name": "endTimestamp",
          "type": "uint256"
        },
        {
          "name": "secondsLeft",
          "type": "uint256"
        }
      ],
      "payable": false,
      "stateMutability": "view",
      "type": "function"
    },
    {
      "constant": false,
      "inputs": [
        {
          "name": "id",
          "type": "bytes32"
        },
        {
          "name": "name",
          "type": "string"
        },
        {
          "name": "beneficiary",
          "type": "address"
        },
        {
          "name": "pricePerSecond",
          "type": "uint256"
        },
        {
          "name": "currency",
          "type": "uint8"
        },
        {
          "name": "minimumSubscriptionSeconds",
          "type": "uint256"
        }
      ],
      "name": "createProduct",
      "outputs": [],
      "payable": false,
      "stateMutability": "nonpayable",
      "type": "function"
    },
    {
      "constant": false,
      "inputs": [
        {
          "name": "productId",
          "type": "bytes32"
        }
      ],
      "name": "deleteProduct",
      "outputs": [],
      "payable": false,
      "stateMutability": "nonpayable",
      "type": "function"
    },
    {
      "constant": false,
      "inputs": [
        {
          "name": "productId",
          "type": "bytes32"
        }
      ],
      "name": "redeployProduct",
      "outputs": [],
      "payable": false,
      "stateMutability": "nonpayable",
      "type": "function"
    },
    {
      "constant": false,
      "inputs": [
        {
          "name": "productId",
          "type": "bytes32"
        },
        {
          "name": "name",
          "type": "string"
        },
        {
          "name": "beneficiary",
          "type": "address"
        },
        {
          "name": "pricePerSecond",
          "type": "uint256"
        },
        {
          "name": "minimumSubscriptionSeconds",
          "type": "uint256"
        }
      ],
      "name": "updateProduct",
      "outputs": [],
      "payable": false,
      "stateMutability": "nonpayable",
      "type": "function"
    },
    {
      "constant": false,
      "inputs": [
        {
          "name": "productId",
          "type": "bytes32"
        },
        {
          "name": "newOwnerCandidate",
          "type": "address"
        }
      ],
      "name": "offerProductOwnership",
      "outputs": [],
      "payable": false,
      "stateMutability": "nonpayable",
      "type": "function"
    },
    {
      "constant": false,
      "inputs": [
        {
          "name": "productId",
          "type": "bytes32"
        }
      ],
      "name": "claimProductOwnership",
      "outputs": [],
      "payable": false,
      "stateMutability": "nonpayable",
      "type": "function"
    },
    {
      "constant": false,
      "inputs": [
        {
          "name": "productId",
          "type": "bytes32"
        },
        {
          "name": "subscriptionSeconds",
          "type": "uint256"
        }
      ],
      "name": "buy",
      "outputs": [],
      "payable": false,
      "stateMutability": "nonpayable",
      "type": "function"
    },
    {
      "constant": true,
      "inputs": [
        {
          "name": "productId",
          "type": "bytes32"
        },
        {
          "name": "subscriber",
          "type": "address"
        }
      ],
      "name": "hasValidSubscription",
      "outputs": [
        {
          "name": "",
          "type": "bool"
        }
      ],
      "payable": false,
      "stateMutability": "view",
      "type": "function"
    },
    {
      "constant": false,
      "inputs": [
        {
          "name": "productId",
          "type": "bytes32"
        },
        {
          "name": "newSubscriber",
          "type": "address"
        }
      ],
      "name": "transferSubscription",
      "outputs": [],
      "payable": false,
      "stateMutability": "nonpayable",
      "type": "function"
    },
    {
      "constant": false,
      "inputs": [
        {
          "name": "timestamp",
          "type": "uint256"
        },
        {
          "name": "dataUsd",
          "type": "uint256"
        }
      ],
      "name": "updateExchangeRates",
      "outputs": [],
      "payable": false,
      "stateMutability": "nonpayable",
      "type": "function"
    },
    {
      "constant": false,
      "inputs": [
        {
          "name": "dataUsd",
          "type": "uint256"
        }
      ],
      "name": "updateExchangeRates",
      "outputs": [],
      "payable": false,
      "stateMutability": "nonpayable",
      "type": "function"
    }
  ],
  "bytecode": "0x60606040526001600355341561001457600080fd5b604051604080611dfc8339810160405280805190602001909190805190602001909190505080600260006101000a81548173ffffffffffffffffffffffffffffffffffffffff021916908373ffffffffffffffffffffffffffffffffffffffff16021790555081600160006101000a81548173ffffffffffffffffffffffffffffffffffffffff021916908373ffffffffffffffffffffffffffffffffffffffff1602179055505050611d30806100cc6000396000f3006060604052600436106100e6576000357c0100000000000000000000000000000000000000000000000000000000900463ffffffff1680630ddeb632146100eb5780631a464fa11461011b5780631f32768e1461014257806325017e101461018f5780633a20e9df146101d557806358f816bf146102fe5780635f28cb741461032557806389aaad291461039157806394727b41146103e657806396002aef1461040d578063b14f843214610453578063bc704580146104b1578063cafbc49d1461054c578063d50a04f4146105f3578063db6c709c1461061c578063e54135ac14610648575b600080fd5b34156100f657600080fd5b61011960048080356000191690602001909190803590602001909190505061066b565b005b341561012657600080fd5b610140600480803560001916906020019091905050610835565b005b341561014d57600080fd5b6101676004808035600019169060200190919050506109be565b6040518084151515158152602001838152602001828152602001935050505060405180910390f35b341561019a57600080fd5b6101d360048080356000191690602001909190803573ffffffffffffffffffffffffffffffffffffffff169060200190919050506109da565b005b34156101e057600080fd5b6101fa600480803560001916906020019091905050610b28565b60405180806020018773ffffffffffffffffffffffffffffffffffffffff1673ffffffffffffffffffffffffffffffffffffffff1681526020018673ffffffffffffffffffffffffffffffffffffffff1673ffffffffffffffffffffffffffffffffffffffff16815260200185815260200184815260200183600181111561027e57fe5b60ff168152602001828103825288818151815260200191508051906020019080838360005b838110156102be5780820151818401526020810190506102a3565b50505050905090810190601f1680156102eb5780820380516001836020036101000a031916815260200191505b5097505050505050505060405180910390f35b341561030957600080fd5b610323600480803560001916906020019091905050610ce9565b005b341561033057600080fd5b61036960048080356000191690602001909190803573ffffffffffffffffffffffffffffffffffffffff16906020019091905050610e7e565b6040518084151515158152602001838152602001828152602001935050505060405180910390f35b341561039c57600080fd5b6103a4610ebe565b604051808273ffffffffffffffffffffffffffffffffffffffff1673ffffffffffffffffffffffffffffffffffffffff16815260200191505060405180910390f35b34156103f157600080fd5b61040b600480803560001916906020019091905050610ee4565b005b341561041857600080fd5b61045160048080356000191690602001909190803573ffffffffffffffffffffffffffffffffffffffff16906020019091905050611078565b005b341561045e57600080fd5b61049760048080356000191690602001909190803573ffffffffffffffffffffffffffffffffffffffff169060200190919050506111f3565b604051808215151515815260200191505060405180910390f35b34156104bc57600080fd5b61054a60048080356000191690602001909190803590602001908201803590602001908080601f0160208091040260200160405190810160405280939291908181526020018383808284378201915050505050509190803573ffffffffffffffffffffffffffffffffffffffff1690602001909190803590602001909190803590602001909190505061120e565b005b341561055757600080fd5b6105f160048080356000191690602001909190803590602001908201803590602001908080601f0160208091040260200160405190810160405280939291908181526020018383808284378201915050505050509190803573ffffffffffffffffffffffffffffffffffffffff1690602001909190803590602001909190803560ff16906020019091908035906020019091905050611454565b005b34156105fe57600080fd5b6106066117c3565b6040518082815260200191505060405180910390f35b341561062757600080fd5b61064660048080359060200190919080359060200190919050506117c9565b005b341561065357600080fd5b610669600480803590602001909190505061187e565b005b600080600061067a8533611923565b935093505060018081111561068b57fe5b8360070160009054906101000a900460ff1660018111156106a857fe5b1415156106b457600080fd5b6106c0833386856119be565b6106e1848460040154028460050160009054906101000a900460ff16611b81565b9050600160009054906101000a900473ffffffffffffffffffffffffffffffffffffffff1673ffffffffffffffffffffffffffffffffffffffff166323b872dd338560030160009054906101000a900473ffffffffffffffffffffffffffffffffffffffff16846000604051602001526040518463ffffffff167c0100000000000000000000000000000000000000000000000000000000028152600401808473ffffffffffffffffffffffffffffffffffffffff1673ffffffffffffffffffffffffffffffffffffffff1681526020018373ffffffffffffffffffffffffffffffffffffffff1673ffffffffffffffffffffffffffffffffffffffff1681526020018281526020019350505050602060405180830381600087803b151561080857600080fd5b6102c65a03f1151561081957600080fd5b50505060405180519050151561082e57600080fd5b5050505050565b6000806000836000191660001916815260200190815260200160002090508060090160009054906101000a900473ffffffffffffffffffffffffffffffffffffffff1673ffffffffffffffffffffffffffffffffffffffff163373ffffffffffffffffffffffffffffffffffffffff161415156108b157600080fd5b8060020160009054906101000a900473ffffffffffffffffffffffffffffffffffffffff1673ffffffffffffffffffffffffffffffffffffffff1682600019163373ffffffffffffffffffffffffffffffffffffffff167eaf27297c740fbece798135b71b06164310e0591b6c729e50b8026dcc60be5060405160405180910390a4338160020160006101000a81548173ffffffffffffffffffffffffffffffffffffffff021916908373ffffffffffffffffffffffffffffffffffffffff16021790555060008160090160006101000a81548173ffffffffffffffffffffffffffffffffffffffff021916908373ffffffffffffffffffffffffffffffffffffffff1602179055505050565b60008060006109cd8433610e7e565b9250925092509193909250565b6000806000806000806109ed8833611923565b9550955095508515156109ff57600080fd5b4284600001540392508460040154830291508460080160008873ffffffffffffffffffffffffffffffffffffffff1673ffffffffffffffffffffffffffffffffffffffff1681526020019081526020016000209050610a60858885846119be565b8460080160003373ffffffffffffffffffffffffffffffffffffffff1673ffffffffffffffffffffffffffffffffffffffff16815260200190815260200160002060008082016000905550508673ffffffffffffffffffffffffffffffffffffffff163373ffffffffffffffffffffffffffffffffffffffff1689600019167fd48f962428456c3dad240e62550064e40e985c034aba41b08972dfa1df82dac98686604051808381526020018281526020019250505060405180910390a45050505050505050565b610b30611bb7565b60008060008060008060008860001916600019168152602001908152602001600020600101600080896000191660001916815260200190815260200160002060020160009054906101000a900473ffffffffffffffffffffffffffffffffffffffff166000808a6000191660001916815260200190815260200160002060030160009054906101000a900473ffffffffffffffffffffffffffffffffffffffff166000808b60001916600019168152602001908152602001600020600401546000808c60001916600019168152602001908152602001600020600601546000808d6000191660001916815260200190815260200160002060070160009054906101000a900460ff16858054600181600116156101000203166002900480601f016020809104026020016040519081016040528092919081815260200182805460018160011615610100020316600290048015610ccd5780601f10610ca257610100808354040283529160200191610ccd565b820191906000526020600020905b815481529060010190602001808311610cb057829003601f168201915b5050505050955095509550955095509550955091939550919395565b806000806000836000191660001916815260200190815260200160002090503373ffffffffffffffffffffffffffffffffffffffff168160020160009054906101000a900473ffffffffffffffffffffffffffffffffffffffff1673ffffffffffffffffffffffffffffffffffffffff16141515610d6657600080fd5b60006001811115610d7357fe5b600080856000191660001916815260200190815260200160002060070160009054906101000a900460ff166001811115610da957fe5b141515610db557600080fd5b6001600080856000191660001916815260200190815260200160002060070160006101000a81548160ff02191690836001811115610def57fe5b02179055508260001916600080856000191660001916815260200190815260200160002060020160009054906101000a900473ffffffffffffffffffffffffffffffffffffffff1673ffffffffffffffffffffffffffffffffffffffff167fcc41802abf93615c861cf326bea397049743005e7ef7186781e38f2e4f0e8ac360405160405180910390a3505050565b6000806000806000610e908787611923565b92505091508194508060000154935084610eab576000610eb3565b428160000154035b925050509250925092565b600260009054906101000a900473ffffffffffffffffffffffffffffffffffffffff1681565b806000806000836000191660001916815260200190815260200160002090503373ffffffffffffffffffffffffffffffffffffffff168160020160009054906101000a900473ffffffffffffffffffffffffffffffffffffffff1673ffffffffffffffffffffffffffffffffffffffff16141515610f6157600080fd5b600180811115610f6d57fe5b600080856000191660001916815260200190815260200160002060070160009054906101000a900460ff166001811115610fa357fe5b141515610faf57600080fd5b6000806000856000191660001916815260200190815260200160002060070160006101000a81548160ff02191690836001811115610fe957fe5b02179055508260001916600080856000191660001916815260200190815260200160002060020160009054906101000a900473ffffffffffffffffffffffffffffffffffffffff1673ffffffffffffffffffffffffffffffffffffffff167f1d1b32447bc5ab0a0147aeb01a0629a65196e98b1d43864158f95b185f5c891360405160405180910390a3505050565b816000806000836000191660001916815260200190815260200160002090503373ffffffffffffffffffffffffffffffffffffffff168160020160009054906101000a900473ffffffffffffffffffffffffffffffffffffffff1673ffffffffffffffffffffffffffffffffffffffff161415156110f557600080fd5b82600080866000191660001916815260200190815260200160002060090160006101000a81548173ffffffffffffffffffffffffffffffffffffffff021916908373ffffffffffffffffffffffffffffffffffffffff1602179055508273ffffffffffffffffffffffffffffffffffffffff168460001916600080876000191660001916815260200190815260200160002060020160009054906101000a900473ffffffffffffffffffffffffffffffffffffffff1673ffffffffffffffffffffffffffffffffffffffff167f62160e4abadfc3a6afc583d10586d737c813753fe64d93f4283282b2b600a34460405160405180910390a450505050565b6000806112008484611923565b505090508091505092915050565b6000856000806000836000191660001916815260200190815260200160002090503373ffffffffffffffffffffffffffffffffffffffff168160020160009054906101000a900473ffffffffffffffffffffffffffffffffffffffff1673ffffffffffffffffffffffffffffffffffffffff1614151561128d57600080fd5b60008511151561129c57600080fd5b60008089600019166000191681526020019081526020016000209250868360010190805190602001906112d0929190611bcb565b50858360030160006101000a81548173ffffffffffffffffffffffffffffffffffffffff021916908373ffffffffffffffffffffffffffffffffffffffff1602179055508483600401819055508383600601819055508260000154600019168360020160009054906101000a900473ffffffffffffffffffffffffffffffffffffffff1673ffffffffffffffffffffffffffffffffffffffff167f928e550794b88e3dd2d0bafae22435f3c4262176522d3d89b34606fe28e9f69b8989898960405180806020018573ffffffffffffffffffffffffffffffffffffffff1673ffffffffffffffffffffffffffffffffffffffff168152602001848152602001838152602001828103825286818151815260200191508051906020019080838360005b8381101561140d5780820151818401526020810190506113f2565b50505050905090810190601f16801561143a5780820380516001836020036101000a031916815260200191505b509550505050505060405180910390a35050505050505050565b6000808411151561146457600080fd5b60008088600019166000191681526020019081526020016000209050600060010281600001546000191614151561149a57600080fd5b61012060405190810160405280886000191681526020018781526020013373ffffffffffffffffffffffffffffffffffffffff1681526020018673ffffffffffffffffffffffffffffffffffffffff16815260200185815260200184600181111561150157fe5b815260200183815260200160018081111561151857fe5b8152602001600073ffffffffffffffffffffffffffffffffffffffff16815250600080896000191660001916815260200190815260200160002060008201518160000190600019169055602082015181600101908051906020019061157e929190611c4b565b5060408201518160020160006101000a81548173ffffffffffffffffffffffffffffffffffffffff021916908373ffffffffffffffffffffffffffffffffffffffff16021790555060608201518160030160006101000a81548173ffffffffffffffffffffffffffffffffffffffff021916908373ffffffffffffffffffffffffffffffffffffffff1602179055506080820151816004015560a08201518160050160006101000a81548160ff0219169083600181111561163b57fe5b021790555060c0820151816006015560e08201518160070160006101000a81548160ff0219169083600181111561166e57fe5b02179055506101008201518160090160006101000a81548173ffffffffffffffffffffffffffffffffffffffff021916908373ffffffffffffffffffffffffffffffffffffffff16021790555090505086600019163373ffffffffffffffffffffffffffffffffffffffff167f9f060e2dacee1a1b10ee6ca823f27922d05d41ce89a19ac942c4acf9140f10e88888888760405180806020018573ffffffffffffffffffffffffffffffffffffffff1673ffffffffffffffffffffffffffffffffffffffff168152602001848152602001838152602001828103825286818151815260200191508051906020019080838360005b8381101561177d578082015181840152602081019050611762565b50505050905090810190601f1680156117aa5780820380516001836020036101000a031916815260200191505b509550505050505060405180910390a350505050505050565b60035481565b600260009054906101000a900473ffffffffffffffffffffffffffffffffffffffff1673ffffffffffffffffffffffffffffffffffffffff163373ffffffffffffffffffffffffffffffffffffffff1614151561182557600080fd5b60008111151561183457600080fd5b806003819055507fc84d758f9836fe65b8f2be13d5e364b9373411e1158b63c1c5abbbae789496098282604051808381526020018281526020019250505060405180910390a15050565b600260009054906101000a900473ffffffffffffffffffffffffffffffffffffffff1673ffffffffffffffffffffffffffffffffffffffff163373ffffffffffffffffffffffffffffffffffffffff161415156118da57600080fd5b806003819055507fc84d758f9836fe65b8f2be13d5e364b9373411e1158b63c1c5abbbae789496094282604051808381526020018281526020019250505060405180910390a150565b60008060008060008060008860001916600019168152602001908152602001600020915060006001028260000154600019161415151561196257600080fd5b8160080160008773ffffffffffffffffffffffffffffffffffffffff1673ffffffffffffffffffffffffffffffffffffffff16815260200190815260200160002090504281600001541015828294509450945050509250925092565b60006119c8611ccb565b4283600001541115611a51576000841115156119e357600080fd5b8383600001540191508183600001819055508473ffffffffffffffffffffffffffffffffffffffff168660000154600019167f602ca7f17c81aa5e62b3381000dd445f5af7c333574da85f4b246288afc07322846040518082815260200191505060405180910390a3611b22565b85600601548410151515611a6457600080fd5b8342019150602060405190810160405280838152509050808660080160008773ffffffffffffffffffffffffffffffffffffffff1673ffffffffffffffffffffffffffffffffffffffff168152602001908152602001600020600082015181600001559050508473ffffffffffffffffffffffffffffffffffffffff168660000154600019167f9c3ab7e86c11d820cc311335294ebdf7299d8637d47253b930c4120b775d7cca846040518082815260200191505060405180910390a35b8473ffffffffffffffffffffffffffffffffffffffff168660000154600019167fe22e8c2d8a284063fec10f270bc3c776ffb40bcf816b73eef36354d5f3d7b3d4846040518082815260200191505060405180910390a3505050505050565b6000806001811115611b8f57fe5b826001811115611b9b57fe5b1415611ba957829050611bb1565b600354830290505b92915050565b602060405190810160405280600081525090565b828054600181600116156101000203166002900490600052602060002090601f016020900481019282601f10611c0c57805160ff1916838001178555611c3a565b82800160010185558215611c3a579182015b82811115611c39578251825591602001919060010190611c1e565b5b509050611c479190611cdf565b5090565b828054600181600116156101000203166002900490600052602060002090601f016020900481019282601f10611c8c57805160ff1916838001178555611cba565b82800160010185558215611cba579182015b82811115611cb9578251825591602001919060010190611c9e565b5b509050611cc79190611cdf565b5090565b602060405190810160405280600081525090565b611d0191905b80821115611cfd576000816000905550600101611ce5565b5090565b905600a165627a7a72305820e042cd8796612ab28b53baf504527cc449365092609f0f81677f79b910fb16820029",
  "source": "pragma solidity ^0.4.0;\n\nimport \"../node_modules/zeppelin-solidity/contracts/token/ERC20/ERC20.sol\";\n\n//TODO: import \"../node_modules/zeppelin-solidity/contracts/ownership/Ownable.sol\";\n\ncontract Marketplace {\n\n    // product events\n    event ProductCreated(address indexed owner, bytes32 indexed id, string name, address beneficiary, uint pricePerSecond, uint minimumSubscriptionSeconds);\n    event ProductUpdated(address indexed owner, bytes32 indexed id, string name, address beneficiary, uint pricePerSecond, uint minimumSubscriptionSeconds);\n    event ProductDeleted(address indexed owner, bytes32 indexed id);\n    event ProductRedeployed(address indexed owner, bytes32 indexed id);    \n    event ProductOwnershipOffered(address indexed owner, bytes32 indexed id, address indexed to);\n    event ProductOwnershipChanged(address indexed newOwner, bytes32 indexed id, address indexed oldOwner);\n\n    // subscription events\n    event Subscribed(bytes32 indexed productId, address indexed subscriber, uint endTimestamp);\n    event NewSubscription(bytes32 indexed productId, address indexed subscriber, uint endTimestamp);\n    event SubscriptionExtended(bytes32 indexed productId, address indexed subscriber, uint endTimestamp);\n    event SubscriptionTransferred(bytes32 indexed productId, address indexed from, address indexed to, uint secondsTransferred, uint datacoinTransferred);    \n\n    // currency events\n    event ExchangeRatesUpdated(uint timestamp, uint dataInUsd);\n\n    enum ProductState {\n        NotDeployed,                // non-existent or deleted\n        Deployed                    // created or redeployed\n    }\n\n    enum Currency {\n        DATA,\n        USD\n    }\n\n    struct Product {\n        //bytes32 parentProductId;   // later, products could be arranged in trees containing sub-products\n        bytes32 id;\n        string name;\n        address owner;\n        address beneficiary;        // account where revenue is directed to\n        uint pricePerSecond;\n        Currency priceCurrency;\n        uint minimumSubscriptionSeconds;\n        ProductState state;\n        mapping(address => TimeBasedSubscription) subscriptions;\n        address newOwnerCandidate;  // Two phase hand-over to minimize the chance that the product ownership is lost to a non-existent address.\n    }\n\n    struct TimeBasedSubscription {        \n        //string productId;         // from mapping key\n        //address buyer;            // from mapping key\n        uint endTimestamp;\n    }\n\n    mapping (bytes32 => Product) products;\n    function getProduct(bytes32 id) public view returns (string name, address owner, address beneficiary, uint pricePerSecond, uint minimumSubscriptionSeconds, ProductState state) {\n        return (\n            products[id].name,\n            products[id].owner,\n            products[id].beneficiary,\n            products[id].pricePerSecond,\n            products[id].minimumSubscriptionSeconds,\n            products[id].state\n        );\n    }\n\n    function getSubscription(bytes32 productId, address subscriber) public view returns (bool isValid, uint endTimestamp, uint secondsLeft) {\n        var (v, , sub) = _getSubscription(productId, subscriber);\n        isValid = v;\n        endTimestamp = sub.endTimestamp;\n        secondsLeft = isValid ? sub.endTimestamp - block.timestamp : 0;\n    }\n\n    function getSubscription(bytes32 productId) public view returns (bool isValid, uint endTimestamp, uint secondsLeft) {\n        return getSubscription(productId, msg.sender);\n    }\n\n    ERC20 datacoin;\n\n    address public currencyUpdateAgent;\n\n    function Marketplace(address datacoinAddress, address currencyUpdateAgentAddress) public {        \n        currencyUpdateAgent = currencyUpdateAgentAddress;\n        datacoin = ERC20(datacoinAddress);\n    }\n\n    ////////////////// Product management /////////////////\n\n    // also checks that p exists: p.owner == 0 for non-existent products    \n    modifier onlyProductOwner(bytes32 productId) {\n        Product storage p = products[productId];        \n        require(p.owner == msg.sender); //, \"Only product owner may call this function\");\n        _;\n    }\n\n    // TODO: priceCurrency\n    function createProduct(bytes32 id, string name, address beneficiary, uint pricePerSecond, Currency currency, uint minimumSubscriptionSeconds) public {\n        require(pricePerSecond > 0); //, \"Free streams go through different channel\");\n        Product storage p = products[id];\n        require(p.id == 0); //, \"Product with this ID already exists\");        \n        products[id] = Product(id, name, msg.sender, beneficiary, pricePerSecond, currency, minimumSubscriptionSeconds, ProductState.Deployed, 0);\n        ProductCreated(msg.sender, id, name, beneficiary, pricePerSecond, minimumSubscriptionSeconds);\n    }\n\n    /**\n    * Stop offering the product\n    */\n    function deleteProduct(bytes32 productId) public onlyProductOwner(productId) {        \n        require(products[productId].state == ProductState.Deployed);\n        products[productId].state = ProductState.NotDeployed;\n        ProductDeleted(products[productId].owner, productId);\n    }\n\n    /**\n    * Return product to market\n    */\n    function redeployProduct(bytes32 productId) public onlyProductOwner(productId) {        \n        require(products[productId].state == ProductState.NotDeployed);\n        products[productId].state = ProductState.Deployed;\n        ProductRedeployed(products[productId].owner, productId);\n    }\n\n    function updateProduct(bytes32 productId, string name, address beneficiary, uint pricePerSecond, uint minimumSubscriptionSeconds) public onlyProductOwner(productId) {\n        require(pricePerSecond > 0); //, \"Free streams go through different channel\");\n        Product storage p = products[productId]; \n        p.name = name;\n        p.beneficiary = beneficiary;\n        p.pricePerSecond = pricePerSecond;\n        p.minimumSubscriptionSeconds = minimumSubscriptionSeconds;        \n        ProductUpdated(p.owner, p.id, name, beneficiary, pricePerSecond, minimumSubscriptionSeconds);\n    }\n\n    /**\n    * Changes ownership of the product. Two phase hand-over minimizes the chance that the product ownership is lost to a non-existent address.\n    */\n    function offerProductOwnership(bytes32 productId, address newOwnerCandidate) public onlyProductOwner(productId) {\n        // that productId exists is already checked in onlyProductOwner\n        products[productId].newOwnerCandidate = newOwnerCandidate;\n        ProductOwnershipOffered(products[productId].owner, productId, newOwnerCandidate);\n    }\n\n    /**\n    * Changes ownership of the product. Two phase hand-over minimizes the chance that the product ownership is lost to a non-existent address.\n    */\n    function claimProductOwnership(bytes32 productId) public {\n        // also checks that productId exists\n        Product storage p = products[productId]; \n        require(msg.sender == p.newOwnerCandidate);\n        ProductOwnershipChanged(msg.sender, productId, p.owner);\n        p.owner = msg.sender;\n        p.newOwnerCandidate = 0;\n    }\n\n    /////////////// Subscription management ///////////////\n\n    /**\n     * Purchases access to this stream for msg.sender.\n     * If the address already has a valid subscription, extends the subscription by the given period.\n     */\n    function buy(bytes32 productId, uint subscriptionSeconds) public {\n        var (, product, sub) = _getSubscription(productId, msg.sender);\n        require(product.state == ProductState.Deployed); //, \"Product has been deleted\");        \n        _addSubscription(product, msg.sender, subscriptionSeconds, sub);\n\n        uint price = _toDatacoin(product.pricePerSecond * subscriptionSeconds, product.priceCurrency);\n        require(datacoin.transferFrom(msg.sender, product.beneficiary, price));  //, \"Not enough DATAcoin allowance\");\n    }\n\n    /**\n    * Checks if the given address currently has a valid subscription\n    */\n    function hasValidSubscription(bytes32 productId, address subscriber) public constant returns (bool) {\n        var (isValid, , ) = _getSubscription(productId, subscriber);\n        return isValid;\n    }\n\n    /**\n    * Transfer a valid subscription from msg.sender to a new address.\n    * If the address already has a valid subscription, extends the subscription by the msg.sender's remaining period.\n    */\n    function transferSubscription(bytes32 productId, address newSubscriber) public {\n        var (isValid, product, sub) = _getSubscription(productId, msg.sender);\n        require(isValid);   //, \"Only valid subscriptions can be transferred\");\n        uint secondsLeft = sub.endTimestamp - block.timestamp; // TODO: SafeMath\n        uint datacoinLeft = secondsLeft * product.pricePerSecond;\n        TimeBasedSubscription storage newSub = product.subscriptions[newSubscriber];\n        _addSubscription(product, newSubscriber, secondsLeft, newSub);\n        delete product.subscriptions[msg.sender];\n        SubscriptionTransferred(productId, msg.sender, newSubscriber, secondsLeft, datacoinLeft);\n    }\n\n    function _getSubscription(bytes32 productId, address subscriber) internal constant returns (bool subIsValid, Product storage, TimeBasedSubscription storage) {\n        Product storage p = products[productId];\n        require(p.id != 0); //, \"Product doesn't exist\");\n        TimeBasedSubscription storage s = p.subscriptions[subscriber];\n        return (s.endTimestamp >= block.timestamp, p, s);\n    }\n    \n    function _addSubscription(Product storage p, address subscriber, uint addSeconds, TimeBasedSubscription storage oldSub) internal {\n        uint endTimestamp;\n        if (oldSub.endTimestamp > block.timestamp) {\n            require(addSeconds > 0); //, \"Must top up worth at least one second\");\n            endTimestamp = oldSub.endTimestamp + addSeconds;    // TODO: SafeMath\n            oldSub.endTimestamp = endTimestamp;  \n            SubscriptionExtended(p.id, subscriber, endTimestamp);\n        } else {\n            require(addSeconds >= p.minimumSubscriptionSeconds); //, \"More ether required to meet the minimum subscription period\");\n            endTimestamp = block.timestamp + addSeconds;\n            TimeBasedSubscription memory newSub = TimeBasedSubscription(endTimestamp);\n            p.subscriptions[subscriber] = newSub;\n            NewSubscription(p.id, subscriber, endTimestamp);\n        }\n        Subscribed(p.id, subscriber, endTimestamp);\n    }\n\n    // TODO: transfer allowance to another Marketplace contract\n    // Mechanism basically is that this Marketplace draws from the allowance and credits\n    //   the account on another Marketplace; OR that there is a central credit pool (say, an ERC20 token)\n    // Creating another ERC20 token for this could be a simple fix: it would need the ability to transfer allowances\n\n    /////////////// Currency management ///////////////\n\n    uint public dataPerUsd = 1;\n\n    /**\n    * Update currency exchange rates; all purchases are still billed in DATAcoin\n    * @param timestamp in seconds when the exchange rates were last updated\n    * @param dataUsd how many data atoms (10^-18 DATA) equal one USD\n    */\n    function updateExchangeRates(uint timestamp, uint dataUsd) public {\n        require(msg.sender == currencyUpdateAgent);\n        require(dataUsd > 0);\n        dataPerUsd = dataUsd;\n        ExchangeRatesUpdated(timestamp, dataUsd);\n    }\n\n    /**\n    * Allow updating currency exchange rates even if time of exchange rate isn't known\n    */\n    function updateExchangeRates(uint dataUsd) public {\n        require(msg.sender == currencyUpdateAgent);\n        dataPerUsd = dataUsd;\n        ExchangeRatesUpdated(block.timestamp, dataUsd);\n    }    \n\n    function _toDatacoin(uint number, Currency unit) view internal returns (uint datacoinAmount) {\n        if (unit == Currency.DATA) {\n            return number;\n        }\n        return number * dataPerUsd;\n    }\n}",
  "sourcePath": "/Users/jtakalai/Documents/workspace/marketplace-contracts/contracts/Marketplace.sol",
  "compiler": {
    "name": "solc",
    "version": "0.4.19+commit.c4cbbb05.Emscripten.clang"
  },
  "schemaVersion": "1.0.1",
  "updatedAt": "2018-02-23T08:18:32.712Z"
}