{
  "contractName": "Marketplace",
  "abi": [
    {
      "inputs": [
        {
          "name": "datacoinAddress",
          "type": "address"
        }
      ],
      "payable": false,
      "stateMutability": "nonpayable",
      "type": "constructor"
    },
    {
      "anonymous": false,
      "inputs": [
        {
          "indexed": true,
          "name": "id",
          "type": "bytes32"
        },
        {
          "indexed": false,
          "name": "name",
          "type": "string"
        },
        {
          "indexed": false,
          "name": "beneficiary",
          "type": "address"
        },
        {
          "indexed": false,
          "name": "pricePerSecond",
          "type": "uint256"
        },
        {
          "indexed": false,
          "name": "minimumSubscriptionSeconds",
          "type": "uint256"
        }
      ],
      "name": "ProductCreated",
      "type": "event"
    },
    {
      "anonymous": false,
      "inputs": [
        {
          "indexed": true,
          "name": "id",
          "type": "bytes32"
        },
        {
          "indexed": false,
          "name": "name",
          "type": "string"
        },
        {
          "indexed": false,
          "name": "beneficiary",
          "type": "address"
        },
        {
          "indexed": false,
          "name": "pricePerSecond",
          "type": "uint256"
        },
        {
          "indexed": false,
          "name": "minimumSubscriptionSeconds",
          "type": "uint256"
        }
      ],
      "name": "ProductUpdated",
      "type": "event"
    },
    {
      "anonymous": false,
      "inputs": [
        {
          "indexed": true,
          "name": "id",
          "type": "bytes32"
        }
      ],
      "name": "ProductDeleted",
      "type": "event"
    },
    {
      "anonymous": false,
      "inputs": [
        {
          "indexed": true,
          "name": "id",
          "type": "bytes32"
        }
      ],
      "name": "ProductRedeployed",
      "type": "event"
    },
    {
      "anonymous": false,
      "inputs": [
        {
          "indexed": true,
          "name": "productId",
          "type": "bytes32"
        },
        {
          "indexed": true,
          "name": "subscriber",
          "type": "address"
        },
        {
          "indexed": false,
          "name": "endTimestamp",
          "type": "uint256"
        }
      ],
      "name": "Subscribed",
      "type": "event"
    },
    {
      "anonymous": false,
      "inputs": [
        {
          "indexed": true,
          "name": "productId",
          "type": "bytes32"
        },
        {
          "indexed": true,
          "name": "subscriber",
          "type": "address"
        },
        {
          "indexed": false,
          "name": "endTimestamp",
          "type": "uint256"
        }
      ],
      "name": "NewSubscription",
      "type": "event"
    },
    {
      "anonymous": false,
      "inputs": [
        {
          "indexed": true,
          "name": "productId",
          "type": "bytes32"
        },
        {
          "indexed": true,
          "name": "subscriber",
          "type": "address"
        },
        {
          "indexed": false,
          "name": "endTimestamp",
          "type": "uint256"
        }
      ],
      "name": "SubscriptionExtended",
      "type": "event"
    },
    {
      "anonymous": false,
      "inputs": [
        {
          "indexed": true,
          "name": "productId",
          "type": "bytes32"
        },
        {
          "indexed": true,
          "name": "from",
          "type": "address"
        },
        {
          "indexed": true,
          "name": "to",
          "type": "address"
        },
        {
          "indexed": false,
          "name": "secondsTransferred",
          "type": "uint256"
        },
        {
          "indexed": false,
          "name": "datacoinTransferred",
          "type": "uint256"
        }
      ],
      "name": "SubscriptionTransferred",
      "type": "event"
    },
    {
      "constant": true,
      "inputs": [
        {
          "name": "id",
          "type": "bytes32"
        }
      ],
      "name": "getProduct",
      "outputs": [
        {
          "name": "name",
          "type": "string"
        },
        {
          "name": "beneficiary",
          "type": "address"
        },
        {
          "name": "pricePerSecond",
          "type": "uint256"
        },
        {
          "name": "minimumSubscriptionSeconds",
          "type": "uint256"
        },
        {
          "name": "state",
          "type": "uint8"
        }
      ],
      "payable": false,
      "stateMutability": "view",
      "type": "function"
    },
    {
      "constant": true,
      "inputs": [
        {
          "name": "productId",
          "type": "bytes32"
        }
      ],
      "name": "getSubscription",
      "outputs": [
        {
          "components": [
            {
              "name": "endTimestamp",
              "type": "uint256"
            }
          ],
          "name": "subsciption",
          "type": "tuple"
        }
      ],
      "payable": false,
      "stateMutability": "view",
      "type": "function"
    },
    {
      "constant": true,
      "inputs": [
        {
          "name": "productId",
          "type": "bytes32"
        },
        {
          "name": "subscriber",
          "type": "address"
        }
      ],
      "name": "getSubscription",
      "outputs": [
        {
          "components": [
            {
              "name": "endTimestamp",
              "type": "uint256"
            }
          ],
          "name": "subsciption",
          "type": "tuple"
        }
      ],
      "payable": false,
      "stateMutability": "view",
      "type": "function"
    },
    {
      "constant": false,
      "inputs": [
        {
          "name": "id",
          "type": "bytes32"
        },
        {
          "name": "name",
          "type": "string"
        },
        {
          "name": "pricePerSecond",
          "type": "uint256"
        },
        {
          "name": "minimumSubscriptionSeconds",
          "type": "uint256"
        }
      ],
      "name": "createProduct",
      "outputs": [],
      "payable": false,
      "stateMutability": "nonpayable",
      "type": "function"
    },
    {
      "constant": false,
      "inputs": [
        {
          "name": "productId",
          "type": "bytes32"
        }
      ],
      "name": "deleteProduct",
      "outputs": [],
      "payable": false,
      "stateMutability": "nonpayable",
      "type": "function"
    },
    {
      "constant": false,
      "inputs": [
        {
          "name": "productId",
          "type": "bytes32"
        }
      ],
      "name": "undeleteProduct",
      "outputs": [],
      "payable": false,
      "stateMutability": "nonpayable",
      "type": "function"
    },
    {
      "constant": false,
      "inputs": [
        {
          "name": "productId",
          "type": "bytes32"
        },
        {
          "name": "pricePerSecond",
          "type": "uint256"
        },
        {
          "name": "minimumSubscriptionSeconds",
          "type": "uint256"
        }
      ],
      "name": "updatePricing",
      "outputs": [],
      "payable": false,
      "stateMutability": "nonpayable",
      "type": "function"
    },
    {
      "constant": false,
      "inputs": [
        {
          "name": "productId",
          "type": "bytes32"
        },
        {
          "name": "newBeneficiary",
          "type": "address"
        }
      ],
      "name": "setBeneficiary",
      "outputs": [],
      "payable": false,
      "stateMutability": "nonpayable",
      "type": "function"
    },
    {
      "constant": false,
      "inputs": [
        {
          "name": "productId",
          "type": "bytes32"
        },
        {
          "name": "subscriptionSeconds",
          "type": "uint256"
        }
      ],
      "name": "buy",
      "outputs": [],
      "payable": false,
      "stateMutability": "nonpayable",
      "type": "function"
    },
    {
      "constant": true,
      "inputs": [
        {
          "name": "productId",
          "type": "bytes32"
        },
        {
          "name": "subscriber",
          "type": "address"
        }
      ],
      "name": "hasValidSubscription",
      "outputs": [
        {
          "name": "",
          "type": "bool"
        }
      ],
      "payable": false,
      "stateMutability": "view",
      "type": "function"
    },
    {
      "constant": false,
      "inputs": [
        {
          "name": "productId",
          "type": "bytes32"
        },
        {
          "name": "newSubscriber",
          "type": "address"
        }
      ],
      "name": "transferSubscription",
      "outputs": [],
      "payable": false,
      "stateMutability": "nonpayable",
      "type": "function"
    }
  ],
  "bytecode": "0x6060604052341561000f57600080fd5b6040516020806114338339810160405280805190602001909190505080600160006101000a81548173ffffffffffffffffffffffffffffffffffffffff021916908373ffffffffffffffffffffffffffffffffffffffff160217905550506113b78061007c6000396000f3006060604052600436106100af576000357c0100000000000000000000000000000000000000000000000000000000900463ffffffff1680630ddeb632146100b45780631f32768e146100e457806325017e101461011f5780633a20e9df14610165578063518cc63d1461025b57806355ccf393146102825780635f28cb74146102c85780636f2a39fe1461032257806394727b411461035b578063b14f843214610382578063b721a9d1146103e0575b600080fd5b34156100bf57600080fd5b6100e260048080356000191690602001909190803590602001909190505061045c565b005b34156100ef57600080fd5b61010960048080356000191690602001909190505061061b565b6040518082815260200191505060405180910390f35b341561012a57600080fd5b61016360048080356000191690602001909190803573ffffffffffffffffffffffffffffffffffffffff16906020019091905050610634565b005b341561017057600080fd5b61018a600480803560001916906020019091905050610781565b60405180806020018673ffffffffffffffffffffffffffffffffffffffff1673ffffffffffffffffffffffffffffffffffffffff1681526020018581526020018481526020018360018111156101dc57fe5b60ff168152602001828103825287818151815260200191508051906020019080838360005b8381101561021c578082015181840152602081019050610201565b50505050905090810190601f1680156102495780820380516001836020036101000a031916815260200191505b50965050505050505060405180910390f35b341561026657600080fd5b610280600480803560001916906020019091905050610900565b005b341561028d57600080fd5b6102c660048080356000191690602001909190803573ffffffffffffffffffffffffffffffffffffffff169060200190919050506109f1565b005b34156102d357600080fd5b61030c60048080356000191690602001909190803573ffffffffffffffffffffffffffffffffffffffff16906020019091905050610ad0565b6040518082815260200191505060405180910390f35b341561032d57600080fd5b610359600480803560001916906020019091908035906020019091908035906020019091905050610b08565b005b341561036657600080fd5b610380600480803560001916906020019091905050610d10565b005b341561038d57600080fd5b6103c660048080356000191690602001909190803573ffffffffffffffffffffffffffffffffffffffff16906020019091905050610e02565b604051808215151515815260200191505060405180910390f35b34156103eb57600080fd5b61045a60048080356000191690602001909190803590602001908201803590602001908080601f01602080910402602001604051908101604052809392919081815260200183838082843782019150505050505091908035906020019091908035906020019091905050610e1d565b005b600080600061046b8533611070565b935093505060018081111561047c57fe5b8360050160009054906101000a900460ff16600181111561049957fe5b1415156104a557600080fd5b600184101515156104b557600080fd5b6104c083838661110b565b838360030154029050600160009054906101000a900473ffffffffffffffffffffffffffffffffffffffff1673ffffffffffffffffffffffffffffffffffffffff166323b872dd338560020160009054906101000a900473ffffffffffffffffffffffffffffffffffffffff16846000604051602001526040518463ffffffff167c0100000000000000000000000000000000000000000000000000000000028152600401808473ffffffffffffffffffffffffffffffffffffffff1673ffffffffffffffffffffffffffffffffffffffff1681526020018373ffffffffffffffffffffffffffffffffffffffff1673ffffffffffffffffffffffffffffffffffffffff1681526020018281526020019350505050602060405180830381600087803b15156105ee57600080fd5b6102c65a03f115156105ff57600080fd5b50505060405180519050151561061457600080fd5b5050505050565b6106236112be565b61062d8233610ad0565b9050919050565b6000806000806000806106478833611070565b95509550955085151561065957600080fd5b4284600001540392508460030154830291508460060160008873ffffffffffffffffffffffffffffffffffffffff1673ffffffffffffffffffffffffffffffffffffffff16815260200190815260200160002090506106b985828561110b565b8460060160003373ffffffffffffffffffffffffffffffffffffffff1673ffffffffffffffffffffffffffffffffffffffff16815260200190815260200160002060008082016000905550508673ffffffffffffffffffffffffffffffffffffffff163373ffffffffffffffffffffffffffffffffffffffff1689600019167fd48f962428456c3dad240e62550064e40e985c034aba41b08972dfa1df82dac98686604051808381526020018281526020019250505060405180910390a45050505050505050565b6107896112d2565b6000806000806000808760001916600019168152602001908152602001600020600101600080886000191660001916815260200190815260200160002060020160009054906101000a900473ffffffffffffffffffffffffffffffffffffffff166000808960001916600019168152602001908152602001600020600301546000808a60001916600019168152602001908152602001600020600401546000808b6000191660001916815260200190815260200160002060050160009054906101000a900460ff16848054600181600116156101000203166002900480601f0160208091040260200160405190810160405280929190818152602001828054600181600116156101000203166002900480156108e65780601f106108bb576101008083540402835291602001916108e6565b820191906000526020600020905b8154815290600101906020018083116108c957829003601f168201915b505050505094509450945094509450945091939590929450565b806000806000836000191660001916815260200190815260200160002090503373ffffffffffffffffffffffffffffffffffffffff168160020160009054906101000a900473ffffffffffffffffffffffffffffffffffffffff1673ffffffffffffffffffffffffffffffffffffffff1614151561097d57600080fd5b6001600080856000191660001916815260200190815260200160002060050160006101000a81548160ff021916908360018111156109b757fe5b021790555082600019167e2fb8c6655f1dc858b3539ebad6758e35f77cef942709359725c5ad044df78f60405160405180910390a2505050565b816000806000836000191660001916815260200190815260200160002090503373ffffffffffffffffffffffffffffffffffffffff168160020160009054906101000a900473ffffffffffffffffffffffffffffffffffffffff1673ffffffffffffffffffffffffffffffffffffffff16141515610a6e57600080fd5b82600080866000191660001916815260200190815260200160002060020160006101000a81548173ffffffffffffffffffffffffffffffffffffffff021916908373ffffffffffffffffffffffffffffffffffffffff16021790555050505050565b610ad86112be565b6000610ae48484611070565b92505050806020604051908101604052908160008201548152505091505092915050565b6000836000806000836000191660001916815260200190815260200160002090503373ffffffffffffffffffffffffffffffffffffffff168160020160009054906101000a900473ffffffffffffffffffffffffffffffffffffffff1673ffffffffffffffffffffffffffffffffffffffff16141515610b8757600080fd5b600085111515610b9657600080fd5b60008087600019166000191681526020019081526020016000209250600060010283600001546000191614151515610bcd57600080fd5b84836003018190555083836004018190555085600019167f831c29cf8083a739b55a97e41acaeb51e520e1994416cecfe8b9db72d1f69052846001018560020160009054906101000a900473ffffffffffffffffffffffffffffffffffffffff16888860405180806020018573ffffffffffffffffffffffffffffffffffffffff1673ffffffffffffffffffffffffffffffffffffffff168152602001848152602001838152602001828103825286818154600181600116156101000203166002900481526020019150805460018160011615610100020316600290048015610cf75780601f10610ccc57610100808354040283529160200191610cf7565b820191906000526020600020905b815481529060010190602001808311610cda57829003601f168201915b50509550505050505060405180910390a2505050505050565b806000806000836000191660001916815260200190815260200160002090503373ffffffffffffffffffffffffffffffffffffffff168160020160009054906101000a900473ffffffffffffffffffffffffffffffffffffffff1673ffffffffffffffffffffffffffffffffffffffff16141515610d8d57600080fd5b6000806000856000191660001916815260200190815260200160002060050160006101000a81548160ff02191690836001811115610dc757fe5b021790555082600019167f464763c54ccb54138bb7ab422ba38bf28860d4597fa4aa7211dcfbeeaa39b87760405160405180910390a2505050565b600080610e0f8484611070565b505090508091505092915050565b60008083111515610e2d57600080fd5b600080866000191660001916815260200190815260200160002090506000600102816000015460001916141515610e6357600080fd5b60c060405190810160405280866000191681526020018581526020013373ffffffffffffffffffffffffffffffffffffffff168152602001848152602001838152602001600180811115610eb357fe5b8152506000808760001916600019168152602001908152602001600020600082015181600001906000191690556020820151816001019080519060200190610efc9291906112e6565b5060408201518160020160006101000a81548173ffffffffffffffffffffffffffffffffffffffff021916908373ffffffffffffffffffffffffffffffffffffffff160217905550606082015181600301556080820151816004015560a08201518160050160006101000a81548160ff02191690836001811115610f7c57fe5b021790555090505084600019167fe7d12cf1b7c846d254f0a62b7111076a7c4a155313daba394c886166510de5618533868660405180806020018573ffffffffffffffffffffffffffffffffffffffff1673ffffffffffffffffffffffffffffffffffffffff168152602001848152602001838152602001828103825286818151815260200191508051906020019080838360005b8381101561102c578082015181840152602081019050611011565b50505050905090810190601f1680156110595780820380516001836020036101000a031916815260200191505b509550505050505060405180910390a25050505050565b6000806000806000806000886000191660001916815260200190815260200160002091506000600102826000015460001916141515156110af57600080fd5b8160060160008773ffffffffffffffffffffffffffffffffffffffff1673ffffffffffffffffffffffffffffffffffffffff16815260200190815260200160002090504281600001541015828294509450945050509250925092565b60006111156112be565b428460000154111561118f578284600001540191508184600001819055503373ffffffffffffffffffffffffffffffffffffffff168560000154600019167f602ca7f17c81aa5e62b3381000dd445f5af7c333574da85f4b246288afc07322846040518082815260200191505060405180910390a3611260565b846004015483101515156111a257600080fd5b8242019150602060405190810160405280838152509050808560060160003373ffffffffffffffffffffffffffffffffffffffff1673ffffffffffffffffffffffffffffffffffffffff168152602001908152602001600020600082015181600001559050503373ffffffffffffffffffffffffffffffffffffffff168560000154600019167f9c3ab7e86c11d820cc311335294ebdf7299d8637d47253b930c4120b775d7cca846040518082815260200191505060405180910390a35b3373ffffffffffffffffffffffffffffffffffffffff168560000154600019167fe22e8c2d8a284063fec10f270bc3c776ffb40bcf816b73eef36354d5f3d7b3d4846040518082815260200191505060405180910390a35050505050565b602060405190810160405280600081525090565b602060405190810160405280600081525090565b828054600181600116156101000203166002900490600052602060002090601f016020900481019282601f1061132757805160ff1916838001178555611355565b82800160010185558215611355579182015b82811115611354578251825591602001919060010190611339565b5b5090506113629190611366565b5090565b61138891905b8082111561138457600081600090555060010161136c565b5090565b905600a165627a7a723058203260f0c2f7b2dfc0c4c4b376a7912a37bfc22aee181172c30fef3b6eda93f9840029",
  "source": "pragma solidity ^0.4.0;\n\nimport \"../node_modules/zeppelin-solidity/contracts/token/ERC20/ERC20.sol\";\n\n// TODO: is Ownable\ncontract Marketplace {\n\n    event ProductCreated(bytes32 indexed id, string name, address beneficiary, uint pricePerSecond, uint minimumSubscriptionSeconds);\n    event ProductUpdated(bytes32 indexed id, string name, address beneficiary, uint pricePerSecond, uint minimumSubscriptionSeconds);\n    event ProductDeleted(bytes32 indexed id);\n    event ProductRedeployed(bytes32 indexed id);\n    event Subscribed(bytes32 indexed productId, address indexed subscriber, uint endTimestamp);\n    event NewSubscription(bytes32 indexed productId, address indexed subscriber, uint endTimestamp);\n    event SubscriptionExtended(bytes32 indexed productId, address indexed subscriber, uint endTimestamp);\n    event SubscriptionTransferred(bytes32 indexed productId, address indexed from, address indexed to, uint secondsTransferred, uint datacoinTransferred);    \n\n    enum ProductState {\n        NotDeployed,                // non-existent or deleted\n        Deployed                    // created or redeployed\n    }\n\n    struct Product {\n        //bytes32 parentProductId;   // later, products could be arranged in trees containing sub-products\n        bytes32 id;        \n        string name;\n        address beneficiary;\n        uint pricePerSecond;\n        uint minimumSubscriptionSeconds;\n        ProductState state;\n        mapping(address => TimeBasedSubscription) subscriptions;\n    }\n\n    struct TimeBasedSubscription {        \n        //string productId;         // from mapping key\n        //address buyer;            // from mapping key\n        uint endTimestamp;\n    }\n\n    mapping (bytes32 => Product) products;\n    function getProduct(bytes32 id) public view returns (string name, address beneficiary, uint pricePerSecond, uint minimumSubscriptionSeconds, ProductState state) {\n        return (\n            products[id].name,\n            products[id].beneficiary,\n            products[id].pricePerSecond,\n            products[id].minimumSubscriptionSeconds,\n            products[id].state\n        );\n    }\n\n    //mapping (string => mapping(address => TimeBasedSubscription)) subscriptions;\n    function getSubscription(bytes32 productId, address subscriber) public view returns (TimeBasedSubscription subsciption) {\n        var (, , sub) = _getSubscription(productId, subscriber);\n        return sub;\n    }\n\n    function getSubscription(bytes32 productId) public view returns (TimeBasedSubscription subsciption) {\n        return getSubscription(productId, msg.sender);\n    }\n\n    ERC20 datacoin;\n\n    function Marketplace(address datacoinAddress) public {\n        datacoin = ERC20(datacoinAddress);\n    }\n\n    ////////////////// Product management /////////////////\n\n    // also checks that p exists: p.beneficiary == 0 for non-existent products\n    modifier onlyBeneficiary(bytes32 productId) {\n        Product storage p = products[productId];        \n        require(p.beneficiary == msg.sender); //, \"Only product beneficiary may call this function\");\n        _;\n    }\n\n    // TODO: priceCurrency\n    function createProduct(bytes32 id, string name, uint pricePerSecond, uint minimumSubscriptionSeconds) public {        \n        require(pricePerSecond > 0); //, \"Free streams go through different channel\");\n        Product storage p = products[id];\n        require(p.id == 0); //, \"Product with this ID already exists\");        \n        products[id] = Product(id, name, msg.sender, pricePerSecond, minimumSubscriptionSeconds, ProductState.Deployed);\n        ProductCreated(id, name, msg.sender, pricePerSecond, minimumSubscriptionSeconds);\n    }\n\n    /**\n    * Stop offering the product\n    */\n    function deleteProduct(bytes32 productId) public onlyBeneficiary(productId) {\n        // onlyBeneficiary check that the productId exists\n        // TODO: check there are no active subscriptions?\n        products[productId].state = ProductState.NotDeployed;\n        ProductDeleted(productId);\n    }\n\n    /**\n    * Return product to market\n    */\n    function undeleteProduct(bytes32 productId) public onlyBeneficiary(productId) {\n        // onlyBeneficiary check that the productId exists\n        // TODO: check there are no active subscriptions?\n        products[productId].state = ProductState.Deployed;\n        ProductRedeployed(productId);\n    }\n\n    function updatePricing(bytes32 productId, uint pricePerSecond, uint minimumSubscriptionSeconds) public onlyBeneficiary(productId) {\n        require(pricePerSecond > 0); //, \"Free streams go through different channel\");\n        Product storage p = products[productId]; \n        require(p.id != 0); //, \"Product doesn't exist\");\n        p.pricePerSecond = pricePerSecond;\n        p.minimumSubscriptionSeconds = minimumSubscriptionSeconds;        \n        ProductUpdated(productId, p.name, p.beneficiary, pricePerSecond, minimumSubscriptionSeconds);\n    }\n\n    /**\n    * Transfers ownership of the product to a new beneficiary\n    */\n    function setBeneficiary(bytes32 productId, address newBeneficiary) public onlyBeneficiary(productId) {\n        // that productId exists is already checked in onlyBeneficiary\n        products[productId].beneficiary = newBeneficiary;        \n    }\n\n    /////////////// Subscription management ///////////////\n\n    /**\n     * Purchases access to this stream for msg.sender.\n     * If the address already has a valid subscription, extends the subscription by the given period.\n     */\n     // TODO: use DATAcoin\n    function buy(bytes32 productId, uint subscriptionSeconds) public {\n        var (, product, sub) = _getSubscription(productId, msg.sender);\n        require(product.state == ProductState.Deployed); //, \"Product has been deleted\");\n        require(subscriptionSeconds >= 1); //, \"Must send ether for at least one second, see pricePerSecond of the product\");\n        _subscribe(product, sub, subscriptionSeconds);\n\n        uint price = product.pricePerSecond * subscriptionSeconds;\n        require(datacoin.transferFrom(msg.sender, product.beneficiary, price));  //, \"Not enough DATAcoin allowance\");\n    }\n\n    /**\n    * Checks if the given address currently has a valid subscription\n    */\n    function hasValidSubscription(bytes32 productId, address subscriber) public constant returns (bool) {\n        var (isValid, , ) = _getSubscription(productId, subscriber);\n        return isValid;\n    }\n\n    /**\n    * Transfer a valid subscription from msg.sender to a new address.\n    * If the address already has a valid subscription, extends the subscription by the msg.sender's remaining period.\n    */\n    function transferSubscription(bytes32 productId, address newSubscriber) public {\n        var (isValid, product, sub) = _getSubscription(productId, msg.sender);\n        require(isValid);   //, \"Only valid subscriptions can be transferred\");\n        uint secondsLeft = sub.endTimestamp - block.timestamp; // TODO: SafeMath\n        uint datacoinLeft = secondsLeft * product.pricePerSecond;\n        TimeBasedSubscription storage newSub = product.subscriptions[newSubscriber];\n        _subscribe(product, newSub, secondsLeft);\n        delete product.subscriptions[msg.sender];\n        SubscriptionTransferred(productId, msg.sender, newSubscriber, secondsLeft, datacoinLeft);\n    }\n\n    function _getSubscription(bytes32 productId, address subscriber) internal constant returns (bool subIsValid, Product storage, TimeBasedSubscription storage) {\n        Product storage p = products[productId];\n        require(p.id != 0); //, \"Product doesn't exist\");\n        TimeBasedSubscription storage s = p.subscriptions[subscriber];\n        return (s.endTimestamp >= block.timestamp, p, s);\n    }\n    \n    function _subscribe(Product storage p, TimeBasedSubscription storage oldSub, uint addSeconds) internal {\n        uint endTimestamp;\n        if (oldSub.endTimestamp > block.timestamp) {\n            endTimestamp = oldSub.endTimestamp + addSeconds;    // TODO: SafeMath\n            oldSub.endTimestamp = endTimestamp;  \n            SubscriptionExtended(p.id, msg.sender, endTimestamp);\n        } else {\n            require(addSeconds >= p.minimumSubscriptionSeconds); //, \"More ether required to meet the minimum subscription period\");\n            endTimestamp = block.timestamp + addSeconds;\n            TimeBasedSubscription memory newSub = TimeBasedSubscription(endTimestamp);\n            p.subscriptions[msg.sender] = newSub;\n            NewSubscription(p.id, msg.sender, endTimestamp);\n        }\n        Subscribed(p.id, msg.sender, endTimestamp);\n    }\n\n    // TODO: transfer allowance to another Marketplace\n}",
  "sourcePath": "/Users/jtakalai/Documents/workspace/marketplace-contracts/contracts/Marketplace.sol",
  "compiler": {
    "name": "solc",
    "version": "0.4.19+commit.c4cbbb05.Emscripten.clang"
  },
  "schemaVersion": "1.0.1",
  "updatedAt": "2018-02-20T13:50:23.751Z"
}