{
  "contractName": "Marketplace",
  "abi": [
    {
      "constant": false,
      "inputs": [],
      "name": "claimOwnership",
      "outputs": [],
      "payable": false,
      "stateMutability": "nonpayable",
      "type": "function"
    },
    {
      "constant": true,
      "inputs": [
        {
          "name": "",
          "type": "bytes32"
        }
      ],
      "name": "products",
      "outputs": [
        {
          "name": "id",
          "type": "bytes32"
        },
        {
          "name": "name",
          "type": "string"
        },
        {
          "name": "owner",
          "type": "address"
        },
        {
          "name": "beneficiary",
          "type": "address"
        },
        {
          "name": "pricePerSecond",
          "type": "uint256"
        },
        {
          "name": "priceCurrency",
          "type": "uint8"
        },
        {
          "name": "minimumSubscriptionSeconds",
          "type": "uint256"
        },
        {
          "name": "state",
          "type": "uint8"
        },
        {
          "name": "newOwnerCandidate",
          "type": "address"
        },
        {
          "name": "requiresWhitelist",
          "type": "bool"
        }
      ],
      "payable": false,
      "stateMutability": "view",
      "type": "function"
    },
    {
      "constant": true,
      "inputs": [],
      "name": "datacoin",
      "outputs": [
        {
          "name": "",
          "type": "address"
        }
      ],
      "payable": false,
      "stateMutability": "view",
      "type": "function"
    },
    {
      "constant": true,
      "inputs": [],
      "name": "currencyUpdateAgent",
      "outputs": [
        {
          "name": "",
          "type": "address"
        }
      ],
      "payable": false,
      "stateMutability": "view",
      "type": "function"
    },
    {
      "constant": true,
      "inputs": [],
      "name": "owner",
      "outputs": [
        {
          "name": "",
          "type": "address"
        }
      ],
      "payable": false,
      "stateMutability": "view",
      "type": "function"
    },
    {
      "constant": true,
      "inputs": [],
      "name": "halted",
      "outputs": [
        {
          "name": "",
          "type": "bool"
        }
      ],
      "payable": false,
      "stateMutability": "view",
      "type": "function"
    },
    {
      "constant": true,
      "inputs": [],
      "name": "dataPerUsd",
      "outputs": [
        {
          "name": "",
          "type": "uint256"
        }
      ],
      "payable": false,
      "stateMutability": "view",
      "type": "function"
    },
    {
      "constant": true,
      "inputs": [],
      "name": "pendingOwner",
      "outputs": [
        {
          "name": "",
          "type": "address"
        }
      ],
      "payable": false,
      "stateMutability": "view",
      "type": "function"
    },
    {
      "constant": false,
      "inputs": [
        {
          "name": "newOwner",
          "type": "address"
        }
      ],
      "name": "transferOwnership",
      "outputs": [],
      "payable": false,
      "stateMutability": "nonpayable",
      "type": "function"
    },
    {
      "inputs": [
        {
          "name": "datacoinAddress",
          "type": "address"
        },
        {
          "name": "currencyUpdateAgentAddress",
          "type": "address"
        },
        {
          "name": "prev_marketplace_address",
          "type": "address"
        }
      ],
      "payable": false,
      "stateMutability": "nonpayable",
      "type": "constructor"
    },
    {
      "anonymous": false,
      "inputs": [
        {
          "indexed": true,
          "name": "owner",
          "type": "address"
        },
        {
          "indexed": true,
          "name": "id",
          "type": "bytes32"
        },
        {
          "indexed": false,
          "name": "name",
          "type": "string"
        },
        {
          "indexed": false,
          "name": "beneficiary",
          "type": "address"
        },
        {
          "indexed": false,
          "name": "pricePerSecond",
          "type": "uint256"
        },
        {
          "indexed": false,
          "name": "currency",
          "type": "uint8"
        },
        {
          "indexed": false,
          "name": "minimumSubscriptionSeconds",
          "type": "uint256"
        }
      ],
      "name": "ProductCreated",
      "type": "event"
    },
    {
      "anonymous": false,
      "inputs": [
        {
          "indexed": true,
          "name": "owner",
          "type": "address"
        },
        {
          "indexed": true,
          "name": "id",
          "type": "bytes32"
        },
        {
          "indexed": false,
          "name": "name",
          "type": "string"
        },
        {
          "indexed": false,
          "name": "beneficiary",
          "type": "address"
        },
        {
          "indexed": false,
          "name": "pricePerSecond",
          "type": "uint256"
        },
        {
          "indexed": false,
          "name": "currency",
          "type": "uint8"
        },
        {
          "indexed": false,
          "name": "minimumSubscriptionSeconds",
          "type": "uint256"
        }
      ],
      "name": "ProductUpdated",
      "type": "event"
    },
    {
      "anonymous": false,
      "inputs": [
        {
          "indexed": true,
          "name": "owner",
          "type": "address"
        },
        {
          "indexed": true,
          "name": "id",
          "type": "bytes32"
        },
        {
          "indexed": false,
          "name": "name",
          "type": "string"
        },
        {
          "indexed": false,
          "name": "beneficiary",
          "type": "address"
        },
        {
          "indexed": false,
          "name": "pricePerSecond",
          "type": "uint256"
        },
        {
          "indexed": false,
          "name": "currency",
          "type": "uint8"
        },
        {
          "indexed": false,
          "name": "minimumSubscriptionSeconds",
          "type": "uint256"
        }
      ],
      "name": "ProductDeleted",
      "type": "event"
    },
    {
      "anonymous": false,
      "inputs": [
        {
          "indexed": true,
          "name": "owner",
          "type": "address"
        },
        {
          "indexed": true,
          "name": "id",
          "type": "bytes32"
        },
        {
          "indexed": false,
          "name": "name",
          "type": "string"
        },
        {
          "indexed": false,
          "name": "beneficiary",
          "type": "address"
        },
        {
          "indexed": false,
          "name": "pricePerSecond",
          "type": "uint256"
        },
        {
          "indexed": false,
          "name": "currency",
          "type": "uint8"
        },
        {
          "indexed": false,
          "name": "minimumSubscriptionSeconds",
          "type": "uint256"
        }
      ],
      "name": "ProductImported",
      "type": "event"
    },
    {
      "anonymous": false,
      "inputs": [
        {
          "indexed": true,
          "name": "owner",
          "type": "address"
        },
        {
          "indexed": true,
          "name": "id",
          "type": "bytes32"
        },
        {
          "indexed": false,
          "name": "name",
          "type": "string"
        },
        {
          "indexed": false,
          "name": "beneficiary",
          "type": "address"
        },
        {
          "indexed": false,
          "name": "pricePerSecond",
          "type": "uint256"
        },
        {
          "indexed": false,
          "name": "currency",
          "type": "uint8"
        },
        {
          "indexed": false,
          "name": "minimumSubscriptionSeconds",
          "type": "uint256"
        }
      ],
      "name": "ProductRedeployed",
      "type": "event"
    },
    {
      "anonymous": false,
      "inputs": [
        {
          "indexed": true,
          "name": "owner",
          "type": "address"
        },
        {
          "indexed": true,
          "name": "id",
          "type": "bytes32"
        },
        {
          "indexed": true,
          "name": "to",
          "type": "address"
        }
      ],
      "name": "ProductOwnershipOffered",
      "type": "event"
    },
    {
      "anonymous": false,
      "inputs": [
        {
          "indexed": true,
          "name": "newOwner",
          "type": "address"
        },
        {
          "indexed": true,
          "name": "id",
          "type": "bytes32"
        },
        {
          "indexed": true,
          "name": "oldOwner",
          "type": "address"
        }
      ],
      "name": "ProductOwnershipChanged",
      "type": "event"
    },
    {
      "anonymous": false,
      "inputs": [
        {
          "indexed": true,
          "name": "productId",
          "type": "bytes32"
        },
        {
          "indexed": true,
          "name": "subscriber",
          "type": "address"
        },
        {
          "indexed": false,
          "name": "endTimestamp",
          "type": "uint256"
        }
      ],
      "name": "Subscribed",
      "type": "event"
    },
    {
      "anonymous": false,
      "inputs": [
        {
          "indexed": true,
          "name": "productId",
          "type": "bytes32"
        },
        {
          "indexed": true,
          "name": "subscriber",
          "type": "address"
        },
        {
          "indexed": false,
          "name": "endTimestamp",
          "type": "uint256"
        }
      ],
      "name": "NewSubscription",
      "type": "event"
    },
    {
      "anonymous": false,
      "inputs": [
        {
          "indexed": true,
          "name": "productId",
          "type": "bytes32"
        },
        {
          "indexed": true,
          "name": "subscriber",
          "type": "address"
        },
        {
          "indexed": false,
          "name": "endTimestamp",
          "type": "uint256"
        }
      ],
      "name": "SubscriptionExtended",
      "type": "event"
    },
    {
      "anonymous": false,
      "inputs": [
        {
          "indexed": true,
          "name": "productId",
          "type": "bytes32"
        },
        {
          "indexed": true,
          "name": "subscriber",
          "type": "address"
        },
        {
          "indexed": false,
          "name": "endTimestamp",
          "type": "uint256"
        }
      ],
      "name": "SubscriptionImported",
      "type": "event"
    },
    {
      "anonymous": false,
      "inputs": [
        {
          "indexed": true,
          "name": "productId",
          "type": "bytes32"
        },
        {
          "indexed": true,
          "name": "from",
          "type": "address"
        },
        {
          "indexed": true,
          "name": "to",
          "type": "address"
        },
        {
          "indexed": false,
          "name": "secondsTransferred",
          "type": "uint256"
        }
      ],
      "name": "SubscriptionTransferred",
      "type": "event"
    },
    {
      "anonymous": false,
      "inputs": [
        {
          "indexed": false,
          "name": "timestamp",
          "type": "uint256"
        },
        {
          "indexed": false,
          "name": "dataInUsd",
          "type": "uint256"
        }
      ],
      "name": "ExchangeRatesUpdated",
      "type": "event"
    },
    {
      "anonymous": false,
      "inputs": [
        {
          "indexed": true,
          "name": "productId",
          "type": "bytes32"
        },
        {
          "indexed": true,
          "name": "subscriber",
          "type": "address"
        }
      ],
      "name": "WhitelistRequested",
      "type": "event"
    },
    {
      "anonymous": false,
      "inputs": [
        {
          "indexed": true,
          "name": "productId",
          "type": "bytes32"
        },
        {
          "indexed": true,
          "name": "subscriber",
          "type": "address"
        }
      ],
      "name": "WhitelistApproved",
      "type": "event"
    },
    {
      "anonymous": false,
      "inputs": [
        {
          "indexed": true,
          "name": "productId",
          "type": "bytes32"
        },
        {
          "indexed": true,
          "name": "subscriber",
          "type": "address"
        }
      ],
      "name": "WhitelistRejected",
      "type": "event"
    },
    {
      "anonymous": false,
      "inputs": [
        {
          "indexed": true,
          "name": "productId",
          "type": "bytes32"
        }
      ],
      "name": "WhitelistEnabled",
      "type": "event"
    },
    {
      "anonymous": false,
      "inputs": [
        {
          "indexed": true,
          "name": "productId",
          "type": "bytes32"
        }
      ],
      "name": "WhitelistDisabled",
      "type": "event"
    },
    {
      "anonymous": false,
      "inputs": [],
      "name": "Halted",
      "type": "event"
    },
    {
      "anonymous": false,
      "inputs": [],
      "name": "Resumed",
      "type": "event"
    },
    {
      "anonymous": false,
      "inputs": [
        {
          "indexed": true,
          "name": "previousOwner",
          "type": "address"
        },
        {
          "indexed": true,
          "name": "newOwner",
          "type": "address"
        }
      ],
      "name": "OwnershipTransferred",
      "type": "event"
    },
    {
      "constant": true,
      "inputs": [
        {
          "name": "id",
          "type": "bytes32"
        }
      ],
      "name": "getProduct",
      "outputs": [
        {
          "name": "name",
          "type": "string"
        },
        {
          "name": "owner",
          "type": "address"
        },
        {
          "name": "beneficiary",
          "type": "address"
        },
        {
          "name": "pricePerSecond",
          "type": "uint256"
        },
        {
          "name": "currency",
          "type": "uint8"
        },
        {
          "name": "minimumSubscriptionSeconds",
          "type": "uint256"
        },
        {
          "name": "state",
          "type": "uint8"
        }
      ],
      "payable": false,
      "stateMutability": "view",
      "type": "function"
    },
    {
      "constant": false,
      "inputs": [
        {
          "name": "id",
          "type": "bytes32"
        },
        {
          "name": "name",
          "type": "string"
        },
        {
          "name": "beneficiary",
          "type": "address"
        },
        {
          "name": "pricePerSecond",
          "type": "uint256"
        },
        {
          "name": "currency",
          "type": "uint8"
        },
        {
          "name": "minimumSubscriptionSeconds",
          "type": "uint256"
        },
        {
          "name": "requiresWhitelist",
          "type": "bool"
        }
      ],
      "name": "createProductWhitelist",
      "outputs": [],
      "payable": false,
      "stateMutability": "nonpayable",
      "type": "function"
    },
    {
      "constant": false,
      "inputs": [
        {
          "name": "id",
          "type": "bytes32"
        },
        {
          "name": "name",
          "type": "string"
        },
        {
          "name": "beneficiary",
          "type": "address"
        },
        {
          "name": "pricePerSecond",
          "type": "uint256"
        },
        {
          "name": "currency",
          "type": "uint8"
        },
        {
          "name": "minimumSubscriptionSeconds",
          "type": "uint256"
        }
      ],
      "name": "createProduct",
      "outputs": [],
      "payable": false,
      "stateMutability": "nonpayable",
      "type": "function"
    },
    {
      "constant": false,
      "inputs": [
        {
          "name": "productId",
          "type": "bytes32"
        }
      ],
      "name": "deleteProduct",
      "outputs": [],
      "payable": false,
      "stateMutability": "nonpayable",
      "type": "function"
    },
    {
      "constant": false,
      "inputs": [
        {
          "name": "productId",
          "type": "bytes32"
        }
      ],
      "name": "redeployProduct",
      "outputs": [],
      "payable": false,
      "stateMutability": "nonpayable",
      "type": "function"
    },
    {
      "constant": false,
      "inputs": [
        {
          "name": "productId",
          "type": "bytes32"
        },
        {
          "name": "name",
          "type": "string"
        },
        {
          "name": "beneficiary",
          "type": "address"
        },
        {
          "name": "pricePerSecond",
          "type": "uint256"
        },
        {
          "name": "currency",
          "type": "uint8"
        },
        {
          "name": "minimumSubscriptionSeconds",
          "type": "uint256"
        }
      ],
      "name": "updateProduct",
      "outputs": [],
      "payable": false,
      "stateMutability": "nonpayable",
      "type": "function"
    },
    {
      "constant": false,
      "inputs": [
        {
          "name": "productId",
          "type": "bytes32"
        },
        {
          "name": "newOwnerCandidate",
          "type": "address"
        }
      ],
      "name": "offerProductOwnership",
      "outputs": [],
      "payable": false,
      "stateMutability": "nonpayable",
      "type": "function"
    },
    {
      "constant": false,
      "inputs": [
        {
          "name": "productId",
          "type": "bytes32"
        }
      ],
      "name": "claimProductOwnership",
      "outputs": [],
      "payable": false,
      "stateMutability": "nonpayable",
      "type": "function"
    },
    {
      "constant": true,
      "inputs": [
        {
          "name": "productId",
          "type": "bytes32"
        },
        {
          "name": "subscriber",
          "type": "address"
        }
      ],
      "name": "getSubscription",
      "outputs": [
        {
          "name": "isValid",
          "type": "bool"
        },
        {
          "name": "endTimestamp",
          "type": "uint256"
        }
      ],
      "payable": false,
      "stateMutability": "view",
      "type": "function"
    },
    {
      "constant": true,
      "inputs": [
        {
          "name": "productId",
          "type": "bytes32"
        }
      ],
      "name": "getSubscriptionTo",
      "outputs": [
        {
          "name": "isValid",
          "type": "bool"
        },
        {
          "name": "endTimestamp",
          "type": "uint256"
        }
      ],
      "payable": false,
      "stateMutability": "view",
      "type": "function"
    },
    {
      "constant": true,
      "inputs": [
        {
          "name": "productId",
          "type": "bytes32"
        },
        {
          "name": "subscriber",
          "type": "address"
        }
      ],
      "name": "hasValidSubscription",
      "outputs": [
        {
          "name": "isValid",
          "type": "bool"
        }
      ],
      "payable": false,
      "stateMutability": "view",
      "type": "function"
    },
    {
      "constant": false,
      "inputs": [
        {
          "name": "productId",
          "type": "bytes32"
        },
        {
          "name": "subscriptionSeconds",
          "type": "uint256"
        },
        {
          "name": "recipient",
          "type": "address"
        }
      ],
      "name": "grantSubscription",
      "outputs": [],
      "payable": false,
      "stateMutability": "nonpayable",
      "type": "function"
    },
    {
      "constant": false,
      "inputs": [
        {
          "name": "productId",
          "type": "bytes32"
        },
        {
          "name": "subscriptionSeconds",
          "type": "uint256"
        },
        {
          "name": "recipient",
          "type": "address"
        }
      ],
      "name": "buyFor",
      "outputs": [],
      "payable": false,
      "stateMutability": "nonpayable",
      "type": "function"
    },
    {
      "constant": false,
      "inputs": [
        {
          "name": "productId",
          "type": "bytes32"
        },
        {
          "name": "subscriptionSeconds",
          "type": "uint256"
        }
      ],
      "name": "buy",
      "outputs": [],
      "payable": false,
      "stateMutability": "nonpayable",
      "type": "function"
    },
    {
      "constant": false,
      "inputs": [
        {
          "name": "timestamp",
          "type": "uint256"
        },
        {
          "name": "dataUsd",
          "type": "uint256"
        }
      ],
      "name": "updateExchangeRates",
      "outputs": [],
      "payable": false,
      "stateMutability": "nonpayable",
      "type": "function"
    },
    {
      "constant": true,
      "inputs": [
        {
          "name": "subscriptionSeconds",
          "type": "uint256"
        },
        {
          "name": "price",
          "type": "uint256"
        },
        {
          "name": "unit",
          "type": "uint8"
        }
      ],
      "name": "getPriceInData",
      "outputs": [
        {
          "name": "datacoinAmount",
          "type": "uint256"
        }
      ],
      "payable": false,
      "stateMutability": "view",
      "type": "function"
    },
    {
      "constant": false,
      "inputs": [],
      "name": "halt",
      "outputs": [],
      "payable": false,
      "stateMutability": "nonpayable",
      "type": "function"
    },
    {
      "constant": false,
      "inputs": [],
      "name": "resume",
      "outputs": [],
      "payable": false,
      "stateMutability": "nonpayable",
      "type": "function"
    },
    {
      "constant": false,
      "inputs": [
        {
          "name": "datacoinAddress",
          "type": "address"
        },
        {
          "name": "currencyUpdateAgentAddress",
          "type": "address"
        },
        {
          "name": "prev_marketplace_address",
          "type": "address"
        }
      ],
      "name": "reInitialize",
      "outputs": [],
      "payable": false,
      "stateMutability": "nonpayable",
      "type": "function"
    },
    {
      "constant": true,
      "inputs": [
        {
          "name": "productId",
          "type": "bytes32"
        }
      ],
      "name": "getRequiresWhitelist",
      "outputs": [
        {
          "name": "",
          "type": "bool"
        }
      ],
      "payable": false,
      "stateMutability": "view",
      "type": "function"
    },
    {
      "constant": false,
      "inputs": [
        {
          "name": "productId",
          "type": "bytes32"
        },
        {
          "name": "_requiresWhitelist",
          "type": "bool"
        }
      ],
      "name": "setRequiresWhitelist",
      "outputs": [],
      "payable": false,
      "stateMutability": "nonpayable",
      "type": "function"
    },
    {
      "constant": false,
      "inputs": [
        {
          "name": "productId",
          "type": "bytes32"
        },
        {
          "name": "subscriber",
          "type": "address"
        }
      ],
      "name": "whitelistApprove",
      "outputs": [],
      "payable": false,
      "stateMutability": "nonpayable",
      "type": "function"
    },
    {
      "constant": false,
      "inputs": [
        {
          "name": "productId",
          "type": "bytes32"
        },
        {
          "name": "subscriber",
          "type": "address"
        }
      ],
      "name": "whitelistReject",
      "outputs": [],
      "payable": false,
      "stateMutability": "nonpayable",
      "type": "function"
    },
    {
      "constant": false,
      "inputs": [
        {
          "name": "productId",
          "type": "bytes32"
        }
      ],
      "name": "whitelistRequest",
      "outputs": [],
      "payable": false,
      "stateMutability": "nonpayable",
      "type": "function"
    },
    {
      "constant": true,
      "inputs": [
        {
          "name": "productId",
          "type": "bytes32"
        },
        {
          "name": "subscriber",
          "type": "address"
        }
      ],
      "name": "getWhitelistState",
      "outputs": [
        {
          "name": "wlstate",
          "type": "uint8"
        }
      ],
      "payable": false,
      "stateMutability": "view",
      "type": "function"
    }
  ],
  "bytecode": "0x608060405267016345785d8a00006006556007805460ff191690553480156200002757600080fd5b506040516060806200389383398101604090815281516020830151919092015160008054600160a060020a031916331790556200006f83838364010000000062000078810204565b505050620000b5565b60038054600160a060020a0319908116600160a060020a039485161790915560028054821694841694909417909355600480549093169116179055565b6137ce80620000c56000396000f3006080604052600436106101ab5763ffffffff7c01000000000000000000000000000000000000000000000000000000006000350416630398751281146101b0578063046f7da2146101d957806308f8613c146101ee5780630ddeb632146102715780631a464fa11461028c5780631f4e09af146102a457806325cc3a20146102cb5780633a20e9df146102ef5780634a54fb0a146103e95780634d8a9499146104645780634e71e0c81461048857806353f81ef81461049d57806357fa3db7146104d057806358f816bf146105185780635ed7ca5b146105305780635f28cb7414610545578063790543911461056957806379c88f201461067a57806389aaad29146106ab5780638da5cb5b146106c057806394727b41146106d557806396002aef146106ed578063a4b138b014610711578063b14f84321461073e578063b8b378c814610776578063b9b8af0b1461078e578063bee7d433146107a3578063cafbc49d146107d6578063d50a04f414610851578063db6c709c14610866578063de22732414610881578063e0d5b9e11461089e578063e30c3978146108b6578063f2fde38b146108cb575b600080fd5b3480156101bc57600080fd5b506101d7600435602435600160a060020a03604435166108ec565b005b3480156101e557600080fd5b506101d761095e565b3480156101fa57600080fd5b5060408051602060046024803582810135601f81018590048502860185019096528585526101d795833595369560449491939091019190819084018382808284375094975050600160a060020a038535169550505060208301359260ff6040820135169250606081013591506080013515156109e3565b34801561027d57600080fd5b506101d7600435602435610de4565b34801561029857600080fd5b506101d7600435610e53565b3480156102b057600080fd5b506101d7600435602435600160a060020a0360443516610fab565b3480156102d757600080fd5b506101d7600435600160a060020a03602435166110ea565b3480156102fb57600080fd5b506103076004356112d0565b604051808060200188600160a060020a0316600160a060020a0316815260200187600160a060020a0316600160a060020a0316815260200186815260200185600181111561035157fe5b60ff16815260200184815260200183600181111561036b57fe5b60ff168152602001828103825289818151815260200191508051906020019080838360005b838110156103a8578181015183820152602001610390565b50505050905090810190601f1680156103d55780820380516001836020036101000a031916815260200191505b509850505050505050505060405180910390f35b3480156103f557600080fd5b5060408051602060046024803582810135601f81018590048502860185019096528585526101d795833595369560449491939091019190819084018382808284375094975050508335600160a060020a031694505050602082013591604081013560ff1691506060013561141a565b34801561047057600080fd5b506101d7600435600160a060020a036024351661161d565b34801561049457600080fd5b506101d7611803565b3480156104a957600080fd5b506104b56004356118c9565b60408051921515835260208301919091528051918290030190f35b3480156104dc57600080fd5b506104f4600435600160a060020a03602435166118df565b6040518082600381111561050457fe5b60ff16815260200191505060405180910390f35b34801561052457600080fd5b506101d7600435611979565b34801561053c57600080fd5b506101d7611bf7565b34801561055157600080fd5b506104b5600435600160a060020a0360243516611c7f565b34801561057557600080fd5b50610581600435611ed5565b604080518b8152600160a060020a03808b16928201929092529088166060820152608081018790526020810160a082018760018111156105bd57fe5b60ff1681526020018681526020018560018111156105d757fe5b60ff16815260200184600160a060020a0316600160a060020a031681526020018315151515815260200182810382528b818151815260200191508051906020019080838360005b8381101561063657818101518382015260200161061e565b50505050905090810190601f1680156106635780820380516001836020036101000a031916815260200191505b509b50505050505050505050505060405180910390f35b34801561068657600080fd5b5061068f611fc9565b60408051600160a060020a039092168252519081900360200190f35b3480156106b757600080fd5b5061068f611fd8565b3480156106cc57600080fd5b5061068f611fe7565b3480156106e157600080fd5b506101d7600435611ff6565b3480156106f957600080fd5b506101d7600435600160a060020a03602435166121d2565b34801561071d57600080fd5b506101d7600160a060020a0360043581169060243581169060443516612325565b34801561074a57600080fd5b50610762600435600160a060020a0360243516612380565b604080519115158252519081900360200190f35b34801561078257600080fd5b50610762600435612394565b34801561079a57600080fd5b5061076261241e565b3480156107af57600080fd5b506107c460043560243560ff60443516612427565b60408051918252519081900360200190f35b3480156107e257600080fd5b5060408051602060046024803582810135601f81018590048502860185019096528585526101d795833595369560449491939091019190819084018382808284375094975050508335600160a060020a031694505050602082013591604081013560ff1691506060013561249a565b34801561085d57600080fd5b506107c4612512565b34801561087257600080fd5b506101d7600435602435612518565b34801561088d57600080fd5b506101d760043560243515156125cb565b3480156108aa57600080fd5b506101d7600435612791565b3480156108c257600080fd5b5061068f612939565b3480156108d757600080fd5b506101d7600160a060020a0360043516612948565b60075460ff1615806109085750600054600160a060020a031633145b151561094c576040805160e560020a62461bcd02815260206004820152600c6024820152600080516020613743833981519152604482015290519081900360640190fd5b61095983838360016129ba565b505050565b600054600160a060020a031633146109ae576040805160e560020a62461bcd0281526020600482015260096024820152600080516020613783833981519152604482015290519081900360640190fd5b6007805460ff191690556040517f62451d457bc659158be6e6247f56ec1df424a5c7597f71c20c2bc44e0965c8f990600090a1565b600754600090819060ff161580610a045750600054600160a060020a031633145b1515610a48576040805160e560020a62461bcd02815260206004820152600c6024820152600080516020613743833981519152604482015290519081900360640190fd5b881515610a9f576040805160e560020a62461bcd02815260206004820152601360248201527f6572726f725f6e756c6c50726f64756374496400000000000000000000000000604482015290519081900360640190fd5b60008611610af7576040805160e560020a62461bcd02815260206004820152601e60248201527f6572726f725f6672656550726f64756374734e6f74537570706f727465640000604482015290519081900360640190fd5b610b00896112d0565b505050505092505081600160a060020a03166000141515610b6b576040805160e560020a62461bcd02815260206004820152601360248201527f6572726f725f616c726561647945786973747300000000000000000000000000604482015290519081900360640190fd5b506000888152600560209081526040918290208251610140810184528b81529182018a90523392820192909252600160a060020a03881660608201526080810187905260a08101866001811115610bbe57fe5b81526020810186905260400160018152600060208083018290528615156040938401528c825260058152919020825181558282015180519192610c0992600185019290910190613675565b506040820151600282018054600160a060020a03928316600160a060020a03199182161790915560608401516003840180549190931691161790556080820151600482015560a082015160058201805460ff191660018381811115610c6a57fe5b021790555060c0820151600682015560e082015160078201805460ff191660018381811115610c9557fe5b0217905550610100828101516007909201805461012090940151151560a860020a0275ff00000000000000000000000000000000000000000019600160a060020a0394851690930274ffffffffffffffffffffffffffffffffffffffff00199095169490941791909116929092179091556040805191891660208301528101879052899033907f397627c8e8e4324a0f8a98a8274c00e4cee798d000625304ffbae6144ec64e54908b908b908b908b908b908060608101846001811115610d5857fe5b60ff168152602001838152602001828103825287818151815260200191508051906020019080838360005b83811015610d9b578181015183820152602001610d83565b50505050905090810190601f168015610dc85780820380516001836020036101000a031916815260200191505b50965050505050505060405180910390a3505050505050505050565b60075460ff161580610e005750600054600160a060020a031633145b1515610e44576040805160e560020a62461bcd02815260206004820152600c6024820152600080516020613743833981519152604482015290519081900360640190fd5b610e4f8282336108ec565b5050565b60075460009060ff161580610e725750600054600160a060020a031633145b1515610eb6576040805160e560020a62461bcd02815260206004820152600c6024820152600080516020613743833981519152604482015290519081900360640190fd5b610ebf82612ebf565b5050600081815260056020526040902060078101546101009004600160a060020a03163314610f38576040805160e560020a62461bcd02815260206004820152601260248201527f6572726f725f6e6f745065726d69747465640000000000000000000000000000604482015290519081900360640190fd5b6002810154604051600160a060020a0390911690839033907eaf27297c740fbece798135b71b06164310e0591b6c729e50b8026dcc60be5090600090a4600281018054600160a060020a03191633179055600701805474ffffffffffffffffffffffffffffffffffffffff001916905550565b60075460ff161580610fc75750600054600160a060020a031633145b151561100b576040805160e560020a62461bcd02815260206004820152600c6024820152600080516020613743833981519152604482015290519081900360640190fd5b826000611017826112d0565b505050505091505080600160a060020a0316600014151515611071576040805160e560020a62461bcd02815260206004820152600e6024820152600080516020613763833981519152604482015290519081900360640190fd5b600160a060020a0381163314806110925750600054600160a060020a031633145b15156110d6576040805160e560020a62461bcd0281526020600482015260176024820152600080516020613723833981519152604482015290519081900360640190fd5b6110e385858560006129ba565b5050505050565b60008260006110f8826112d0565b505050505091505080600160a060020a0316600014151515611152576040805160e560020a62461bcd02815260206004820152600e6024820152600080516020613763833981519152604482015290519081900360640190fd5b600160a060020a0381163314806111735750600054600160a060020a031633145b15156111b7576040805160e560020a62461bcd0281526020600482015260176024820152600080516020613723833981519152604482015290519081900360640190fd5b6111c085612ebf565b50600085815260056020526040902080549093501515611218576040805160e560020a62461bcd02815260206004820152600e6024820152600080516020613763833981519152604482015290519081900360640190fd5b600783015460a860020a900460ff16151561127d576040805160e560020a62461bcd02815260206004820152601960248201527f6572726f725f77686974656c6973744e6f74456e61626c656400000000000000604482015290519081900360640190fd5b600160a060020a0384166000818152600985016020526040808220805460ff191660021790555187917f391da9ecb91abda3886c59d98ecdb8fa7154c525b5c6a575ef67cef1f5a8d85491a35050505050565b60606000806000806000806112e488613201565b959c50939a509198509650945092509050600160a060020a038616156113095761140f565b600480546040805160e060020a633a20e9df0281529283018b905251600160a060020a0390911691633a20e9df91602480830192600092919082900301818387803b15801561135757600080fd5b505af115801561136b573d6000803e3d6000fd5b505050506040513d6000823e601f3d908101601f1916820160405260e081101561139457600080fd5b8101908080516401000000008111156113ac57600080fd5b820160208101848111156113bf57600080fd5b81516401000000008111828201871017156113d957600080fd5b5050602082015160408301516060840151608085015160a086015160c090960151949e50929c50909a5098509650909450925050505b919395979092949650565b6000866000611428826112d0565b505050505091505080600160a060020a0316600014151515611482576040805160e560020a62461bcd02815260206004820152600e6024820152600080516020613763833981519152604482015290519081900360640190fd5b600160a060020a0381163314806114a35750600054600160a060020a031633145b15156114e7576040805160e560020a62461bcd0281526020600482015260176024820152600080516020613723833981519152604482015290519081900360640190fd5b6000861161153f576040805160e560020a62461bcd02815260206004820152601e60248201527f6572726f725f6672656550726f64756374734e6f74537570706f727465640000604482015290519081900360640190fd5b61154889612ebf565b5060008981526005602090815260409091208951909450611571916001860191908b0190613675565b50600383018054600160a060020a031916600160a060020a0389161790556004830186905560058301805486919060ff1916600183818111156115b057fe5b0217905550600683018490558254600284015460408051600160a060020a038b811660208301529181018a90529116907f21953ef62f6c172d864b9ae2181d3c7114ef506c3546057e354cf6b5bab03ec4908b908b908b908b908b908060608101846001811115610d5857fe5b600082600061162b826112d0565b505050505091505080600160a060020a0316600014151515611685576040805160e560020a62461bcd02815260206004820152600e6024820152600080516020613763833981519152604482015290519081900360640190fd5b600160a060020a0381163314806116a65750600054600160a060020a031633145b15156116ea576040805160e560020a62461bcd0281526020600482015260176024820152600080516020613723833981519152604482015290519081900360640190fd5b6116f385612ebf565b5060008581526005602052604090208054909350151561174b576040805160e560020a62461bcd02815260206004820152600e6024820152600080516020613763833981519152604482015290519081900360640190fd5b600783015460a860020a900460ff1615156117b0576040805160e560020a62461bcd02815260206004820152601960248201527f6572726f725f77686974656c6973744e6f74456e61626c656400000000000000604482015290519081900360640190fd5b600160a060020a0384166000818152600985016020526040808220805460ff191660031790555187917f71195ce6244a4b5ea0742ce64ede6bac9a2111edb4e732886198ff6ecf58651c91a35050505050565b600154600160a060020a03163314611865576040805160e560020a62461bcd02815260206004820152601060248201527f6f6e6c7950656e64696e674f776e657200000000000000000000000000000000604482015290519081900360640190fd5b60015460008054604051600160a060020a0393841693909116917f8be0079c531659141344cd1fd0a4f28419497f9722a3daafe3b4186f6b6457e091a36001805460008054600160a060020a0319908116600160a060020a03841617909155169055565b6000806118d68333611c7f565b91509150915091565b60008060006118ed856112d0565b505050505092505081600160a060020a0316600014151515611947576040805160e560020a62461bcd02815260206004820152600e6024820152600080516020613763833981519152604482015290519081900360640190fd5b5050506000918252600560209081526040808420600160a060020a039390931684526009909201905290205460ff1690565b6000816000611987826112d0565b505050505091505080600160a060020a03166000141515156119e1576040805160e560020a62461bcd02815260206004820152600e6024820152600080516020613763833981519152604482015290519081900360640190fd5b600160a060020a038116331480611a025750600054600160a060020a031633145b1515611a46576040805160e560020a62461bcd0281526020600482015260176024820152600080516020613723833981519152604482015290519081900360640190fd5b611a4f84612ebf565b5060008481526005602052604081209350600784015460ff166001811115611a7357fe5b14611ac8576040805160e560020a62461bcd02815260206004820152601760248201527f6572726f725f6d75737442654e6f744465706c6f796564000000000000000000604482015290519081900360640190fd5b60078301805460ff191660019081179091556002840154600385015460048601546005870154600688015460408051600160a060020a03958616602082018190529181018590528b9795909616957f07ace6911e28d0d5b2e773ce49cdfa29db157b38bffccd5f0b56f02cfba8a64f95808c01959294929360ff909316929190819060608201908590811115611b5a57fe5b60ff1681526020810184905260408382038101835288546002600182161561010002600019019091160490820181905260609091019088908015611bdf5780601f10611bb457610100808354040283529160200191611bdf565b820191906000526020600020905b815481529060010190602001808311611bc257829003601f168201915b5050965050505050505060405180910390a350505050565b600054600160a060020a03163314611c47576040805160e560020a62461bcd0281526020600482015260096024820152600080516020613783833981519152604482015290519081900360640190fd5b6007805460ff191660011790556040517f1ee9080f6b55ca44ce58681c8162e6c1ac1c47e1da791a4a1c1ec6186d8af1f390600090a1565b6000806000806000611c9087613201565b505050505093505082600160a060020a031660001415611d505760048054604080517f5f28cb740000000000000000000000000000000000000000000000000000000081529283018a9052600160a060020a0389811660248501528151921692635f28cb7492604480830193928290030181600087803b158015611d1357600080fd5b505af1158015611d27573d6000803e3d6000fd5b505050506040513d6040811015611d3d57600080fd5b5080516020909101519095509350611ecb565b611d5a8787613300565b805490935015159050611eba57600480546040805160e060020a633a20e9df0281529283018a905251600160a060020a0390911691633a20e9df91602480830192600092919082900301818387803b158015611db557600080fd5b505af1158015611dc9573d6000803e3d6000fd5b505050506040513d6000823e601f3d908101601f1916820160405260e0811015611df257600080fd5b810190808051640100000000811115611e0a57600080fd5b82016020810184811115611e1d57600080fd5b8151640100000000811182820187101715611e3757600080fd5b5050506020015192505050600160a060020a03811615611eba5760048054604080517f5f28cb740000000000000000000000000000000000000000000000000000000081529283018a9052600160a060020a0389811660248501528151921692635f28cb7492604480830193928290030181600087803b158015611d1357600080fd5b611ec38261337a565b825490955093505b5050509250929050565b6005602090815260009182526040918290208054600180830180548651600293821615610100026000190190911692909204601f810186900486028301860190965285825291949293909290830182828015611f725780601f10611f4757610100808354040283529160200191611f72565b820191906000526020600020905b815481529060010190602001808311611f5557829003601f168201915b505050600284015460038501546004860154600587015460068801546007909801549697600160a060020a0394851697938516965091945060ff908116939192808216926101008204169160a860020a909104168a565b600254600160a060020a031681565b600354600160a060020a031681565b600054600160a060020a031681565b6000816000612004826112d0565b505050505091505080600160a060020a031660001415151561205e576040805160e560020a62461bcd02815260206004820152600e6024820152600080516020613763833981519152604482015290519081900360640190fd5b600160a060020a03811633148061207f5750600054600160a060020a031633145b15156120c3576040805160e560020a62461bcd0281526020600482015260176024820152600080516020613723833981519152604482015290519081900360640190fd5b6120cc84612ebf565b50600084815260056020526040902092506001600784015460ff1660018111156120f257fe5b14612147576040805160e560020a62461bcd02815260206004820152601160248201527f6572726f725f6e6f744465706c6f796564000000000000000000000000000000604482015290519081900360640190fd5b60078301805460ff191690556002830154600384015460048501546005860154600687015460408051600160a060020a03958616602082018190529181018590528a9695909516947ffc64345d61f75f77f5039b0e23107d4abd73ecb7cd6c94fd44e8a6dd85918f6a946001808c01959394919360ff169290819060608201908590811115611b5a57fe5b8160006121de826112d0565b505050505091505080600160a060020a0316600014151515612238576040805160e560020a62461bcd02815260206004820152600e6024820152600080516020613763833981519152604482015290519081900360640190fd5b600160a060020a0381163314806122595750600054600160a060020a031633145b151561229d576040805160e560020a62461bcd0281526020600482015260176024820152600080516020613723833981519152604482015290519081900360640190fd5b6122a684612ebf565b5060008481526005602052604080822060078101805474ffffffffffffffffffffffffffffffffffffffff001916610100600160a060020a0389811691820292909217909255600290920154925190938893909216917f62160e4abadfc3a6afc583d10586d737c813753fe64d93f4283282b2b600a34491a450505050565b600054600160a060020a03163314612375576040805160e560020a62461bcd0281526020600482015260096024820152600080516020613783833981519152604482015290519081900360640190fd5b610959838383613381565b600061238c8383611c7f565b509392505050565b60008060006123a2846112d0565b505050505092505081600160a060020a03166000141515156123fc576040805160e560020a62461bcd02815260206004820152600e6024820152600080516020613763833981519152604482015290519081900360640190fd5b50505060009081526005602052604090206007015460a860020a900460ff1690565b60075460ff1681565b60008082600181111561243657fe5b14156124535761244c838563ffffffff6133be16565b9050612493565b61249084612484670de0b6b3a7640000612478600654886133be90919063ffffffff16565b9063ffffffff6133f716565b9063ffffffff6133be16565b90505b9392505050565b60075460ff1615806124b65750600054600160a060020a031633145b15156124fa576040805160e560020a62461bcd02815260206004820152600c6024820152600080516020613743833981519152604482015290519081900360640190fd5b61250a86868686868660006109e3565b505050505050565b60065481565b600354600160a060020a0316331461257a576040805160e560020a62461bcd02815260206004820152601260248201527f6572726f725f6e6f745065726d69747465640000000000000000000000000000604482015290519081900360640190fd5b6000811161258757600080fd5b6006819055604080518381526020810183905281517fc84d758f9836fe65b8f2be13d5e364b9373411e1158b63c1c5abbbae78949609929181900390910190a15050565b60008260006125d9826112d0565b505050505091505080600160a060020a0316600014151515612633576040805160e560020a62461bcd02815260206004820152600e6024820152600080516020613763833981519152604482015290519081900360640190fd5b600160a060020a0381163314806126545750600054600160a060020a031633145b1515612698576040805160e560020a62461bcd0281526020600482015260176024820152600080516020613723833981519152604482015290519081900360640190fd5b6126a185612ebf565b506000858152600560205260409020805490935015156126f9576040805160e560020a62461bcd02815260206004820152600e6024820152600080516020613763833981519152604482015290519081900360640190fd5b6007830180548515801560a860020a0275ff000000000000000000000000000000000000000000199092169190911790915561275f5760405185907f507847149b655f0d87f5cadd67619cd1c0a53b2cbb153d2f08f83614b4c29b7890600090a26110e3565b60405185907fd8eb01debfba6841d33231e9b6df615367d622af29059b91eeb39b62f81f79ca90600090a25050505050565b600061279c82612ebf565b50506000818152600560205260409020805415156127f2576040805160e560020a62461bcd02815260206004820152600e6024820152600080516020613763833981519152604482015290519081900360640190fd5b600781015460a860020a900460ff161515612857576040805160e560020a62461bcd02815260206004820152601960248201527f6572726f725f77686974656c6973744e6f74456e61626c656400000000000000604482015290519081900360640190fd5b33600090815260098201602052604081205460ff16600381111561287757fe5b146128f2576040805160e560020a62461bcd02815260206004820152602660248201527f6572726f725f77686974656c69737452657175657374416c726561647953756260448201527f6d69747465640000000000000000000000000000000000000000000000000000606482015290519081900360840190fd5b336000818152600983016020526040808220805460ff191660011790555184917fd07377dfece33da04bb307fc530a0eb06929f31a09309c84ae38079aad7b16a891a35050565b600154600160a060020a031681565b600054600160a060020a03163314612998576040805160e560020a62461bcd0281526020600482015260096024820152600080516020613783833981519152604482015290519081900360640190fd5b60018054600160a060020a031916600160a060020a0392909216919091179055565b60008060006129c76136f3565b60008060006129d68b8a61341a565b506129e18b8a613300565b90975095506001600788015460ff1660018111156129fb57fe5b14612a50576040805160e560020a62461bcd02815260206004820152601160248201527f6572726f725f6e6f744465706c6f796564000000000000000000000000000000604482015290519081900360640190fd5b600787015460a860020a900460ff161580612a9357506002600160a060020a038a16600090815260098901602052604090205460ff166003811115612a9157fe5b145b1515612ae9576040805160e560020a62461bcd02815260206004820152601960248201527f6572726f725f77686974656c6973744e6f74416c6c6f77656400000000000000604482015290519081900360640190fd5b8554421015612ba75760008a11612b4a576040805160e560020a62461bcd02815260206004820152601360248201527f6572726f725f746f705570546f6f536d616c6c00000000000000000000000000604482015290519081900360640190fd5b8554612b5c908b63ffffffff61366316565b8087558754604080518381529051929750600160a060020a038c16927f602ca7f17c81aa5e62b3381000dd445f5af7c333574da85f4b246288afc073229181900360200190a3612c7b565b60068701548a1015612c03576040805160e560020a62461bcd02815260206004820152601d60248201527f6572726f725f6e6577537562736372697074696f6e546f6f536d616c6c000000604482015290519081900360640190fd5b612c13428b63ffffffff61366316565b6040805160208181018352838252600160a060020a038d16600081815260088d018352849020835190558b5484518681529451959a509298509391927f9c3ab7e86c11d820cc311335294ebdf7299d8637d47253b930c4120b775d7cca929081900390910190a35b8654604080518781529051600160a060020a038c1692917fe22e8c2d8a284063fec10f270bc3c776ffb40bcf816b73eef36354d5f3d7b3d4919081900360200190a3600092508715612ddd5760048701546005880154612cdf918c9160ff16612427565b6002546003890154604080517f23b872dd000000000000000000000000000000000000000000000000000000008152336004820152600160a060020a0392831660248201526044810185905290519396509116916323b872dd916064808201926020929091908290030181600087803b158015612d5b57600080fd5b505af1158015612d6f573d6000803e3d6000fd5b505050506040513d6020811015612d8557600080fd5b50511515612ddd576040805160e560020a62461bcd02815260206004820152601360248201527f6572726f725f7061796d656e744661696c656400000000000000000000000000604482015290519081900360640190fd5b50506003850154600160a060020a0316803b906000821115612eb25760038701548654604080517f91517bdd000000000000000000000000000000000000000000000000000000008152600481018f9052600160a060020a038d81166024830152604482019390935260648101879052905191909216916391517bdd9160848083019260209291908290030181600087803b158015612e7b57600080fd5b505af1158015612e8f573d6000803e3d6000fd5b505050506040513d6020811015612ea557600080fd5b50511515612eb257600080fd5b5050505050505050505050565b6000818152600560205260408120805460609083908190819081908190819015612eec57600098506131f4565b600480546040805160e060020a633a20e9df0281529283018d905251600160a060020a0390911691633a20e9df91602480830192600092919082900301818387803b158015612f3a57600080fd5b505af1158015612f4e573d6000803e3d6000fd5b505050506040513d6000823e601f3d908101601f1916820160405260e0811015612f7757600080fd5b810190808051640100000000811115612f8f57600080fd5b82016020810184811115612fa257600080fd5b8151640100000000811182820187101715612fbc57600080fd5b5050602082015160408301516060840151608085015160a086015160c090960151949e50929c50909a509850965090945092505050600160a060020a038616151561300a57600098506131f4565b89885586516130229060018a019060208a0190613675565b50600288018054600160a060020a03808916600160a060020a03199283161790925560038a018054928816929091169190911790556004880184905560058801805484919060ff19166001838181111561307857fe5b02179055506006880182905560078801805482919060ff19166001838181111561309e57fe5b02179055508760000154600019168860020160009054906101000a9004600160a060020a0316600160a060020a03167fd608cf60e5a08e9db0f10b63c150bb7cdc66ee6286eb04ec5ba01d178e9010d68a6001018b60030160009054906101000a9004600160a060020a03168c600401548d60050160009054906101000a900460ff168e60060154604051808060200186600160a060020a0316600160a060020a0316815260200185815260200184600181111561315857fe5b60ff16815260208101849052604083820381018352885460026001821615610100026000190190911604908201819052606090910190889080156131dd5780601f106131b2576101008083540402835291602001916131dd565b820191906000526020600020905b8154815290600101906020018083116131c057829003601f168201915b5050965050505050505060405180910390a3600198505b5050505050505050919050565b6000818152600560208181526040808420600280820154600383015460048401549684015460068501546007860154600196870180548951601f998216156101000260001901909116979097049788018a90048a0287018a0190985286865260609a998a998a998a998a998a999298600160a060020a0393841698931696949560ff9384169594931692909189918301828280156132e05780601f106132b5576101008083540402835291602001916132e0565b820191906000526020600020905b8154815290600101906020018083116132c357829003601f168201915b505050505096509650965096509650965096509650919395979092949650565b600082815260056020526040812080549091901515613357576040805160e560020a62461bcd02815260206004820152600e6024820152600080516020613763833981519152604482015290519081900360640190fd5b50600160a060020a03909116600090815260088201602052604090209092909150565b5442111590565b60038054600160a060020a0319908116600160a060020a039485161790915560028054821694841694909417909355600480549093169116179055565b6000808315156133d157600091506133f0565b508282028284828115156133e157fe5b04146133ec57600080fd5b8091505b5092915050565b60008080831161340657600080fd5b828481151561341157fe5b04949350505050565b60008060008060008061342c88612ebf565b94506134388888613300565b805491955093501561344d5760009550613658565b84151561354857600480546040805160e060020a633a20e9df0281529283018b905251600160a060020a0390911691633a20e9df91602480830192600092919082900301818387803b1580156134a257600080fd5b505af11580156134b6573d6000803e3d6000fd5b505050506040513d6000823e601f3d908101601f1916820160405260e08110156134df57600080fd5b8101908080516401000000008111156134f757600080fd5b8201602081018481111561350a57600080fd5b815164010000000081118282018710171561352457600080fd5b5050506020015193505050600160a060020a03821615156135485760009550613658565b60048054604080517f5f28cb740000000000000000000000000000000000000000000000000000000081529283018b9052600160a060020a038a811660248501528151921692635f28cb7492604480830193928290030181600087803b1580156135b157600080fd5b505af11580156135c5573d6000803e3d6000fd5b505050506040513d60408110156135db57600080fd5b506020015190508015156135f25760009550613658565b6040805160208181018352838252600160a060020a038a16600081815260088901835284902092519092558251848152925191928b927f9a2546e503275a77e7c86606d6512431c9046ffc6d3e53678e2693b201275714929181900390910190a3600195505b505050505092915050565b6000828201838110156133ec57600080fd5b828054600181600116156101000203166002900490600052602060002090601f016020900481019282601f106136b657805160ff19168380011785556136e3565b828001600101855582156136e3579182015b828111156136e35782518255916020019190600101906136c8565b506136ef929150613705565b5090565b60408051602081019091526000815290565b61371f91905b808211156136ef576000815560010161370b565b9056006572726f725f70726f647563744f776e6572734f6e6c790000000000000000006572726f725f68616c74656400000000000000000000000000000000000000006572726f725f6e6f74466f756e640000000000000000000000000000000000006f6e6c794f776e65720000000000000000000000000000000000000000000000a165627a7a723058205cda3ed54f2bbf7ece11bd5e0fda0c1911862e089edd5ebea82fd3a0a9603e640029",
  "source": "// solhint-disable not-rely-on-time\npragma solidity 0.4.25;\n\nimport \"openzeppelin-solidity/contracts/token/ERC20/ERC20.sol\";\nimport \"openzeppelin-solidity/contracts/math/SafeMath.sol\";\n\nimport \"./PurchaseListener.sol\";\nimport \"./Ownable.sol\";\n\n\ncontract IMarketplace {\n    enum ProductState {\n        NotDeployed,                // non-existent or deleted\n        Deployed                    // created or redeployed\n    }\n\n    enum Currency {\n        DATA,                       // \"token wei\" (10^-18 DATA)\n        USD                         // attodollars (10^-18 USD)\n    }\n\n    enum WhitelistState{\n        None,\n        Pending,\n        Approved,\n        Rejected\n    }\n    \n    function getProduct(bytes32 id) public view returns (string name, address owner, address beneficiary, uint pricePerSecond, Currency currency, uint minimumSubscriptionSeconds, ProductState state) {}\n    function getSubscription(bytes32 productId, address subscriber) public view returns (bool isValid, uint endTimestamp) {}\n    function getPriceInData(uint subscriptionSeconds, uint price, Currency unit) public view returns (uint datacoinAmount) {}\n    function buyFor(bytes32 productId, uint subscriptionSeconds, address recipient) public {}\n\n}\n\n/**\n * @title Streamr Marketplace\n * @dev note about numbers:\n *   All prices and exchange rates are in \"decimal fixed-point\", that is, scaled by 10^18, like ETH vs wei.\n *  Seconds are integers as usual.\n *\n * Next version TODO:\n *  - EIP-165 inferface definition; PurchaseListener\n */\ncontract Marketplace is Ownable, IMarketplace {\n    using SafeMath for uint256;\n\n    // product events\n    event ProductCreated(address indexed owner, bytes32 indexed id, string name, address beneficiary, uint pricePerSecond, Currency currency, uint minimumSubscriptionSeconds);\n    event ProductUpdated(address indexed owner, bytes32 indexed id, string name, address beneficiary, uint pricePerSecond, Currency currency, uint minimumSubscriptionSeconds);\n    event ProductDeleted(address indexed owner, bytes32 indexed id, string name, address beneficiary, uint pricePerSecond, Currency currency, uint minimumSubscriptionSeconds);\n    event ProductImported(address indexed owner, bytes32 indexed id, string name, address beneficiary, uint pricePerSecond, Currency currency, uint minimumSubscriptionSeconds);\n    event ProductRedeployed(address indexed owner, bytes32 indexed id, string name, address beneficiary, uint pricePerSecond, Currency currency, uint minimumSubscriptionSeconds);\n    event ProductOwnershipOffered(address indexed owner, bytes32 indexed id, address indexed to);\n    event ProductOwnershipChanged(address indexed newOwner, bytes32 indexed id, address indexed oldOwner);\n\n    // subscription events\n    event Subscribed(bytes32 indexed productId, address indexed subscriber, uint endTimestamp);\n    event NewSubscription(bytes32 indexed productId, address indexed subscriber, uint endTimestamp);\n    event SubscriptionExtended(bytes32 indexed productId, address indexed subscriber, uint endTimestamp);\n    event SubscriptionImported(bytes32 indexed productId, address indexed subscriber, uint endTimestamp);\n    event SubscriptionTransferred(bytes32 indexed productId, address indexed from, address indexed to, uint secondsTransferred);\n\n    // currency events\n    event ExchangeRatesUpdated(uint timestamp, uint dataInUsd);\n\n    // whitelist events\n    event WhitelistRequested(bytes32 indexed productId, address indexed subscriber);\n    event WhitelistApproved(bytes32 indexed productId, address indexed subscriber);\n    event WhitelistRejected(bytes32 indexed productId, address indexed subscriber);\n    event WhitelistEnabled(bytes32 indexed productId);\n    event WhitelistDisabled(bytes32 indexed productId);\n    \n    \n\n    struct Product {\n        bytes32 id;\n        string name;\n        address owner;\n        address beneficiary;        // account where revenue is directed to\n        uint pricePerSecond;\n        Currency priceCurrency;\n        uint minimumSubscriptionSeconds;\n        ProductState state;\n        address newOwnerCandidate;  // Two phase hand-over to minimize the chance that the product ownership is lost to a non-existent address.\n        bool requiresWhitelist;\n        mapping(address => TimeBasedSubscription) subscriptions;\n        mapping(address => WhitelistState) whitelist;\n    }\n\n    struct TimeBasedSubscription {\n        uint endTimestamp;\n    }\n\n    /////////////// Marketplace lifecycle /////////////////\n\n    ERC20 public datacoin;\n\n    address public currencyUpdateAgent;\n    IMarketplace prev_marketplace;\n\n    constructor(address datacoinAddress, address currencyUpdateAgentAddress, address prev_marketplace_address) Ownable() public {\n        _initialize(datacoinAddress, currencyUpdateAgentAddress, prev_marketplace_address);\n    }\n\n    function _initialize(address datacoinAddress, address currencyUpdateAgentAddress, address prev_marketplace_address) internal {\n        currencyUpdateAgent = currencyUpdateAgentAddress;\n        datacoin = ERC20(datacoinAddress);\n        prev_marketplace = IMarketplace(prev_marketplace_address);\n    }\n\n    ////////////////// Product management /////////////////\n\n    mapping (bytes32 => Product) public products;\n    /*\n        checks this marketplace first, then the previous\n    */\n    function getProduct(bytes32 id) public view returns (string name, address owner, address beneficiary, uint pricePerSecond, Currency currency, uint minimumSubscriptionSeconds, ProductState state) {\n        (name, owner, beneficiary, pricePerSecond, currency, minimumSubscriptionSeconds, state) = _getProductLocal(id);\n        if (owner != 0x0)\n            return (name, owner, beneficiary, pricePerSecond, currency, minimumSubscriptionSeconds, state);\n        return prev_marketplace.getProduct(id);\n    }\n\n    /**\n    checks only this marketplace, not the previous marketplace\n     */\n\n    function _getProductLocal(bytes32 id) internal view returns (string name, address owner, address beneficiary, uint pricePerSecond, Currency currency, uint minimumSubscriptionSeconds, ProductState state) {\n\n        return (\n            products[id].name,\n            products[id].owner,\n            products[id].beneficiary,\n            products[id].pricePerSecond,\n            products[id].priceCurrency,\n            products[id].minimumSubscriptionSeconds,\n            products[id].state\n        );\n    }\n\n    // also checks that p exists: p.owner == 0 for non-existent products\n    modifier onlyProductOwner(bytes32 productId) {\n        (,address _owner,,,,,) = getProduct(productId);\n        require(_owner != 0x0, \"error_notFound\");\n        require(_owner == msg.sender || owner == msg.sender, \"error_productOwnersOnly\");\n        _;\n    }\n\n    /**\n     * Imports product details (but NOT subscription details) from previous marketplace\n     */\n    function _importProductIfNeeded(bytes32 productId) internal returns (bool imported){\n        Product storage p = products[productId];\n        if(p.id != 0x0)\n            return false;\n        (string memory _name, address _owner, address _beneficiary, uint _pricePerSecond, IMarketplace.Currency _priceCurrency, uint _minimumSubscriptionSeconds, IMarketplace.ProductState _state) = prev_marketplace.getProduct(productId);\n        if(_owner == 0x0)\n            return false;\n        p.id = productId;\n        p.name = _name;\n        p.owner = _owner;\n        p.beneficiary = _beneficiary;\n        p.pricePerSecond = _pricePerSecond;\n        p.priceCurrency = _priceCurrency;\n        p.minimumSubscriptionSeconds = _minimumSubscriptionSeconds;\n        p.state = _state;\n        emit ProductImported(p.owner, p.id, p.name, p.beneficiary, p.pricePerSecond, p.priceCurrency, p.minimumSubscriptionSeconds);\n        return true;\n    }\n\n    function _importSubscriptionIfNeeded(bytes32 productId, address subscriber) internal returns (bool imported) {\n        bool _productImported = _importProductIfNeeded(productId);\n\n        // check that subscription didn't already exist in current marketplace\n        (Product storage product, TimeBasedSubscription storage sub) = _getSubscriptionLocal(productId, subscriber);\n        if (sub.endTimestamp != 0x0) { return false; }\n\n        // check that subscription exists in the previous marketplace(s)\n        // only call prev_marketplace.getSubscription() if product exists there\n        // consider e.g. product created in current marketplace but subscription still doesn't exist\n        // if _productImported, it must have existed in previous marketplace so no need to perform check\n        if(!_productImported){\n            (,address _owner_prev,,,,,) = prev_marketplace.getProduct(productId);\n            if (_owner_prev == 0x0) { return false; }\n        }\n        (, uint _endTimestamp) = prev_marketplace.getSubscription(productId, subscriber);\n        if (_endTimestamp == 0x0) { return false; }\n        product.subscriptions[subscriber] = TimeBasedSubscription(_endTimestamp);\n        emit SubscriptionImported(productId, subscriber, _endTimestamp);\n        return true;\n    }\n\n    /*\n    createProductWhitelist is createProduct with extra whitelist arg. truffle test doesn't like 2 functions named createProduct,\n    although 2 functions with differing numbers of args is valid Solidity \n    */\n    function createProductWhitelist(bytes32 id, string name, address beneficiary, uint pricePerSecond, Currency currency, uint minimumSubscriptionSeconds, bool requiresWhitelist) public whenNotHalted {\n        require(id != 0x0, \"error_nullProductId\");\n        require(pricePerSecond > 0, \"error_freeProductsNotSupported\");\n        (,address _owner,,,,,) = getProduct(id);\n        require(_owner == 0x0, \"error_alreadyExists\");\n        Product storage p = products[id];\n        products[id] = Product({id: id, name: name, owner: msg.sender, beneficiary: beneficiary, pricePerSecond: pricePerSecond, \n            priceCurrency: currency, minimumSubscriptionSeconds: minimumSubscriptionSeconds, state: ProductState.Deployed, newOwnerCandidate: 0, requiresWhitelist: requiresWhitelist});\n        emit ProductCreated(msg.sender, id, name, beneficiary, pricePerSecond, currency, minimumSubscriptionSeconds);\n    }\n    \n    function createProduct(bytes32 id, string name, address beneficiary, uint pricePerSecond, Currency currency, uint minimumSubscriptionSeconds) public whenNotHalted {\n        createProductWhitelist(id, name, beneficiary, pricePerSecond, currency, minimumSubscriptionSeconds,false);\n    }   \n    \n\n    /**\n    * Stop offering the product\n    */\n    function deleteProduct(bytes32 productId) public onlyProductOwner(productId) {\n        _importProductIfNeeded(productId);\n        Product storage p = products[productId];\n        require(p.state == ProductState.Deployed, \"error_notDeployed\");\n        p.state = ProductState.NotDeployed;\n        emit ProductDeleted(p.owner, productId, p.name, p.beneficiary, p.pricePerSecond, p.priceCurrency, p.minimumSubscriptionSeconds);\n    }\n\n    /**\n    * Return product to market\n    */\n    function redeployProduct(bytes32 productId) public onlyProductOwner(productId) {\n        _importProductIfNeeded(productId);\n        Product storage p = products[productId];\n        require(p.state == ProductState.NotDeployed, \"error_mustBeNotDeployed\");\n        p.state = ProductState.Deployed;\n        emit ProductRedeployed(p.owner, productId, p.name, p.beneficiary, p.pricePerSecond, p.priceCurrency, p.minimumSubscriptionSeconds);\n    }\n\n    function updateProduct(bytes32 productId, string name, address beneficiary, uint pricePerSecond, Currency currency, uint minimumSubscriptionSeconds) public onlyProductOwner(productId) {\n        require(pricePerSecond > 0, \"error_freeProductsNotSupported\");\n        _importProductIfNeeded(productId);\n        Product storage p = products[productId];\n        p.name = name;\n        p.beneficiary = beneficiary;\n        p.pricePerSecond = pricePerSecond;\n        p.priceCurrency = currency;\n        p.minimumSubscriptionSeconds = minimumSubscriptionSeconds;\n        emit ProductUpdated(p.owner, p.id, name, beneficiary, pricePerSecond, currency, minimumSubscriptionSeconds);\n    }\n\n    /**\n    * Changes ownership of the product. Two phase hand-over minimizes the chance that the product ownership is lost to a non-existent address.\n    */\n    function offerProductOwnership(bytes32 productId, address newOwnerCandidate) public onlyProductOwner(productId) {\n        _importProductIfNeeded(productId);\n        // that productId exists is already checked in onlyProductOwner\n        products[productId].newOwnerCandidate = newOwnerCandidate;\n        emit ProductOwnershipOffered(products[productId].owner, productId, newOwnerCandidate);\n    }\n\n    /**\n    * Changes ownership of the product. Two phase hand-over minimizes the chance that the product ownership is lost to a non-existent address.\n    */\n    function claimProductOwnership(bytes32 productId) public whenNotHalted {\n        _importProductIfNeeded(productId);\n        // also checks that productId exists (newOwnerCandidate is zero for non-existent)\n        Product storage p = products[productId];\n        require(msg.sender == p.newOwnerCandidate, \"error_notPermitted\");\n        emit ProductOwnershipChanged(msg.sender, productId, p.owner);\n        p.owner = msg.sender;\n        p.newOwnerCandidate = 0;\n    }\n\n    /////////////// Subscription management ///////////////\n\n    function getSubscription(bytes32 productId, address subscriber) public view returns (bool isValid, uint endTimestamp) {\n        (,address _owner,,,,,) = _getProductLocal(productId);\n        if(_owner == 0x0){ return prev_marketplace.getSubscription(productId,subscriber);}\n        (, TimeBasedSubscription storage sub) = _getSubscriptionLocal(productId, subscriber);\n        if(sub.endTimestamp == 0x0){\n            // only call prev_marketplace.getSubscription() if product exists in previous marketplace too\n            (,address _owner_prev,,,,,) = prev_marketplace.getProduct(productId);\n            if(_owner_prev != 0x0)\n                return prev_marketplace.getSubscription(productId,subscriber);\n        }\n        return (_isValid(sub), sub.endTimestamp);\n    }\n\n    function getSubscriptionTo(bytes32 productId) public view returns (bool isValid, uint endTimestamp) {\n        return getSubscription(productId, msg.sender);\n    }\n\n    /**\n     * Checks if the given address currently has a valid subscription\n     */\n    function hasValidSubscription(bytes32 productId, address subscriber) public view returns (bool isValid) {\n        (isValid,) = getSubscription(productId, subscriber);\n    }\n    /**\n    _subscribe invokes _addSubscription, enforces payment rules, triggers PurchaseListener event\n     */\n\n    function _subscribe(bytes32 productId, uint addSeconds, address subscriber, bool requirePayment) internal {\n        _importSubscriptionIfNeeded(productId, subscriber);\n        (Product storage p, TimeBasedSubscription storage oldSub) = _getSubscriptionLocal(productId, subscriber);\n        require(p.state == ProductState.Deployed, \"error_notDeployed\");\n        require(!p.requiresWhitelist || p.whitelist[subscriber] == WhitelistState.Approved, \"error_whitelistNotAllowed\");\n        uint endTimestamp;\n        if (oldSub.endTimestamp > block.timestamp) {\n            require(addSeconds > 0, \"error_topUpTooSmall\");\n            endTimestamp = oldSub.endTimestamp.add(addSeconds);\n            oldSub.endTimestamp = endTimestamp;\n            emit SubscriptionExtended(p.id, subscriber, endTimestamp);\n        } else {\n            require(addSeconds >= p.minimumSubscriptionSeconds, \"error_newSubscriptionTooSmall\");\n            endTimestamp = block.timestamp.add(addSeconds);\n            TimeBasedSubscription memory newSub = TimeBasedSubscription(endTimestamp);\n            p.subscriptions[subscriber] = newSub;\n            emit NewSubscription(p.id, subscriber, endTimestamp);\n        }\n        emit Subscribed(p.id, subscriber, endTimestamp);\n        uint price = 0;\n        if (requirePayment){\n            price = getPriceInData(addSeconds, p.pricePerSecond, p.priceCurrency);\n            require(datacoin.transferFrom(msg.sender, p.beneficiary, price), \"error_paymentFailed\");\n        }\n        uint256 codeSize;\n        address addr = p.beneficiary;\n        assembly { codeSize := extcodesize(addr) }  // solhint-disable-line no-inline-assembly\n        if (codeSize > 0) {\n            require(PurchaseListener(p.beneficiary).onPurchase(productId, subscriber, oldSub.endTimestamp, price));\n        }\n    }\n\n    function grantSubscription(bytes32 productId, uint subscriptionSeconds, address recipient) public whenNotHalted onlyProductOwner(productId){\n        return _subscribe(productId, subscriptionSeconds, recipient, false);\n    }\n\n\n    function buyFor(bytes32 productId, uint subscriptionSeconds, address recipient)  public whenNotHalted {\n        return _subscribe(productId, subscriptionSeconds, recipient, true);\n    }\n\n\n     /**\n     * Purchases access to this stream for msg.sender.\n     * If the address already has a valid subscription, extends the subscription by the given period.\n     * @dev since v4.0: Notify the seller if the seller implements PurchaseListener interface\n     */\n    function buy(bytes32 productId, uint subscriptionSeconds) public whenNotHalted {\n        buyFor(productId,subscriptionSeconds, msg.sender);\n    }\n\n\n    /**\n        gets subscriptions info from the subscriptions stored in this contract\n     */\n    function _getSubscriptionLocal(bytes32 productId, address subscriber) internal view returns (Product storage p, TimeBasedSubscription storage s) {\n        p = products[productId];\n        require(p.id != 0x0, \"error_notFound\");\n        s = p.subscriptions[subscriber];\n    }\n\n    function _isValid(TimeBasedSubscription storage s) internal view returns (bool) {\n        return s.endTimestamp >= block.timestamp;\n    }\n\n    // TODO: transfer allowance to another Marketplace contract\n    // Mechanism basically is that this Marketplace draws from the allowance and credits\n    //   the account on another Marketplace; OR that there is a central credit pool (say, an ERC20 token)\n    // Creating another ERC20 token for this could be a simple fix: it would need the ability to transfer allowances\n\n    /////////////// Currency management ///////////////\n\n    // Exchange rates are formatted as \"decimal fixed-point\", that is, scaled by 10^18, like ether.\n    //        Exponent: 10^18 15 12  9  6  3  0\n    //                      |  |  |  |  |  |  |\n    uint public dataPerUsd = 100000000000000000;   // ~= 0.1 DATA/USD\n\n    /**\n    * Update currency exchange rates; all purchases are still billed in DATAcoin\n    * @param timestamp in seconds when the exchange rates were last updated\n    * @param dataUsd how many data atoms (10^-18 DATA) equal one USD dollar\n    */\n    function updateExchangeRates(uint timestamp, uint dataUsd) public {\n        require(msg.sender == currencyUpdateAgent, \"error_notPermitted\");\n        require(dataUsd > 0);\n        dataPerUsd = dataUsd;\n        emit ExchangeRatesUpdated(timestamp, dataUsd);\n    }\n\n    /**\n    * Helper function to calculate (hypothetical) subscription cost for given seconds and price, using current exchange rates.\n    * @param subscriptionSeconds length of hypothetical subscription, as a non-scaled integer\n    * @param price nominal price scaled by 10^18 (\"token wei\" or \"attodollars\")\n    * @param unit unit of the number price\n    */\n    function getPriceInData(uint subscriptionSeconds, uint price, Currency unit) public view returns (uint datacoinAmount) {\n        if (unit == Currency.DATA) {\n            return price.mul(subscriptionSeconds);\n        }\n        return price.mul(dataPerUsd).div(10**18).mul(subscriptionSeconds);\n    }\n\n    /////////////// Admin functionality ///////////////\n\n    event Halted();\n    event Resumed();\n    bool public halted = false;\n\n    modifier whenNotHalted() {\n        require(!halted || owner == msg.sender, \"error_halted\");\n        _;\n    }\n    function halt() public onlyOwner {\n        halted = true;\n        emit Halted();\n    }\n    function resume() public onlyOwner {\n        halted = false;\n        emit Resumed();\n    }\n\n    function reInitialize(address datacoinAddress, address currencyUpdateAgentAddress, address prev_marketplace_address) public onlyOwner {\n        _initialize(datacoinAddress, currencyUpdateAgentAddress, prev_marketplace_address);\n    }\n\n    //whitelist functionality\n\n    //should the whitelist getter be built into getProduct()?\n    function getRequiresWhitelist(bytes32 productId) public view returns (bool) {\n        (,address _owner,,,,,) = getProduct(productId);\n        require(_owner != 0x0, \"error_notFound\");\n        //if it's not local this will return 0, which is false\n        Product storage p = products[productId];\n        return p.requiresWhitelist;\n    }\n\n    function setRequiresWhitelist(bytes32 productId, bool _requiresWhitelist) public onlyProductOwner(productId) {\n        _importProductIfNeeded(productId);\n        Product storage p = products[productId];\n        require(p.id != 0x0, \"error_notFound\");\n        p.requiresWhitelist = _requiresWhitelist;\n        if(_requiresWhitelist)\n            emit WhitelistEnabled(productId);\n        else\n            emit WhitelistDisabled(productId);\n    }\n\n    function whitelistApprove(bytes32 productId, address subscriber) public onlyProductOwner(productId) {\n        _importProductIfNeeded(productId);\n        Product storage p = products[productId];\n        require(p.id != 0x0, \"error_notFound\");\n        require(p.requiresWhitelist, \"error_whitelistNotEnabled\");\n        p.whitelist[subscriber] = WhitelistState.Approved;\n        emit WhitelistApproved(productId,subscriber);\n    }\n\n    function whitelistReject(bytes32 productId, address subscriber) public onlyProductOwner(productId) {\n        _importProductIfNeeded(productId);\n        Product storage p = products[productId];\n        require(p.id != 0x0, \"error_notFound\");\n        require(p.requiresWhitelist, \"error_whitelistNotEnabled\");\n        p.whitelist[subscriber] = WhitelistState.Rejected;\n        emit WhitelistRejected(productId,subscriber);\n    }\n\n    function whitelistRequest(bytes32 productId) public {\n        _importProductIfNeeded(productId);\n        Product storage p = products[productId];\n        require(p.id != 0x0, \"error_notFound\");\n        require(p.requiresWhitelist, \"error_whitelistNotEnabled\");\n        require(p.whitelist[msg.sender] == WhitelistState.None, \"error_whitelistRequestAlreadySubmitted\");\n        p.whitelist[msg.sender] = WhitelistState.Pending;\n        emit WhitelistRequested(productId,msg.sender);\n    }\n\n    function getWhitelistState(bytes32 productId, address subscriber) public view returns (WhitelistState wlstate) {\n        (,address _owner,,,,,) = getProduct(productId);\n        require(_owner != 0x0, \"error_notFound\");\n        //if it's not local this will return 0, which is WhitelistState.None\n        Product storage p = products[productId];\n        return p.whitelist[subscriber];\n    }\n    \n\n}",
  "sourcePath": "/home/fj/isentropy/streamr/marketplace-contracts/contracts/Marketplace.sol",
  "compiler": {
    "name": "solc",
    "version": "0.4.25+commit.59dbf8f1.Emscripten.clang"
  },
  "schemaVersion": "2.0.2",
  "updatedAt": "2019-03-15T22:59:09.378Z"
}